:020000021000EC
:108000000080002051180200991802009B180200FD
:108010000000000000000000000000000000000060
:108020000000000000000000000000009D18020099
:1080300000000000000000009F180200A1180200CC
:10804000A3180200A318020029B10100A31802001E
:10805000A318020000000000D1370200A31802009C
:10806000A3180200A3180200A3180200A31802001C
:10807000A3180200A3180200A3180200A31802000C
:10808000A3180200F5A70100A3180200A31802001C
:1080900041A80100A3180200515B0200A3180200CE
:1080A000A3180200A3180200000000000000000056
:1080B00000000000000000000000000000000000C0
:1080C00010B5064C2378002B07D1054B002B02D0AE
:1080D000044800E000BF0123237010BD9820002059
:1080E000000000008863020008B5084B002B03D095
:1080F0000748084900E000BF07480368002B00D18B
:1081000008BD064B002BFBD09847F9E700000000A4
:10811000886302009C2000209420002000000000C2
:10812000164B002B00D1144B9D46402292029A1A06
:10813000924600218B460F461348144A121A0DF03E
:1081400095FF0F4B002B00D098470E4B002B00D013
:1081500098470020002104000D000D48002802D09F
:108160000C4800E000BF0DF043FF200029000AF09A
:1081700051F90DF027FFC0460000080000800020E4
:10818000000000000000000098200020502E002079
:10819000000000000000000080B582B000AF244B5A
:1081A0007B607B6802221A617B6802225A617B68CD
:1081B000204A9A617B68204ADA617B688022D2007B
:1081C0001A627B6800229A627B6800225A627B688E
:1081D0000022DA627B68174A9A647B68174ADA647D
:1081E0007B6810221A657B6800229A657B680022F2
:1081F0005A657B680022DA657B68DA1D104B111C1A
:108200001A1C0423081C111C1A1C0DF026FF7A6886
:108210000C4B111C1A1C0723081C111C1A1C0DF0F6
:108220001CFF7B6820229A71BD4602B080BDC0460B
:10823000FC2C0020A8600200B4200020B424002000
:10824000B4600200B860020080B588B000AFF8608A
:10825000B9607A600023BB61FB68DB687B61FB6807
:108260001B693B613A697B699A4205D93A697B6926
:10827000D31A013BFB6107E0FB689A6839697B69A7
:10828000CB1AD318013BFB61FB689A687B69D31A50
:10829000FA69934200D9131CFB61FA697B68934227
:1082A00000D9131CFB61FB685A687B69D118BA6856
:1082B000FB69081C111C1A1C0DF0CFFEBA69FB6982
:1082C000D318BB61BA68FB69D318BB607A68FB69D5
:1082D000D31A7B607A69FB69D3187B61FB689A6863
:1082E0007B699A4201D100237B61FB687A69DA607D
:1082F0007B68002BB3D1BB69181CBD4608B080BD9C
:1083000080B588B000AFF860B9607A60FB68DB6860
:10831000FB61FB689A68FB69D31ABB61BA697B6829
:108320009A4210D9FB685A68FB69D118BA687B6811
:10833000081C111C1A1C0DF090FEFA697B68D218FB
:10834000FB68DA601EE0BB697B61FB685A68FB6909
:10835000D118BA687B69081C111C1A1C0DF07DFE2F
:108360007A68BB69D31A7B61FB685968BA68BB69D4
:10837000D2187B69081C111C1A1C0DF06EFEFB68DC
:108380007A69DA60BD4608B080BDC04680B584B069
:1083900000AF78600A1CFB1C1A700C23FB18FF222C
:1083A0001A70FB1C1B78084AD25C0C23FB185A700D
:1083B0007A680C23FB18101C191C0222FFF744FFDB
:1083C000BD4604B080BDC0460420002080B586B004
:1083D00000AF78607B681B693B617B68DB68FB6092
:1083E0003A69FB689A4208D87B689A68FB68D21A97
:1083F0003B69D318013B7B6104E03A69FB68D31AFF
:10840000013B7B617B69181CBD4606B080BDC04640
:1084100080B58AB000AFF860B9607A603E4B1B78D7
:10842000002B01D1FFF7B8FEFA68131C5B009B1804
:10843000DB0048331A1C384BD318BB61BB68FB61A7
:10844000BB691B693B62BB69DB687B6100237B62A4
:108450003A6A7B699A422CD9BB699A683B6AD31AFB
:108460003B613A697B68934200D9131C3B61BB694D
:108470005A683B6AD218F9693B69081C111C1A1C1E
:108480000DF0EBFD7A6A3B69D3187B62FA693B69B0
:10849000D318FB617A683B69D31A7B603A6A3B69FF
:1084A000D3183B62BB699A683B6A9A4201D10023A8
:1084B0003B627A693B6AD31A3B613A697B689342B3
:1084C00000D9131C3B613B69002B1AD0BB695A6869
:1084D0003B6AD218F9693B69081C111C1A1C0DF083
:1084E000BCFD7A6A3B69D3187B62FA693B69D31891
:1084F000FB617A683B69D31A7B603A6A3B69D3189F
:108500003B627B6A002B02D0BB693A6A1A617B6AC4
:10851000181CBD460AB080BDFC2C002080B586B07A
:1085200000AFF860B9607A60EFF31083012181F346
:1085300010883B61F968BA687B68081C111C1A1C1A
:10854000FFF766FF031C7B613B6983F310887B693F
:10855000181CBD4606B080BD80B58AB000AFF8607B
:10856000B9607A60BB687B62FB685A1C131C5B00B5
:108570009B18DB00434A9B183B623B6A1B69FB610B
:108580003B6ADB68BB61FA69BB699A425AD83B6AAD
:108590009A68BB69D31A013B7B617A697B689A420E
:1085A00011D33B6A5A68BB69D1187A6A7B68081C88
:1085B000111C1A1C0DF051FDBA697B68D2183B6A78
:1085C000DA6001235AE07A69FB69D3187B617A6922
:1085D0007B689A4251D33B6A9A68BB69D31A3B6164
:1085E0003A697B689A4210D93B6A5A68BB69D118CC
:1085F0007A6A7B68081C111C1A1C0DF02EFDBA69E2
:108600007B68D2183B6ADA601AE03B6A5A68BB6939
:10861000D1187A6A3B69081C111C1A1C0DF01DFD4B
:108620003B6A58687A6A3B69D1187A683B69D31A01
:108630001A1C0DF012FD7A683B69D21A3B6ADA60A7
:1086400001231BE0FA69BB69D31A013B7B617A699C
:108650007B689A4211D33B6A5A68BB69D1187A6A1F
:108660007B68081C111C1A1C0DF0F7FCBA697B68AA
:10867000D2183B6ADA60012300E00023181CBD46D3
:108680000AB080BDFC2C002080B588B000AFF86037
:10869000B9607A60BB68BB61FB685A1C131C5B0045
:1086A0009B18DB00254A9B187B617B695B69012B6A
:1086B0001BD002D3022B2DD037E07B69181CFFF7AB
:1086C00085FE031C3B613A697B689A4202D2002313
:1086D000FB612DE07B68FB617969BA697B68081CE6
:1086E000111C1A1CFFF70CFE22E07B69181CFFF717
:1086F0006DFE031C3B613A697B68934200D9131CF1
:10870000FB617969BA69FB69081C111C1A1CFFF727
:10871000F7FD0DE07969BA697B68081C111C1A1C09
:10872000FFF792FD031CFB6102E00023FB61C046E2
:10873000FB69181CBD4608B080BDC046FC2C00205B
:1087400080B586B000AFF860B9607A600E4B1B78D8
:10875000002B01D1FFF720FDEFF31083012181F3FE
:1087600010883B61F968BA687B68081C111C1A1CE8
:10877000FFF78AFF031C7B613B6983F310887B69E9
:10878000181CBD4606B080BDFC2C002080B584B00E
:1087900000AF786039603B68181C0DF06FFC031C5B
:1087A000FB6079683A68FB68081C111C1A1CFFF70B
:1087B000C7FF031C181CBD4604B080BD80B582B045
:1087C00000AFFB1C0020191C0122FFF7A7FE031CB1
:1087D0007B607B68012B03D1FB1C1B787B6002E074
:1087E00001235B427B607B68181CBD4602B080BDE4
:1087F00080B582B000AFFFF7E1FF031C7B607B68B0
:10880000002BF8DB7B68181CBD4602B080BDC0465B
:1088100080B582B000AF0C4B1B78002B01D1FFF765
:10882000BBFC094B9B6D3B60074B5A6D3B689A4202
:1088300002D001237B6001E000237B607B68181C71
:10884000BD4602B080BDC046FC2C002080B584B07F
:1088500000AF78607A68131C5B009B18DB0048331C
:108860001A1C074BD318FB60FB68DB68BB60FB6816
:108870001B69BA68D31A181CBD4604B080BDC04637
:10888000FC2C002080B586B000AFF860B9607A603B
:108890003B602F4B1B78002B01D1FFF77DFC2C4B4D
:1088A0001B691A1EFB689A4249D9EFF31083012114
:1088B00081F310883B61FB68002B30D02449FB68B2
:1088C0005A1C131C5B009B18DB00BA685A502049E5
:1088D000FB685A1C131C5B009B18DB00CB187A68E2
:1088E0005A601B49FA68131C5B009B18DB00CB180D
:1088F00020333A681A601649FA68131C5B009B180B
:10890000DB00CB18283300221A601149FA68131CC7
:108910005B009B18DB00CB18203300225A600C4907
:10892000FA68131C5B009B18DB00CB1828333A6AEB
:108930005A603B6983F3108800237B6102E00123C6
:108940005B427B617B69181CBD4606B080BDC0469A
:10895000FC2C002080B586B000AFF860B9607A606A
:108960003B602F4B1B78002B01D1FFF715FC2C4BE4
:108970005B691A1EFB689A424AD9EFF31083012102
:1089800081F310883B61FB68002B31D02449FA68E1
:10899000131C5B009B18DB00CB184833BA681A60C5
:1089A0001F49FA68131C5B009B18DB00CB18483387
:1089B0007A685A601A49FA68131C5B009B18DB003E
:1089C000CB1850333A681A601549FA68131C5B00DB
:1089D0009B18DB00CB18583300221A601049FA6844
:1089E000131C5B009B18DB00CB18503300225A602D
:1089F0000B49FA68131C5B009B18DB00CB1858333B
:108A00003A6A5A603B6983F3108800237B6102E075
:108A100001235B427B617B69181CBD4606B080BDAB
:108A2000FC2C002080B584B000AF78603960144B16
:108A30001B78002B01D1FFF7AFFB114B1B691A1EEE
:108A40007B689A4214D9EFF31083012181F31088D7
:108A5000BB600B497B685A1C131C5B009B18DB0036
:108A60003A685A50BB6883F310880023FB6002E029
:108A700001235B42FB60FB68181CBD4604B080BD4F
:108A8000FC2C002080B584B000AF78603960154BB5
:108A90001B78002B01D1FFF77FFB124B5B691A1E7D
:108AA0007B689A4215D9EFF31083012181F3108876
:108AB000BB600C497A68131C5B009B18DB00CB1869
:108AC00048333A681A60BB6883F310880023FB6060
:108AD00002E001235B42FB60FB68181CBD4604B04A
:108AE00080BDC046FC2C002080B500AF034B1B7836
:108AF000002B01D1FFF750FBBD4680BDFC2C0020B0
:108B000080B588B000AF021CFB1D1A702B4B1B7880
:108B1000002B01D1FFF740FB0023FB611023FB1862
:108B2000FF221A70FB1D1B780F2B3ED8FB1D1B78F4
:108B3000234AD25C1023FB185A70224BBB61EFF31F
:108B40001083012181F31088FB60BB695B690322FC
:108B50001340022B0CD11C4BFA1D12781A70BA6903
:108B60001023FB18101C191C0222FFF76DFB18E0E4
:108B7000BB69181CFFF72AFC031C7B617B69012B76
:108B80000CD9114BFA1D12781A70BA691023FB1810
:108B9000101C191C0222FFF7B3FB02E001235B4209
:108BA000FB61FB6883F3108802E001235B42FB61F9
:108BB000FB69181CBD4608B080BDC046FC2C0020D7
:108BC00004200020142D0020C424002080B588B08B
:108BD00000AF021C3960FB1D1A704B4B1B78002B39
:108BE00001D1FFF7D9FAFB1D1B780F2B00D983E0C9
:108BF000464BBB613B68181C0DF040FA031C7B61BF
:108C0000EFF31083012181F31088FB60BB69181C0E
:108C1000FFF7DCFB031C3B61BB695B69032213406C
:108C2000012B24D002D3022B45D05DE07B691A1DB5
:108C30003B699A4202D90023FB6159E0BA69FB1DE6
:108C40001B78101C191CFFF7A1FBB9693A687B69F6
:108C5000081C111C1A1CFFF7F7FA031CFB612C4BB4
:108C60001B78BA69101C191CFFF790FB40E03B69A8
:108C7000032B03D801235B42FB6139E0BA69FB1D7A
:108C80001B78101C191CFFF781FB3B691A1F7B69BD
:108C90009A4200D91A1CB9693B68081C191CFFF7D5
:108CA000D3FA031CFB611A4B1B78BA69101C191C00
:108CB000FFF76CFB1CE0BA69FB1D1B78101C191C2C
:108CC000FFF764FBB9693A687B69081C111C1A1C20
:108CD000FFF7BAFA031CFB610D4B1B78BA69101C35
:108CE000191CFFF753FB03E001235B42FB61C04605
:108CF000FB6883F3108802E001235B42FB61FB69A0
:108D0000181CBD4608B080BDFC2C0020142D00208E
:108D1000C424002080B584B000AF78600A1CFB1C1E
:108D20001A707B689B68FB60FB685A1C7B685B68F9
:108D30009A420FD87B681A68FB68D318FA1C12781D
:108D40001A70FB685A1C7B689A607B68DB685A1C47
:108D50007B68DA607B689A687B685B689A4217D1A7
:108D60007B6819697B681A687B689B68081C111C02
:108D70001A1CFFF7E5FC021E7B689B689A4204D030
:108D80007B6801225242DA6002E07B6800229A602E
:108D9000BD4604B080BDC04680B58AB000AFF86063
:108DA000B9607A603B60BB683B6201237B62012350
:108DB000FB6108E0386A79680CF082FF031C3B62B3
:108DC000FB690133FB613A6A7B689A42F2D23A68E6
:108DD000FB699A4201D93B68FB617B6B012213401E
:108DE0002AD13B6B002B27D07B6B0222134007D08C
:108DF0003B68002B04D11B23FB1830221A7003E0C0
:108E00001B23FB1820221A700FE03B6B013B3B63D6
:108E1000FA681B23FB181B78101C191CFFF77AFF3C
:108E2000FB68DB68002B00DA06E03B6B002B03D00D
:108E3000FA693B6B9A42E8D3FB68DB68002B55DB91
:108E40003B68012B03D93B68013B3B600AE0B868F3
:108E5000796A0CF035FF031C7B617A697B689A4262
:108E600000D204E07B6A7A6853437B62E8E7B86823
:108E7000796A0CF025FF031C7B617B697A6A534396
:108E8000BA68D31ABB601B4A7B69D3181B78FA688F
:108E9000101C191CFFF73EFFFB68DB68002B00DA93
:108EA00008E0786A79680CF00BFF031C7B627B6A30
:108EB000002BDCD17B6B0122134017D03B6B002BC6
:108EC00014D00CE03B6B013B3B63FB68181C20217A
:108ED000FFF720FFFB68DB68002B00DA06E03B6B46
:108EE000002B03D0FA693B6B9A42EBD3BD460AB024
:108EF00080BDC046C060020090B589B002AFF86086
:108F0000B9607A603B60BB68DA179B1853403B61DD
:108F100001237B6109E07B683869191C0CF060FF54
:108F2000031C3B617B6901337B617A683B699A4230
:108F3000F1DD3A687B699A4201D93B687B61BB6A83
:108F4000002B09D0BB68002B03DBFB6A0422134013
:108F500002D0BB6A013BBB62FB6A0222134002D013
:108F60003B68002B1BD0FB6A0122134017D1BB6A60
:108F7000002B14D00CE0BB6A013BBB62FB68181CE1
:108F80002021FFF7C7FEFB68DB68002B00DA06E054
:108F9000BB6A002B03D07A69BB6A9A42EBD3FB68A9
:108FA000DB68002B4ADBBB68002B08DABB685B423E
:108FB000BB60FB68181C2D21FFF7ACFE08E0FB6AC4
:108FC0000422134004D0FB68181C2B21FFF7A2FEDB
:108FD000FB68DB68002B31DBFB6A022213401ED0EA
:108FE000FB6A012213401AD13B68002B17D1BB6AE0
:108FF000002B14D00CE0BB6A013BBB62FB68181C61
:109000003021FFF787FEFB68DB68002B00DA06E003
:10901000BB6A002B03D07A69BB6A9A42EBD3FB6828
:10902000DB68002B0ADBB968F8687A683C68BB6AC1
:109030000093FB6A0193231CFFF7AEFEBD4607B009
:1090400090BDC04690B5A3B002AFF860B9607A6039
:109050005023FB181022BA181A605023FB18402224
:109060005A605023FB1800229A605023FB18FA68BC
:109070001A615023FB180022DA607F23FB18BA68BC
:1090800012781A70BB680133BB607F23FB181B7812
:10909000002B00D16DE17F23FB181B78252B00D01E
:1090A00058E100233B670123BB677F23FB18BA68A5
:1090B00012781A707F23FB181B782B2B18D002DC38
:1090C000232B1DD024E02D2B02D0302B08D01FE005
:1090D0003B6F012213433B67BB680133BB601AE05F
:1090E0003B6F022213433B67BB680133BB6012E056
:1090F0003B6F042213433B67BB680133BB600AE04C
:109100003B6F082213433B67BB680133BB6002E03F
:109110000023BB67C046BB6F002BC6D10023FB6694
:109120007F23FB18BA6812781A707F23FB181B780C
:109130002F2B14D97F23FB181B78392B0FD8BB6832
:109140000133BB60FA6E131C9B009B185B001A1C5A
:109150007F23FB181B78D318303BFB66E0E7002326
:109160007B677F23FB18BA6812781A707F23FB187D
:109170001B782E2B21D1BB680133BB607F23FB18EA
:10918000BA6812781A707F23FB181B782F2B14D91A
:109190007F23FB181B78392B0FD8BB680133BB60CA
:1091A0007A6F131C9B009B185B001A1C7F23FB1813
:1091B0001B78D318303B7B67E0E77F23FB18BA6846
:1091C00012781A707F23FB181B786C2B04D07F2336
:1091D000FB181B78682B08D17F23FB18BA6812781C
:1091E0001A70BB680133BB60ECE77F23FB181B7868
:1091F000642B29D007DC582B52D0632B0FD0252BA2
:1092000000D19CE0A2E0732B60D003DC702B00D176
:1092100080E09BE0752B2DD0782B41D096E07B68C9
:109220001B68191D7A6811601B68BB676723FB18F0
:10923000BA6F1A705023FA186723FB181B78101C9A
:10924000191CFFF767FD81E07B681B68191D7A68B0
:1092500011601B68BB675023F918BA6F7C6FFB6EF7
:1092600000933B6F0193081C111C0A22231CFFF77B
:1092700043FE6BE07B681B68191D7A6811601B68F0
:10928000BB67BA6F5023F9187C6FFB6E00933B6F7E
:109290000193081C111C0A22231CFFF77DFD55E0D9
:1092A0007B681B68191D7A6811601B68BB67BA6F01
:1092B0005023F9187C6FFB6E00933B6F0193081CE1
:1092C000111C1022231CFFF767FD3FE07B681B6821
:1092D000191D7A6811601B68BB667F23FB18BA6E84
:1092E00012781A70BB6E0133BB667F23FB181B78A4
:1092F000002B00D10DE05023FA187F23FB181B78B8
:10930000101C191CFFF706FD5023FB18DB68002B0F
:10931000E3DA1BE07B681B68191D7A6811601B6823
:10932000BB67BA6F5023F9180823009300230193F9
:10933000081C111C10220823FFF72EFD06E0502305
:10934000FB18181C2521FFF7E5FCC046BB6801335C
:10935000BB6008E05023FA187F23FB181B78101C11
:10936000191CFFF7D7FC5023FB18DB68002B00DB30
:1093700083E65023FB18DB68002B19DD5023FB1814
:109380009B68002B0AD05023FB189B68F9681022B9
:10939000BA18081C111C1A1CFFF7D2F95023FB182D
:1093A000DA685023FB189B68D2185023FB18DA6048
:1093B0005023FB18DB68181CBD4621B090BDC04689
:1093C0000EB480B585B000AF78602023FB18FB6039
:1093D0007968FA690C23FB18081C111C1A1CFFF78A
:1093E00031FE031C181CBD4605B080BC08BC03B090
:1093F0001847C04690B589B000AF78601F23FB18AE
:1094000000221A7055E0304B1A681F23FB181B7896
:10941000DB00D318BB61BB691B781A1C0123934086
:109420007B612A4B1B687A6913403BD07B69DA4326
:10943000264B1B681A40254B1A60BB691B78132208
:10944000BC18181C0AF098F9031C2370BB691B7820
:109450001A1C012393401A1C1D4B1B681340132236
:10946000BA181278B96909788A4093421AD113233D
:10947000FB181B78BA695278013A51424A41D2B27C
:109480009B1A5A425341DBB2FB60BB695B68002BFD
:1094900008D0BB695B68BA691178FA68D2B2081C57
:1094A000111C98471F23FB181A781F23FB18013241
:1094B0001A70084B1B781F22BA1812789A42A2D34E
:1094C000BD4609B090BDC046C8240020DC24002061
:1094D000D8240020CC24002080B584B000AF786070
:1094E0000A1CFB1C1A707B6801229A40131CFB604B
:1094F0001F4B1B68181C01F025FB031CBB60BB68DD
:10950000002B00D031E01B4B1B68FA68134025D1BB
:109510007B68181C0AF030F9031E06D0164B1A6837
:10952000FB681A43144B1A6006E0FB68DA43124BDF
:109530001B681A40104B1A600E4B1A68FB681A43DE
:109540000C4B1A600A4B1A680C4B1B68101C191C38
:10955000002201F0B1FA031CBB6006E0FB68DA43AD
:10956000044B1B681A40034B1A60BD4604B080BD13
:10957000D4240020DC240020D8240020D024002083
:1095800080B588B000AFF8607A600B23FB180A1C26
:109590001A707B68042B01D8072362E009F05EFE95
:1095A000031C1A1C01235340DBB2002B08D009F026
:1095B00013FE031CFB61FB69002B01D0FB6950E02B
:1095C0002A4BFA681A602A4B0B22BA1812781A70C2
:1095D000284B7A681A60284B00221A60274B002219
:1095E0001A602DE00B23FB181B78DB00FA68D318F8
:1095F000BB611423FB1803221A701423FB180022EA
:109600005A701423FB1800229A701423FB180022AE
:10961000DA70BB699A781423FB185A70BB691B78FF
:10962000191C1423FA18164B081C111C1A1C09F0DB
:109630005FFF031CFB61FB69002B01D0FB6910E09D
:109640000B23FB181B780B22BA18591E1170002B24
:10965000C8D10C4A0C4B101C00211A1C01F0B4F9A3
:10966000031C181CBD4608B080BDC046C82400209D
:10967000CC240020D0240020D8240020DC2400208A
:10968000D9940100D4240020F593010080B582B064
:1096900000AF00237B600CE00B4B1A687B68DB009B
:1096A000D3181B78181C012109F08CFF7B6801334B
:1096B0007B60064B1B781A1E7B689A42ECD800230D
:1096C000181CBD4602B080BDC8240020CC24002058
:1096D00080B582B000AF00237B600BE00D4B1A68B1
:1096E0007B68DB00D3181B78181C09F0F1FF7B683E
:1096F00001337B60084B1B781A1E7B689A42EDD8B9
:10970000064B1B68181C01F01DFA031C181CBD46F3
:1097100002B080BDC8240020CC240020D424002026
:1097200090B585B000AF021C3960FB1D1A70124B5A
:109730001A68FB1D1B78DB00D318FB60FB681B78E5
:109740000B22BC18181C0AF017F8031C23700B23FB
:10975000FB181B78FA685278013A51424A41D2B25A
:109760009B1A5A425341DAB23B681A700023181C04
:10977000BD4605B090BDC046C824002080B586B067
:1097800000AFF860B9607A600C2004F07BFE17230C
:10979000FB1801221A701723FB181B78094BFA6873
:1097A0001A60094BBA681A60084B7A681A6072B678
:1097B000C0461723FB181B78DBB2002BF9D1BD463E
:1097C00006B080BD782D00207C2D0020742D002057
:1097D00080B582B000AF78607B68032213405A42A4
:1097E0005341DBB2181CBD4602B080BD80B582B0CB
:1097F00000AF021CFB1D1A70064BFA1D1278111CDB
:109800001F220A40012191400A1C1A60BD4602B085
:1098100080BDC04600E100E080B582B000AF021C10
:10982000FB1D1A70074AFB1D1B78191C1F230B40D8
:10983000012199400B1C191C8023D150BD4602B058
:1098400080BDC04600E100E080B582B000AF021CE0
:10985000FB1D1A70074AFB1D1B78191C1F230B40A8
:10986000012199400B1C191C80235B00D150BD467F
:1098700002B080BD00E100E080B582B000AF021C04
:10988000FB1D1A70074AFB1D1B78191C1F230B4078
:10989000012199400B1C191CC0235B00D150BD460F
:1098A00002B080BD00E100E0B0B582B000AF021CA4
:1098B0003960FB1D1A70FB1D1B787F2B2FD92D4C97
:1098C000FB1D1B781A1C0F231340083B9908294ADB
:1098D000FB1D1B78181C0F230340083B9B08063315
:1098E0009B00D3185B68FA1D1278101C03220240FB
:1098F000D200101CFF228240D2431A403B689B01D9
:10990000FF200340F81D0078051C03202840C000FC
:1099100083401A438B1D9B00E3185A6026E0164CC7
:10992000FB1D1B785BB29B081349FA1D127852B2DB
:109930009208C03292005258F91D0978081C032180
:109940000140C900081CFF218140C94311403A6809
:109950009201FF200240F81D0078051C03202840DA
:10996000C00082400A43C0339B001A51BD4602B07A
:10997000B0BDC04600ED00E000E100E080B582B07F
:1099800000AF021CFB1D1A70FB1D1B787F2B16D924
:10999000164AFB1D1B78191C0F230B40083B9B0824
:1099A00006339B00D3185B68FA1D1278111C032242
:1099B0000A40D200D340FF2213409B0911E00C4A19
:1099C000FB1D1B785BB29B08C0339B009B58FA1DA4
:1099D0001278111C03220A40D200D340FF22134008
:1099E0009B09181CBD4602B080BDC04600ED00E0DA
:1099F00000E100E02BDF7047181CC0462CDF7047E9
:109A0000181CC0462DDF7047181CC0462EDF70475B
:109A1000181CC0462FDF7047181CC04630DF704747
:109A2000181CC04631DF7047181CC04632DF704733
:109A3000181CC04633DF7047181CC04634DF70471F
:109A4000181CC04635DF7047181CC04636DF70470B
:109A5000181CC04637DF7047181CC04638DF7047F7
:109A6000181CC04639DF7047181CC0463ADF7047E3
:109A7000181CC0463DDF7047181CC0463EDF7047CB
:109A8000181CC0463BDF7047181CC0463CDF7047BF
:109A9000181CC0463FDF7047181CC04640DF7047A7
:109AA000181CC04641DF7047181CC04642DF704793
:109AB000181CC04643DF7047181CC04644DF70477F
:109AC000181CC04645DF7047181CC04646DF70476B
:109AD000181CC04647DF7047181CC04649DF704756
:109AE000181CC0464ADF7047181CC0464BDF704741
:109AF000181CC04648DF7047181CC04620DF70475E
:109B0000181CC04621DF7047181CC04622DF704772
:109B1000181CC04623DF7047181CC04624DF70475E
:109B2000181CC04625DF7047181CC04626DF70474A
:109B3000181CC04627DF7047181CC0464CDF704712
:109B4000181CC0464DDF7047181CC04651DF7047D7
:109B5000181CC04652DF7047181CC04629DF7047EA
:109B6000181CC04628DF7047181CC0462ADF704703
:109B7000181CC0464EDF7047181CC0464FDF7047A8
:109B8000181CC04650DF7047181CC04680B582B014
:109B900000AF0C4B5B68DB05DB0D7B607B68002B4B
:109BA0000BD07B68103B3B603B68DBB25BB2181CA0
:109BB000FFF7E4FE031CDBB200E00423181CBD46E3
:109BC00002B080BD00ED00E080B582B000AF7860EB
:109BD0000549A123DB007A68CA5011200321FFF751
:109BE00063FEBD4602B080BD0010014080B582B06A
:109BF00000AF1649D1239B0080225202CA5013495C
:109C0000C1239B0080225202CA501120FFF734FE6C
:109C10001120FFF7EBFD0D4B01221A602F237B6013
:109C20007B68181C0138C046C046C046C046C046C6
:109C3000C046C046C046C046C046C046C046F1D138
:109C4000034B01221A70BD4602B080BD00100140D6
:109C50000825002080B582B000AF1120FFF7DCFDA1
:109C60001F49D2239B0080225202CA501C49C223A2
:109C70009B0080225202CA50194B01225A602F23A6
:109C80003B603B68181C0138C046C046C046C04611
:109C9000C046C046C046C046C046C046C046C04694
:109CA000F1D10F4B01229A600E4B00221A602F2334
:109CB0007B607B68181C0138C046C046C046C04661
:109CC000C046C046C046C046C046C046C046C04664
:109CD000F1D1054B00221A70BD4602B080BDC046CE
:109CE00000100140F42400200825002080B500AFBA
:109CF000024A034BD358181CBD4680BD00100140DA
:109D00000405000080B582B000AF786039607A68E1
:109D10003B68D31A1B021B0A181CBD4602B080BD4B
:109D200080B582B000AF78600349A823DB007A6871
:109D3000CA50BD4602B080BD0010014080B586B05B
:109D400000AF78604C4B19687A68131CDB009B18D5
:109D50009B00CB18BB60494B1B68013303D1474BB9
:109D60007A681A6084E0BB685968434B1868434BB3
:109D70001A68131CDB009B189B00C3185B68994290
:109D80001ED83D4B19683D4B1A68131CDB009B180D
:109D90009B00CA18384B1868384B19680B1CDB003D
:109DA0005B189B00C3185968BB685B68CB1A53608B
:109DB000324B1A68BB681A62304B7A681A6057E0F7
:109DC000BB685B68FB602D4B1B687B612B4B1B6882
:109DD0003B6117E0284B19683A69131CDB009B189C
:109DE0009B00CB185B68FA68D31AFB603B697B6108
:109DF000214B19683A69131CDB009B189B00CB1898
:109E00001B6A3B613B6901330BD01B4B19683A69F4
:109E1000131CDB009B189B00CB185A68FB689A4206
:109E2000D8D33B69013313D0134B19683A69131C1B
:109E3000DB009B189B00CA180F4B186839690B1C74
:109E4000DB005B189B00C3185968FB68CB1A536092
:109E5000BB68FA685A60BB683A691A62064B1968AF
:109E60007A69131CDB009B189B00CB187A681A6276
:109E7000BD4606B080BDC046E4240020F02400208A
:109E800080B586B000AF78603D4B1B687B617B6915
:109E90003B6110E03A697B689A4200D10EE03B6971
:109EA0007B61384B19683A69131CDB009B189B00D7
:109EB000CB181B6A3B613B690133EBD13B69013332
:109EC00000D159E07A693B699A4218D12D4B196843
:109ED0002B4B1A68131CDB009B189B00CB181A6ACB
:109EE000274B1A60264B1B68013308D1264B0122F1
:109EF0009A60264B00221A60254B01221A70214BD2
:109F000019683A69131CDB009B189B00CB185B682F
:109F1000FB601C4B19687A69131CDB009B189B00C3
:109F2000CA18184B186839690B1CDB005B189B00BA
:109F3000C3181B6A1362134B19687A69131CDB0080
:109F40009B189B00CB181B6A3B613B69013313D004
:109F50000C4B19683A69131CDB009B189B00CA184C
:109F6000084B186839690B1CDB005B189B00C31891
:109F70005968FB68CB185360BD4606B080BDC0462B
:109F8000F0240020E424002000100140F4240020EC
:109F90000925002080B500AF1120FFF755FCBD4614
:109FA00080BDC04680B500AF1420FFF74DFCBD4614
:109FB00080BDC04680B584B000AF7860134B1B688D
:109FC000002B1AD0114B1A687B6899697B68DB6992
:109FD000081C191C9047031CFB60FB68BB60BB6836
:109FE000002B09D0B968B3235A00094B081C111C77
:109FF0001A1CFFF7C3FB06E005E07B689A697B68E3
:10A00000DB69181C9047BD4604B080BD04250020C4
:10A01000D060020080B584B000AF2B4B1B680133C9
:10A020004FD000237B60FFF761FE021C274B1B68AB
:10A03000101C191CFFF766FE031CBB60224B1B683B
:10A04000FB601FE0224B1968FA68131CDB009B18A9
:10A050009B00CB183B603B685A68BB689A4200D9AA
:10A0600013E03B685B68BA68D31ABB603B685B6807
:10A070007A68D3187B603B681B6AFB603B68181CDE
:10A08000FFF798FFFB680133DCD1124B1A78124BB3
:10A090001B789A420CD1104B1B780133DAB20E4B6D
:10A0A0001A700D4B1B78022B02D10B4B00221A7039
:10A0B000094B1B781A1C094B92007968D150FFF7A5
:10A0C00071FFBD4604B080BDF0240020F4240020C0
:10A0D000E42400200025002001250020F824002091
:10A0E00080B582B000AF7860184B1A78184B1B7897
:10A0F0009A4223D0154B1B780133DAB2134B1A70F6
:10A10000124B1B78022B02D1104B00221A700F4BFE
:10A110001B781A1C0F4B9200D2587B681A607B6820
:10A120001A680D4B1B68D2180B4B1A600A4B1B6840
:10A130001B021A0A084B1A60012303E07B68002205
:10A140001A600023181CBD4602B080BD0025002007
:10A1500001250020F8240020F424002080B586B0DA
:10A1600000AF424B1B683B611723FB18404A127833
:10A170001A7066E03F4B1A681723FB181B78DB0048
:10A18000D318FB601623FB18FA6812781A7051E096
:10A19000FB6859681623FB181A78131C5B009B1880
:10A1A000DB00CB18BB601623FB181A781623FB18AC
:10A1B00001321A70FB689B781622BA1812789A42FC
:10A1C00003D11623FB1800221A70BB681B78022BE0
:10A1D00002D0032B28D02CE0274B1968BB685A68A3
:10A1E000131CDB009B189B00CB187B607B681B7DDE
:10A1F000002B07D0BB685B68181CFFF741FE7B682B
:10A2000000221A7516E01C4B1968184B1A68131CAB
:10A21000DB009B189B00CB183B603B6800221A7543
:10A220003B681A6A114B1A60104B1B680133EAD164
:10A2300000E0C046FB685B781622BA1812789A4292
:10A24000A6D11723FB181B781722BA18591E1170B4
:10A25000002B8FD1054B1A683B69D31A5A1E9341C4
:10A26000DBB2181CBD4606B080BDC046F0240020FD
:10A27000E8240020EC240020E424002080B588B0ED
:10A2800000AFF860B9607A600023FB6142E0254BC3
:10A290001968254B1A68131CDB009B189B00CB1810
:10A2A000BB61BB695A68FB689A4206D9BB695A68A8
:10A2B000FB68D21ABB695A6030E0BB695B68FA6818
:10A2C000D31AFB60BB695B68FA69D318FB61BB6991
:10A2D00000225A60BB6900221A75134B1B687B6110
:10A2E000BB691A6A104B1A60BB691B69002B11D03D
:10A2F000BA68FB69D3181B021A0ABB699A60BB696A
:10A300001A69BB69DA607B681A68BB691A627B6884
:10A310007A691A60044B1B680133B8D1BD4608B096
:10A3200080BDC046E4240020F024002080B58AB01F
:10A3300000AF7860664B1B68BB612723FB18654A3A
:10A3400012781A70AEE0644B1A682723FB181B784A
:10A35000DB00D3187B619AE07B6801330ED07B6809
:10A360003B625E4B19683A6A131CDB009B189B002A
:10A37000CB18FB61FB691B6A7B6045E07B695A680F
:10A380007B691B78191C0B1C5B005B18DB00D31866
:10A390003B617B691B780133DAB27B691A707B6998
:10A3A0001A787B699B789A4202D17B6900221A70E5
:10A3B0003B695B683B62494B19683A6A131CDB00D6
:10A3C0009B189B00CB18FB613B691B78012B03D1C9
:10A3D000FB691B7D002B00D059E03B699A68FB6943
:10A3E0009A603B69DA68FB69DA603B691A69FB6964
:10A3F0001A613B695A69FB69DA61394B1B78002B9A
:10A4000002D0FB6900229A60FB699A68354B1B6891
:10A41000D31A1B021B0A344A93420ED8FB699A686E
:10A42000304B1B68101C191CFFF76CFC021CFB69ED
:10A43000DB68D218FB695A6018E02A4B1A68FB697E
:10A440009B68101C191CFFF75DFC031CFB60FB697B
:10A45000DA68FB689A4206D9FB69DA68FB68D21AA7
:10A46000FB695A6002E0FB6900225A60FB69002226
:10A470009A60FB690022DA60FB6901221A75FB69A8
:10A48000012252421A623B6A181CFFF757FC7B6894
:10A49000013300D060E77B691A787B695B789A4268
:10A4A00000D059E72723FB181B782722BA18591E1A
:10A4B0001170002B00D046E7054B1A68BB69D31A10
:10A4C0005A1E9341DBB2181CBD460AB080BDC0467F
:10A4D000F0240020E8240020EC240020E4240020C4
:10A4E00009250020F4240020FEFF7F0090B589B0EC
:10A4F00000AF78602A4B1B6801334CD0294B196898
:10A50000274B1A68131CDB009B189B00CB185B6859
:10A51000FB61FFF7EBFB031CBB61234B1B687B61FB
:10A52000BA697B69101C191CFFF7ECFB031C033391
:10A530003B611E4B1B7801225340DBB2002B01D044
:10A54000FFF754FBFA693B69934200D2131C7A6906
:10A55000D3187B617B691B021B0A7B617B69181C1A
:10A56000FFF7DEFBFFF7C2FB031CFB60FA68BB6969
:10A57000101C191CFFF7C6FB031CDC1C7A69BB69A5
:10A58000101C191CFFF7BEFB031C9C4202D9FFF7ED
:10A5900001FD02E001E0FFF75DFBBD4609B090BDA3
:10A5A000F0240020E4240020F424002008250020CA
:10A5B00090B587B000AF01235B427B601E4B1B68E8
:10A5C0003B611E4B1B68FB600B23FC183B1C181CDB
:10A5D000FFF786FD031C23701723FC18FFF7BEFD51
:10A5E000031C23700B23FB181B78002B0BD039683E
:10A5F0003A693B1D081C111C1A1CFFF73FFE17236C
:10A60000FB1801221A707B68181CFFF78FFE031ECF
:10A6100003D01723FB1801221A701723FB181B788D
:10A62000002B03D0FB68181CFFF760FF044B0022CF
:10A630001A70BD4607B090BDF4240020F02400201D
:10A640000925002080B582B000AF786039603B6892
:10A65000DAB27B685A70BD4602B080BD80B584B066
:10A6600000AF786039607B685B780133FB607B68A2
:10A670009B781A1EFB689A4201D10023FB607B681D
:10A680001B781A1EFB689A4201D100230EE03B683A
:10A69000FA681A607B685A687B685B78191C0B1C27
:10A6A0005B005B18DB00D318BB60BB68181CBD46A1
:10A6B00004B080BD80B586B000AFF860B9607A6044
:10A6C0003B601B4B1A68FB68DB00D2181023FB1899
:10A6D000101C191CFFF7C2FF031C7B617B69002B58
:10A6E00001D1042320E07B6901221A707B69BA68DA
:10A6F0005A60FFF7FBFA021C7B699A607B697A68F3
:10A70000DA607B693A681A617B693A6A5A61084B78
:10A710001A68FB68DB00D2183B69101C191CFFF794
:10A7200091FFFFF73FFC0023181CBD4606B080BD1B
:10A73000EC24002080B584B000AF78603960144B01
:10A740001A687B68DB00D2180823FB18101C191C40
:10A75000FFF784FF031CFB60FB68002B01D104237F
:10A7600012E0FB6802221A70FB683A685A60084BD4
:10A770001A687B68DB00D218BB68101C191CFFF735
:10A7800061FFFFF70FFC0023181CBD4604B080BD1D
:10A79000EC24002080B584B000AF7860144B1A68B8
:10A7A0007B68DB00D2180823FB18101C191CFFF76C
:10A7B00055FF031CFB60FB68002B01D1042313E051
:10A7C000FB6803221A70FB68012252425A60084B50
:10A7D0001A687B68DB00D218BB68101C191CFFF7D5
:10A7E00031FFFFF7DFFB0023181CBD4604B080BD1E
:10A7F000EC24002080B500AF104AA0235B000021AC
:10A80000D1500E4AA2235B000021D1500B4AA42351
:10A810005B000021D150094AA6235B000021D150E2
:10A82000064A80235B000021D150044A82235B004A
:10A830000021D150FFF7EEFBBD4680BD0010014066
:10A8400080B500AFFFF7B4FEBD4680BD80B586B0D1
:10A8500000AFF860081C111C7B600B23FB18021C66
:10A860001A700A23FB180A1C1A707B68181CFEF762
:10A87000AFFF031C1A1C01235340DBB2002B01D095
:10A8800007238BE07B68002B01D1072386E0FFF7CD
:10A89000E1F9444B3A6A1A60434B0B22BA1812781A
:10A8A0001A70424B7A681A6000237B6116E03F4BB6
:10A8B00019687A69131CDB009B189B00CB180022D7
:10A8C0001A703A4B19687A69131CDB009B189B00BD
:10A8D000CB1800221A757B6901337B610B23FB18AF
:10A8E0001A787B699A42E2DC0B23FB181A78131C56
:10A8F000DB009B189B001A1C7B689B187B602C4B11
:10A9000003221A702B4B7A681A607B6818337B60BD
:10A9100000237B6121E0274B1A687B69DB00D31899
:10A920003B613B6900221A703B6900225A703B6907
:10A930000A22BA1812789A703B697A685A600A2318
:10A94000FB181A78131C5B009B18DB001A1C7B6831
:10A950009B187B607B6901337B617B69022BDADDAD
:10A96000154B012252421A60144B00221A70144BEC
:10A9700000221A701420FEF77FFF14200321FEF737
:10A9800093FF1420FEF732FFFB68181CFFF71CF939
:10A99000FFF7ACF9021C0B4B1A600023181CBD46D4
:10A9A00006B080BD04250020E0240020E42400201F
:10A9B000E8240020EC240020F024002000250020C2
:10A9C00001250020F424002080B586B000AFF86097
:10A9D0007A600B23FB180A1C1A70284B1B68002B8B
:10A9E00001D1082346E07B68002B01D1072341E019
:10A9F000FB68002B01D107233CE000237B6132E0A0
:10AA00001E4B19687A69131CDB009B189B00CB183E
:10AA10001B78002B24D1194B19687A69131CDB00B1
:10AA20009B189B00CB1801221A70144B19687A6985
:10AA3000131CDB009B189B00CB180B22BA18127852
:10AA40005A700E4B19687A69131CDB009B189B0027
:10AA5000CB187A689A617A69FB681A60002309E06A
:10AA60007B6901337B61064B1B781A1E7B699A4216
:10AA7000C6DC0423181CBD4606B080BDE4240020BB
:10AA8000E024002080B582B000AFFFF77FF8031EFE
:10AA9000012B02D0032B03D005E000237B6005E0EF
:10AAA00001237B6002E002237B60C0467B68181CA8
:10AAB000BD4602B080BDC04690B589B002AFF86017
:10AAC000B9607A601D4B1B68002B01D1082331E06F
:10AAD0001B4B1B781A1EFB689A4202D9BB68042BD9
:10AAE00001D8072326E0154B1968FA68131CDB0010
:10AAF0009B189B00CB181B78012B01D0082319E071
:10AB00000E4B1968FA68131CDB009B189B00CB18CE
:10AB10005B78012B01D1BB6800E000237B61FFF76C
:10AB2000B1FFF968BA687C697B680093231CFFF762
:10AB3000C1FD031C181CBD4607B090BDE4240020D5
:10AB4000E024002080B582B000AF7860134B1B6812
:10AB5000002B01D108231DE0114B1B781A1E7B68C6
:10AB60009A4201D8072315E00C4B19687A68131C28
:10AB7000DB009B189B00CB181B78012B01D008230E
:10AB800008E0FFF77FFF021C7B68101C191CFFF711
:10AB9000D1FD031C181CBD4602B080BDE42400207A
:10ABA000E024002080B500AF074B1B68002B01D1CB
:10ABB000082306E0FFF766FF031C181CFFF7EAFDF9
:10ABC000031C181CBD4680BDE424002080B582B063
:10ABD00000AF7860FFF78AF8021C7B681A600023D8
:10ABE000181CBD4602B080BD80B584B000AFF860CF
:10ABF000B9607A60FA68BB68101C191CFFF782F80C
:10AC0000021C7B681A600023181CBD4604B080BD7E
:10AC100080B582B000AF021CFB1D1A70064BFA1DF6
:10AC20001278111C1F220A40012191400A1C1A604F
:10AC3000BD4602B080BDC04600E100E080B582B0F4
:10AC400000AF021CFB1D1A70074AFB1D1B78191C64
:10AC50001F230B40012199400B1C191CC0235B00D2
:10AC6000D150BD4602B080BD00E100E0B0B582B079
:10AC700000AF021C3960FB1D1A70FB1D1B787F2B77
:10AC80002FD92D4CFB1D1B781A1C0F231340083B9A
:10AC90009908294AFB1D1B78181C0F230340083B09
:10ACA0009B0806339B00D3185B68FA1D1278101CB2
:10ACB00003220240D200101CFF228240D2431A40DD
:10ACC0003B689B01FF200340F81D0078051C032012
:10ACD0002840C00083401A438B1D9B00E3185A6034
:10ACE00026E0164CFB1D1B785BB29B081349FA1D2E
:10ACF000127852B29208C03292005258F91D097867
:10AD0000081C03210140C900081CFF218140C943E0
:10AD100011403A689201FF200240F81D0078051C9E
:10AD200003202840C00082400A43C0339B001A51D0
:10AD3000BD4602B0B0BDC04600ED00E000E100E05D
:10AD40002BDF7047181CC0462CDF7047181CC0460C
:10AD50002DDF7047181CC0462EDF7047181CC046F8
:10AD60002FDF7047181CC04630DF7047181CC046E4
:10AD700031DF7047181CC04632DF7047181CC046D0
:10AD800033DF7047181CC04634DF7047181CC046BC
:10AD900035DF7047181CC04636DF7047181CC046A8
:10ADA00037DF7047181CC04638DF7047181CC04694
:10ADB00039DF7047181CC0463ADF7047181CC04680
:10ADC0003DDF7047181CC0463EDF7047181CC04668
:10ADD0003BDF7047181CC0463CDF7047181CC0465C
:10ADE0003FDF7047181CC04640DF7047181CC04644
:10ADF00041DF7047181CC04642DF7047181CC04630
:10AE000043DF7047181CC04644DF7047181CC0461B
:10AE100045DF7047181CC04646DF7047181CC04607
:10AE200047DF7047181CC04649DF7047181CC046F2
:10AE30004ADF7047181CC0464BDF7047181CC046DD
:10AE400048DF7047181CC04620DF7047181CC046FA
:10AE500021DF7047181CC04622DF7047181CC0460F
:10AE600023DF7047181CC04624DF7047181CC046FB
:10AE700025DF7047181CC04626DF7047181CC046E7
:10AE800027DF7047181CC0464CDF7047181CC046AF
:10AE90004DDF7047181CC04651DF7047181CC04674
:10AEA00052DF7047181CC04629DF7047181CC04687
:10AEB00028DF7047181CC0462ADF7047181CC046A0
:10AEC0004EDF7047181CC0464FDF7047181CC04645
:10AED00050DF7047181CC04680B582B000AF786064
:10AEE000A023DB057A68C132FF3292000321D150E2
:10AEF000BD4602B080BDC04680B582B000AF78606C
:10AF00000A1CFB1C1A70A023DB05FA1C12789200A5
:10AF1000111C7A68C132FF329200D150BD4602B096
:10AF200080BDC04680B582B000AF7860A023DA054E
:10AF30007B6801219940A123DB00D150BD4602B0BE
:10AF400080BDC04680B500AF074B00221A70074B8A
:10AF50000122DA60054B01225A60044AA023DB007B
:10AF60000021D150BD4680BD1425002000200040A6
:10AF700080B582B000AF084B0122DA60074B012296
:10AF80001A703B1C03221A70054B1B683A1C101CDC
:10AF90009847BD4602B080BD002000401425002027
:10AFA0001025002080B500AF094B1B78DBB2022BC7
:10AFB00002D0084B01229A60064A074B1B78191CE5
:10AFC000064BD150024B02221A70BD4680BDC046CE
:10AFD00014250020002000400C2500201C05000046
:10AFE00080B500AFFFF7C4FFBD4680BD80B500AFA0
:10AFF000084B1B78DBB2012B02D0022B03D006E0FA
:10B00000FFF7A0FF03E0034B03221A70C046BD46C2
:10B0100080BDC0461425002080B500AF0C4B1B78C6
:10B02000DBB2002B02D0032B0CD00FE0094AA02387
:10B03000DB000421D150074B01221A60044B01228E
:10B040001A7003E0024B02221A70C046BD4680BD52
:10B05000142500200020004080B500AF094B1B786C
:10B06000DBB2012B0ADB022B05DD032B00D005E050
:10B07000FFF768FF03E0FFF7B3FF00E0C046BD46FF
:10B0800080BDC0461425002080B500AF044B1B785E
:10B09000DBB2012B01D1FFF785FFBD4680BDC04665
:10B0A0001425002080B500AFFFF74CFFBD4680BDE2
:10B0B00080B582B000AF021CFB1D1A70FB1D1B780F
:10B0C000042B13D89A000B4BD3181B689F46FFF72D
:10B0D0008DFF0CE0FFF7A0FF09E0FFF7BDFF06E0E2
:10B0E000FFF7D2FF03E0FFF7DDFF00E0C046BD46FB
:10B0F00002B080BDE460020080B582B000AF78602D
:10B100000A1CFB1C1A707B68181C08F035FB031E18
:10B1100003D00020FFF7CCFF02E00120FFF7C8FFBB
:10B12000BD4602B080BDC04680B586B000AF354A8E
:10B1300084235B00D358002B23D0324AC1239B00C9
:10B14000D358042213401CD02E4A84235B000021D4
:10B15000D1502C4AA323DB00D358DBB29AB22A4B3E
:10B160001A800C23FB1804221A70274B1B88DAB2B2
:10B170000C23FB181A71254B1B680C22BA18101CE3
:10B180009847204A8E235B00D358002B0ED01D4ACF
:10B19000C1239B00D3588022134007D0194A8E2325
:10B1A0005B000021D1500320FFF782FF154A922354
:10B1B0005B00D358002B21D0124AC1239B00D258E8
:10B1C00080239B00134019D00E4A92235B0000217C
:10B1D000D1500C4A9023DB00D3587B61094990235E
:10B1E000DB007A69CA503B1D02221A703B1D7A6946
:10B1F0005A60064B1B683A1D101C9847BD4606B0A6
:10B2000080BDC046002000401420002010250020F2
:10B2100080B500AF154AA023DB000421D150134AAA
:10B2200084235B000021D150104A8E235B00002153
:10B23000D1500E490D4A0E4BD358012293430C4A6C
:10B240008B500A49A123DB0001225242CA50074910
:10B25000A223DB0001225242CA50044B01229A6011
:10B26000024B01221A60BD4680BDC046002000404E
:10B270006C05000080B582B000AF7860164AA0234C
:10B28000DB000421D150144A84235B000021D150FB
:10B29000114A8E235B000021D1500F490E4A0F4BFB
:10B2A000D358012213430D4A8B500B4A7B68DB783D
:10B2B000191CA223DB00D150074A7B689B78191C1C
:10B2C000A123DB00D150044B01229A60024B0122E2
:10B2D0001A60BD4602B080BD002000406C05000031
:10B2E00080B588B000AFF860B9607A601A1CFB1CAA
:10B2F0001A70784B00221A70774B7A681A60774B75
:10B30000012252421A80FB685B78181CFFF70AFE84
:10B31000FB685B78181CFFF7DFFDFB681B78181CC7
:10B320000321FFF7E9FD6E4AFB685B78191C6D4B42
:10B33000D1506B4AFB681B78191C6B4BD150684984
:10B34000FB689B68694A8B50FB685B79002B04D0D3
:10B35000634A674B0E21D15003E0614A644B0021E0
:10B36000D150FB681B79022B00D077E007F076FF05
:10B37000031C1A1C01235340DBB2002B08D007F03A
:10B380002BFF031CFB61FB69002B01D0FB699CE0D8
:10B390001823FB1800221A8000229A701823FB1829
:10B3A00001225A70FB689B781A1C1823FB18101C8A
:10B3B000191C07F08BFF031CFB61FB69002B01D0FC
:10B3C000FB6982E04649A223DB0001225242CA50B7
:10B3D000434AFB689B78191CA123DB00D1504049EC
:10B3E0003F4A434BD35801221343414A8B50142305
:10B3F000FB1803221A701423FB1800225A7014231E
:10B40000FB1800229A701423FB180022DA70FB68E4
:10B41000DB78191C1423FA18364B081C111C1A1C53
:10B4200008F066F8031CFB61FB69002B01D0FB6987
:10B430004BE0FB68DB78181C012108F0C3F8FB68BF
:10B44000DB78181C08F098F9031E03D00020FFF7E2
:10B450002FFE14E00120FFF72BFE10E0FB681B79A4
:10B46000012B07D1FB68181CFFF704FF194B0122C1
:10B470001A7004E0FFF7CCFE164B01221A70BB6A6B
:10B480001B88002B08D11C4B1B785A1CD1B21A4ABE
:10B4900011709AB2BB6A1A801149C2239B00012223
:10B4A0005242CA500E49C1239B00A1229200CA50A9
:10B4B0000220FFF7C3FBFB1C1B780220191CFFF7BF
:10B4C000D5FB0220FFF7A4FB0023181CBD4608B0E3
:10B4D00080BDC04614250020102500201420002027
:10B4E000002000400C0500001405000024050000A9
:10B4F0006C050000F9B001001620002080B584B072
:10B5000000AF78600023FB600A4B1B880A4A934215
:10B5100002D10523FB6008E0064B1B88DAB27B688A
:10B520001A70044B012252421A80FB68181CBD4657
:10B5300004B080BD14200020FFFF000080B584B05F
:10B5400000AF021CFB1D1A700023FB60094B1B7827
:10B55000DBB2012B02D00423FB6006E0064BFA1D90
:10B5600012781A700220FFF7A3FDFB68181CBD4675
:10B5700004B080BD142500200C25002080B500AF4C
:10B580000023181CBD4680BD80B582B000AF786036
:10B59000064B1B78DBB25A1E9341DBB21A1C7B6848
:10B5A0001A700023181CBD4602B080BD142500206F
:10B5B00080B582B000AF021CBB1D1A80BB1D1B886A
:10B5C000FE2B04D80420FFF773FD00230AE00420BB
:10B5D000FFF76EFD054AA223DB00D358181C08F0C4
:10B5E000A1F80023181CBD4602B080BD0020004019
:10B5F00070DF7047181CC04671DF7047181CC046CA
:10B6000072DF7047181CC04673DF7047181CC046B5
:10B6100074DF7047181CC04675DF7047181CC046A1
:10B6200076DF7047181CC04677DF7047181CC0468D
:10B6300078DF7047181CC04679DF7047181CC04679
:10B640007ADF7047181CC0467BDF7047181CC04665
:10B650007CDF7047181CC0467DDF7047181CC04651
:10B660007EDF7047181CC0467FDF7047181CC0463D
:10B6700080DF7047181CC04681DF7047181CC04629
:10B6800082DF7047181CC04683DF7047181CC04615
:10B6900084DF7047181CC04685DF7047181CC04601
:10B6A0008ADF7047181CC04686DF7047181CC046EA
:10B6B00087DF7047181CC04688DF7047181CC046DB
:10B6C00089DF7047181CC046B0DF7047181CC046A1
:10B6D000B1DF7047181CC046B2DF7047181CC04667
:10B6E00090DF7047181CC04691DF7047181CC04699
:10B6F00092DF7047181CC04693DF7047181CC04685
:10B7000094DF7047181CC04695DF7047181CC04670
:10B7100096DF7047181CC04697DF7047181CC0465C
:10B7200098DF7047181CC046A0DF7047181CC04641
:10B73000A1DF7047181CC046A2DF7047181CC04626
:10B74000A3DF7047181CC046A4DF7047181CC04612
:10B75000A5DF7047181CC046A6DF7047181CC046FE
:10B76000A7DF7047181CC046A8DF7047181CC046EA
:10B77000A9DF7047181CC046AADF7047181CC046D6
:10B7800060DF7047181CC04661DF7047181CC04658
:10B7900062DF7047181CC04663DF7047181CC04644
:10B7A00064DF7047181CC04665DF7047181CC04630
:10B7B00066DF7047181CC04667DF7047181CC0461C
:10B7C00068DF7047181CC04669DF7047181CC04608
:10B7D00080B582B000AF021C3960BB1D1A80BB1D52
:10B7E0001B88DAB23B681A703B680133BA1D1288B5
:10B7F000120A92B2D2B21A700223181CBD4602B0CD
:10B8000080BDC04680B588B000AFF860B9607A608E
:10B810001C23FB187A6812781A701C23FB181B78FB
:10B8200002331F2B04DCFB685B7802331F2B01DD26
:10B830000C2380E01C23FB181B789AB21E23FB18F4
:10B840001D218A1A1A801623FB181E22BA18128884
:10B850001A801C23FB181B780233BA68D2181623EF
:10B86000FB18101C191CFFF7F7FE031CBB61BB691A
:10B87000002B01D0BB695EE0FB681B78022B12D164
:10B880001623FB181B881E22BA1812889A420AD364
:10B890001D23FB1809221A701E23FB181622BA1842
:10B8A00012881A801BE01D23FB1808221A70FB68FF
:10B8B0005B78002B0DD0FB685B789BB21E22BA1818
:10B8C00012889A4205D3FB685A781E23FB181A8007
:10B8D00005E01E23FB181622BA1812881A801C23B2
:10B8E000FB181B781C22BA18591C11701A1CBB6853
:10B8F0009B181E22BA181288D2B20132D2B21A7024
:10B900001C23FB181B781C22BA18591C11701A1C16
:10B91000BB689B181D22BA1812781A707B681A78B7
:10B920001E23FB181B88DBB2D318DBB20233DAB25A
:10B930007B681A700023181CBD4608B080BDC04645
:10B9400080B584B000AF786039603B681B78043301
:10B950001F2B01DD0C2336E00A23FB18181CFFF710
:10B960006BFE031CFB60FB68002B01D0FB682AE028
:10B970003B681B785A1CD1B23A6811701A1C7B685C
:10B980009B1803221A703B681B785A1CD1B23A6884
:10B9900011701A1C7B689B1819221A700A23FB1855
:10B9A0001A883B681B78191C7B685B18101C191CD3
:10B9B000FFF70EFF031C1A1C3B681B789B18DAB2BA
:10B9C0003B681A700023181CBD4604B080BDC046F9
:10B9D00080B584B000AFB9607A600F23FB18021CF9
:10B9E0001A707B681B7803331F2B01DD0C2323E0C7
:10B9F0007B681B785A1CD1B27A6811701A1CBB681C
:10BA00009B1802221A707B681B785A1CD1B27A6884
:10BA100011701A1CBB689B180A221A707B681B786D
:10BA20005A1CD1B27A6811701A1CBB689B180F227D
:10BA3000BA1812781A700023181CBD4604B080BDD5
:10BA400080B58AB000AFF860081C111C7B600B2326
:10BA5000FB18021C1A700A23FB180A1C1A702323F5
:10BA6000FB1800221A702223FB183A6B12781A7006
:10BA700000237B6280E0FB685A687B6A9B00D318D6
:10BA80001422BA18111C1A1C0423081C111C1A1C9D
:10BA90000AF0E3FA1423FA181A23FB18101C191CD5
:10BAA0000022FFF781FE031CFB61FB69002B01D024
:10BAB000FB697DE01A23FB181B780A22BA1812785A
:10BAC0009A4256D12323FB181B78002B01D0002269
:10BAD00000E002221B23FB181A703B6B1B781A1C18
:10BAE0001A23FB181B78D2181B23FB181B78D318BA
:10BAF0001F2B01DD0C235BE02323FB181B780122A5
:10BB00005340DBB2002B16D03B6B1B780133DAB20B
:10BB10003B6B1A703B6B1B785A1CD1B23A6B11709D
:10BB20001A1C7B689B180B22BA1812781A702323F0
:10BB3000FB1801221A703B6B1B781A1C7B689B1840
:10BB40001422B9181A22BA18081C111C1A1CFFF763
:10BB50002BFE031CFB61FB69002B01D0FB6927E076
:10BB60003B6B1A781A23FB181B78D318DAB23B6B9D
:10BB70001A707B6A01337B62FB681B881A1E7B6A22
:10BB80009A4200DD77E72323FB181B78002B0ED0A9
:10BB90002223FB181B787A68D3183A6B117822227B
:10BBA000BA1812788A1AD2B2013AD2B21A700023A5
:10BBB000181CBD460AB080BD90B589B002AFF860D0
:10BBC000081C111C7B600B23FB18021C1A700A2333
:10BBD000FB180A1C1A70F9680B23FB181A787C688A
:10BBE000BB6A0093081C111C0222231CFFF728FFCC
:10BBF000031C7B617B69002B01D07B6914E0F96831
:10BC00000A23FB181A787C68BB6A0093081C111C75
:10BC10001022231CFFF714FF031C7B617B69002BA0
:10BC200001D07B6900E00023181CBD4607B090BD21
:10BC300080B582B000AF78607B681B88052B0AD97D
:10BC40007B681A88C8231B019A4206D97B681B8827
:10BC5000164A934201D0072323E07B685B88052BBB
:10BC60000AD97B685A88C8231B019A4206D97B6887
:10BC70005B880E4A934201D0072312E07B681B8841
:10BC80000A4A93420CD07B685B88084A934207D0EB
:10BC90007B681A887B685B889A4201D9072300E099
:10BCA0000023181CBD4602B080BDC046FFFF000047
:10BCB00080B586B000AFF860B9607A607B681B78A9
:10BCC00006331F2B01D90C2347E0FB68181CFFF734
:10BCD000AFFF031C7B617B69002B01D07B693CE0DB
:10BCE0007B681B785A1CD1B27A6811701A1CBB6829
:10BCF0009B1805221A707B681B785A1CD1B27A688F
:10BD000011701A1CBB689B1812221A70FB681A88E3
:10BD10007B681B78191CBB685B18101C191CFFF78B
:10BD200057FD031C1A1C7B681B789B18DAB27B68D2
:10BD30001A70FB685A887B681B78191CBB685B18F3
:10BD4000101C191CFFF744FD031C1A1C7B681B7890
:10BD50009B18DAB27B681A700023181CBD4606B027
:10BD600080BDC04680B586B000AFF860B9607A602B
:10BD7000FB689B88DAB21723FB1802321A707B68C3
:10BD80001B789A1C1723FB181B78D3181F2B01DD77
:10BD90000C234EE07B681B785A1CD1B27A68117074
:10BDA0001A1CBB689B181722BA1812780132D2B23B
:10BDB0001A707B681B785A1CD1B27A6811701A1CF1
:10BDC000BB689B18FF221A70FB681A887B681B7877
:10BDD000191CBB685B18101C191CFFF7F9FC031C2D
:10BDE0001A1C7B681B789B18DAB27B681A70FB6898
:10BDF0009B88002B1CD0FB689B68002B01D107237C
:10BE000017E07B681B781A1CBB689918FB689A6856
:10BE1000FB689B88081C111C1A1C0AF01EF97B6821
:10BE20001A78FB689B88DBB2D318DAB27B681A7089
:10BE30000023181CBD4606B080BDC04680B588B042
:10BE400000AFF860B9607A60FB689B6A002B01D193
:10BE5000072374E01F23FB1800221A7066E0FB68BA
:10BE6000996A1F23FB181A78131C5B009B189B0010
:10BE7000CB18BB61BB699B88DAB21723FB1802326F
:10BE80001A707B681B785A1CD1B27A6811701A1C20
:10BE9000BB689B181722BA1812780132D2B21A70F6
:10BEA0007B681B785A1CD1B27A6811701A1CBB6867
:10BEB0009B1816221A70BB691A887B681B78191C9C
:10BEC000BB685B18101C191CFFF782FC031C1A1CB2
:10BED0007B681B789B18DAB27B681A70BB699B88F9
:10BEE000002B1CD0BB699B68002B01D1072326E0E7
:10BEF0007B681B781A1CBB689918BB699A68BB6978
:10BF00009B88081C111C1A1C0AF0A7F87B681A7879
:10BF1000BB699B88DBB2D318DAB27B681A701F2327
:10BF2000FB181A781F23FB1801321A70FB682C22A9
:10BF30009B5C1F22BA1812789A4290D30023181CD7
:10BF4000BD4608B080BDC04690B589B002AFF8606C
:10BF5000B9607A6000237B617B6800221A70FB68FD
:10BF60001B78002B0ED0F968BA687B68081C111C7E
:10BF70001A1CFFF747FC031C7B617B69002B01D077
:10BF80007B69CEE0FB689B78002B0CD0BA687B689D
:10BF9000101C191CFFF7D4FC031C7B617B69002B70
:10BFA00001D07B69BDE0FB68DB78002B21D07B688A
:10BFB0001B785A1CD1B27A6811701A1CBB689B1886
:10BFC00002221A707B681B785A1CD1B27A681170F1
:10BFD0001A1CBB689B1801221A707B681B785A1CBC
:10BFE000D1B27A6811701A1CBB689B18FA68D278B3
:10BFF0001A70FB685B68002B11D0FB685B681B78CC
:10C0000059B2BA687B68081C111C1A1CFFF7E0FCC7
:10C01000031C7B617B69002B01D07B6981E0FB689D
:10C020001B89002B12D0FB6808331A1CBC687B6884
:10C030000093101C02210622231CFFF7BDFD031CE8
:10C040007B617B69002B01D07B696AE0FB681B8AFE
:10C05000002B12D0FB6810331A1CBC687B6800935D
:10C06000101C03210722231CFFF7A6FD031C7B6184
:10C070007B69002B01D07B6953E0FB681B8B002B95
:10C0800012D0FB6818331A1CBC687B680093101C24
:10C0900014211522231CFFF78FFD031C7B617B6994
:10C0A000002B01D07B693CE0FB681B6A002B0FD0A2
:10C0B000FB68196ABA687B68081C111C1A1CFFF718
:10C0C000F7FD031C7B617B69002B01D07B6928E0B5
:10C0D000FB685B6A002B0FD0FB68596ABA687B6803
:10C0E000081C111C1A1CFFF73DFE031C7B617B69B9
:10C0F000002B01D07B6914E0FB682C229B5C002B99
:10C100000ED0F968BA687B68081C111C1A1CFFF76E
:10C1100095FE031C7B617B69002B01D07B6900E0ED
:10C120007B69181CBD4607B090BDC04680B582B083
:10C1300000AF78607B68DB781A1C0423134001D1C0
:10C14000072300E00023181CBD4602B080BDC04696
:10C1500080B582B000AF78607B68DB78002B01D0BF
:10C16000072300E00023181CBD4602B080BDC04676
:10C1700080B596B000AF786039604B23FB18002281
:10C180001A704A23FB1800221A707B68002B1FD0FC
:10C190007B68181CFFF7CAFF031CFB64FB6C002BB9
:10C1A00001D0FB6C46E079682823FA184B23FB1872
:10C1B000081C111C1A1CFFF7C7FE031CFB64FB6C58
:10C1C000002B01D0FB6C35E02823FB187B6501E0D8
:10C1D00000237B653B68002B1FD03B68181CFFF7D2
:10C1E000B7FF031CFB64FB6C002B01D0FB6C21E050
:10C1F00039680823FA184A23FB18081C111C1A1C5A
:10C20000FFF7A2FE031CFB64FB6C002B01D0FB6C50
:10C2100010E00823FB183B6501E000233B654B233E
:10C22000FB1819784A23FB181B78786D3A6DFFF7D5
:10C23000E7F9031C181CBD4616B080BD70DF7047BF
:10C24000181CC04671DF7047181CC04672DF70476B
:10C25000181CC04673DF7047181CC04674DF704757
:10C26000181CC04675DF7047181CC04676DF704743
:10C27000181CC04677DF7047181CC04678DF70472F
:10C28000181CC04679DF7047181CC0467ADF70471B
:10C29000181CC0467BDF7047181CC0467CDF704707
:10C2A000181CC0467DDF7047181CC0467EDF7047F3
:10C2B000181CC0467FDF7047181CC04680DF7047DF
:10C2C000181CC04681DF7047181CC04682DF7047CB
:10C2D000181CC04683DF7047181CC04684DF7047B7
:10C2E000181CC04685DF7047181CC0468ADF70479F
:10C2F000181CC04686DF7047181CC04687DF704791
:10C30000181CC04688DF7047181CC04689DF70477C
:10C31000181CC046B0DF7047181CC046B1DF70471C
:10C32000181CC046B2DF7047181CC04690DF70472B
:10C33000181CC04691DF7047181CC04692DF70473A
:10C34000181CC04693DF7047181CC04694DF704726
:10C35000181CC04695DF7047181CC04696DF704712
:10C36000181CC04697DF7047181CC04698DF7047FE
:10C37000181CC046A0DF7047181CC046A1DF7047DC
:10C38000181CC046A2DF7047181CC046A3DF7047C8
:10C39000181CC046A4DF7047181CC046A5DF7047B4
:10C3A000181CC046A6DF7047181CC046A7DF7047A0
:10C3B000181CC046A8DF7047181CC046A9DF70478C
:10C3C000181CC046AADF7047181CC04660DF7047C3
:10C3D000181CC04661DF7047181CC04662DF7047FA
:10C3E000181CC04663DF7047181CC04664DF7047E6
:10C3F000181CC04665DF7047181CC04666DF7047D2
:10C40000181CC04667DF7047181CC04668DF7047BD
:10C41000181CC04669DF7047181CC0462BDF7047E8
:10C42000181CC0462CDF7047181CC0462DDF704713
:10C43000181CC0462EDF7047181CC0462FDF7047FF
:10C44000181CC04630DF7047181CC04631DF7047EB
:10C45000181CC04632DF7047181CC04633DF7047D7
:10C46000181CC04634DF7047181CC04635DF7047C3
:10C47000181CC04636DF7047181CC04637DF7047AF
:10C48000181CC04638DF7047181CC04639DF70479B
:10C49000181CC0463ADF7047181CC0463DDF704785
:10C4A000181CC0463EDF7047181CC0463BDF704773
:10C4B000181CC0463CDF7047181CC0463FDF704761
:10C4C000181CC04640DF7047181CC04641DF70474B
:10C4D000181CC04642DF7047181CC04643DF704737
:10C4E000181CC04644DF7047181CC04645DF704723
:10C4F000181CC04646DF7047181CC04647DF70470F
:10C50000181CC04649DF7047181CC0464ADF7047F8
:10C51000181CC0464BDF7047181CC04648DF7047E8
:10C52000181CC04620DF7047181CC04621DF70472A
:10C53000181CC04622DF7047181CC04623DF704716
:10C54000181CC04624DF7047181CC04625DF704702
:10C55000181CC04626DF7047181CC04627DF7047EE
:10C56000181CC0464CDF7047181CC0464DDF704792
:10C57000181CC04651DF7047181CC04652DF704778
:10C58000181CC04629DF7047181CC04628DF7047BA
:10C59000181CC0462ADF7047181CC0464EDF704783
:10C5A000181CC0464FDF7047181CC04650DF70474C
:10C5B000181CC04680B582B000AF78607B681B79DC
:10C5C000002B03D17B681B7B002B01D0012300E0F3
:10C5D0000023181CBD4602B080BDC04680B500AF28
:10C5E000034B181C0021072209F040FDBD4680BD09
:10C5F0001C25002080B584B000AF78600023FB606C
:10C600000AE07A68FB68D3181B78002B01D001235D
:10C6100006E0FB680133FB60FB68052BF1D90023C2
:10C62000181CBD4604B080BD90B589B000AFF8605D
:10C63000B9607A603B60FB68002B02D07B68002BFE
:10C6400001D10E23CDE0694B00221A70684B3A6885
:10C650001A60684B3A6B1A60674B7A6813CA13C347
:10C6600013CA13C313CA13C3FFF7B8FF634B644A5B
:10C670001A60624B634A9A60634B181C0021302297
:10C6800009F0F4FCFB681A785F4B1A70FB689A7823
:10C690005D4B9A70FB68DA785B4BDA70FB685A780E
:10C6A000594B5A70584BFA681033103203CA03C3FF
:10C6B000554BFA680833083203CA03C3524BFA6871
:10C6C0001833183203CA03C3FB685B6A002B29D0F6
:10C6D0004D4B4E4A5A624D4B4D4A9A604A4B5A6AEC
:10C6E000FB685B6A1B881380474B5A6AFB685B6A6E
:10C6F0009B8893800023FB610DE0FB685B6A9A686E
:10C70000FB69D3181978424AFB69D3180A1C1A70BE
:10C71000FB690133FB613C4B5B6A9B881A1EFB691A
:10C720009A42EAD8FB689B6A002B33D0394B3A4ACD
:10C730009A60354B374A9A62334B9B6A364A9A6005
:10C74000314B9A6AFB689B6A9B8893802E4B9A6A4E
:10C75000FB689B6A1B8813800023BB610DE0FB68AC
:10C760009B6A9A68BB69D31819782B4ABB69D3189E
:10C770000A1C1A70BB690133BB61234B9B6A9B88FF
:10C780001A1EBB699A42EAD8FB682C22995C1E4BA0
:10C790002C229954FB681B6A002B0ED01A4B1F4A9F
:10C7A0001A62194B1A6AFB681B6A5B885380164B26
:10C7B0001A6AFB681B6A1B881380FB685B68002B86
:10C7C00006D0114B164A5A60FB685A680E4B5A60E5
:10C7D0000D4ABB68101C191CFFF7CAFC031C7B61C7
:10C7E0007B69181CBD4609B090BDC046602500207D
:10C7F000582500205C250020642500208825002085
:10C8000098250020B825002024250020DC250020C4
:10C81000E8250020082600201426002034260020C9
:10C820003826002080B58AB000AF021CFB1D1A70AC
:10C83000C54BFA1D12781A700023BB600823FB1841
:10C84000181C08F071FD031C7B627B6A082B02D167
:10C850000023BB6004E07B6A002B01D07B6A96E179
:10C86000BB68002B04D0B94B01221A7000238EE163
:10C87000FFF7B4FEB64B5B78002B03D0B24B1B78AE
:10C88000012B07D0B24B9B78002B12D0AE4B1B78FC
:10C89000022B0ED1AF4B1B68002B07D0AE4B0122F1
:10C8A0001A70AC4B1B680820984702E0AA4B002284
:10C8B0001A70A54B1B78012B14D1A54B5B78012274
:10C8C0005340DBB2002B0AD1A44B181CFFF792FE99
:10C8D000031C1A1C01235340DBB2002B02D09A4BDD
:10C8E00002221A70984B1B78022B14D1984B9B781C
:10C8F00001225340DBB2002B0AD1984B181CFFF7E2
:10C9000079FE031C1A1C01235340DBB2002B02D01A
:10C910008D4B03221A708E4B1B7B01225340DBB2DE
:10C92000002B06D0884B1B78032B02D1864B0422A8
:10C930001A70874B1B7E01225340DBB2002B09D0BB
:10C94000814B1B78042B05D17F4B00221A70844B3E
:10C9500000221A707F4B1B68002B1AD07A4B1B7871
:10C96000032B03D0784B1B78042B12D1784B1B7808
:10C97000002B0ED07B4B1B7801225340DBB2002BE7
:10C9800007D0794B01221A70724B1B680720984719
:10C9900002E0754B00221A700C23FB18181C0021B2
:10C9A000182209F063FB0C23FB1800221A700C23D9
:10C9B000FB1800225A600C23FB1800221A720C2369
:10C9C000FB180022DA60604B1B78022B1CD002DCC3
:10C9D000012B05D0A8E0032B2ED0042B68D0A3E0B8
:10C9E0000C23FB18614A5A600C23FB1801221A70B1
:10C9F0000C23FB1800225A820C23FB1800221A82F7
:10CA0000574B01221A708FE00C23FB18574A5A60CB
:10CA10000C23FB1801221A704D4B9B689AB20C2311
:10CA2000FB185A824A4B5B689AB20C23FB181A8295
:10CA30004B4B02221A7077E0454B5B699AB20C238C
:10CA4000FB185A82424B1B699AB20C23FB181A82BC
:10CA5000474B181CFFF7AEFD031E25D03C4B1B783F
:10CA6000002B21D03F4B1B7801225340DBB2002B1F
:10CA70001AD00C23FB1802221A720C23FB183C4A12
:10CA8000DA603C4B0422DA703A4B181C0021FFF7A5
:10CA90006FFB031C7B627B6A002B01D07B6A76E014
:10CAA0002F4B05221A703FE02D4B03221A703BE0FA
:10CAB000274BDB699AB20C23FB181A82244B1B6AA2
:10CAC0009AB20C23FB185A82294B181CFFF772FDEF
:10CAD000031E25D01E4B1B78002B21D0214B1B7829
:10CAE00001225340DBB2002B1AD00C23FB18022288
:10CAF0001A720C23FB181E4ADA601E4B0422DA70ED
:10CB00001C4B181C0021FFF733FB031C7B627B6A64
:10CB1000002B01D07B6A3AE0114B06221A7002E02A
:10CB20000F4B04221A70C046074B1B78002B23D0F2
:10CB30000C23FB18181CFFF78DFB031C7B627B6A20
:10CB4000002B19D07B6A22E06025002018250020E8
:10CB50006425002058250020DA2500201D2500200E
:10CB600054250020D8250020D92500201C25002090
:10CB70008825002024250020074B1B68002B05D0AA
:10CB8000054B1B68054A1278101C98470023181C97
:10CB9000BD460AB080BDC04658250020542500205F
:10CBA00080B586B000AF78607B681B88112B09D0F8
:10CBB000192B23D0102B00D07DE07B689A883F4B47
:10CBC0001A8078E03E4B00221A707B689A883B4BB3
:10CBD0001B889A4211D10120FFF724FE031C7B61C0
:10CBE0007B69002B09D0374B1B68002B05D0354BD8
:10CBF0001B687A69101C98475DE05CE07B689B7954
:10CC0000002B57D1304B1B78022B1BD002DC012BA1
:10CC100005D04FE0032B28D0042B3CD04AE0022063
:10CC2000FFF700FE031C3B613B69002B09D0254B3D
:10CC30001B68002B05D0234B1B683A69101C9847D2
:10CC400038E037E00320FFF7EDFD031CFB60FB68D5
:10CC5000002B09D01B4B1B68002B05D0194B1B6800
:10CC6000FA68101C984725E024E0184B03221A703C
:10CC70000420FFF7D7FD031CBB60BB68002B09D065
:10CC8000104B1B68002B05D00E4B1B68BA68101C9C
:10CC900098470FE00EE00D4B00221A700C4B1B68FA
:10CCA000002B06D00A4B1B68084A1278101C9847C4
:10CCB000FFE7C046C046BD4606B080BD1820002034
:10CCC000D82500205C250020602500205425002068
:10CCD0005825002080B584B000AF78600023FB6049
:10CCE0007B68023B012B1BD80F4B1B78002B16D007
:10CCF0000D4B00221A700D4B1B78181CFFF792FD8C
:10CD0000031CFB60FB68002B09D0094B1B68002B40
:10CD100005D0074B1B68FA68101C984701E000E03B
:10CD2000C046BD4604B080BD182500206025002007
:10CD30005C25002080B584B000AF7860134B1B7871
:10CD400001225340DBB2002B01D0082319E07B689D
:10CD50001A780F4B1A700023FB600BE07A68FB68AF
:10CD6000D31859780A4AFB68D3180A1C5A70FB6812
:10CD70000133FB60FB68052BF0DD044B00221A70C9
:10CD80000023181CBD4604B080BDC046DA25002033
:10CD90001C25002080B584B000AF7860224B1B7842
:10CDA00001225340DBB2002B01D0082337E07B681F
:10CDB0001A791E4B1A717B681A7B1C4B1A7300235D
:10CDC000FB600CE07B689A68FB689B00D3181968CD
:10CDD000174BFA689200D150FB680133FB60134B8C
:10CDE0001B7B1A1EFB689A42ECD80023FB600CE008
:10CDF0007B681A68FB689B00D31819680D4BFA68AA
:10CE00009200D150FB680133FB60084B1B791A1E5E
:10CE1000FB689A42ECD8044B00221A700023181CBD
:10CE2000BD4604B080BDC046D9250020882500201D
:10CE3000B82500209825002080B582B000AF194B9E
:10CE40001B78002B29D0184B1B7801225340DBB2F2
:10CE5000002B22D0154B1B78002B08D0FFF7FEF9D2
:10CE6000031C7B607B68002B01D07B6816E00E4BB7
:10CE700001221A700D4B1B78181CFFF7D3FC031C02
:10CE80007B607B68002B08D0094B1B68002B04D00B
:10CE9000074B1B687A68101C98470023181CBD4676
:10CEA00002B080BD64250020D82500206025002028
:10CEB0005C25002070DF7047181CC04671DF70478A
:10CEC000181CC04672DF7047181CC04673DF7047DD
:10CED000181CC04674DF7047181CC04675DF7047C9
:10CEE000181CC04676DF7047181CC04677DF7047B5
:10CEF000181CC04678DF7047181CC04679DF7047A1
:10CF0000181CC0467ADF7047181CC0467BDF70478C
:10CF1000181CC0467CDF7047181CC0467DDF704778
:10CF2000181CC0467EDF7047181CC0467FDF704764
:10CF3000181CC04680DF7047181CC04681DF704750
:10CF4000181CC04682DF7047181CC04683DF70473C
:10CF5000181CC04684DF7047181CC04685DF704728
:10CF6000181CC0468ADF7047181CC04686DF704711
:10CF7000181CC04687DF7047181CC04688DF704702
:10CF8000181CC04689DF7047181CC046B0DF7047C8
:10CF9000181CC046B1DF7047181CC046B2DF70478E
:10CFA000181CC04690DF7047181CC04691DF7047C0
:10CFB000181CC04692DF7047181CC04693DF7047AC
:10CFC000181CC04694DF7047181CC04695DF704798
:10CFD000181CC04696DF7047181CC04697DF704784
:10CFE000181CC04698DF7047181CC046A0DF704769
:10CFF000181CC046A1DF7047181CC046A2DF70474E
:10D00000181CC046A3DF7047181CC046A4DF704739
:10D01000181CC046A5DF7047181CC046A6DF704725
:10D02000181CC046A7DF7047181CC046A8DF704711
:10D03000181CC046A9DF7047181CC046AADF7047FD
:10D04000181CC04660DF7047181CC04661DF70477F
:10D05000181CC04662DF7047181CC04663DF70476B
:10D06000181CC04664DF7047181CC04665DF704757
:10D07000181CC04666DF7047181CC04667DF704743
:10D08000181CC04668DF7047181CC04669DF70472F
:10D09000181CC04680B582B000AF78607B681B78F2
:10D0A0009AB27B6801331B781B029BB213439BB27D
:10D0B0009BB2181CBD4602B080BDC04690B585B07D
:10D0C00000AF78600E23FC187B68181CFFF7E2FFA6
:10D0D000031C23800E23FB181B88012213405A1EB9
:10D0E0009341DBB2181CBD4605B090BD80B582B03F
:10D0F00000AF78607B685A88084B1B889A4207D338
:10D100007B685A88054B5B889A4201D8012300E06E
:10D110000023181CBD4602B080BDC0465826002022
:10D1200080B586B000AF7860294B1B88294A9342AE
:10D130004BD0294B1B780133DAB2274B1A70274B9F
:10D140001A7B254B1B789A4216D3214B1A88244B05
:10D15000101C191CFFF7C2FE031C7B617B69002BAE
:10D1600009D01E4B9B69002B05D01C4B9B697A692B
:10D17000101C984729E028E0174B00221A70174B23
:10D180001B7C002B13D0124B1B88181C3B21FFF774
:10D19000A9FE031C3B613B69002B08D00F4B9B6928
:10D1A000002B04D00D4B9B693A69101C98470B4B20
:10D1B0005B69002B09D00C23FB1800221A70074B67
:10D1C0005B690C22BA18101C9847BD4606B080BD9A
:10D1D00062260020FFFF0000602600203C26002081
:10D1E0005826002090B585B000AF7860214B7A6852
:10D1F00013CA13C313CA13C312681A601E4B00224A
:10D200001A707B681B68002B15D07B681B681B4A53
:10D21000111C1A1C0823081C111C1A1C08F01DFFE5
:10D22000164B181CFFF76EFE031CFB60FB68002BFF
:10D230000CD0FB6819E0114B181CFFF767FE031CAC
:10D24000FB60FB68002B01D0FB680EE00C4B012259
:10D2500052421A800B4B00221A700B4A0B4B101CC7
:10D2600000211A1CFDF7B0FB031C181CBD4605B0BD
:10D2700090BDC0463C260020702600205826002085
:10D2800062260020602600206C26002021D10100AB
:10D2900080B500AF044B1B68181CFDF753FC031C42
:10D2A000181CBD4680BDC0466C26002080B584B0E9
:10D2B00000AF284B181CFFF719FF031C1A1C012391
:10D2C0005340DBB2002B33D0234B1B78002B0CD008
:10D2D000224B5B69002B2AD03B1D00221A701F4B8A
:10D2E0005B693A1D101C98472EE01D4B1B78002BE4
:10D2F00003D11A4B5B68FB6002E0184B9B68FB6034
:10D30000184B1A68FB68101C191C0022FDF7D4FB8F
:10D31000031CBB60BB68002B09D0104B9B69002B22
:10D3200005D00E4B9B69BA68101C98470CE00BE0C7
:10D330000A4B5B69002B07D03B1C01221A70074B7C
:10D340005B693A1C101C9847034B00221A70BD46BB
:10D3500004B080BD64260020702600203C260020FA
:10D36000602600206C26002080B582B000AF786077
:10D370007B689A880B4B1A800B497B6816229B1896
:10D380000822081C191C08F068FE084B00221A70BD
:10D39000074BDB89002B01D1FFF788FFBD4602B0A8
:10D3A00080BDC04662260020642600206026002042
:10D3B0003C26002080B584B000AF78600E4B01227F
:10D3C00052421A800D4B00221A700D4B1B68181C1C
:10D3D000FDF7B8FB031CFB60FB68002B08D0094B72
:10D3E0009B69002B04D0074B9B69FA68101C984777
:10D3F000BD4604B080BDC0466226002060260020E5
:10D400006C2600203C26002080B584B000AF7860F8
:10D410007B680633FB60FB681A88144BDB899A42F1
:10D4200020D1FB681B8B022B1CD1FB681A33181C04
:10D43000FFF744FE031E02D0FFF738FF12E00C4B4B
:10D440001B68181CFDF77EFB031CBB60BB68002B30
:10D4500008D0064B9B69002B04D0044B9B69BA682B
:10D46000101C9847BD4604B080BDC0463C26002035
:10D470006C26002080B582B000AF786006497B68DA
:10D4800006229B180822081C191C08F0E6FDFFF76D
:10D490000DFFBD4602B080BD6426002080B582B07D
:10D4A00000AF78607B681B88112B0DD002DC102B3D
:10D4B00005D018E0122B11D0502B0AD013E07B6856
:10D4C000181CFFF751FF0EE07B68181CFFF772FF76
:10D4D00009E07B68181CFFF797FF04E07B68181CC5
:10D4E000FFF7C8FFC046BD4602B080BD80B584B01E
:10D4F00000AF7860214A7B68111C1A1C0823081CA5
:10D50000111C1A1C08F0A9FD1C4B181CFFF7FAFC93
:10D51000031CFB60FB68002B2AD1194B181CFFF77A
:10D52000E5FD031C1A1C01235340DBB2002B0FD076
:10D53000144B01221A70144B1A88104B101C191C22
:10D54000FFF7CCFC031CFB60104B01221A700FE0AC
:10D550000F4B5B69002B09D00823FB1801221A70BE
:10D560000B4B5B690822BA18101C98470023FB601C
:10D57000FB68181CBD4604B080BDC046582600207C
:10D5800064260020702600206226002060260020ED
:10D590003C26002070DF7047181CC04671DF7047C2
:10D5A000181CC04672DF7047181CC04673DF7047F6
:10D5B000181CC04674DF7047181CC04675DF7047E2
:10D5C000181CC04676DF7047181CC04677DF7047CE
:10D5D000181CC04678DF7047181CC04679DF7047BA
:10D5E000181CC0467ADF7047181CC0467BDF7047A6
:10D5F000181CC0467CDF7047181CC0467DDF704792
:10D60000181CC0467EDF7047181CC0467FDF70477D
:10D61000181CC04680DF7047181CC04681DF704769
:10D62000181CC04682DF7047181CC04683DF704755
:10D63000181CC04684DF7047181CC04685DF704741
:10D64000181CC0468ADF7047181CC04686DF70472A
:10D65000181CC04687DF7047181CC04688DF70471B
:10D66000181CC04689DF7047181CC046B0DF7047E1
:10D67000181CC046B1DF7047181CC046B2DF7047A7
:10D68000181CC04690DF7047181CC04691DF7047D9
:10D69000181CC04692DF7047181CC04693DF7047C5
:10D6A000181CC04694DF7047181CC04695DF7047B1
:10D6B000181CC04696DF7047181CC04697DF70479D
:10D6C000181CC04698DF7047181CC046A0DF704782
:10D6D000181CC046A1DF7047181CC046A2DF704767
:10D6E000181CC046A3DF7047181CC046A4DF704753
:10D6F000181CC046A5DF7047181CC046A6DF70473F
:10D70000181CC046A7DF7047181CC046A8DF70472A
:10D71000181CC046A9DF7047181CC046AADF704716
:10D72000181CC04660DF7047181CC04661DF704798
:10D73000181CC04662DF7047181CC04663DF704784
:10D74000181CC04664DF7047181CC04665DF704770
:10D75000181CC04666DF7047181CC04667DF70475C
:10D76000181CC04668DF7047181CC04669DF704748
:10D77000181CC04680B584B000AF786039600F23B4
:10D78000FB1800221A700F23FB181B780F22BA18FF
:10D79000591C11701A1C7B689B183A6812781A7011
:10D7A0000F23FB181B780F22BA18591C11701A1C72
:10D7B0007B689B183A6852781A700F23FB181B7805
:10D7C000023B5A425341DBB2BB60BB68002B05D120
:10D7D000064B002020211A1CFBF7D0FF0F23FB185B
:10D7E0001B78181CBD4604B080BDC046F86002001E
:10D7F00080B582B000AF786039603B68181C08F0D3
:10D800003DFC031C9AB27B681A807B683A685A60B8
:10D81000BD4602B080BDC04680B584B000AF021CDA
:10D82000FB1D1A700C23FB181A780F218A431A70FB
:10D830000C23FB181A780F210A401A70FB1D1B7865
:10D84000052B70D89A003B4BD3181B689F460C23BE
:10D85000FB181A780F218A431A700C23FB181A78C8
:10D860000F210A401A705EE00C23FB181A780F2172
:10D870008A43111C01220A431A700C23FB181A78E0
:10D880000F210A40111C10220A431A704BE00C238E
:10D89000FB181A780F218A43111C01220A431A70BF
:10D8A0000C23FB181A780F210A40111C20220A436E
:10D8B0001A7038E00C23FB181A780F218A43111CC8
:10D8C00001220A431A700C23FB181A780F210A4010
:10D8D000111C30220A431A7025E00C23FB181A7819
:10D8E0000F218A43111C02220A431A700C23FB18D1
:10D8F0001A780F210A40111C10220A431A7012E0F4
:10D900000C23FB181A780F218A43111C02220A43A8
:10D910001A700C23FB181A780F210A40111C2022C0
:10D920000A431A70C0460C23FB181B78181CBD460E
:10D9300004B080BD1061020090B595B000AFB96031
:10D940007A600E23FB18021C1A80BB689B78002BA0
:10D9500004D11C23FB1801229A7004E0BB689A785A
:10D960001C23FB189A70BB681A881C23FB181A80AA
:10D970001823FB18181C0021032208F077FBBB6852
:10D980001B7C1822BC18181CFFF746FF031C2370D1
:10D99000BB685B7C1822BC18181CFFF73DFF031CFA
:10D9A0006370BB689B7B1A1C01231340DAB21823F7
:10D9B000FB1801210A40D0009A7808218A43111CE3
:10D9C000021C0A439A70BB68DB7B1A1C01231340BC
:10D9D000DAB21823FB1801210A4010019A781021AD
:10D9E0008A43111C021C0A439A70BB681B7B1A1CD9
:10D9F00001231340DAB21823FB1801210A40101C3E
:10DA00009A7801218A43111C021C0A439A70BB6850
:10DA1000DB7C002B01D0022200E001221823FB183E
:10DA200003210A4090189A7806218A43111C021C8F
:10DA30000A439A703423FB18181C00211C2208F09A
:10DA400015FBBB685B7B10221340DBB2002B06D1B9
:10DA5000BB685B7B20221340DBB2002B2FD014234A
:10DA6000FB18181C0021032208F000FBBB689B7CFC
:10DA70001422BC18181CFFF7CFFE031C637014237C
:10DA8000FB181A780F218A43111C01220A431A70CD
:10DA90001423FB181A780F210A40111C10220A4384
:10DAA0001A701423FB189A7806218A43111C02224B
:10DAB0000A439A703423FB181422BA185A6134238B
:10DAC000FB18BA68527B1A702023FB18181C00211F
:10DAD000142208F0CBFA2023FB181C22BA181A6073
