:020000021000EC
:108000000080002029B0010071B0010073B00100B0
:108010000000000000000000000000000000000060
:1080200000000000000000000000000075B001002A
:10803000000000000000000077B0010079B00100EE
:108040007BB001007BB00100DDD801007BB00100F6
:108050007BB00100000000009D0702007BB0010022
:108060007BB001007BB001007BB001007BB0010060
:108070007BB001007BB001007BB001007BB0010050
:108080007BB0010021CC01007BB001007BB001007E
:108090006DCC01007BB0010095B701007BB0010001
:1080A0007BB001007BB00100000000000000000078
:1080B00000000000000000000000000000000000C0
:1080C00010B5064C2378002B07D1054B002B02D0AE
:1080D000044800E000BF0123237010BD9820002059
:1080E00000000000F065020008B5084B002B03D02B
:1080F0000748084900E000BF07480368002B00D18B
:1081000008BD064B002BFBD09847F9E700000000A4
:10811000F06502009C200020942000200000000058
:10812000164B002B00D1144B9D46402292029A1A06
:10813000924600218B460F461348144A121A0EF03D
:108140007DF80F4B002B00D098470E4B002B00D032
:1081500098470020002104000D000D48002802D09F
:108160000C4800E000BF0EF02BF82000290001F0C1
:10817000F9FE0EF00FF8C046000008000080002055
:10818000000000000000000098200020542E002075
:10819000000000000000000080B582B000AF244B5A
:1081A0007B607B6802221A617B6802225A617B68CD
:1081B000204A9A617B68204ADA617B688022D2007B
:1081C0001A627B6800229A627B6800225A627B688E
:1081D0000022DA627B68174A9A647B68174ADA647D
:1081E0007B6810221A657B6800229A657B680022F2
:1081F0005A657B680022DA657B68DA1D104B111C1A
:108200001A1C0423081C111C1A1C0EF00EF87A68A4
:108210000C4B111C1A1C0723081C111C1A1C0EF0F5
:1082200004F87B6820229A71BD4602B080BDC0462A
:10823000002D002078620200B4200020B424002029
:10824000846202008862020080B588B000AFF860E6
:10825000B9607A600023BB61FB68DB687B61FB6807
:108260001B693B613A697B699A4205D93A697B6926
:10827000D31A013BFB6107E0FB689A6839697B69A7
:10828000CB1AD318013BFB61FB689A687B69D31A50
:10829000FA69934200D9131CFB61FA697B68934227
:1082A00000D9131CFB61FB685A687B69D118BA6856
:1082B000FB69081C111C1A1C0DF0B7FFBA69FB6999
:1082C000D318BB61BA68FB69D318BB607A68FB69D5
:1082D000D31A7B607A69FB69D3187B61FB689A6863
:1082E0007B699A4201D100237B61FB687A69DA607D
:1082F0007B68002BB3D1BB69181CBD4608B080BD9C
:1083000080B588B000AFF860B9607A60FB68DB6860
:10831000FB61FB689A68FB69D31ABB61BA697B6829
:108320009A4210D9FB685A68FB69D118BA687B6811
:10833000081C111C1A1C0DF078FFFA697B68D21812
:10834000FB68DA601EE0BB697B61FB685A68FB6909
:10835000D118BA687B69081C111C1A1C0DF065FF46
:108360007A68BB69D31A7B61FB685968BA68BB69D4
:10837000D2187B69081C111C1A1C0DF056FFFB68F3
:108380007A69DA60BD4608B080BDC04680B584B069
:1083900000AF78600A1CFB1C1A700C23FB18FF222C
:1083A0001A70FB1C1B78084AD25C0C23FB185A700D
:1083B0007A680C23FB18101C191C0222FFF744FFDB
:1083C000BD4604B080BDC0460420002080B586B004
:1083D00000AF78607B681B693B617B68DB68FB6092
:1083E0003A69FB689A4208D87B689A68FB68D21A97
:1083F0003B69D318013B7B6104E03A69FB68D31AFF
:10840000013B7B617B69181CBD4606B080BDC04640
:1084100080B58AB000AFF860B9607A603E4B1B78D7
:10842000002B01D1FFF7B8FEFA68131C5B009B1804
:10843000DB0048331A1C384BD318BB61BB68FB61A7
:10844000BB691B693B62BB69DB687B6100237B62A4
:108450003A6A7B699A422CD9BB699A683B6AD31AFB
:108460003B613A697B68934200D9131C3B61BB694D
:108470005A683B6AD218F9693B69081C111C1A1C1E
:108480000DF0D3FE7A6A3B69D3187B62FA693B69C7
:10849000D318FB617A683B69D31A7B603A6A3B69FF
:1084A000D3183B62BB699A683B6A9A4201D10023A8
:1084B0003B627A693B6AD31A3B613A697B689342B3
:1084C00000D9131C3B613B69002B1AD0BB695A6869
:1084D0003B6AD218F9693B69081C111C1A1C0DF083
:1084E000A4FE7A6A3B69D3187B62FA693B69D318A8
:1084F000FB617A683B69D31A7B603A6A3B69D3189F
:108500003B627B6A002B02D0BB693A6A1A617B6AC4
:10851000181CBD460AB080BD002D002080B586B075
:1085200000AFF860B9607A60EFF31083012181F346
:1085300010883B61F968BA687B68081C111C1A1C1A
:10854000FFF766FF031C7B613B6983F310887B693F
:10855000181CBD4606B080BD80B58AB000AFF8607B
:10856000B9607A60BB687B62FB685A1C131C5B00B5
:108570009B18DB00434A9B183B623B6A1B69FB610B
:108580003B6ADB68BB61FA69BB699A425AD83B6AAD
:108590009A68BB69D31A013B7B617A697B689A420E
:1085A00011D33B6A5A68BB69D1187A6A7B68081C88
:1085B000111C1A1C0DF039FEBA697B68D2183B6A8F
:1085C000DA6001235AE07A69FB69D3187B617A6922
:1085D0007B689A4251D33B6A9A68BB69D31A3B6164
:1085E0003A697B689A4210D93B6A5A68BB69D118CC
:1085F0007A6A7B68081C111C1A1C0DF016FEBA69F9
:108600007B68D2183B6ADA601AE03B6A5A68BB6939
:10861000D1187A6A3B69081C111C1A1C0DF005FE62
:108620003B6A58687A6A3B69D1187A683B69D31A01
:108630001A1C0DF0FAFD7A683B69D21A3B6ADA60BF
:1086400001231BE0FA69BB69D31A013B7B617A699C
:108650007B689A4211D33B6A5A68BB69D1187A6A1F
:108660007B68081C111C1A1C0DF0DFFDBA697B68C1
:10867000D2183B6ADA60012300E00023181CBD46D3
:108680000AB080BD002D002080B588B000AFF86032
:10869000B9607A60BB68BB61FB685A1C131C5B0045
:1086A0009B18DB00254A9B187B617B695B69012B6A
:1086B0001BD002D3022B2DD037E07B69181CFFF7AB
:1086C00085FE031C3B613A697B689A4202D2002313
:1086D000FB612DE07B68FB617969BA697B68081CE6
:1086E000111C1A1CFFF70CFE22E07B69181CFFF717
:1086F0006DFE031C3B613A697B68934200D9131CF1
:10870000FB617969BA69FB69081C111C1A1CFFF727
:10871000F7FD0DE07969BA697B68081C111C1A1C09
:10872000FFF792FD031CFB6102E00023FB61C046E2
:10873000FB69181CBD4608B080BDC046002D002056
:1087400080B586B000AFF860B9607A600E4B1B78D8
:10875000002B01D1FFF720FDEFF31083012181F3FE
:1087600010883B61F968BA687B68081C111C1A1CE8
:10877000FFF78AFF031C7B613B6983F310887B69E9
:10878000181CBD4606B080BD002D002080B584B009
:1087900000AF786039603B68181C0DF057FD031C72
:1087A000FB6079683A68FB68081C111C1A1CFFF70B
:1087B000C7FF031C181CBD4604B080BD80B582B045
:1087C00000AFFB1C0020191C0122FFF7A7FE031CB1
:1087D0007B607B68012B03D1FB1C1B787B6002E074
:1087E00001235B427B607B68181CBD4602B080BDE4
:1087F00080B582B000AFFFF7E1FF031C7B607B68B0
:10880000002BF8DB7B68181CBD4602B080BDC0465B
:1088100080B582B000AF0C4B1B78002B01D1FFF765
:10882000BBFC094B9B6D3B60074B5A6D3B689A4202
:1088300002D001237B6001E000237B607B68181C71
:10884000BD4602B080BDC046002D002080B584B07A
:1088500000AF78607A68131C5B009B18DB0048331C
:108860001A1C074BD318FB60FB68DB68BB60FB6816
:108870001B69BA68D31A181CBD4604B080BDC04637
:10888000002D002080B586B000AFF860B9607A6036
:108890003B602F4B1B78002B01D1FFF77DFC2C4B4D
:1088A0001B691A1EFB689A4249D9EFF31083012114
:1088B00081F310883B61FB68002B30D02449FB68B2
:1088C0005A1C131C5B009B18DB00BA685A502049E5
:1088D000FB685A1C131C5B009B18DB00CB187A68E2
:1088E0005A601B49FA68131C5B009B18DB00CB180D
:1088F00020333A681A601649FA68131C5B009B180B
:10890000DB00CB18283300221A601149FA68131CC7
:108910005B009B18DB00CB18203300225A600C4907
:10892000FA68131C5B009B18DB00CB1828333A6AEB
:108930005A603B6983F3108800237B6102E00123C6
:108940005B427B617B69181CBD4606B080BDC0469A
:10895000002D002080B586B000AFF860B9607A6065
:108960003B602F4B1B78002B01D1FFF715FC2C4BE4
:108970005B691A1EFB689A424AD9EFF31083012102
:1089800081F310883B61FB68002B31D02449FA68E1
:10899000131C5B009B18DB00CB184833BA681A60C5
:1089A0001F49FA68131C5B009B18DB00CB18483387
:1089B0007A685A601A49FA68131C5B009B18DB003E
:1089C000CB1850333A681A601549FA68131C5B00DB
:1089D0009B18DB00CB18583300221A601049FA6844
:1089E000131C5B009B18DB00CB18503300225A602D
:1089F0000B49FA68131C5B009B18DB00CB1858333B
:108A00003A6A5A603B6983F3108800237B6102E075
:108A100001235B427B617B69181CBD4606B080BDAB
:108A2000002D002080B584B000AF78603960144B11
:108A30001B78002B01D1FFF7AFFB114B1B691A1EEE
:108A40007B689A4214D9EFF31083012181F31088D7
:108A5000BB600B497B685A1C131C5B009B18DB0036
:108A60003A685A50BB6883F310880023FB6002E029
:108A700001235B42FB60FB68181CBD4604B080BD4F
:108A8000002D002080B584B000AF78603960154BB0
:108A90001B78002B01D1FFF77FFB124B5B691A1E7D
:108AA0007B689A4215D9EFF31083012181F3108876
:108AB000BB600C497A68131C5B009B18DB00CB1869
:108AC00048333A681A60BB6883F310880023FB6060
:108AD00002E001235B42FB60FB68181CBD4604B04A
:108AE00080BDC046002D002080B500AF034B1B7831
:108AF000002B01D1FFF750FBBD4680BD002D0020AB
:108B000080B588B000AF021CFB1D1A702B4B1B7880
:108B1000002B01D1FFF740FB0023FB611023FB1862
:108B2000FF221A70FB1D1B780F2B3ED8FB1D1B78F4
:108B3000234AD25C1023FB185A70224BBB61EFF31F
:108B40001083012181F31088FB60BB695B690322FC
:108B50001340022B0CD11C4BFA1D12781A70BA6903
:108B60001023FB18101C191C0222FFF76DFB18E0E4
:108B7000BB69181CFFF72AFC031C7B617B69012B76
:108B80000CD9114BFA1D12781A70BA691023FB1810
:108B9000101C191C0222FFF7B3FB02E001235B4209
:108BA000FB61FB6883F3108802E001235B42FB61F9
:108BB000FB69181CBD4608B080BDC046002D0020D2
:108BC00004200020182D0020C424002080B588B087
:108BD00000AF021C3960FB1D1A704B4B1B78002B39
:108BE00001D1FFF7D9FAFB1D1B780F2B00D983E0C9
:108BF000464BBB613B68181C0DF028FB031C7B61D6
:108C0000EFF31083012181F31088FB60BB69181C0E
:108C1000FFF7DCFB031C3B61BB695B69032213406C
:108C2000012B24D002D3022B45D05DE07B691A1DB5
:108C30003B699A4202D90023FB6159E0BA69FB1DE6
:108C40001B78101C191CFFF7A1FBB9693A687B69F6
:108C5000081C111C1A1CFFF7F7FA031CFB612C4BB4
:108C60001B78BA69101C191CFFF790FB40E03B69A8
:108C7000032B03D801235B42FB6139E0BA69FB1D7A
:108C80001B78101C191CFFF781FB3B691A1F7B69BD
:108C90009A4200D91A1CB9693B68081C191CFFF7D5
:108CA000D3FA031CFB611A4B1B78BA69101C191C00
:108CB000FFF76CFB1CE0BA69FB1D1B78101C191C2C
:108CC000FFF764FBB9693A687B69081C111C1A1C20
:108CD000FFF7BAFA031CFB610D4B1B78BA69101C35
:108CE000191CFFF753FB03E001235B42FB61C04605
:108CF000FB6883F3108802E001235B42FB61FB69A0
:108D0000181CBD4608B080BD002D0020182D002085
:108D1000C424002080B584B000AF78600A1CFB1C1E
:108D20001A707B689B68FB60FB685A1C7B685B68F9
:108D30009A420FD87B681A68FB68D318FA1C12781D
:108D40001A70FB685A1C7B689A607B68DB685A1C47
:108D50007B68DA607B689A687B685B689A4217D1A7
:108D60007B6819697B681A687B689B68081C111C02
:108D70001A1CFFF7E5FC021E7B689B689A4204D030
:108D80007B6801225242DA6002E07B6800229A602E
:108D9000BD4604B080BDC04680B58AB000AFF86063
:108DA000B9607A603B60BB683B6201237B62012350
:108DB000FB6108E0386A79680DF06AF8031C3B62D1
:108DC000FB690133FB613A6A7B689A42F2D23A68E6
:108DD000FB699A4201D93B68FB617B6B012213401E
:108DE0002AD13B6B002B27D07B6B0222134007D08C
:108DF0003B68002B04D11B23FB1830221A7003E0C0
:108E00001B23FB1820221A700FE03B6B013B3B63D6
:108E1000FA681B23FB181B78101C191CFFF77AFF3C
:108E2000FB68DB68002B00DA06E03B6B002B03D00D
:108E3000FA693B6B9A42E8D3FB68DB68002B55DB91
:108E40003B68012B03D93B68013B3B600AE0B868F3
:108E5000796A0DF01DF8031C7B617A697B689A4280
:108E600000D204E07B6A7A6853437B62E8E7B86823
:108E7000796A0DF00DF8031C7B617B697A6A5343B4
:108E8000BA68D31ABB601B4A7B69D3181B78FA688F
:108E9000101C191CFFF73EFFFB68DB68002B00DA93
:108EA00008E0786A79680CF0F3FF031C7B627B6A48
:108EB000002BDCD17B6B0122134017D03B6B002BC6
:108EC00014D00CE03B6B013B3B63FB68181C20217A
:108ED000FFF720FFFB68DB68002B00DA06E03B6B46
:108EE000002B03D0FA693B6B9A42EBD3BD460AB024
:108EF00080BDC0469062020090B589B002AFF860B4
:108F0000B9607A603B60BB68DA179B1853403B61DD
:108F100001237B6109E07B683869191C0DF048F872
:108F2000031C3B617B6901337B617A683B699A4230
:108F3000F1DD3A687B699A4201D93B687B61BB6A83
:108F4000002B09D0BB68002B03DBFB6A0422134013
:108F500002D0BB6A013BBB62FB6A0222134002D013
:108F60003B68002B1BD0FB6A0122134017D1BB6A60
:108F7000002B14D00CE0BB6A013BBB62FB68181CE1
:108F80002021FFF7C7FEFB68DB68002B00DA06E054
:108F9000BB6A002B03D07A69BB6A9A42EBD3FB68A9
:108FA000DB68002B4ADBBB68002B08DABB685B423E
:108FB000BB60FB68181C2D21FFF7ACFE08E0FB6AC4
:108FC0000422134004D0FB68181C2B21FFF7A2FEDB
:108FD000FB68DB68002B31DBFB6A022213401ED0EA
:108FE000FB6A012213401AD13B68002B17D1BB6AE0
:108FF000002B14D00CE0BB6A013BBB62FB68181C61
:109000003021FFF787FEFB68DB68002B00DA06E003
:10901000BB6A002B03D07A69BB6A9A42EBD3FB6828
:10902000DB68002B0ADBB968F8687A683C68BB6AC1
:109030000093FB6A0193231CFFF7AEFEBD4607B009
:1090400090BDC04690B5A3B002AFF860B9607A6039
:109050005023FB181022BA181A605023FB18402224
:109060005A605023FB1800229A605023FB18FA68BC
:109070001A615023FB180022DA607F23FB18BA68BC
:1090800012781A70BB680133BB607F23FB181B7812
:10909000002B00D16DE17F23FB181B78252B00D01E
:1090A00058E100233B670123BB677F23FB18BA68A5
:1090B00012781A707F23FB181B782B2B18D002DC38
:1090C000232B1DD024E02D2B02D0302B08D01FE005
:1090D0003B6F012213433B67BB680133BB601AE05F
:1090E0003B6F022213433B67BB680133BB6012E056
:1090F0003B6F042213433B67BB680133BB600AE04C
:109100003B6F082213433B67BB680133BB6002E03F
:109110000023BB67C046BB6F002BC6D10023FB6694
:109120007F23FB18BA6812781A707F23FB181B780C
:109130002F2B14D97F23FB181B78392B0FD8BB6832
:109140000133BB60FA6E131C9B009B185B001A1C5A
:109150007F23FB181B78D318303BFB66E0E7002326
:109160007B677F23FB18BA6812781A707F23FB187D
:109170001B782E2B21D1BB680133BB607F23FB18EA
:10918000BA6812781A707F23FB181B782F2B14D91A
:109190007F23FB181B78392B0FD8BB680133BB60CA
:1091A0007A6F131C9B009B185B001A1C7F23FB1813
:1091B0001B78D318303B7B67E0E77F23FB18BA6846
:1091C00012781A707F23FB181B786C2B04D07F2336
:1091D000FB181B78682B08D17F23FB18BA6812781C
:1091E0001A70BB680133BB60ECE77F23FB181B7868
:1091F000642B29D007DC582B52D0632B0FD0252BA2
:1092000000D19CE0A2E0732B60D003DC702B00D176
:1092100080E09BE0752B2DD0782B41D096E07B68C9
:109220001B68191D7A6811601B68BB676723FB18F0
:10923000BA6F1A705023FA186723FB181B78101C9A
:10924000191CFFF767FD81E07B681B68191D7A68B0
:1092500011601B68BB675023F918BA6F7C6FFB6EF7
:1092600000933B6F0193081C111C0A22231CFFF77B
:1092700043FE6BE07B681B68191D7A6811601B68F0
:10928000BB67BA6F5023F9187C6FFB6E00933B6F7E
:109290000193081C111C0A22231CFFF77DFD55E0D9
:1092A0007B681B68191D7A6811601B68BB67BA6F01
:1092B0005023F9187C6FFB6E00933B6F0193081CE1
:1092C000111C1022231CFFF767FD3FE07B681B6821
:1092D000191D7A6811601B68BB667F23FB18BA6E84
:1092E00012781A70BB6E0133BB667F23FB181B78A4
:1092F000002B00D10DE05023FA187F23FB181B78B8
:10930000101C191CFFF706FD5023FB18DB68002B0F
:10931000E3DA1BE07B681B68191D7A6811601B6823
:10932000BB67BA6F5023F9180823009300230193F9
:10933000081C111C10220823FFF72EFD06E0502305
:10934000FB18181C2521FFF7E5FCC046BB6801335C
:10935000BB6008E05023FA187F23FB181B78101C11
:10936000191CFFF7D7FC5023FB18DB68002B00DB30
:1093700083E65023FB18DB68002B19DD5023FB1814
:109380009B68002B0AD05023FB189B68F9681022B9
:10939000BA18081C111C1A1CFFF7D2F95023FB182D
:1093A000DA685023FB189B68D2185023FB18DA6048
:1093B0005023FB18DB68181CBD4621B090BDC04689
:1093C0000EB480B585B000AF78602023FB18FB6039
:1093D0007968FA690C23FB18081C111C1A1CFFF78A
:1093E00031FE031C181CBD4605B080BC08BC03B090
:1093F0001847C04670DF7047181CC04671DF7047C1
:10940000181CC04672DF7047181CC04673DF7047D7
:10941000181CC04674DF7047181CC04675DF7047C3
:10942000181CC04676DF7047181CC04677DF7047AF
:10943000181CC04678DF7047181CC04679DF70479B
:10944000181CC0467ADF7047181CC0467BDF704787
:10945000181CC0467CDF7047181CC0467DDF704773
:10946000181CC0467EDF7047181CC0467FDF70475F
:10947000181CC04680DF7047181CC04681DF70474B
:10948000181CC04682DF7047181CC04683DF704737
:10949000181CC04684DF7047181CC04685DF704723
:1094A000181CC0468ADF7047181CC04686DF70470C
:1094B000181CC04687DF7047181CC04688DF7047FD
:1094C000181CC04689DF7047181CC046B0DF7047C3
:1094D000181CC046B1DF7047181CC046B2DF704789
:1094E000181CC04690DF7047181CC04691DF7047BB
:1094F000181CC04692DF7047181CC04693DF7047A7
:10950000181CC04694DF7047181CC04695DF704792
:10951000181CC04696DF7047181CC04697DF70477E
:10952000181CC04698DF7047181CC046A0DF704763
:10953000181CC046A1DF7047181CC046A2DF704748
:10954000181CC046A3DF7047181CC046A4DF704734
:10955000181CC046A5DF7047181CC046A6DF704720
:10956000181CC046A7DF7047181CC046A8DF70470C
:10957000181CC046A9DF7047181CC046AADF7047F8
:10958000181CC04660DF7047181CC04661DF70477A
:10959000181CC04662DF7047181CC04663DF704766
:1095A000181CC04664DF7047181CC04665DF704752
:1095B000181CC04666DF7047181CC04667DF70473E
:1095C000181CC04668DF7047181CC04669DF70472A
:1095D000181CC0462BDF7047181CC0462CDF704794
:1095E000181CC0462DDF7047181CC0462EDF704780
:1095F000181CC0462FDF7047181CC04630DF70476C
:10960000181CC04631DF7047181CC04632DF704757
:10961000181CC04633DF7047181CC04634DF704743
:10962000181CC04635DF7047181CC04636DF70472F
:10963000181CC04637DF7047181CC04638DF70471B
:10964000181CC04639DF7047181CC0463ADF704707
:10965000181CC0463DDF7047181CC0463EDF7047EF
:10966000181CC0463BDF7047181CC0463CDF7047E3
:10967000181CC0463FDF7047181CC04640DF7047CB
:10968000181CC04641DF7047181CC04642DF7047B7
:10969000181CC04643DF7047181CC04644DF7047A3
:1096A000181CC04645DF7047181CC04646DF70478F
:1096B000181CC04647DF7047181CC04649DF70477A
:1096C000181CC0464ADF7047181CC0464BDF704765
:1096D000181CC04648DF7047181CC04620DF704782
:1096E000181CC04621DF7047181CC04622DF704797
:1096F000181CC04623DF7047181CC04624DF704783
:10970000181CC04625DF7047181CC04626DF70476E
:10971000181CC04627DF7047181CC0464CDF704736
:10972000181CC0464DDF7047181CC04651DF7047FB
:10973000181CC04652DF7047181CC04629DF70470E
:10974000181CC04628DF7047181CC0462ADF704727
:10975000181CC0464EDF7047181CC0464FDF7047CC
:10976000181CC04650DF7047181CC04610DF7047F9
:10977000181CC04611DF7047181CC04612DF704726
:10978000181CC04613DF7047181CC04680B582B055
:1097900000AF021C3960BB1D1A80BB1D1A88054929
:1097A0003B68081C111C1A1C02F01AF8BD4602B0D6
:1097B00080BDC046EFBEADDE90B585B002AF0D4CAA
:1097C00000230093002009210522231C03F054FAF2
:1097D000031C7B607B683B603B68002B06D03A68CB
:1097E000054B101C73211A1C01F0FAFFBD4603B093
:1097F00090BDC046CC240020A062020080B586B097
:1098000000AF3B1C1A780F218A43111C01220A4326
:109810001A703B1C1A780F210A40111C10220A43AF
:109820001A703A1C1D4B101C191C0F22FFF712FE58
:10983000031C7B617B693B613B69002B06D03A6965
:10984000174B101C91211A1C01F0CAFF3B1D181C5C
:10985000002108220CF0F2FC3B1D50221A803B1D17
:10986000A0225A803B1D00229A803B1DC822520034
:10987000DA803B1D181CFFF7E5FD031C7B617B694B
:10988000FB60FB68002B06D0FA68054B101C9F217B
:109890001A1C01F0A5FFBD4606B080BDB0620200F3
:1098A000A062020080B500AFBD4680BD80B584B027
:1098B00000AF78607B681B78002B13D10B4B1B88A3
:1098C000181C3B21FFF7AEFD031CFB60FB68BB606F
:1098D000BB68002B06D0BA68054B101CEB211A1C84
:1098E00001F07EFFBD4604B080BDC04614200020BC
:1098F000A062020080B582B000AF78607A68044B45
:10990000101CF6211A1C01F06BFFBD4602B080BD91
:10991000A062020080B58AB000AF3B1D181C002178
:109920001C220CF08BFC3B1D00221A603B1DA02268
:1099300092025A603B1DF02212039A603B1D0322E3
:109940001A733B1D0022DA813B1D00221A743B1D55
:109950000E4A5A613B1D0E4A9A613B1D181C0AF0C3
:10996000B5FF031C7B627B6A3B623B6A002B09D01C
:10997000396A0E23FF331A1C064B081C111C1A1CD3
:1099800001F02EFFBD460AB080BDC046AD98010073
:10999000F5980100A062020080B500AFBD4680BD11
:1099A00080B584B000AF002000F0B8FF031CFB605E
:1099B000FB68BB60BB68002B08D0B96892235A00D3
:1099C000164B081C111C1A1C01F00AFF01F0A4FA26
:1099D000031CFB60FB687B607B68002B08D0796808
:1099E00094235A000D4B081C111C1A1C01F0F8FEA0
:1099F000FFF73CFE031CFB60FB683B603B68002BF1
:109A000008D0396896235A00044B081C111C1A1CF4
:109A100001F0E6FEBD4604B080BDC046A062020073
:109A200080B584B000AF021CFB1D1A70FB1D1B78B3
:109A3000002B17D0032B00D017E0022000F06EFFA0
:109A4000031CFB60FB68BB60BB68002B09D0B968D6
:109A50009F235A00064B081C111C1A1C01F0C0FE63
:109A600003E002E0FFF79CFFC046BD4604B080BDA6
:109A7000A062020080B584B000AF78607B681B886C
:109A8000102B02D0112B19D01DE0072000F046FF4B
:109A9000031CFB60FB68BB60BB68002B09D0B96886
:109AA0005623FF331A1C094B081C111C1A1C01F009
:109AB00097FE7B689A88064B1A8004E0044B0122CB
:109AC00052421A80C046BD4604B080BDA06202006A
:109AD0001420002080B582B000AF78607B68181C2D
:109AE00009F056FA7B68181C0BF04CF87B68181CC0
:109AF00001F028FA7B68181CFFF7BCFF7B68181C74
:109B00000CF03CF8BD4602B080BDC04680B582B0C6
:109B100000AF78607B68181C04F0EEFF7B68181CAF
:109B20000CF0C6F8BD4602B080BDC04680B588B016
:109B300000AF314B0820191C4822002301F0A8FD7A
:109B4000031CFB61FB69BB61BB69002B08D0B969D1
:109B5000C8235A00294B081C111C1A1C01F040FE96
:109B60003B1C181C002108220CF068FB3B1C1A78D7
:109B700001210A431A703B1C181CFFF703FD031C4C
:109B80007B617B693B613B69002B09D039699C2370
:109B9000FF331A1C194B081C111C1A1C01F020FE63
:109BA000174B181C01F0CEFD031C7B617B69FB6029
:109BB000FB68002B08D0F968D0235A000F4B081C13
:109BC000111C1A1C01F00CFE0E4B181C01F0CEFDEE
:109BD000031C7B617B69BB60BB68002B08D0B96844
:109BE000D2235A00054B081C111C1A1C01F0F8FD69
:109BF000BD4608B080BDC046FC270020A062020020
:109C0000D59A01000D9B010080B586B000AF021C03
:109C1000FB1D1A70FB1D1B78072B23D00A2B02D0CB
:109C2000042B03D036E0FFF7BBFE33E01B4B1B8851
:109C3000181C1321FFF7F6FB031C7B617B69082BC3
:109C40000FD07B693B613B69002B0AD03969BA238D
:109C5000FF331A1C124B081C111C1A1C01F0C0FD0A
:109C600018E017E00CF0D6F8031C7B617B69082B29
:109C70000FD07B69FB60FB68002B0AD0F968C22318
:109C8000FF331A1C064B081C111C1A1C01F0A8FDFE
:109C9000FFE7C046BD4606B080BDC0461420002088
:109CA000A062020080B586B000AFF860B9607A604B
:109CB0007B687B617B69002B09D07969D423FF33F2
:109CC0001A1C054B081C111C1A1C01F089FD0023ED
:109CD000181CBD4606B080BDA062020080B58AB0E7
:109CE00000AF021CFB1D1A701423FB18FA1D12781A
:109CF0001A7005F077F8031C7B627B6A3B623B6A53
:109D0000002B09D0396AEE23FF331A1C334B081C91
:109D1000111C1A1C01F064FD1423FB18181C07F019
:109D2000CBFF031C7B627B6AFB61FB69002B08D0C5
:109D3000F969F8235A00294B081C111C1A1C01F060
:109D40004FFD0823FB180533181C002105220CF0D9
:109D500075FA0823FB185A7901210A435A7108231E
:109D6000FB185A7902218A435A710823FB185A7941
:109D70001C218A43111C0C220A435A710823FB1828
:109D80005A7920218A435A710823FB1807229A71B5
:109D90000823FB181022DA710823FB18104A1A60F6
:109DA0000823FB1801221A710E4A0823FB18101C05
:109DB000191C08F037F8031C7B627B6ABB61BB6926
:109DC000002B08D0B969FF235A00044B081C111C52
:109DD0001A1C01F005FDBD460AB080BDA06202005C
:109DE000A59C0100C824002090B59BB002AF282399
:109DF000FB18181C002130220CF020FA2823FB1835
:109E000002221A702823FB1801229A702823FB18BB
:109E10000622DA702823FB1801221A822823FB1855
:109E20001E4A5A613B1D00221A6000225A6000221D
:109E30009A600022DA6000221A6100225A61002230
:109E40009A610022DA6100221A623B1D01221A7314
:109E50003B1D962252001A613B1DB4225A612823F1
:109E6000F9183A1D0E4C00230093081C0021231CF6
:109E70000BF0C8FB031CFB65FB6DBB65BB6D002BCA
:109E800008D0B96D86239A00064B081C111C1A1CB9
:109E900001F0A6FCBD4619B090BDC04618200020B8
:109EA000219A0100A062020080B586B000AF786000
:109EB0001A4A1B4B0320111C1A1C00F05FFD031CE7
:109EC0007B617B693B613B69002B06D03A69154990
:109ED000154B101C1A1C01F083FC0B23FB180020EF
:109EE000191C01F077F8031C7B617B69FB60FB6840
:109EF000002B06D0FA680D490B4B101C1A1C01F000
:109F00006FFC0B23FB181B78023B5A425341DAB219
:109F10007B681A70BD4606B080BDC046CD0C0000FF
:109F2000099C010027020000A06202002A02000032
:109F300080B582B000AFFFF7CDFB031C7B607B6870
:109F40003B603B68002B06D03A680449044B101C68
:109F50001A1C01F045FCBD4602B080BD3502000070
:109F6000A062020080B584B000AFFFF725FCFB1DA6
:109F7000181CFFF799FFFFF7D9FDFB1D1B78181C74
:109F8000FFF7ACFEFFF73AFCFFF72EFFFFF78AFC66
:109F9000FFF7C0FCFFF700FD03200BF031FC031CB2
:109FA000FB60FB68BB60BB68002B06D0BA68044945
:109FB000044B101C1A1C01F013FCFFF7B9FFFCE75F
:109FC0004D020000A062020080B586B000AF78604C
:109FD00000233B617B6800221A60A023DA05A223DC
:109FE000DB00D358DB43FB6000237B6116E00F4BA3
:109FF0007A699200D3581A1C012393401A1CFB68FB
:10A00000134008D07B681B687A69012191400A1CC3
:10A010001A437B681A607B6901337B617B69032B80
:10A02000E5D93B69181CBD4606B080BDC062020080
:10A0300080B584B000AF786039607B68032B16D898
:10A04000A023DA05A223DB00D358DB43FB600C4BD3
:10A050007A689200D3581A1C012393401A1CFB689B
:10A0600013405A1E9341DAB23B681A7002E03B6813
:10A0700000221A700023181CBD4604B080BDC046E3
:10A08000C062020080B586B000AF021CFB1D1A70D2
:10A09000BB1D0A1C1A701723FB1800221A7000231C
:10A0A0003B6102E03B6901333B613B69032B07D80D
:10A0B000424B3A699200D258FB1D1B789A42F1D16B
:10A0C0003B69032B67D8BB1D1B78012B04D0022BE7
:10A0D00057D0002B37D05EE01723F91838483A697B
:10A0E000131C5B009B181B5C0B7035493A69131CF1
:10A0F0005B009B18CB185B78002B17D0314B19688D
:10A10000314B1A68131C9B009B185B001A1C2F4BC9
:10A11000081C111C1A1C02F0E5FE031CFB60FB6806
:10A12000002B03D1294BFA1D12781A7024493A6981
:10A13000131C5B009B18CB189978254A3B69D318F0
:10A140000A1C1A7027E01F4B1B68181C02F010FF36
:10A150001F4A3B69D318197819483A69131C5B00E8
:10A160009B18C3189B7899420AD11723F9181448F1
:10A170003A69131C5B009B18C3189B780B700AE0AC
:10A1800009E01723F9180E483A69131C5B009B1865
:10A19000C3185B780B701723FB181B78002B0AD0B1
:10A1A0000C4B1B68002B06D00A4B1B681722BA18F1
:10A1B0001278101C9847BD4606B080BDC0620200F0
:10A1C0005C28002068280020482800206C280020F7
:10A1D000702800205828002080B582B000AF786039
:10A1E0007B681B78181C0221FFF74CFFBD4602B0AC
:10A1F00080BDC04690B589B000AF021CFB1D1A702F
:10A200000023FB610023BB61FB1D1B78172B00D9CA
:10A2100039E39A00D94BD3181B689F46A023DA056F
:10A22000A123DB00B0214904D150A023DB05D44A8F
:10A2300000219950D34BFA1D12781A7024E3A02301
:10A24000DA05A123DB00A0214904D150A023DB05BE
:10A25000CB4A00219950A023DB05CB4A9B58F02222
:10A2600052045A4080239B03134016D0A023DA05E2
:10A27000A123DB0080218903D150A023DB05C04A44
:10A2800000219950FB1D1B78022B02D1E123DB003A
:10A2900001E0FA231B01BB6114E0A023DB05B849F0
:10A2A000802292035A50A023DA05A123DB0000216B
:10A2B000D150FB1D1B78022B01D1C82301E0C8231C
:10A2C0005B00BB61AF4BFA1D12781A70AF4B1C6874
:10A2D000BB69181C64210BF0DBFD031C1A1CAC4B82
:10A2E0001B685343201C191C002202F0FBFD031CB9
:10A2F000FB61C9E2A023DA05A123DB00A021490408
:10A30000D150A023DB059E4A00219950A023DB05F4
:10A310009D4A9B58F02252045A4080239B031340CD
:10A3200016D0A023DA05A123DB0080218903D150B8
:10A33000A023DB05924A00219950FB1D1B78032BBB
:10A3400002D1C8239B0001E0FA231B01BB6114E08A
:10A35000A023DB058A49802292035A50A023DA0504
:10A36000A123DB000021D150FB1D1B78032B01D161
:10A37000C82301E0C8235B00BB61824BFA1D127841
:10A380001A70824B1C68BB69181C64210BF080FD9D
:10A39000031C1A1C7E4B1B685343201C191C0022F3
:10A3A00002F0A0FD031CFB616EE2A023DA05A123ED
:10A3B000DB00A0214904D150A023DB05704A002115
:10A3C0009950A023DB05704A9B58F02252045A4052
:10A3D00080239B0313400FD0A023DA05A123DB00C9
:10A3E00080218903D150A023DB05654A00219950C3
:10A3F000FA231B01BB610EE0A023DB05604980222C
:10A4000092035A50A023DA05A123DB000021D1508A
:10A41000C8235B00BB615B4BFA1D12781A705B4B63
:10A420001C68BB69181C64210BF032FD031C1A1C4C
:10A43000574B1B685343201C191C002202F052FD8D
:10A44000031CFB6120E2A023DA05A123DB00A0218D
:10A450004904D150A023DB05494A00219950A0238B
:10A46000DB05494A9B58F02252045A4080239B0343
:10A47000134015D0A023DA05A123DB008021890336
:10A48000D150A023DB053E4A00219950FB1D1B78CB
:10A49000052B01D1C82301E0FA231B01BB6114E0A5
:10A4A000A023DB053649802292035A50A023DA0507
:10A4B000A123DB000021D150FB1D1B78052B01D10E
:10A4C000C82301E0C8235B00BB612E4BFA1D127844
:10A4D0001A702E4B1C68BB69181C64210BF0D8FC49
:10A4E000031C1A1C2A4B1B685343201C191C0022F6
:10A4F00002F0F8FC031CFB61C6E1A023DA05A123EE
:10A50000DB00A0214904D150A023DB051C4A002117
:10A510009950A023DB051C4A9B58F02252045A4054
:10A5200080239B0313400CD0A023DA05A123DB007A
:10A5300080218903D150A023DB05114A00219950C5
:10A540000BE0A023DB050E49802292035A50A02382
:10A55000DA05A123DB000021D1500A4BFA1D127845
:10A560001A700A4B1A680A4B1B68101C191C00222F
:10A5700002F0B8FC031CFB6186E1C046F0620200F9
:10A580000C0500004428002004050000502800208D
:10A5900048280020A023DA05A123DB00A0214904DC
:10A5A000D150A023DB05BB4A00219950A023DB0535
:10A5B000B849802292035A50A023DA05A123DB0078
:10A5C0000021D150B44BFA1D12781A705CE1A0231F
:10A5D000DB05B24A9B587B61A023DA057B69D9432E
:10A5E0008023DB031940A123DB00D150A023DB052E
:10A5F00079698022D2030A40A6495A50A84B1A68AA
:10A60000A84B1B68101C191C002202F06BFC031CD9
:10A61000FB6139E1A023DB05A04A9B583B61A023E5
:10A62000DA053B69D9438023DB031940A123DB0012
:10A63000D150A023DB0539698022D2030A40954915
:10A640005A50974B1968974B1A68131C9B009B181C
:10A65000081C191C002202F045FC031CFB6113E1DD
:10A66000A023DB058D4A9B58FB60A023DA05FB681D
:10A67000D9438023DB031940A123DB00D150A02361
:10A68000DB05F9688022D2030A4082495A50844B84
:10A690001A68844B1B68101C191C002202F022FC53
:10A6A000031CFB61F0E0A023DB057C4A9B58BB60E8
:10A6B000A023DA05BB68D9438023DB031940A1231B
:10A6C000DB00D150A023DB05B9688022D2030A4009
:10A6D00070495A50724B1968724B1A68131C9B00D0
:10A6E0009B18081C191C002202F0FCFB031CFB61D8
:10A6F000CAE0A023DB056749F02252045A50A02388
:10A70000DA05A123DB000021D150BDE0664B1B68B8
:10A71000181C02F02DFC031CFB61FB1D1B78112291
:10A72000D31ABB61BB69002B27D0FB69002B24D156
:10A73000BB69012B14D95C4B1C68BB69C82253430D
:10A74000181C64210BF0A4FB031C1A1C554B1B683E
:10A750005343201C191C002202F0C4FB031CFB61A4
:10A76000A023DB054B49802212045A50A023DA05AE
:10A77000A123DB000021D15086E0A023DA05A1232C
:10A78000DB0080210904D150A023DB05414A0021D0
:10A79000995079E0A023DA05A123DB00F0214904D8
:10A7A000D150A023DB053B4A002199503A4BFA1DBA
:10A7B00012781A7068E0A023DA05A123DB00E021FB
:10A7C0004904D150A023DB05324A00219950A0232F
:10A7D000DB053049802292035A50A023DA05A123D9
:10A7E000DB000021D1502C4BFA1D12781A704BE07F
:10A7F000A023DA05A123DB00D0214904D150A023F6
:10A80000DB05244A00219950A023DB052149802241
:10A81000D2035A50A023DA05A123DB000021D15036
:10A820001D4BFA1D12781A702EE0A023DA05A12321
:10A83000DB00C0214904D150A023DB05154A0021CB
:10A840009950A023DB051349C022D2035A50A023FC
:10A85000DA05A123DB000021D1500F4BFA1D12783D
:10A860001A7011E0A023DB050A49F02252045A5065
:10A87000A023DA05A123DB000021D150064BFA1DED
:10A8800012781A7000E0C046FB69181CBD4609B07A
:10A8900090BDC0460C0500004428002004050000BF
:10A8A00050280020482800205428002080B582B07D
:10A8B00000AF7860064B1B680122134004D0054BA3
:10A8C0001B78181CFFF796FCBD4602B080BDC04641
:10A8D0004C2800204428002080B584B000AF786068
:10A8E000A023DB050B4A9B58FB60A023DA05FB681D
:10A8F000D94380231B041940A123DB00D150A0239E
:10A90000DB05F968802212040A4003495A50BD460B
:10A9100004B080BD040500000C05000080B584B0C3
:10A9200000AF021CFB1D1A700023FB60084B1B6864
:10A930000122134006D0FB1D1B78181CFFF75AFCA0
:10A94000031CFB60FB68181CBD4604B080BDC046FC
:10A950004C28002080B584B000AF021C3960FB1D7C
:10A960001A70FB1D1B78181CFFF7D8FF031CFB6037
:10A97000FB68181CBD4604B080BDC04680B586B0DB
:10A9800000AFF860B9607A6000237B613A4BBA6827
:10A990001A603A4BFA681A60394B7A681A60FB6899
:10A9A0000222134033D000233B610AE03B69181CAC
:10A9B0000121012200F076F8031C7B613B69013321
:10A9C0003B613B69032B02D87B69002BEED07B698E
:10A9D000002B09D1BB685B082A4A101C04211A1CF1
:10A9E00002F0F2FB031C7B617B69002B03D102F0B8
:10A9F00071FC031C7B617B69002B08D1224A234B2D
:10AA0000101C00211A1C02F0F5F9031C7B61FB6885
:10AA10000122134012D0A023DA05A123DB00F0218C
:10AA20004904D150A023DB05194A00219950A023E5
:10AA3000DA05A323DB00F0214904D1507B69002B08
:10AA400008D1144A144B101C00211A1C02F0D2F930
:10AA5000031C7B617B69002B08D1104A104B101C32
:10AA600001211A1C02F0C6F9031C7B617B69181CCA
:10AA7000BD4606B080BDC046482800204C280020B6
:10AA800058280020D062020068280020D9A10100C7
:10AA90000C05000050280020ADA80100542800201B
:10AAA000D9A8010080B584B000AF7860081C111CE3
:10AAB000FB1C021C1A70BB1C0A1C1A700023FB60D2
:10AAC0007B68032B39D8BB1C1B78012B0BD1FB1CDB
:10AAD0001B78012B04D17B68DBB20D33DAB200E0C6
:10AAE0000022BB1C1A70FB1C1B78012B04D0022B0C
:10AAF0000BD0002B13D01CE013497A68131C5B00A9
:10AB00009B18BA1C12785A5416E00F497A68131C25
:10AB10005B009B18BA1CCB1812785A700CE00A49DB
:10AB20007A68131C5B009B18BA1CCB1812789A70B9
:10AB300002E00723FB60C04601E00723FB60FB68DF
:10AB4000181CBD4604B080BD5C28002080B500AF55
:10AB500002F0C0FB031C181CBD4680BD80B500AFD1
:10AB600002F0DAFB031C181CBD4680BD80B586B020
:10AB700000AF786000237B612DE0A023DB051A4A3B
:10AB8000796989008A58C132FF329200D3583B61FB
:10AB90007B6901229A40131C1A1C7B68134001D068
:10ABA000032300E00023FB603B69104A13403B6134
:10ABB000FB681B043A6913433B61A023DB050A4A87
:10ABC000796989008A58C132FF3292003969D150BF
:10ABD0007B6901337B617B69032BCED90023181C71
:10ABE000BD4606B080BDC046C0620200FFFFFCFF4C
:10ABF00070DF7047181CC04671DF7047181CC046D4
:10AC000072DF7047181CC04673DF7047181CC046BF
:10AC100074DF7047181CC04675DF7047181CC046AB
:10AC200076DF7047181CC04677DF7047181CC04697
:10AC300078DF7047181CC04679DF7047181CC04683
:10AC40007ADF7047181CC0467BDF7047181CC0466F
:10AC50007CDF7047181CC0467DDF7047181CC0465B
:10AC60007EDF7047181CC0467FDF7047181CC04647
:10AC700080DF7047181CC04681DF7047181CC04633
:10AC800082DF7047181CC04683DF7047181CC0461F
:10AC900084DF7047181CC04685DF7047181CC0460B
:10ACA0008ADF7047181CC04686DF7047181CC046F4
:10ACB00087DF7047181CC04688DF7047181CC046E5
:10ACC00089DF7047181CC046B0DF7047181CC046AB
:10ACD000B1DF7047181CC046B2DF7047181CC04671
:10ACE00090DF7047181CC04691DF7047181CC046A3
:10ACF00092DF7047181CC04693DF7047181CC0468F
:10AD000094DF7047181CC04695DF7047181CC0467A
:10AD100096DF7047181CC04697DF7047181CC04666
:10AD200098DF7047181CC046A0DF7047181CC0464B
:10AD3000A1DF7047181CC046A2DF7047181CC04630
:10AD4000A3DF7047181CC046A4DF7047181CC0461C
:10AD5000A5DF7047181CC046A6DF7047181CC04608
:10AD6000A7DF7047181CC046A8DF7047181CC046F4
:10AD7000A9DF7047181CC046AADF7047181CC046E0
:10AD800060DF7047181CC04661DF7047181CC04662
:10AD900062DF7047181CC04663DF7047181CC0464E
:10ADA00064DF7047181CC04665DF7047181CC0463A
:10ADB00066DF7047181CC04667DF7047181CC04626
:10ADC00068DF7047181CC04669DF7047181CC04612
:10ADD00080B582B000AF002000210122FFF762FEA3
:10ADE000031C7B607B68002B04D07B68072B01D0A1
:10ADF0007B681EE0012002210722FFF753FE031C9F
:10AE00007B607B68002B04D07B68072B01D07B68BC
:10AE10000FE0002002210422FFF744FE031C7B60A8
:10AE20007B68002B04D07B68072B01D07B6800E097
:10AE30000023181CBD4602B080BDC04680B582B05C
:10AE400000AF002002210122FFF72CFE031C7B60D3
:10AE50007B68002B04D07B68072B01D07B681EE049
:10AE6000012002210722FFF71DFE031C7B607B6887
:10AE7000002B04D07B68072B01D07B680FE00020FB
:10AE800000210A22FFF70EFE031C7B607B68002B6B
:10AE900004D07B68072B01D07B6800E00023181CDE
:10AEA000BD4602B080BDC04680B584B000AF7860BA
:10AEB0000B23FB180020191CFFF7BAF8031CFB60DA
:10AEC000FB68002B01D0FB6822E00A23FB1801205D
:10AED000191CFFF7ADF8031CFB60FB68002B01D0C9
:10AEE000FB6815E00A23FB181B78002B03D07B6856
:10AEF00002221A700BE00B23FB181B78002B03D0E7
:10AF00007B680B221A7002E07B6800221A70002313
:10AF1000181CBD4604B080BD80B582B000AF0320D0
:10AF2000FFF724FE031C7B607B68002B04D07B684A
:10AF3000062B01D07B6800E00023181CBD4602B040
:10AF400080BDC04680B584B000AF78607B681B8848
:10AF5000102B02D0112B1AD034E01C4B1B68002B95
:10AF60000FD1FFF735FF031CFB60FB68002B08D0F7
:10AF7000174B1B68002B04D0154B1B68FA68101C7C
:10AF80009847124B1B685A1C104B1A601AE00F4B63
:10AF90001B685A1E0D4B1A600C4B1B68002B10D1FE
:10AFA000FFF74CFF031CFB60FB68002B09D0084B2C
:10AFB0001B68002B05D0064B1B68FA68101C9847CD
:10AFC000FFE7C046BD4604B080BDC04678280020DB
:10AFD0007428002080B584B000AF78603960002309
:10AFE000FB600F4B7A681A603B68002B0AD03B6805
:10AFF000181CFFF759FF031CFB60FB68002B01D0F6
:10B00000FB6808E0074B1B68002B03D1FFF716FF16
:10B01000031CFB60FB68181CBD4604B080BDC04625
:10B02000742800207828002003210A4802680A4377
:10B030000260094802680A4302600849084A094B4D
:10B040009B1A03DD043BC858D050FBDC0648804700
:10B05000064800472405004054050040FC650200F6
:10B06000002000209820002095B0010021810100DF
:10B07000FEE7FEE7FEE7FEE7FEE7FEE780B500AF8E
:10B08000024B034A1A60BD4680BDC0461C2000200A
:10B090000024F40080B500AF00F01CF8031E06D0B9
:10B0A000094B0A4A1A600A4B802212021A6000F009
:10B0B00051F8031E05D08023DA05C123DB000121EE
:10B0C000D150BD4680BDC04604050040DFFF07C02B
:10B0D000186C004080B500AF1A4B1B68FF2213406C
:10B0E000012B2AD1184B1B680F22134025D1174B77
:10B0F0001B68F022134006D1154B1B68F022134049
:10B1000001D101231AE0114B1B68F0221340102BD0
:10B1100006D10F4B1B68F022134001D101230DE033
:10B120000A4B1B68F0221340302B06D1084B1B68DA
:10B13000F022134001D1012300E00023181CBD467A
:10B1400080BDC046E00F00F0E40F00F0E80F00F013
:10B15000EC0F00F080B500AF0D4B1B68FF221340D1
:10B16000012B11D10B4B1B680F2213400CD10A4B42
:10B170001B68F0221340402B06D1084B1B68F022BD
:10B18000134001D1012300E00023181CBD4680BDFF
:10B19000E00F00F0E40F00F0E80F00F0EC0F00F01B
:10B1A0002BDF7047181CC0462CDF7047181CC046A8
:10B1B0002DDF7047181CC0462EDF7047181CC04694
:10B1C0002FDF7047181CC04630DF7047181CC04680
:10B1D00031DF7047181CC04632DF7047181CC0466C
:10B1E00033DF7047181CC04634DF7047181CC04658
:10B1F00035DF7047181CC04636DF7047181CC04644
:10B2000037DF7047181CC04638DF7047181CC0462F
:10B2100039DF7047181CC0463ADF7047181CC0461B
:10B220003DDF7047181CC0463EDF7047181CC04603
:10B230003BDF7047181CC0463CDF7047181CC046F7
:10B240003FDF7047181CC04640DF7047181CC046DF
:10B2500041DF7047181CC04642DF7047181CC046CB
:10B2600043DF7047181CC04644DF7047181CC046B7
:10B2700045DF7047181CC04646DF7047181CC046A3
:10B2800047DF7047181CC04649DF7047181CC0468E
:10B290004ADF7047181CC0464BDF7047181CC04679
:10B2A00048DF7047181CC04620DF7047181CC04696
:10B2B00021DF7047181CC04622DF7047181CC046AB
:10B2C00023DF7047181CC04624DF7047181CC04697
:10B2D00025DF7047181CC04626DF7047181CC04683
:10B2E00027DF7047181CC0464CDF7047181CC0464B
:10B2F0004DDF7047181CC04651DF7047181CC04610
:10B3000052DF7047181CC04629DF7047181CC04622
:10B3100028DF7047181CC0462ADF7047181CC0463B
:10B320004EDF7047181CC0464FDF7047181CC046E0
:10B3300050DF7047181CC04610DF7047181CC0460D
:10B3400011DF7047181CC04612DF7047181CC0463A
:10B3500013DF7047181CC04680B582B000AF78601C
:10B360007B68032213405A425341DBB2181CBD468E
:10B3700002B080BD70DF7047181CC04671DF704797
:10B38000181CC04672DF7047181CC04673DF704738
:10B39000181CC04674DF7047181CC04675DF704724
:10B3A000181CC04676DF7047181CC04677DF704710
:10B3B000181CC04678DF7047181CC04679DF7047FC
:10B3C000181CC0467ADF7047181CC0467BDF7047E8
:10B3D000181CC0467CDF7047181CC0467DDF7047D4
:10B3E000181CC0467EDF7047181CC0467FDF7047C0
:10B3F000181CC04680DF7047181CC04681DF7047AC
:10B40000181CC04682DF7047181CC04683DF704797
:10B41000181CC04684DF7047181CC04685DF704783
:10B42000181CC0468ADF7047181CC04686DF70476C
:10B43000181CC04687DF7047181CC04688DF70475D
:10B44000181CC04689DF7047181CC046B0DF704723
:10B45000181CC046B1DF7047181CC046B2DF7047E9
:10B46000181CC04690DF7047181CC04691DF70471B
:10B47000181CC04692DF7047181CC04693DF704707
:10B48000181CC04694DF7047181CC04695DF7047F3
:10B49000181CC04696DF7047181CC04697DF7047DF
:10B4A000181CC04698DF7047181CC046A0DF7047C4
:10B4B000181CC046A1DF7047181CC046A2DF7047A9
:10B4C000181CC046A3DF7047181CC046A4DF704795
:10B4D000181CC046A5DF7047181CC046A6DF704781
:10B4E000181CC046A7DF7047181CC046A8DF70476D
:10B4F000181CC046A9DF7047181CC046AADF704759
:10B50000181CC04660DF7047181CC04661DF7047DA
:10B51000181CC04662DF7047181CC04663DF7047C6
:10B52000181CC04664DF7047181CC04665DF7047B2
:10B53000181CC04666DF7047181CC04667DF70479E
:10B54000181CC04668DF7047181CC04669DF70478A
:10B55000181CC04680B584B000AFF8607A600A233A
:10B56000FB180A1C1A800A23FB181A887B68101C17
:10B57000191CFEF70BF9BD4604B080BD80B584B040
:10B5800000AF3D4B1B78DBB201225340DBB2002BF6
:10B5900000D06DE0394B1A680F23FB1851424A4125
:10B5A0001A70374B1A680E23FB1851424A411A7021
:10B5B0000F23FB181B7801225340DBB2002B1DD058
:10B5C0003B1D181CFFF798FE031CBB60BB68052BD6
:10B5D00004D10F23FB1801221A700FE0BB68002B67
:10B5E00007D0BA68274B101C65211A1C00F0F8F828
:10B5F00004E0224B1B687A68101C98470E23FB1846
:10B600001B7801225340DBB2002B25D01E4B1A8839
:10B61000BB1C1A801D4B1A68BB1C101C191CFFF7A1
:10B6200075FF031CBB60BB68052B04D10E23FB1800
:10B6300001221A7010E0BB68002B07D0BA68114BCA
:10B64000101C7C211A1C00F0CBF805E00C4B1A688A
:10B650000E4B1B68181C90470F23FB181B78002B00
:10B6600005D00E23FB181B78002B00D000E09FE7CD
:10B67000BD4604B080BDC046802800209028002030
:10B680008C28002050630200882800208428002095
:10B6900080B586B000AFF860B9603B60BB1D1A8012
:10B6A000BB68002B01D107232AE0BB68181CFFF7F9
:10B6B00053FE031C1A1C01235340DBB2002B01D0A4
:10B6C00007231DE0104BBA681A60104BBA1D128890
:10B6D0001A800F4B3A681A60FA680E4B101C191C3E
:10B6E000FFF72AFE031C7B617B69002B01D07B697D
:10B6F00006E0094B01221A701620FFF75DFD031CBE
:10B70000181CBD4606B080BD842800208828002073
:10B710007C28002055B501008028002080B582B02B
:10B7200000AFFFF70DFE031C7B607B685A1E934140
:10B73000DAB2034B1A707B68181CBD4602B080BD9C
:10B740008028002080B582B000AF78607B68002B35
:10B7500001D10E2303E0044B7A681A600023181C01
:10B76000BD4602B080BDC0468C28002080B582B0A6
:10B7700000AF78607B68002B01D10E2303E0044BFF
:10B780007A681A600023181CBD4602B080BDC0460E
:10B790009028002080B582B000AF0F4B1B68002BB3
:10B7A00015D00D4B1B689847031C7B607B683B6082
:10B7B0003B68002B0AD039682A23FF331A1C074B39
:10B7C000081C111C1A1C00F00BF802E001E0FFF746
:10B7D000D5FEBD4602B080BD7C280020506302002B
:10B7E00080B586B000AFF860B9607A600C20FFF7D2
:10B7F00095F81723FB1801221A701723FB181B78E2
:10B80000094BFA681A60094BBA681A60084B7A68E3
:10B810001A6072B6C0461723FB181B78DBB2002BE8
:10B82000F9D1BD4606B080BD7C2D0020802D0020C2
:10B83000782D00202BDF7047181CC0462CDF704786
:10B84000181CC0462DDF7047181CC0462EDF7047FD
:10B85000181CC0462FDF7047181CC04630DF7047E9
:10B86000181CC04631DF7047181CC04632DF7047D5
:10B87000181CC04633DF7047181CC04634DF7047C1
:10B88000181CC04635DF7047181CC04636DF7047AD
:10B89000181CC04637DF7047181CC04638DF704799
:10B8A000181CC04639DF7047181CC0463ADF704785
:10B8B000181CC0463DDF7047181CC0463EDF70476D
:10B8C000181CC0463BDF7047181CC0463CDF704761
:10B8D000181CC0463FDF7047181CC04640DF704749
:10B8E000181CC04641DF7047181CC04642DF704735
:10B8F000181CC04643DF7047181CC04644DF704721
:10B90000181CC04645DF7047181CC04646DF70470C
:10B91000181CC04647DF7047181CC04649DF7047F7
:10B92000181CC0464ADF7047181CC0464BDF7047E2
:10B93000181CC04648DF7047181CC04620DF7047FF
:10B94000181CC04621DF7047181CC04622DF704714
:10B95000181CC04623DF7047181CC04624DF704700
:10B96000181CC04625DF7047181CC04626DF7047EC
:10B97000181CC04627DF7047181CC0464CDF7047B4
:10B98000181CC0464DDF7047181CC04651DF704779
:10B99000181CC04652DF7047181CC04629DF70478C
:10B9A000181CC04628DF7047181CC0462ADF7047A5
:10B9B000181CC0464EDF7047181CC0464FDF70474A
:10B9C000181CC04650DF7047181CC04680B500AF39
:10B9D00072B6034B1B685A1C014B1A60BD4680BDF2
:10B9E0009428002080B500AF054B1B685A1E044BFD
:10B9F0001A60034B1B68002B00D162B6BD4680BDA8
:10BA0000942800202BDF7047181CC0462CDF70479D
:10BA1000181CC0462DDF7047181CC0462EDF70472B
:10BA2000181CC0462FDF7047181CC04630DF704717
:10BA3000181CC04631DF7047181CC04632DF704703
:10BA4000181CC04633DF7047181CC04634DF7047EF
:10BA5000181CC04635DF7047181CC04636DF7047DB
:10BA6000181CC04637DF7047181CC04638DF7047C7
:10BA7000181CC04639DF7047181CC0463ADF7047B3
:10BA8000181CC0463DDF7047181CC0463EDF70479B
:10BA9000181CC0463BDF7047181CC0463CDF70478F
:10BAA000181CC0463FDF7047181CC04640DF704777
:10BAB000181CC04641DF7047181CC04642DF704763
:10BAC000181CC04643DF7047181CC04644DF70474F
:10BAD000181CC04645DF7047181CC04646DF70473B
:10BAE000181CC04647DF7047181CC04649DF704726
:10BAF000181CC0464ADF7047181CC0464BDF704711
:10BB0000181CC04648DF7047181CC04620DF70472D
:10BB1000181CC04621DF7047181CC04622DF704742
:10BB2000181CC04623DF7047181CC04624DF70472E
:10BB3000181CC04625DF7047181CC04626DF70471A
:10BB4000181CC04627DF7047181CC0464CDF7047E2
:10BB5000181CC0464DDF7047181CC04651DF7047A7
:10BB6000181CC04652DF7047181CC04629DF7047BA
:10BB7000181CC04628DF7047181CC0462ADF7047D3
:10BB8000181CC0464EDF7047181CC0464FDF704778
:10BB9000181CC04650DF7047181CC04680B586B0E0
:10BBA00000AFF860B9607A6000237B6109E0BB6890
:10BBB0005A1CBA601B78181C02F09AF87B69013392
:10BBC0007B617A697B689A42F1DB7B68181CBD4611
:10BBD00006B080BD80B584B000AFF860B9607A600F
:10BBE000C046BB68181C02F063F8031E052BF8D092
:10BBF0000123181CBD4604B080BDC04680B582B08C
:10BC000000AF78607B68032213405A425341DBB295
:10BC1000181CBD4602B080BD80B582B000AF021CCA
:10BC2000FB1D1A70064BFA1D1278111C1F220A40C8
:10BC3000012191400A1C1A60BD4602B080BDC04679
:10BC400000E100E080B582B000AF021CFB1D1A705D
:10BC5000074AFB1D1B78191C1F230B40012199402B
:10BC60000B1C191C8023D150BD4602B080BDC046BC
:10BC700000E100E080B582B000AF021CFB1D1A702D
:10BC8000074AFB1D1B78191C1F230B4001219940FB
:10BC90000B1C191C80235B00D150BD4602B080BD37
:10BCA00000E100E080B582B000AF021CFB1D1A70FD
:10BCB000074AFB1D1B78191C1F230B4001219940CB
:10BCC0000B1C191CC0235B00D150BD4602B080BDC7
:10BCD00000E100E0B0B582B000AF021C3960FB1D8E
:10BCE0001A70FB1D1B787F2B2FD92D4CFB1D1B7849
:10BCF0001A1C0F231340083B9908294AFB1D1B7887
:10BD0000181C0F230340083B9B0806339B00D318E5
:10BD10005B68FA1D1278101C03220240D200101C2E
:10BD2000FF228240D2431A403B689B01FF20034020
:10BD3000F81D0078051C03202840C00083401A43EA
:10BD40008B1D9B00E3185A6026E0164CFB1D1B78E8
:10BD50005BB29B081349FA1D127852B29208C032A6
:10BD600092005258F91D0978081C03210140C900AE
:10BD7000081CFF218140C94311403A689201FF200D
:10BD80000240F81D0078051C03202840C0008240B6
:10BD90000A43C0339B001A51BD4602B0B0BDC04635
:10BDA00000ED00E000E100E080B582B000AF021CD1
:10BDB000FB1D1A70FB1D1B787F2B16D9164AFB1D25
:10BDC0001B78191C0F230B40083B9B0806339B0074
:10BDD000D3185B68FA1D1278111C03220A40D200A6
:10BDE000D340FF2213409B0911E00C4AFB1D1B7836
:10BDF0005BB29B08C0339B009B58FA1D1278111C44
:10BE000003220A40D200D340FF2213409B09181C92
:10BE1000BD4602B080BDC04600ED00E000E100E09C
:10BE20002BDF7047181CC0462CDF7047181CC0461B
:10BE30002DDF7047181CC0462EDF7047181CC04607
:10BE40002FDF7047181CC04630DF7047181CC046F3
:10BE500031DF7047181CC04632DF7047181CC046DF
:10BE600033DF7047181CC04634DF7047181CC046CB
:10BE700035DF7047181CC04636DF7047181CC046B7
:10BE800037DF7047181CC04638DF7047181CC046A3
:10BE900039DF7047181CC0463ADF7047181CC0468F
:10BEA0003DDF7047181CC0463EDF7047181CC04677
:10BEB0003BDF7047181CC0463CDF7047181CC0466B
:10BEC0003FDF7047181CC04640DF7047181CC04653
:10BED00041DF7047181CC04642DF7047181CC0463F
:10BEE00043DF7047181CC04644DF7047181CC0462B
:10BEF00045DF7047181CC04646DF7047181CC04617
:10BF000047DF7047181CC04649DF7047181CC04601
:10BF10004ADF7047181CC0464BDF7047181CC046EC
:10BF200048DF7047181CC04620DF7047181CC04609
:10BF300021DF7047181CC04622DF7047181CC0461E
:10BF400023DF7047181CC04624DF7047181CC0460A
:10BF500025DF7047181CC04626DF7047181CC046F6
:10BF600027DF7047181CC0464CDF7047181CC046BE
:10BF70004DDF7047181CC04651DF7047181CC04683
:10BF800052DF7047181CC04629DF7047181CC04696
:10BF900028DF7047181CC0462ADF7047181CC046AF
:10BFA0004EDF7047181CC0464FDF7047181CC04654
:10BFB00050DF7047181CC04680B582B000AF0C4BF4
:10BFC0005B68DB05DB0D7B607B68002B0BD07B683F
:10BFD000103B3B603B68DBB25BB2181CFFF7E4FE32
:10BFE000031CDBB200E00423181CBD4602B080BD78
:10BFF00000ED00E080B582B000AF78600549A12374
:10C00000DB007A68CA5011200321FFF763FEBD46AA
:10C0100002B080BD0010014080B582B000AF16496B
:10C02000D1239B0080225202CA501349C1239B0096
:10C0300080225202CA501120FFF734FE1120FFF770
:10C04000EBFD0D4B01221A602F237B607B68181CCF
:10C050000138C046C046C046C046C046C046C0467D
:10C06000C046C046C046C046C046F1D1034B01227F
:10C070001A70BD4602B080BD00100140C0280020EB
:10C0800080B582B000AF1120FFF7DCFD1F49D2233D
:10C090009B0080225202CA501C49C2239B0080226E
:10C0A0005202CA50194B01225A602F233B603B6851
:10C0B000181C0138C046C046C046C046C046C046EF
:10C0C000C046C046C046C046C046C046F1D10F4B30
:10C0D00001229A600E4B00221A602F237B607B683E
:10C0E000181C0138C046C046C046C046C046C046BF
:10C0F000C046C046C046C046C046C046F1D1054B0A
:10C1000000221A70BD4602B080BDC046001001403A
:10C11000AC280020C028002080B500AF024A034BA5
:10C12000D358181CBD4680BD001001400405000016
:10C1300080B582B000AF786039607A683B68D31A06
:10C140001B021B0A181CBD4602B080BD80B582B020
:10C1500000AF78600349A823DB007A68CA50BD4667
:10C1600002B080BD0010014080B586B000AF78609D
:10C170004C4B19687A68131CDB009B189B00CB188A
:10C18000BB60494B1B68013303D1474B7A681A6087
:10C1900084E0BB685968434B1868434B1A68131C0A
:10C1A000DB009B189B00C3185B6899421ED83D4B6F
:10C1B00019683D4B1A68131CDB009B189B00CA18BA
:10C1C000384B1868384B19680B1CDB005B189B0058
:10C1D000C3185968BB685B68CB1A5360324B1A6846
:10C1E000BB681A62304B7A681A6057E0BB685B68BC
:10C1F000FB602D4B1B687B612B4B1B683B6117E081
:10C20000284B19683A69131CDB009B189B00CB185C
:10C210005B68FA68D31AFB603B697B61214B196844
:10C220003A69131CDB009B189B00CB181B6A3B610F
:10C230003B6901330BD01B4B19683A69131CDB00B7
:10C240009B189B00CB185A68FB689A42D8D33B696D
:10C25000013313D0134B19683A69131CDB009B1888
:10C260009B00CA180F4B186839690B1CDB005B1860
:10C270009B00C3185968FB68CB1A5360BB68FA6807
:10C280005A60BB683A691A62064B19687A69131CCE
:10C29000DB009B189B00CB187A681A62BD4606B07B
:10C2A00080BDC0469C280020A828002080B586B00C
:10C2B00000AF78603D4B1B687B617B693B6110E0A0
:10C2C0003A697B689A4200D10EE03B697B61384B4A
:10C2D00019683A69131CDB009B189B00CB181B6A7A
:10C2E0003B613B690133EBD13B69013300D159E03C
:10C2F0007A693B699A4218D12D4B19682B4B1A6801
:10C30000131CDB009B189B00CB181A6A274B1A6082
:10C31000264B1B68013308D1264B01229A60264B1D
:10C3200000221A60254B01221A70214B19683A69C4
:10C33000131CDB009B189B00CB185B68FB601C4B3D
:10C3400019687A69131CDB009B189B00CA18184BEC
:10C35000186839690B1CDB005B189B00C3181B6A4B
:10C360001362134B19687A69131CDB009B189B003E
:10C37000CB181B6A3B613B69013313D00C4B196826
:10C380003A69131CDB009B189B00CA18084B1868FD
:10C3900039690B1CDB005B189B00C3185968FB68EC
:10C3A000CB185360BD4606B080BDC046A82800200B
:10C3B0009C28002000100140AC280020C12800204B
:10C3C00080B500AF1120FFF755FCBD4680BDC046CB
:10C3D00080B500AF1420FFF74DFCBD4680BDC046C0
:10C3E00080B584B000AF7860134B1B68002B1AD067
:10C3F000114B1A687B6899697B68DB69081C191CFA
:10C400009047031CFB60FB68BB60BB68002B09D036
:10C41000B968B3235A00094B081C111C1A1CFFF7FA
:10C42000DFF906E005E07B689A697B68DB69181C28
:10C430009047BD4604B080BDBC280020A463020024
:10C4400080B584B000AF2B4B1B6801334FD0002365
:10C450007B60FFF761FE021C274B1B68101C191C38
:10C46000FFF766FE031CBB60224B1B68FB601FE0EE
:10C47000224B1968FA68131CDB009B189B00CB1831
:10C480003B603B685A68BB689A4200D913E03B683E
:10C490005B68BA68D31ABB603B685B687A68D3187C
:10C4A0007B603B681B6AFB603B68181CFFF798FFCA
:10C4B000FB680133DCD1124B1A78124B1B789A427D
:10C4C0000CD1104B1B780133DAB20E4B1A700D4BA6
:10C4D0001B78022B02D10B4B00221A70094B1B78E0
:10C4E0001A1C094B92007968D150FFF771FFBD46C5
:10C4F00004B080BDA8280020AC2800209C28002083
:10C50000B8280020B9280020B028002080B582B0CB
:10C5100000AF7860184B1A78184B1B789A4223D0DA
:10C52000154B1B780133DAB2134B1A70124B1B7880
:10C53000022B02D1104B00221A700F4B1B781A1CD1
:10C540000F4B9200D2587B681A607B681A680D4BBB
:10C550001B68D2180B4B1A600A4B1B681B021A0A85
:10C56000084B1A60012303E07B6800221A60002355
:10C57000181CBD4602B080BDB8280020B928002094
:10C58000B0280020AC28002080B586B000AF424B18
:10C590001B683B611723FB18404A12781A7066E04B
:10C5A0003F4B1A681723FB181B78DB00D318FB607E
:10C5B0001623FB18FA6812781A7051E0FB68596864
:10C5C0001623FB181A78131C5B009B18DB00CB1892
:10C5D000BB601623FB181A781623FB1801321A7059
:10C5E000FB689B781622BA1812789A4203D1162358
:10C5F000FB1800221A70BB681B78022B02D0032B99
:10C6000028D02CE0274B1968BB685A68131CDB0044
:10C610009B189B00CB187B607B681B7D002B07D091
:10C62000BB685B68181CFFF741FE7B6800221A7527
:10C6300016E01C4B1968184B1A68131CDB009B187A
:10C640009B00CB183B603B6800221A753B681A6A56
:10C65000114B1A60104B1B680133EAD100E0C04651
:10C66000FB685B781622BA1812789A42A6D1172373
:10C67000FB181B781722BA18591E1170002B8FD186
:10C68000054B1A683B69D31A5A1E9341DBB2181C3A
:10C69000BD4606B080BDC046A8280020A0280020C6
:10C6A000A42800209C28002080B588B000AFF86046
:10C6B000B9607A600023FB6142E0254B1968254B85
:10C6C0001A68131CDB009B189B00CB18BB61BB696D
:10C6D0005A68FB689A4206D9BB695A68FB68D21A45
:10C6E000BB695A6030E0BB695B68FA68D31AFB60CB
:10C6F000BB695B68FA69D318FB61BB6900225A60A9
:10C70000BB6900221A75134B1B687B61BB691A6AEF
:10C71000104B1A60BB691B69002B11D0BA68FB690A
:10C72000D3181B021A0ABB699A60BB691A69BB69F4
:10C73000DA607B681A68BB691A627B687A691A607A
:10C74000044B1B680133B8D1BD4608B080BDC0465C
:10C750009C280020A828002080B58AB000AF78600F
:10C76000664B1B68BB612723FB18654A12781A7059
:10C77000AEE0644B1A682723FB181B78DB00D31844
:10C780007B619AE07B6801330ED07B683B625E4B35
:10C7900019683A6A131CDB009B189B00CB18FB61DD
:10C7A000FB691B6A7B6045E07B695A687B691B7883
:10C7B000191C0B1C5B005B18DB00D3183B617B6909
:10C7C0001B780133DAB27B691A707B691A787B694E
:10C7D0009B789A4202D17B6900221A703B695B68A0
:10C7E0003B62494B19683A6A131CDB009B189B009B
:10C7F000CB18FB613B691B78012B03D1FB691B7DC7
:10C80000002B00D059E03B699A68FB699A603B694C
:10C81000DA68FB69DA603B691A69FB691A613B698E
:10C820005A69FB69DA61394B1B78002B02D0FB692E
:10C8300000229A60FB699A68354B1B68D31A1B0269
:10C840001B0A344A93420ED8FB699A68304B1B6826
:10C85000101C191CFFF76CFC021CFB69DB68D2186A
:10C86000FB695A6018E02A4B1A68FB699B68101C28
:10C87000191CFFF75DFC031CFB60FB69DA68FB68B1
:10C880009A4206D9FB69DA68FB68D21AFB695A60DA
:10C8900002E0FB6900225A60FB6900229A60FB6992
:10C8A0000022DA60FB6901221A75FB6901225242FB
:10C8B0001A623B6A181CFFF757FC7B68013300D0F3
:10C8C00060E77B691A787B695B789A4200D059E708
:10C8D0002723FB181B782722BA18591E1170002B2A
:10C8E00000D046E7054B1A68BB69D31A5A1E93411C
:10C8F000DBB2181CBD460AB080BDC046A828002087
:10C90000A0280020A42800209C280020C128002066
:10C91000AC280020FEFF7F0090B589B000AF7860A2
:10C920002A4B1B6801334CD0294B1968274B1A68D6
:10C93000131CDB009B189B00CB185B68FB61FFF7A7
:10C94000EBFB031CBB61234B1B687B61BA697B69F2
:10C95000101C191CFFF7ECFB031C03333B611E4B3F
:10C960001B7801225340DBB2002B01D0FFF754FBB0
:10C97000FA693B69934200D2131C7A69D3187B6130
:10C980007B691B021B0A7B617B69181CFFF7DEFBBE
:10C99000FFF7C2FB031CFB60FA68BB69101C191C83
:10C9A000FFF7C6FB031CDC1C7A69BB69101C191C51
:10C9B000FFF7BEFB031C9C4202D9FFF701FD02E01A
:10C9C00001E0FFF75DFBBD4609B090BDA82800203F
:10C9D0009C280020AC280020C028002090B587B0FB
:10C9E00000AF01235B427B601E4B1B683B611E4B0B
:10C9F0001B68FB600B23FC183B1C181CFFF786FD13
:10CA0000031C23701723FC18FFF7BEFD031C2370C3
:10CA10000B23FB181B78002B0BD039683A693B1DA0
:10CA2000081C111C1A1CFFF73FFE1723FB180122DC
:10CA30001A707B68181CFFF78FFE031E03D01723A4
:10CA4000FB1801221A701723FB181B78002B03D048
:10CA5000FB68181CFFF760FF044B00221A70BD46EC
:10CA600007B090BDAC280020A8280020C1280020D5
:10CA700080B582B000AF786039603B68DAB27B681D
:10CA80005A70BD4602B080BD80B584B000AF7860FA
:10CA900039607B685B780133FB607B689B781A1E8A
:10CAA000FB689A4201D10023FB607B681B781A1E49
:10CAB000FB689A4201D100230EE03B68FA681A60D5
:10CAC0007B685A687B685B78191C0B1C5B005B18E1
:10CAD000DB00D318BB60BB68181CBD4604B080BD2A
:10CAE00080B586B000AFF860B9607A603B601B4BE0
:10CAF0001A68FB68DB00D2181023FB18101C191CE5
:10CB0000FFF7C2FF031C7B617B69002B01D104236B
:10CB100020E07B6901221A707B69BA685A60FFF7CE
:10CB2000FBFA021C7B699A607B697A68DA607B6930
:10CB30003A681A617B693A6A5A61084B1A68FB685D
:10CB4000DB00D2183B69101C191CFFF791FFFFF79F
:10CB50003FFC0023181CBD4606B080BDA428002061
:10CB600080B584B000AF78603960144B1A687B6878
:10CB7000DB00D2180823FB18101C191CFFF784FFD8
:10CB8000031CFB60FB68002B01D1042312E0FB684F
:10CB900002221A70FB683A685A60084B1A687B6870
:10CBA000DB00D218BB68101C191CFFF761FFFFF7F0
:10CBB0000FFC0023181CBD4604B080BDA428002033
:10CBC00080B584B000AF7860144B1A687B68DB00D6
:10CBD000D2180823FB18101C191CFFF755FF031C63
:10CBE000FB60FB68002B01D1042313E0FB680322E8
:10CBF0001A70FB68012252425A60084B1A687B681F
:10CC0000DB00D218BB68101C191CFFF731FFFFF7BF
:10CC1000DFFB0023181CBD4604B080BDA428002003
:10CC200080B500AF104AA0235B000021D1500E4A0E
:10CC3000A2235B000021D1500B4AA4235B000021FA
:10CC4000D150094AA6235B000021D150064A802317
:10CC50005B000021D150044A82235B000021D150A7
:10CC6000FFF7EEFBBD4680BD0010014080B500AF70
:10CC7000FFF7B4FEBD4680BD80B586B000AFF8605A
:10CC8000081C111C7B600B23FB18021C1A700A2362
:10CC9000FB180A1C1A707B68181CFEF7AFFF031CF8
:10CCA0001A1C01235340DBB2002B01D007238BE079
:10CCB0007B68002B01D1072386E0FFF7E1F9444BA5
:10CCC0003A6A1A60434B0B22BA1812781A70424B18
:10CCD0007A681A6000237B6116E03F4B19687A6915
:10CCE000131CDB009B189B00CB1800221A703A4BD8
:10CCF00019687A69131CDB009B189B00CB18002273
:10CD00001A757B6901337B610B23FB181A787B69E9
:10CD10009A42E2DC0B23FB181A78131CDB009B18E9
:10CD20009B001A1C7B689B187B602C4B03221A709B
:10CD30002B4B7A681A607B6818337B6000237B6119
:10CD400021E0274B1A687B69DB00D3183B613B6904
:10CD500000221A703B6900225A703B690A22BA18F5
:10CD600012789A703B697A685A600A23FB181A781D
:10CD7000131C5B009B18DB001A1C7B689B187B60F4
:10CD80007B6901337B617B69022BDADD154B012264
:10CD900052421A60144B00221A70144B00221A706F
:10CDA0001420FEF77FFF14200321FEF793FF1420C9
:10CDB000FEF732FFFB68181CFFF71CF9FFF7ACF910
:10CDC000021C0B4B1A600023181CBD4606B080BD28
:10CDD000BC280020982800209C280020A0280020A3
:10CDE000A4280020A8280020B8280020B928002066
:10CDF000AC28002080B586B000AFF8607A600B23C5
:10CE0000FB180A1C1A70284B1B68002B01D1082341
:10CE100046E07B68002B01D1072341E0FB68002B33
:10CE200001D107233CE000237B6132E01E4B1968EF
:10CE30007A69131CDB009B189B00CB181B78002B16
:10CE400024D1194B19687A69131CDB009B189B00CD
:10CE5000CB1801221A70144B19687A69131CDB0075
:10CE60009B189B00CB180B22BA1812785A700E4BE5
:10CE700019687A69131CDB009B189B00CB187A6831
:10CE80009A617A69FB681A60002309E07B690133C3
:10CE90007B61064B1B781A1E7B699A42C6DC042311
:10CEA000181CBD4606B080BD9C2800209828002094
:10CEB00080B582B000AFFFF77FF8031E012B02D0D0
:10CEC000032B03D005E000237B6005E001237B609A
:10CED00002E002237B60C0467B68181CBD4602B09E
:10CEE00080BDC04690B589B002AFF860B9607A6085
:10CEF0001D4B1B68002B01D1082331E01B4B1B7815
:10CF00001A1EFB689A4202D9BB68042B01D807237A
:10CF100026E0154B1968FA68131CDB009B189B0070
:10CF2000CB181B78012B01D0082319E00E4B196890
:10CF3000FA68131CDB009B189B00CB185B78012B55
:10CF400001D1BB6800E000237B61FFF7B1FFF96806
:10CF5000BA687C697B680093231CFFF7C1FD031C42
:10CF6000181CBD4607B090BD9C28002098280020C2
:10CF700080B582B000AF7860134B1B68002B01D1E5
:10CF800008231DE0114B1B781A1E7B689A4201D8BA
:10CF9000072315E00C4B19687A68131CDB009B18FB
:10CFA0009B00CB181B78012B01D0082308E0FFF76A
:10CFB0007FFF021C7B68101C191CFFF7D1FD031CAE
:10CFC000181CBD4602B080BD9C2800209828002077
:10CFD00080B500AF074B1B68002B01D1082306E08A
:10CFE000FFF766FF031C181CFFF7EAFD031C181C63
:10CFF000BD4680BD9C28002080B582B000AF78601F
:10D00000FFF78AF8021C7B681A600023181CBD46D3
:10D0100002B080BD80B584B000AFF860B9607A60BE
:10D02000FA68BB68101C191CFFF782F8021C7B68A9
:10D030001A600023181CBD4604B080BD90B589B0AD
:10D0400000AF78601F23FB1800221A7055E0304BA8
:10D050001A681F23FB181B78DB00D318BB61BB6960
:10D060001B781A1C012393407B612A4B1B687A6949
:10D0700013403BD07B69DA43264B1B681A40254B93
:10D080001A60BB691B781322BC18181C03F05AFBEA
:10D09000031C2370BB691B781A1C012393401A1CC4
:10D0A0001D4B1B6813401322BA181278B96909780E
:10D0B0008A4093421AD11323FB181B78BA6952781D
:10D0C000013A51424A41D2B29B1A5A425341DBB211
:10D0D000FB60BB695B68002B08D0BB695B68BA6901
:10D0E0001178FA68D2B2081C111C98471F23FB184C
:10D0F0001A781F23FB1801321A70084B1B781F2265
:10D10000BA1812789A42A2D3BD4609B090BDC04663
:10D11000C4280020D8280020D4280020C8280020B7
:10D1200080B584B000AF78600A1CFB1C1A707B6865
:10D1300001229A40131CFB601F4B1B68181CFFF751
:10D1400017FF031CBB60BB68002B00D031E01B4BFA
:10D150001B68FA68134025D17B68181C03F0F2FAAB
:10D16000031E06D0164B1A68FB681A43144B1A604C
:10D1700006E0FB68DA43124B1B681A40104B1A603A
:10D180000E4B1A68FB681A430C4B1A600A4B1A685C
:10D190000C4B1B68101C191C0022FFF7A3FE031C7C
:10D1A000BB6006E0FB68DA43044B1B681A40034B84
:10D1B0001A60BD4604B080BDD0280020D8280020C9
:10D1C000D4280020CC28002080B588B000AFF860BB
:10D1D0007A600B23FB180A1C1A707B68042B01D899
:10D1E000072362E003F020F8031C1A1C01235340BC
:10D1F000DBB2002B08D002F0D5FF031CFB61FB69FA
:10D20000002B01D0FB6950E02A4BFA681A602A4BC8
:10D210000B22BA1812781A70284B7A681A60284BB9
:10D2200000221A60274B00221A602DE00B23FB1806
:10D230001B78DB00FA68D318BB611423FB180322A8
:10D240001A701423FB1800225A701423FB180022B2
:10D250009A701423FB180022DA70BB699A781423A1
:10D26000FB185A70BB691B78191C1423FA18164B4B
:10D27000081C111C1A1C03F021F9031CFB61FB693B
:10D28000002B01D0FB6910E00B23FB181B780B224D
:10D29000BA18591E1170002BC8D10C4A0C4B101C27
:10D2A00000211A1CFFF7A6FD031C181CBD4608B080
:10D2B00080BDC046C4280020C8280020CC280020FB
:10D2C000D4280020D828002021D10100D028002017
:10D2D0003DD0010080B582B000AF00237B600CE040
:10D2E0000B4B1A687B68DB00D3181B78181C0121D4
:10D2F00003F04EF97B6801337B60064B1B781A1EE6
:10D300007B689A42ECD80023181CBD4602B080BD51
:10D31000C4280020C828002080B582B000AF0023B8
:10D320007B600BE00D4B1A687B68DB00D3181B7821
:10D33000181C03F0B3F97B6801337B60084B1B7842
:10D340001A1E7B689A42EDD8064B1B68181CFFF723
:10D350000FFE031C181CBD4602B080BDC42800206F
:10D36000C8280020D028002090B585B000AF021C4E
:10D370003960FB1D1A70124B1A68FB1D1B78DB000D
:10D38000D318FB60FB681B780B22BC18181C03F039
:10D39000D9F9031C23700B23FB181B78FA68527809
:10D3A000013A51424A41D2B29B1A5A425341DAB22F
:10D3B0003B681A700023181CBD4605B090BDC046DE
:10D3C000C428002080B582B000AF021CFB1D1A707B
:10D3D000064BFA1D1278111C1F220A4001219140B0
:10D3E0000A1C1A60BD4602B080BDC04600E100E0E4
:10D3F00080B582B000AF021CFB1D1A70074AFB1DEE
:10D400001B78191C1F230B40012199400B1C191C70
:10D41000C0235B00D150BD4602B080BD00E100E0FA
:10D42000B0B582B000AF021C3960FB1D1A70FB1D45
:10D430001B787F2B2FD92D4CFB1D1B781A1C0F231B
:10D440001340083B9908294AFB1D1B78181C0F2321
:10D450000340083B9B0806339B00D3185B68FA1D0A
:10D460001278101C03220240D200101CFF228240BE
:10D47000D2431A403B689B01FF200340F81D00780F
:10D48000051C03202840C00083401A438B1D9B00CD
:10D49000E3185A6026E0164CFB1D1B785BB29B0814
:10D4A0001349FA1D127852B29208C03292005258B3
:10D4B000F91D0978081C03210140C900081CFF213F
:10D4C0008140C94311403A689201FF200240F81D93
:10D4D0000078051C03202840C00082400A43C03366
:10D4E0009B001A51BD4602B0B0BDC04600ED00E041
:10D4F00000E100E02BDF7047181CC0462CDF7047AE
:10D50000181CC0462DDF7047181CC0462EDF704720
:10D51000181CC0462FDF7047181CC04630DF70470C
:10D52000181CC04631DF7047181CC04632DF7047F8
:10D53000181CC04633DF7047181CC04634DF7047E4
:10D54000181CC04635DF7047181CC04636DF7047D0
:10D55000181CC04637DF7047181CC04638DF7047BC
:10D56000181CC04639DF7047181CC0463ADF7047A8
:10D57000181CC0463DDF7047181CC0463EDF704790
:10D58000181CC0463BDF7047181CC0463CDF704784
:10D59000181CC0463FDF7047181CC04640DF70476C
:10D5A000181CC04641DF7047181CC04642DF704758
:10D5B000181CC04643DF7047181CC04644DF704744
:10D5C000181CC04645DF7047181CC04646DF704730
:10D5D000181CC04647DF7047181CC04649DF70471B
:10D5E000181CC0464ADF7047181CC0464BDF704706
:10D5F000181CC04648DF7047181CC04620DF704723
:10D60000181CC04621DF7047181CC04622DF704737
:10D61000181CC04623DF7047181CC04624DF704723
:10D62000181CC04625DF7047181CC04626DF70470F
:10D63000181CC04627DF7047181CC0464CDF7047D7
:10D64000181CC0464DDF7047181CC04651DF70479C
:10D65000181CC04652DF7047181CC04629DF7047AF
:10D66000181CC04628DF7047181CC0462ADF7047C8
:10D67000181CC0464EDF7047181CC0464FDF70476D
:10D68000181CC04650DF7047181CC04680B582B0D9
:10D6900000AF7860A023DB057A68C132FF329200C8
:10D6A0000321D150BD4602B080BDC04680B582B0D6
:10D6B00000AF78600A1CFB1C1A70A023DB05FA1C63
:10D6C00012789200111C7A68C132FF329200D15058
:10D6D000BD4602B080BDC04680B582B000AF786064
:10D6E000A023DA057B6801219940A123DB00D150FA
:10D6F000BD4602B080BDC04680B500AF074B0022DA
:10D700001A70074B0122DA60054B01225A60044A65
:10D71000A023DB000021D150BD4680BDE4280020BD
:10D720000020004080B582B000AF084B0122DA60D3
:10D73000074B01221A703B1C03221A70054B1B6811
:10D740003A1C101C9847BD4602B080BD0020004026
:10D75000E4280020E028002080B500AF094B1B78AA
:10D76000DBB2022B02D0084B01229A60064A074B1B
:10D770001B78191C064BD150024B02221A70BD4671
:10D7800080BDC046E428002000200040DC280020A6
:10D790001C05000080B500AFFFF7C4FFBD4680BD8B
:10D7A00080B500AF084B1B78DBB2012B02D0022BF7
:10D7B00003D006E0FFF7A0FF03E0034B03221A703B
:10D7C000C046BD4680BDC046E428002080B500AFFD
:10D7D0000C4B1B78DBB2002B02D0032B0CD00FE0DC
:10D7E000094AA023DB000421D150074B01221A6013
:10D7F000044B01221A7003E0024B02221A70C04649
:10D80000BD4680BDE42800200020004080B500AF68
:10D81000094B1B78DBB2012B0ADB022B05DD032B46
:10D8200000D005E0FFF768FF03E0FFF7B3FF00E07B
:10D83000C046BD4680BDC046E428002080B500AF8C
:10D84000044B1B78DBB2012B01D1FFF785FFBD46EE
:10D8500080BDC046E428002080B500AFFFF74CFF34
:10D86000BD4680BD80B582B000AF021CFB1D1A70A2
:10D87000FB1D1B78042B13D89A000B4BD3181B6885
:10D880009F46FFF78DFF0CE0FFF7A0FF09E0FFF7D1
:10D89000BDFF06E0FFF7D2FF03E0FFF7DDFF00E08A
:10D8A000C046BD4602B080BDD863020080B582B0DC
:10D8B00000AF78600A1CFB1C1A707B68181C02F011
:10D8C00041FF031E03D00020FFF7CCFF02E0012040
:10D8D000FFF7C8FFBD4602B080BDC04680B586B028
:10D8E00000AF354A84235B00D358002B23D0324A43
:10D8F000C1239B00D358042213401CD02E4A8423FA
:10D900005B000021D1502C4AA323DB00D358DBB2AB
:10D910009AB22A4B1A800C23FB1804221A70274B48
:10D920001B88DAB20C23FB181A71254B1B680C22DA
:10D93000BA18101C9847204A8E235B00D358002B3E
:10D940000ED01D4AC1239B00D3588022134007D01C
:10D95000194A8E235B000021D1500320FFF782FF7C
:10D96000154A92235B00D358002B21D0124AC123C1
:10D970009B00D25880239B00134019D00E4A92235B
:10D980005B000021D1500C4A9023DB00D3587B610F
:10D9900009499023DB007A69CA503B1D02221A70A4
:10D9A0003B1D7A695A60064B1B683A1D101C98474C
:10D9B000BD4606B080BDC0460020004020200020AB
:10D9C000E028002080B500AF154AA023DB00042129
:10D9D000D150134A84235B000021D150104A8E237A
:10D9E0005B000021D1500E490D4A0E4BD358012245
:10D9F00093430C4A8B500A49A123DB000122524277
:10DA0000CA500749A223DB0001225242CA50044BEC
:10DA100001229A60024B01221A60BD4680BDC046B9
:10DA2000002000406C05000080B582B000AF786037
:10DA3000164AA023DB000421D150144A84235B0042
:10DA40000021D150114A8E235B000021D1500F4993
:10DA50000E4A0F4BD358012213430D4A8B500B4AE9
:10DA60007B68DB78191CA223DB00D150074A7B6856
:10DA70009B78191CA123DB00D150044B01229A6032
:10DA8000024B01221A60BD4602B080BD002000405A
:10DA90006C05000080B588B000AFF860B9607A60AE
:10DAA0001A1CFB1C1A70784B00221A70774B7A688C
:10DAB0001A60774B012252421A80FB685B78181C6F
:10DAC000FFF70AFEFB685B78181CFFF7DFFDFB68B9
:10DAD0001B78181C0321FFF7E9FD6E4AFB685B7891
