:020000021000EC
:10F0000000800020CD6A0200FD6A0200FF6A020053
:10F0100000000000000000000000000000000000F0
:10F02000000000000000000000000000076B02006C
:10F030000000000000000000096B02000B6B0200E2
:10F040000D6B02000D6B0200D90902000D6B02006E
:10F050000D6B02000D6B02000D0502000D6B02002E
:10F060000D6B02000D6B02000D6B02000D6B0200B8
:10F070000D6B02000D6B02000D6B02000D6B0200A8
:10F080000D6B020031F801000D6B02000D6B0200E8
:10F0900009F901000D6B0200996A02000D6B020074
:10F0A0000D6B02000D6B02000D6B02000D6B020078
:10F0B0000D6B02000D6B020000000000000000005C
:10F0C0000D6B02000D6B02000D6B02000D6B020058
:10F0D0000D6B02000D6B020000000000000000003C
:10F0E0000000000000000000000000000000000020
:10F0F0000000000000000000000000000000000010
:10F1000000000000000000000000000000000000FF
:10F1100000000000000000000000000000000000EF
:10F40000154B002B08BF134B9D46A3F5803A0021F6
:10F410008B460F461348144A121A00F065F80F4B3A
:10F42000002B00D098470E4B002B00D098470020AF
:10F43000002104000D000D48002802D00C48AFF355
:10F44000008000F02BF82000290003F07DFD00F083
:10F4500011F800BF0000080000800020000000003C
:10F460000000000078280020B431002000000000D7
:10F470000000000008B5074B044613B10021AFF3AC
:10F480000080054B1868836A03B19847204600F056
:10F4900033F800BF00000000A86B020070B50E4BEF
:10F4A0000E4CE41AA41000251E46A54204D056F8BE
:10F4B000253098470135F8E707F068FB084C094B01
:10F4C000E41AA41000251E46A54204D056F82530A3
:10F4D00098470135F8E770BD78280020782800208B
:10F4E000782800207828002002440346934202D066
:10F4F00003F8011BFAE77047FEE700BF2DE9F84F5C
:10F50000234B1A788AB3DFF88CB0DFF88C80DFF8F1
:10F510008C9000244FF0010A03E00134E4B29442DD
:10F5200023D226B2D8F80050DBF8003015F83600A8
:10F530000AFA00F1194205EBC607EED0154A23EA94
:10F540000103136000F0D8FF15F83650D9F80030E9
:10F550000AFA05F10B4000FA05F18B4207D00C4B7B
:10F5600001341A78E4B29442DBD3BDE8F88F79789D
:10F570007B68A1F10101B1FA81F14909002BEED0BC
:10F58000091A2846B1FA81F149099847E7E700BF0F
:10F59000802800208C2800207C280020842800203F
:10F5A000F8B5134D0746286800F05EFD40B9114ECE
:10F5B00001243368BC401C4203D023EA04043460B5
:10F5C000F8BD384600F098FF0B4F3A6860B122430F
:10F5D00033680A493A601C4334602868096800228D
:10F5E000BDE8F84000F0C8BC22EA0402F0E700BF22
:10F5F000882800208C2800208428002078280020DB
:10F60000F0B5042A85B0174602D8072005B0F0BD32
:10F610000191054600F01CFE0199002830D01C4CD9
:10F62000DFF888E01B481C4A1C4B256000264C1E56
:10F6300007608EF8001016601E60E4B2032709B957
:10F6400018E01C4623B205EBC30215F8330093788B
:10F65000134A8DF80D3003A98DF80C708DF80E60EB
:10F660008DF80F6000F0FCFD631E0028CED1DBB2E8
:10F67000002CE6D10B4A0C48002100F04FFCC5E7F6
:10F68000019100F0AFFD01990028C8D0BEE700BF8E
:10F690007C28002078280020842800208C28002046
:10F6A000A1F50100FDF40100882800208028002039
:10F6B00070B5084D2B785BB1074E002433680121EB
:10F6C00013F8340000F0BEFE2B780134A342F5D8C5
:10F6D000002070BD802800207C280020BFF34F8FC1
:10F6E0000449054BCA6802F4E0621343CB60BFF3E0
:10F6F0004F8FFEE700ED00E00400FA05484B494853
:10F7000030B401214FF480344FF400352F22C0F87B
:10F710008050C3F848431046C3F808435960013885
:10F7200000BF00BF00BF00BF00BF00BF00BF00BFE1
:10F7300000BF00BF00BF00BF00BF00BF00BF00BFD1
:10F7400000BF00BF00BF00BF00BF00BF00BF00BFC1
:10F7500000BF00BF00BF00BF00BF00BF00BF00BFB1
:10F7600000BF00BF00BF00BF00BF00BF00BF00BFA1
:10F7700000BF00BF00BF00BF00BF00BF00BF00BF91
:10F7800000BF00BF00BF00BF00BF00BF00BF00BF81
:10F7900000BF00BFC3D1244C9960002310462360F2
:10F7A000013800BF00BF00BF00BF00BF00BF00BFE7
:10F7B00000BF00BF00BF00BF00BF00BF00BF00BF51
:10F7C00000BF00BF00BF00BF00BF00BF00BF00BF41
:10F7D00000BF00BF00BF00BF00BF00BF00BF00BF31
:10F7E00000BF00BF00BF00BF00BF00BF00BF00BF21
:10F7F00000BF00BF00BF00BF00BF00BF00BF00BF11
:10F8000000BF00BF00BF00BF00BF00BF00BF00BF00
:10F8100000BF00BF00BFC3D1044A137030BC7047A3
:10F820000010014000E100E090280020B8280020EE
:10F830002DE9F8432B4B2C4A0026C3F84061C3F84E
:10F840004461C3F84861C3F84C61C3F80061C3F870
:10F8500004611468621C38D0244AD3F80435156852
:10F86000234FDFF8A0805D1B25F07F4501E0631C7E
:10F870001DD03A6804EBC40402EB84035A68AA4220
:10F8800015D8D3F818901C6AD8F800C0DB69484630
:10F890001946AD1A1644BCF1000F18D0E0470028F5
:10F8A000E5D000210A46FFF719FF631CE1D1114B97
:10F8B00011491A780B789A420CD01049104A41F835
:10F8C00023604FF48013C2F80031BDE8F883184676
:10F8D000C847CCE7531CDBB2022B08BF00230B70D8
:10F8E000EBE700BF00100140A8280020902800206E
:10F8F00098280020A4280020A5280020B028002057
:10F9000000E100E0942800202DE9F04FB94ABA49FF
:10F9100013780978B94889B000680290994200F0DC
:10F9200058820133DBB2022B08BF00231370B44AA4
:10F9300052F82330029A05931344B04A23F07F43D0
:10F94000136001230493AF4BAF4A1B7800931C460E
:10F95000AE4B12681B680193AD4B07921868AD4B14
:10F960001B780393A54B1B68069311461346A346C9
:10F9700000260BF1FF3B5FFA8BFBBBF1FF0F6DD055
:10F98000019D0FFA8BF205EBC20815F8322098F8AA
:10F990000150AA42EDD002EB4207D8F8044098F893
:10F9A00002C014F837E00132D2B2944508BF0022F9
:10F9B000BEF1020F04EBC70412D0BEF1030FE8D171
:10F9C0004F1C18BF0B46E4D003EBC30300EB8301CD
:10F9D0000B6A0E755D1CF7D198F801501946D8E7EF
:10F9E000D4F804E04FEACE0909EB0E0C00EB8C0CC6
:10F9F0009CF814A0BAF1000FCBD04C1C0FD08E4550
:10FA000000F0A8810F4602E0AE450DD02F4607EB6F
:10FA1000C70400EB8404256AB5F1FF3FF4D18CF8EC
:10FA2000146098F80150B4E7BE4500F0808109EBFE
:10FA30000E0500EB85052F6AD5F804E027627C1CD3
:10FA4000EDD007EBC70700EB870519466C687444D7
:10FA50006C608CF8146098F801509AE76A4A06982E
:10FA60001360664A10606B4A9DF80C001070049A8F
:10FA70000391002A40F07C81079B039F5B1A18BF0B
:10FA8000012304934FF0FF3E604B1B680293604BD1
:10FA90001E685A4BD3F800A05B4BD3F800B05D4B07
:10FAA0001B7801934FF00008009B013BDBB2FF2B5A
:10FAB000009300F0B5801A46029B744603EBC2091E
:10FAC000621C42D004EBC40006EB8000254682682D
:10FAD000D0F80CE0046A5049CAEB020323F07F43DC
:10FAE0008B4251D8734443604FF0010303754FF0CC
:10FAF000FF339F42C0F80880C0F80C80036275D0C5
:10FB000007EBC70306EB8303D0F804E059688E4582
:10FB100060D9BC4603E05968714563D294461A6ABD
:10FB2000C1EB0E0E02EBC203511C06EB8303F2D1B4
:10FB30000CEBCC0C06EB8C0C3B46C0F804E00262EC
:10FB40001F46CCF82050621CBCD199F8003099F8BF
:10FB500001209A4262D05A1C99F80200D9F8041088
:10FB6000D2B203EB4303904289F8002008BF89F822
:10FB7000008001EBC30C11F83330DCF80450012B8A
:10FB80000ED03B461F46DEE7C2EB0A0222F07F4260
:10FB900072453ABFC2EB0E024260C0F80480A3E790
:10FBA00005EBC50006EB8000037D002BE9D1DCF8F6
:10FBB00008208260DCF80CE0C0F80CE0DCF81010E3
:10FBC0000161DCF81410C1610199002983D08360C0
:10FBD0001A4680E7CEEB010159602B460762AB461F
:10FBE0001F46B0E7CEEB01015960A1E72B46AB46BB
:10FBF0001F46A8E7A4280020A52800209028002060
:10FC0000B02800209C280020A8280020A028002040
:10FC100098280020AC280020FEFF7F00A64643E77E
:10FC2000744BC3F800B0039B9F4200F097807B1C8D
:10FC300000F0DD80704C714B714A1B681268D4F87B
:10FC40000415704D07EBC70702EB87072878D7F834
:10FC50000480CA1A22F07F42033200284CD16A4F36
:10FC60004FF4803C4FF4003E0126C4F844C32F20DB
:10FC7000C4F804C3C7F880E1C7F800E02660013883
:10FC800000BF00BF00BF00BF00BF00BF00BF00BF7C
:10FC900000BF00BF00BF00BF00BF00BF00BF00BF6C
:10FCA00000BF00BF00BF00BF00BF00BF00BF00BF5C
:10FCB00000BF00BF00BF00BF00BF00BF00BF00BF4C
:10FCC00000BF00BF00BF00BF00BF00BF00BF00BF3C
:10FCD00000BF00BF00BF00BF00BF00BF00BF00BF2C
:10FCE00000BF00BF00BF00BF00BF00BF00BF00BF1C
:10FCF00000BF00BFC3D12E7042452CBF9A1803EB42
:10FD000008023D4822F07F43C0F84035D0F8042572
:10FD1000521A22F07F425B1A033223F07F439A4249
:10FD200020D9394B4FF40032C3F800211AE001EB1F
:10FD3000C10100EB810325461B6A5F1C01D01946F7
:10FD400079E62D4901278F600027CDF80CA01946D0
:10FD5000069770E6654663466446EDE7049B002B14
:10FD60007FF465AF294A0023137009B0BDE8F08F16
:10FD7000234A059D1768002001EBC1024C1C064672
:10FD80004FF0FF3E9C4607EB82021AD05468AC420B
:10FD900023D8136956602D1B20441675D2F820C055
:10FDA00043B1029CC2F820E0041924F07F44D360E0
:10FDB0008E469460614601EBC1024C1C07EB820247
:10FDC000E4D10C4A03910123C2F800C004930F460A
:10FDD0005AE6002305930493B5E5641B5460054A75
:10FDE00003910123C2F800C004930F464CE6FFF7CD
:10FDF00085FCB7E7A82800200010014090280020CB
:10FE000098280020B828002000E100E0AC2800205D
:10FE10002DE9F04F13F0030585B003D0072005B09E
:10FE2000BDE8F08F0392029101900093002BF5D072
:10FE30002F4F304E304CFFF761FC0E9B02993B6018
:10FE4000009B317023600198039A51B109B201EB14
:10FE5000C10603EB86061C46257025752434B44282
:10FE6000FAD101EBC1018C002449254FDFF898E05D
:10FE7000DFF898B0DFF898A0DFF89890DFF8988066
:10FE80001D1902EB42060D6005F1180C0021F60069
:10FE900019550CEB06031E44AA70AA72AA74C5F881
:10FEA00004C06E614FF4801C602603244FF0FF32C3
:10FEB000EB60697029726972297469748BF800109B
:10FEC0008AF8001089F80040C8F80020C7F880C1FF
:10FED00087F81463C7F800C0CEF8080587F81163E7
:10FEE000084BDEF804251A60084605B0BDE8F08F1F
:10FEF00094280020A628002098280020A028002070
:10FF000000E100E09028002000100140A42800201B
:10FF1000A52800209C280020A8280020F0B5144B1C
:10FF20001E68C6B1A2B198B1124B1F786FB1337879
:10FF3000A3B106F12404002303E014F8245B9E46D9
:10FF40006DB10133BB422646F7D104231846F0BDFC
:10FF500007231846F0BD08231846F0BD9E4601232E
:10FF600033707170B2610023C0F800E01846F0BD34
:10FF700098280020A6280020344B1B688BB1F0B5D0
:10FF8000334C2478844201D80720F0BD0429FBD9E2
:10FF900000EBC004A4001D191B5D012B03D0082039
:10FFA000F0BD082070472B4B6C785B68012CC3F3C5
:10FFB00008030CBF0F460027002B3AD0103B5CB261
:10FFC000002C3CDB04F1604303F5614393F80033FC
:10FFD0005B09DBB2012B30D0032B0CBF08231023AD
:10FFE0001D4C24681C446378A678257803F1010E23
:10FFF000B64508BF4FF0000E75451CD003EB430318
:020000022000DC
:100000006668DB00F51816D04FF0010C06F803C047
:10001000124E6860124BD6F80405A8604FF48016A3
:10002000E9602F616A6184F801E0C3F80061002093
:10003000F0BD1023D4E70420F0BD0023D0E7094C25
:1000400003F00F031C44237E5B09C2E798280020BD
:10005000A628002000ED00E0A028002000100140AC
:1000600000E100E0FCEC00E02A4B1B6863B12A4988
:1000700009788142024601D80720704700EBC00191
:1000800013F82130012B01D008207047F0B5234B25
:100090005B68C3F3080383B3103B59B2002932DB1A
:1000A00001F1604303F5614393F800335B09DBB270
:1000B000012B26D0032B0CBF0823102318490968F5
:1000C00019444B788D7808785C1CAC4208BF00243A
:1000D000A04214D003EB43034868DB0010EB030E8F
:1000E0000DD0104D0227C7544FF48016CEF80420CF
:1000F0004C70C5F800610020F0BD1023DEE704203D
:10010000F0BD0023DAE7084903F00F0319440B7E22
:100110005B09CCE798280020A628002000ED00E02D
:10012000A028002000E100E0FCEC00E00A7B4B6826
:1001300010B40C68002A0ABF234600220122027173
:1001400003605DF8044B704710B40279034652B166
:1001500048681A688968841A8C4210D9881818600F
:100160005DF8044B7047046808688A68211A914258
:100170000BD8012218601A715DF8044B70470022F9
:1001800018601A715DF8044B7047A01A18605DF88A
:10019000044B7047002810B418DB00F1604303F5EE
:1001A00061434901C9B283F80013C3B2400980001A
:1001B00000F1604000F5614003F01F02012393400D
:1001C000C0F8803103605DF8044B7047C3B2044A45
:1001D00003F00F0449012244C9B21176E6E700BFDB
:1001E000FCEC00E038B5184C25780DB1082038BD7E
:1001F0004FF0FF33FF226363A363E363236463640D
:10020000A364E3642365062001216360A360E360C7
:1002100023616361A361E3612362636284F8543004
:10022000A362E36284F85630236384F8573084F87D
:100230005520FFF7AFFF054A4FF000410123C2F8F8
:1002400004132370284638BDBC28002000600040FD
:10025000024B1878003018BF01207047BC280020DE
:100260002DE9F041764D2C1894F93430002B02DB47
:100270000820BDE8F08191F803C0BCF1000F7FD0E9
:100280006B68013300F0D78008270026731C9C00A0
:1002900005EB0408DFF8A8E1D8F80480B8F1FF3FC7
:1002A00076D0B31C9F4268D99C000EEB0408D8F8A6
:1002B0000480B8F1FF3F6BD0F31C9F425DD99C00D6
:1002C0000EEB0408D8F80480B8F1FF3F60D0331D6E
:1002D0009F4252D99C000EEB0408D8F80480B8F174
:1002E000FF3F55D0731D9F4247D99C00A644DEF8BE
:1002F00004E0BEF1FF3F4BD0B31D9F423DD99C00AF
:1003000005EB0408DFF838E1D8F80480B8F1FF3FC6
:100310003ED0F31D9F4230D99C000EEB0408D8F864
:100320000480B8F1FF3F33D006F108039F4224D97F
:100330009C000EEB0408D8F80480B8F1FF3F27D0EA
:1003400006F109039F4218D99C000EEB0408D8F867
:100350000480B8F1FF3F1BD006F10A039F420CD97D
:100360009C00A644DEF804E0BEF1FF3F10D00B363F
:10037000B74202D92B6B013308D00420BDE8F081CD
:100380006B6A013351D00C2708267FE70B232C24FE
:100390002C442F18DEB2626087F83460BCF1000F85
:1003A00002D12B4483F84C008B78B3B94A784FF0D4
:1003B000A04400F5E073920044F82320CB78B3B951
:1003C00072B2083A1544097895F8542042EA81122D
:1003D00085F854201846BDE8F081830003F1A0435E
:1003E000D3F8002722F00202C3F80027E6E773B231
:1003F0009B0003F1804303F5C0430A78D3F810153E
:1004000021F4473121F44071C3F8101512040002A1
:1004100002F44031D3F8104500F4F8520A43224365
:10042000C3F810250020BDE8F081082633466A6233
:1004300084F83460B5E700266A6084F83460B3E776
:10044000BC28002030B42A4B1A1882B092F83440ED
:1004500062B2072A1CDD134493F84C309B09032B2E
:1004600039D0012B0CBF4FF400314FF440318000E4
:1004700000F1A040D0F8002722F44032C0F8002755
:10048000D0F800370B43C0F8003702B030BC7047DB
:10049000072CFAD8900000F1804000F5C04002F12E
:1004A00040039B00D0F810459BB203F18043002528
:1004B00044F0010403F5C043C0F8104501950198CC
:1004C0001D600029E1D00B4901239340C1F804339A
:1004D00002B030BC70474FF0A0420123D2F8102583
:1004E0008340134214BF4FF440314FF40031BEE754
:1004F000BC280020006000404FF0A043D3F8103526
:1005000023FA00F000F00100704700BFF0B5BB4BCC
:100510001A68012A83B000F0D5800024B84B1A680D
:10052000012A00F0E180B74B1A68012A00F0EE8042
:10053000B54B1A68012A00F0FB80B44B1A68012AF7
:1005400000F00881B24B1A68012A00F01581B14B06
:100550001A68012A00F02281AF4B1A68012A00F0C4
:100560002F81AE4B1A68012A00F03C81002521073B
:1005700017D0E20700F15881A30700F1BE81670799
:1005800000F19C81260700F1A881E00600F15C8162
:10059000A10600F16881620600F17481230600F172
:1005A0008081002C01DB03B0F0BD9D4C94F8541009
:1005B00021F0C000231893F93430072B14DD04EB2D
:1005C00083035F6887B1860006F1A0460123D6F851
:1005D000002783402B424FEA9111C2F3014240F0C1
:1005E000A381032A00F0B58194F855108C4B21F0BB
:1005F000C000221892F93420072A14DD03EB82038D
:100600005F6887B1860006F1A0460123D6F800276F
:1006100083402B424FEA9111C2F3014240F0928194
:10062000032A00F0B88194F856107D4B21F0C000E9
:10063000221892F93420072A14DD03EB82035F6845
:1006400087B1860006F1A0460123D6F80027834033
:100650002B424FEA9111C2F3014240F06C81032A10
:1006600000F0888194F857106D4B21F0C0000444CD
:1006700094F93420072A96DD03EB82035E68002E8E
:1006800091D0830003F1A0430122D3F800478240B8
:100690002A424FEA9111C4F3014440F03E81032CF9
:1006A00081D1032940F03E814FF40035D3F8004753
:1006B00024F44034C3F80047D3F800272A43C3F892
:1006C00000272FE15749D1F8044314F001043FF407
:1006D00025AF002119601B680093009B484B14460E
:1006E0001A68012A7FF41FAF4E4AD2F804239007FC
:1006F0007FF519AF00221A601B680093009B414BE5
:100700001A68012A44F002047FF412AF454AD2F875
:10071000042351077FF50CAF00221A601B68009379
:10072000009B394B1A68012A44F004047FF405AF9A
:100730003C4AD2F8042312077FF5FFAE00221A606C
:100740001B680093009B314B1A68012A44F008048F
:100750007FF4F8AE334AD2F80423D7067FF5F2AE21
:1007600000221A601B680093009B294B1A68012A1B
:1007700044F010047FF4EBAE2A4AD2F80423960624
:100780007FF5E5AE00221A601B680093009B214BA9
:100790001A68012A44F020047FF4DEAE214AD2F820
:1007A000042355067FF5D8AE00221A601B6800931B
:1007B000009B194B1A68012A44F040047FF4D1AE23
:1007C000184AD2F8042310067FF5CBAE00221A6037
:1007D0001B680093009B114B1A68012A44F08004A7
:1007E0007FF4C4AE00221A601B6801934FF0A0434F
:1007F000019AD3F8105544F00044B8E60061004077
:1008000004610040086100400C610040106100403C
:1008100014610040186100401C6100407C61004090
:10082000BC28002000600040694B6A4AD3F81005DC
:10083000D3F810155368C0F30420C1F30141984761
:10084000A3077FF59CAE58E0614B624AD3F82005C0
:10085000D3F820155369C1F30141C0F30420984730
:10086000A1067FF598AE5A4B5A4AD3F82405D3F81F
:1008700024159369C0F30420C1F30141984762062F
:100880007FF58CAE524B534AD3F82805D3F8281580
:10089000D369C0F30420C1F30141984723067FF5D3
:1008A00080AE4B4B4B4AD3F82C05D3F82C15136A6A
:1008B000C0F30420C1F30141984772E6444B454A16
:1008C000D3F81805D3F81815D368C0F30420C1F382
:1008D0000141984726077FF558AE3D4B3D4AD3F876
:1008E0001C05D3F81C151369C0F30420C1F30141A2
:1008F0009847E0067FF54CAEA6E7354B354AD3F86E
:100900001405D3F814159368C0F30420C1F3014112
:10091000984767077FF536AED0E7022C7FF443AEE9
:1009200003294CD0B0473EE6022A7FF45DAE03298E
:100930004BD0B84758E6022A7FF494AE032941D041
:10094000B8478FE6022A7FF46EAE032934D0B84749
:1009500069E60329EDD14FF4003ED6F8002722F4D2
:100960004032C6F80027D6F800374EEA0303C6F82F
:100970000037DEE70329E3D14FF4003ED6F8002725
:1009800022F44032C6F80027D6F800374EEA0303B7
:10099000C6F80037D4E70329D9D14FF4003ED6F882
:1009A000002722F44032C6F80027D6F800374EEA76
:1009B0000303C6F80037CAE74FF4403EEFE74FF4B1
:1009C000403573E64FF4403ED8E74FF4403EC4E76D
:1009D00000600040BC28002030B5834C834AE37D92
:1009E00085B0F3B11368002B40F0B980804A1168DC
:1009F000002940F09E807F4B1A6832B1E17C7A4832
:100A000000221A60002940F0CF807B4B1A6832B177
:100A1000A17C754800221A60002940F0D58005B0FD
:100A200030BD1168002959D0617D744813604FF4BE
:100A30000173C0F8083329B903F1804303F5F0537B
:100A400001221A606D4A02238DF80030D2F88034FA
:100A5000C2F88034E268E07C0192002203938DF8B2
:100A6000080021686368E27468469847644B1A6816
:100A7000A2B1228AA17C5C4892B291424FF000025E
:100A80001A6040F28380028A038A85685B4992B2C9
:100A90000133AA5C9BB20382C1F81C25554B1A682E
:100AA000002ABCD0627D002119601AB1A3F5A2739F
:100AB00001221A60E27C4C4B002AB0D0197DDA6822
:100AC0008DF80810002001218DF800100192D874D3
:100AD00093E806006846904705B030BD494B1A6858
:100AE000002AC3D0454A1960207DD2F81855237DCD
:100AF000E17CE2680133DBB22375237D1554994212
:100B0000B4D1637D13B9404B012119603B4963683F
:100B10004FF40170C1F8080301920122217D8DF884
:100B2000002000228DF8081068462168E27498477A
:100B30009CE732491360D1F83C25E17CD2B2914266
:100B40007FF459AFE2688DF8081001208DF800009D
:100B50000192684694E80600E37490474BE7274B00
:100B60000020022110608DF80010D3F88024C3F813
:100B700080240392D3F83C25E3680193E0748DF858
:100B80000820216863686846984734E7002985D0C3
:100B900083688DF808100193827490E80A008DF83C
:100BA00000206846984779E71449C368D1F83C1596
:100BB0008DF8081001218DF800100193C27490E89F
:100BC0000A006846984720E70C498368D1F84C151D
:100BD0008DF808100193827490E80A008DF80020C7
:100BE000684698471BE700BF1429002024210040D5
:100BF00010210040442100402021004000200040FE
:100C00001C210040082100400420004029DF7047DB
:100C100028DF704730B1112805D1114A136843F01D
:100C200008031360704770B502460E480E490378FA
:100C300009680E4E03EB830382B09B00C518009138
:100C4000EC686B69297904EB440428460C3056F8AB
:100C50002440A047064B04221A7002B070BD00BFAA
:100C6000142A00202C2900201C2A0020002A002001
:100C7000192A00202DE9F047544D554F2B78554C3B
:100C8000DFF86CA182B0032B46D8DFE803F05A5599
:100C900002482378DFF848814FF0805E03EB83033E
:100CA000DEF81000D8F8009004EB830380B21A69D4
:100CB000B2FBF0F03860D988DEF81030013A0A440F
:100CC0009BB2B2FBF3F39842434B08BF29F00109F2
:100CD0001B680CBF49F0020929F00309C8F800900D
:100CE00013B919F0020F67D03C4B4FF0805200212E
:100CF00019705369116910695A1E8BB202FB03F314
:100D000080B2B3FBF0F0FFF783FF28B1112831D197
:100D100049F00803C8F8003002B0BDE8F087386831
:100D2000FFF776FF0028F7D0112823D12C4A13684B
:100D300043F008031360EFE702B0BDE8F04700F0AE
:100D4000D3BB284828496278002303600B60002A3F
:100D5000E2D02278254902EB820204EB8202137969
:100D6000D2880A60032B22D0042B20D0012BD3D1B0
:100D70002B7088E72378DFF8748003EB83039B00F4
:100D800004EB030CE646DCF80C20DCF814309CF88D
:100D90000410D8F80060009602EB420C02465AF8A4
:100DA0002CC00EF10C00E04704232B706BE702B05F
:100DB000BDE8F04700F01EB8084B02221A70FFF79A
:100DC00027FF02B0BDE8F047FFF724BF192A002033
:100DD000282A00202C290020242A0020182A00205C
:100DE000142A0020202A0020F82900201C2A002094
:100DF000002A00202DE9F043504A51491378514E02
:100E000003EB830302EB83034FF08057DD681A691D
:100E1000B3F806E01C89386905EB450301EB830351
:100E200081B2B3F808805889D3F80490B2FBF1FC82
:100E30000EEB040301FB1C214FF0000C00FB08909B
:100E40001344C6F800C009BB396989B28E4536D053
:100E500083425ED0022D32D03D69DFF8F4E02244B7
:100E6000ADB2B2FBF5F105FB11229208CEF80020DD
:100E70003A6992B2B3FBF2F102FB113272BB324B10
:100E800002221A70BDE8F043FFF7F4BE022D16D01F
:100E90003D69DFF8BCE02244ADB2B2FBF5F105FBE1
:100EA00011229208CEF8002083423A69E7D092B22C
:100EB000B3FBF2F102FB1132002AE0D00EE04FF05A
:100EC000805322491B69204803249BB20470B2FB63
:100ED000F3F20A60BDE8F043FFF7CCBE4FF0805458
:100EE0009BB22169226980B289B292B2B0FBF1F162
:100EF000B3FBF2F291421CD02269206980B2B3FBAD
:100F0000F0F100FB113392B29BB2D31A9B0833600D
:100F1000B5E7002CD3D0022DD1D03B690C48224438
:100F20009BB2B2FBF3F103FB11239B0803603B6907
:100F3000A5E7C31A9B083360A1E700BF2C29002056
:100F4000002A0020FC290020192A0020282A00203D
:100F5000242A00202DE9F843214CBDF820C06778F1
:100F60000A2F37D094F800E0DFF87C9026460EEB8D
:100F70000704092CC8BF0A3C4FF0140808FB04649E
:100F800099F800506261207103C904F10C02E380FA
:100F90007B1C7370A4F808C082E80300104BE5B90D
:100FA00008FB0E3E0F4A9EF80430BEF80610116092
:100FB000032B0AD0042B08D0012B0ED189F8003066
:100FC000FFF758FE2846BDE8F883FFF713FF2846D1
:100FD000BDE8F8830420BDE8F8830020BDE8F8836D
:100FE0002C2900201C2A0020192A0020F0B5294AAB
:100FF000136813F0080583B00BD027482749007801
:1010000051F8201023F00803136003B0BDE8F0404E
:101010000847234C207800EB8000800023181979C2
:1010200004292ED0DA681F4F1F4E3F685B69009776
:1010300002EB4202204456F822600C302A46B047A8
:101040002378617803EB83020133DBB204EB820285
:101050000A2B4FF0010618BF2370144B157101F1D4
:10106000FF31D580556115811561D6604FF00002C2
:10107000617008BF25701A7003B0BDE8F040FFF73B
:10108000F9BD0A4B01221A7003B0BDE8F040FFF72A
:10109000F1BD00BF142A0020182A0020AC6B02000A
:1010A0002C2900201C2A0020002A0020192A0020B8
:1010B00070B54FF080531D491A69086859691B695A
:1010C0001B4C92B2013801399BB282B000FB02F096
:1010D00001FB03F12268FFF799FD30B1112806D119
:1010E000144A136843F00803136002B070BD124C39
:1010F000124A23781268009203EB83039B00E518E1
:101100002C46EA6829796B690D4E02EB42050246CE
:1011100004F10C0056F82540A0470A4B04221A702F
:1011200002B0BDE87040FFF7A5BD00BF282A00202F
:10113000242A0020142A00202C2900201C2A002008
:10114000002A0020192A002070B54FF080531D4A54
:101150005E691D691C6911681A69013EA8B2A3B2D3
:1011600082B006FB00F0C2F38D0201FB03F1FFF732
:101170004DFD30B1112806D1134A136843F008031E
:10118000136002B070BD114C114A237812680092AE
:1011900003EB83039B00E5182C46EA6829796B6909
:1011A0000C4E02EB4205024604F10C0056F82540B5
:1011B000A047094B04221A7002B0BDE87040FFF747
:1011C00059BD00BF282A0020142A00202C29002005
:1011D0001C2A0020002A0020192A002070B5224D68
:1011E0002C68220782B015D4204AA307204B106830
:1011F00048BF44F001044FF0020248BF2C601A704F
:10120000FFF706FD20B1112810D144F008042C602E
:1012100002B070BD164A174B127853F8223024F0F2
:1012200008042C6002B0BDE870401847124C134A05
:1012300023781268009203EB83039B00E5182C4689
:10124000EA6829796B690E4E02EB4205024604F109
:101250000C0056F82540A0470A4B04221A7002B031
:10126000BDE87040FFF706BD142A0020282A0020A0
:10127000182A0020AC6B02002C2900201C2A002018
:10128000002A0020192A0020F0B5234D234A2B788C
:10129000126803EB830305EB83031C464FF0805673
:1012A00034F8081FD888A368346977693669084418
:1012B0001844A3B2013FB0FBF3F4B1B203FB140333
:1012C00083B007FB0131FFF7A1FC30B1112806D133
:1012D000134A136843F00803136003B0F0BD2B7882
:1012E000104A114E1268009203EB83039B00EC1826
:1012F0002546E2682179636902EB4204024656F80A
:10130000244005F10C00A047084B04221A7003B0DA
:10131000BDE8F040FFF7AEBC2C290020FC290020DE
:10132000142A00201C2A0020002A0020192A00204C
:1013300070B5164B82B01868FFF76AFC30B11128FF
:1013400006D1134A136843F00803136002B070BD5E
:10135000104C114A23781268009203EB83039B0020
:10136000E5182C46EA6829796B690C4E02EB4205B8
:10137000024604F10C0056F82540A047084B042211
:101380001A7002B0BDE87040FFF774BC282A002034
:10139000142A00202C2900201C2A0020002A0020CA
:1013A000192A0020F0B5274D2C68230783B00BD5F0
:1013B000254A264B127853F8223024F008042C607A
:1013C00003B0BDE8F04018471F49214A4FF0805351
:1013D0000120087058691F691E6911681A6900F1B7
:1013E000FF3EB3B2B8B20EFB00F0C2F38D0201FBB8
:1013F00003F1FFF70BFC20B1112804D144F00804DD
:101400002C6003B0F0BD134C134A2378126800928D
:1014100003EB83039B00E5182C46EA6829796B6986
:101420000E4E02EB4205024604F10C0056F8254030
:10143000A0470B4B04221A7003B0BDE8F040FFF741
:1014400019BC00BF142A0020182A0020AC6B02002F
:10145000282A00202C2900201C2A0020002A0020F5
:10146000192A002070B54FF0805182B04A690B698B
:101470000869013A9BB202FB03F380B2B3FBF0F0C0
:10148000FFF7C6FB30B1112806D1124A136843F0AA
:101490000803136002B070BD0F4C104A2378126825
:1014A000009203EB83039B00E5182C46EA68297938
:1014B0006B690B4E02EB4205024604F10C0056F834
:1014C0002540A047074B04221A7002B0BDE87040C7
:1014D000FFF7D0BB142A00202C2900201C2A002052
:1014E000002A0020192A0020F0B5414C2578AF00D1
:1014F0007B194FF0805604EB83033069DA8880B2A1
:10150000824283B018D81E46596936F8080FB3686E
:1015100092081844FFF77AFB30B111282CD1354AD4
:10152000136843F0080313603D4404EB8504324B19
:10153000E2881A6003B0F0BD1F46356937F808EF3E
:101540005969B8683669ABB2D21A70441044114474
:10155000C6F38D02FFF75AFB30B111282CD1254A72
:10156000136843F0080313604FF08053224A1B694D
:101570009BB2136003B0F0BD2378204ADFF884C02B
:101580001268009203EB83039B0004EB030E764684
:10159000DEF80C209EF80410DEF8143002EB420E48
:1015A000024606F10C005CF82E60B047144B042292
:1015B0001A70FFF75FFBB7E72378104A114E1268E5
:1015C000009203EB83039B00E5182C46EA68297917
:1015D0006B6902EB4205024604F10C0056F8254007
:1015E000A047074B04221A70FFF744FBBCE700BF7B
:1015F0002C290020142A0020F82900201C2A002071
:10160000192A0020002A00202DE9F0436E4D2C6895
:1016100014F0080883B05BD16C4E6D4B96F800C097
:101620001F684FEA8C0E0EEB0C0206EB82024FF0A5
:1016300080591369D1881089D9F81020013B0B44D7
:101640000344002F50D1634A10684FF08052126952
:1016500092B2B3FBF2F3984278D36ED0002F6DD1E3
:10166000E6444FEA8E0E7644584C3179042900F056
:10167000A880F2685848594D00687369009002EBE1
:10168000420204EB0E0055F822500C303A46A847AF
:101690002378617803EB83020133DBB204EB82022F
:1016A0000A2B4FF0010501F1FF3118BF23704C4B9D
:1016B0001771D780576117811761D560617008BFB6
:1016C000277000221A7003B0BDE8F043FFF7D2BACA
:1016D000444A454B127853F8223024F008042C6019
:1016E00003B0BDE8F04318473A49086892B2B3FB2B
:1016F000F2F28242A9D13D4B3A4AC3F8008044F04D
:10170000010382F800802B60D9F81430D9F810104A
:10171000D9F810005A1E8BB202FB03F380B2B3FB60
:10172000F0F0FFF775FA024620B1112836D144F0E7
:1017300009042C6003B0BDE8F0833FB1294B0322BC
:101740001A7003B0BDE8F043FFF79EBD2749254B53
:10175000002702220F601A70FFF75AFA0028E9D01A
:10176000112817D033781C4A1C4D1268009203EBE5
:1017700083039B00F4182646E2682179636902EB33
:101780004204024655F8244006F10C00A047144BD1
:10179000042297E744F008042C60CBE733780E4925
:1017A0000E4F0968009103EB83039B00F518284650
:1017B000EC6829796B6904EB44040C3057F8244039
:1017C000E4E7074B01227DE7142A00202C290020A2
:1017D000FC290020282A00201C2A0020002A0020A2
:1017E000192A0020182A0020AC6B0200242A0020AD
:1017F0002DE9F041844D2C68230782B079D4834BC6
:10180000834A1E681268701C1860002A3FD1814EFE
:10181000337803EB83039A0006EB020CE646BCF830
:1018200006803EF8083F4FF08051DEF808700969E5
:1018300043443B445F1E89B2B7FBF1F1884268D351
:1018400063D075490F68002F00F0A88014F00102E2
:1018500040F08B80714B6C4F1A704FF0805244F007
:1018600001032B605369116910695A1E8BB202FB88
:1018700003F380B2B3FBF0F0FFF7CAF920B11128EF
:1018800056D144F009043C6002B0BDE8F0816349E0
:101890004FF0805304270F70186959691B6980B293
:1018A00001399BB206FB00F001FB03F1FFF7AEF933
:1018B0000028E9D0112835D0564C594A23781268AF
:1018C000009203EB83039B00E5182C46EA68297914
:1018D0006B69544E02EB4205024604F10C0056F8C7
:1018E0002540A047504B1F7002B0BDE8F041FFF704
:1018F000C1B94A4A4D4B127853F8223024F00804FB
:101900002C6002B0BDE8F0411847434A1768002F29
:101910009CD1424B02221A70FFF77AF90028B3D00B
:10192000112805D144F008042C6002B0BDE8F08114
:1019300033783B4A3B4D1268009203EB83039B00D4
:10194000F4182646E2686369217902EB42040246F4
:1019500055F8244006F10C00A047334B04221A70BE
:1019600002B0BDE8F041FFF785B92C4A4FF0805135
:10197000032010700A694869096992B200F1FF3CBE
:10198000B3FBF2FE89B202FB1E3E18463A460CFB40
:1019900001E1FFF73BF90028C2D175E79CF804107C
:1019A00004292CD01E4CDEF804002468DCF8143026
:1019B0001C4D009400EB4004B01855F824403A4602
:1019C0000C30A0473378717803EB83020133DBB22C
:1019D00006EB82020A2B4FF0010418BF3370124B42
:1019E000177101F1FF31D780576117811761D460FA
:1019F0004FF00002717008BF37701A70B0E70A4BE1
:101A000001221A70ACE700BF142A0020282A002007
:101A1000242A00202C290020FC290020182A00203C
:101A20001C2A0020002A0020192A0020AC6B02008A
:101A3000F0B52A4C2A4D20782B682A4E2A4F83B0C5
:101A400000EB80008000009323181846DA681979AB
:101A50005B6902EB42020C3056F822600022B0476C
:101A600023786178214E03EB8302013304EB820279
:101A7000DBB200200A2B10611071D0801081506100
:101A800001F1FF314FF0010E04BF207003461848EA
:101A9000C2F80CE0C9B24FF00002617018BF2370A9
:101AA00002703A60326009B903B0F0BD03EB830302
:101AB00004EB83042379E2882A60032B09D0042BEA
:101AC00007D0012BF0D1037003B0BDE8F040FFF761
:101AD000D1B803B0BDE8F040FFF78CB92C29002045
:101AE0001C2A0020002A0020202A0020F82900209B
:101AF000192A00202DE9F041644D2C7814F0FB0FD9
:101B000082B00DD002280ED0032809D1604A136894
:101B100019075FD5022C54D0032C4AD0012C48D091
:101B200002B0BDE8F081022C4BD0032C5ED0012C1A
:101B3000F6D1574A13681E073BD4564F564A3B7896
:101B4000166803EB83039A00BB18D9888E1BB6B2C4
:101B5000DE80002E74D1D868DFF854E11979D3F80B
:101B60001480DFF850C1DEF80030009300EB400E27
:101B7000B818434632460C305CF82EC0E0473B783C
:101B8000797803EB83020133DBB207EB82020A2B85
:101B900001F1FF3118BF3B704FF000031671D68082
:101BA00056611681D4601661797008BF3E702B7043
:101BB00002E023F00803136002B0BDE8F041FFF734
:101BC00059B8364A364B127853F8223002B0BDE885
:101BD000F0411847334A13680133B3F57A7F136035
:101BE00033D0022CE8D12D4A2F4BECE7284A13685A
:101BF0001807DED4274C2D4B267818684FEA860E3E
:101C00000EEB060104EB810101300A6918604FF008
:101C10008053CF881B690989013A3A440A449BB230
:101C2000B2FBF3F39842C7D32AD0764404EB860480
:101C30002379042B21D002B0BDE8F041FFF7F8BEB4
:101C400002B0BDE8F041FFF74FBC1248184A0378D4
:101C50001268009203EB83039B00C418154EE268E0
:101C60006369217902EB420220460C3056F822408B
:101C70000D22A04704232B709EE701232B709BE7C6
:101C80000D4B1B68002BD0D196E700BF192A00200E
:101C9000142A00202C290020F8290020182A0020CE
:101CA000C06B0200202A0020AC6B0200282A002012
:101CB0001C2A0020002A0020FC290020454B464811
:101CC000DFF824C100222DE9F04301214FF08055B7
:101CD0001A705A701A71DA801A615A611A811A766A
:101CE0005A835A629A629A8383F82C20DA859A631F
:101CF000DA631A8683F84020A3F84220DA641A6572
:101D0000A3F8442083F85420A3F856201A665A6694
:101D1000A3F8582083F86820D96019625963996440
:101D2000D965A3F86A20028068692D692B4CDFF819
:101D3000BC90DFF8BC802A4F2A4EDFF8B8E0196764
:101D4000ADB2023800FB05F004255A679A67A3F884
:101D50006C2083F87C20A3F87E20C3F88410C3F89D
:101D60008820C3F88C20A3F8802083F89020A3F863
:101D70009220C3F89810C3F89C20C3F8A020A3F8C1
:101D8000942083F8A420A3F8A620C3F8AC10C3F8CD
:101D9000B020C3F8B420A3F8A82083F8B820A3F893
:101DA000BA20C3F8C010C3F8C420C3F8C820A3F8F1
:101DB000BC20C9F80020C8F800002260228162819E
:101DC0003A60356010468CF80020CEF80020BDE85F
:101DD000F08300BF2C2900200C2A0020002A0020BC
:101DE000F8290020142A0020192A0020282A00207F
:101DF000102A0020202A0020294B1B685A0701D4F2
:101E00000820704760B159B103684BB1F0B54FF08D
:101E10008054828823699BB29A4203D90720F0BD7F
:101E20000E2070470F2AF9D9C388002BF6D0DFF8AF
:101E30007CE065692669DEF800706C1EB5B204FBB3
:101E400005F402FB0373A342E8D89307E6D1154DCE
:101E50002C88012C21D081E890000C2303FB04F393
:101E6000114A0168D150D1184FF080568288C3883A
:101E70004F600A814B813069316903FB02F389B2FB
:101E80005A1E013483B292FBF3F303FB01110F449A
:101E90002C80CEF800700020F0BD0420F0BD00BF03
:101EA000142A00200C2A0020002A0020102A0020DA
:101EB000124B1B685B0702D408231846704728B1F1
:101EC00022B103682BB10723184670470E2318462A
:101ED000704770B40A4C25684DB146686589208901
:101EE000646800FB016105FB0040814203D30723C6
:101EF000184670BC704713605160F9E7142A00203F
:101F0000002A0020F0B51B4C2468670783B002D478
:101F1000082003B0F0BD29B120B104682CB107201E
:101F200003B0F0BD0E2003B0F0BD134C2568002DAA
:101F3000F5D0268965896468476806FB0544A74291
:101F4000EDD2002AEBD09642E9D3D418A642E6DBC4
:101F50008E0701D01020DCE79D07FBD1BC07F9D12B
:101F60001C46009413460A4601460120FEF7F2FF84
:101F7000CFE700BF142A0020002A0020F0B51B4C38
:101F80002468670783B002D4082003B0F0BD29B1EC
:101F900020B104682CB1072003B0F0BD0E2003B0BF
:101FA000F0BD134C2568002DF5D02689658964683D
:101FB000476806FB0544A742EDD2002AEBD09642C3
:101FC000E9D3D418A642E6DB8E0701D01020DCE767
:101FD0009D07FBD1BC07F9D11C46009413460A4665
:101FE00001460420FEF7B6FFCFE700BF142A002009
:101FF000002A00202DE9F04F244C2468660783B0A6
:1020000004D40824204603B0BDE8F08F39B130B1C4
:102010000C684CB10724204603B0BDE8F08F0E24B5
:10202000204603B0BDE8F08F194E3568002DF1D081
:10203000B6F808E0B6F80AC075684F680EFB0C5594
:10204000AF42E7D2002AE5D09645E3D3D518AE4596
:10205000E0DB850701D01024D4E79D07FBD117F002
:10206000030BF8D18846D9199246814604F060FDE9
:10207000D8F80010CDF800A00C2202FB01F14B466D
:1020800075585A4640460221A847BBE7142A00204B
:10209000002A00201E4B1B685B0701D408207047F4
:1020A000A0B103680BB1072070471A4B1A68002AC9
:1020B000F9D070B55C681D895B89426805FB0343F4
:1020C0009A4282B004D3072002B070BD0E20704740
:1020D000960701D01020F7E7141BB4FBF5F605FBBB
:1020E0001644002CEFD1B1FBF5F405FB1414A4B297
:1020F000002CE8D10029E6D00A449342E3D3002221
:102100000B46009201460320FEF724FFDCE700BFE8
:10211000142A0020002A0020064B1B685B0701D40C
:102120000820704720B1044B5B78036000207047A3
:102130000E207047142A00202C2900204FF0A042C6
:10214000D2F80435D94301F4002103F40023C2F886
:102150000815C2F80C3570470D282DE9F0470446E4
:1021600007D00E2838D00F2838D0102838D0BDE836
:10217000F0870025012911D020D30229F7D1224B65
:1021800005EB45051D446E78002EF0D01F4B1B68F3
:10219000002BECD03046BDE8F0471847DFF86880E8
:1021A0006F007B1908EB030218F803605378CBB972
:1021B0002F444744164BBA785A55E5E7154B186833
:1021C000FDF752FF1049124A05EB45030B44565DDB
:1021D0009B789E42CBD1D7E70125CBE70225C9E703
:1021E0000325C7E70C4A0B4B1168DFF830901868DD
:1021F00001EB810149004A46FDF7BEFE0028D7D118
:1022000089F80040D4E700BF502A0020442A00206B
:102210002C2A0020342A00203C2A0020482A0020B2
:10222000CE4B1B68DB0700D4704770B5CC4B1C78D5
:10223000172C22D8DFE814F06A0074007400AB0099
:10224000D000F500180139013A0022003A002200BE
:1022500018003E013E013E013E013E0150005A0081
:102260009B006101180018004FF0A0434FF4F011DB
:102270000022C3F80C15C3F8082570BD4FF0A0422A
:10228000B84CD2F80435B848D94301F4802103F49E
:102290008023C2F80815C2F80C352168006801EBEC
:1022A00081010022BDE87040FDF766BE4FF0A042FC
:1022B000AC4CD2F80435AC48D94301F4802103F486
:1022C0008023C2F80815C2F80C3521680068002286
:1022D000BDE87040FDF750BE4FF0A0434FF4F01141
:1022E0000022C3F80815C3F80C2570BD4FF0A043B9
:1022F0004FF4E01000224FF40031C3F80805C3F892
:102300000C25C3F80C15C3F8082570BD4FF0A04389
:102310004FF4B0110022C3F80815C3F80C2570BDA6
:102320004FF0A0404FF4A0120025C0F80825C0F8D7
:102330000C55D0F8042582F4F01212F4003200F0AB
:102340002181022C4FF40032C0F808250CBF122165
:102350002821C0F80C55834A834812681C7002FB80
:1023600001F100680022BDE87040FDF705BE4FF0A6
:10237000A04300224FF4D0104FF48021C3F8080589
:10238000C3F80C25C3F80C15C3F8082570BD4FF031
:10239000A0404FF4A0120024C0F80825C0F80C4556
:1023A000D0F8042582F4F01212F4003200F0E2803A
:1023B0004FF40032C0F808250821C0F80C45694ADE
:1023C00069481268006803241C7002FB01F1BDE833
:1023D00070400022FDF7D0BD4FF0A0404FF4A01296
:1023E0000024C0F80825C0F80C45D0F8042582F474
:1023F000F01212F4003200F0A1804FF40032C0F865
:1024000008252821C0F80C45564A5748126800682C
:1024100004241C7002FB01F1BDE870400022FDF7AE
:10242000ABBD4FF0A0414FF4A0120020C1F8082529
:10243000C1F80C05D1F8042582F4F01212F4003230
:1024400000F084804FF40032C1F80825C1F80C0573
:102450004449454A0968106805241C704900002257
:10246000BDE87040FDF788BD4FF0A0414FF4A012C9
:102470000020C1F80825C1F80C05D1F8042582F424
:10248000F01212F4003252D04FF40032C1F8082595
:10249000C1F80C053449334A0868116806241C70D9
:1024A0000022BDE87040FDF767BD4FF0A0434FF438
:1024B000A0101FE72D4D2868FDF7D6FDD4F11104BB
:1024C00002462AD048BB012C0DD0C826284B2549EE
:1024D0002868096806FB04F4A3FB04435B0901FBBD
:1024E00003F1FDF749FD4FF0A0434FF40021002216
:1024F000C3F80C15C3F8082570BD4FF0A0430022A7
:102500004FF4C0104FF4C021C3F80805C3F80C25E0
:10251000C3F80C15C3F8082570BD4FF0A0434FF465
:1025200000210022C3F80815C3F80C2570BD4FF434
:102530000030C1F80C05C1F80825ABE74FF40031B5
:10254000C0F80C150421C0F808255DE74FF40030F1
:10255000C1F80C05C1F808257AE700BF302A002031
:10256000382A00203C2A00204C2A0020402A002043
:102570001F85EB514FF40031C0F80C150221C0F853
:1025800008251CE74FF40031022CC0F80C150CBFD5
:1025900002210421C0F80825DDE600BF03780D2BD9
:1025A00015D00E2B15D00F2B04D0102B08BF0323F2
:1025B00001D070470223084A03EB430313445878C1
:1025C0000028F6D0054B1B68002BF2D018470023DB
:1025D000F1E70123EFE700BF502A0020442A002042
:1025E000032803D900230B7000207047074A4FF0DF
:1025F000A04352F82000D3F81025012383409343D1
:1026000014BF012300230B7000207047D46B02001D
:10261000F8B5CB4B1A6812F0010201D11046F8BD93
:102620000446172800F2CB81DFE810F023013001C7
:10263000300171009700BD00E1005A003000180021
:102640003000180004015701570157015701570185
:102650007B010F0119014600640064004FF0A042A5
:10266000B84CD2F80435B848D94301F4802103F4BA
:102670008023C2F80815C2F80C352168006801EB08
:1026800081010022BDE8F840FDF776BC4FF0A04282
:10269000AC4CD2F80435AC48D94301F4802103F4A2
:1026A0008023C2F80815C2F80C35216800680022A2
:1026B000BDE8F840FDF760BCA4484FF0A0434FF4DC
:1026C000C01200214FF4C0251524C3F80825C3F813
:1026D0000C150A46C3F80C55C3F8081504709DE79D
:1026E0004FF0A04399484FF4A01200214FF4003559
:1026F0000724EAE74FF0A04394484FF4F01200217A
:10270000C3F80C25C3F808150A46047086E74FF095
:10271000A0424FF4A0130020C2F80835C2F80C05FF
:10272000D2F8043583F4F01313F4003300F0308151
:102730004FF40033C2F808350821C2F80C05814B6C
:1027400081481A68814B006803241C7002FB01F168
:10275000BDE8F8400022FDF70FBC4FF0A0424FF457
:10276000A0130020C2F80835C2F80C05D2F80435D1
:1027700083F4F01313F4003300F012814FF40033AC
:10278000C2F808352821C2F80C056E4B6E481A684D
:102790006E4B006804241C7002FB01F1BDE8F84098
:1027A0000022FDF7E9BB4FF0A0424FF4A013002137
:1027B000C2F80835C2F80C15D2F8043583F4F013CA
:1027C00013F4003300F0F4804FF40033C2F80835FE
:1027D000C2F80C155B4B5C4A19685C4B1068052409
:1027E0001C7049000022BDE8F840FDF7C5BB4FF062
:1027F000A0424FF4A0130021C2F80835C2F80C150E
:10280000D2F8043583F4F01313F4003300F0AE80F3
:102810004FF40033C2F80835C2F80C154B4B4A4947
:10282000484A0868116806241C700022BDE8F84078
:10283000FDF7A2BB4FF0A0434FF4F0120021C3F804
:102840000C250A46C3F80815E8E64FF0A0433F48B8
:102850004FF4E01200214FF40035132435E74FF018
:10286000A0433A484FF4D01200214FF4802514249D
:102870002BE74FF0A041354800234FF4B012C1F8C8
:102880000825C1F80C351A460370C7E64FF0A04280
:102890004FF4A0130020C2F80835C2F80C05D2F896
:1028A000043583F4F01313F4003366D0022C4FF494
:1028B0000033C2F808350CBF12212821C2F80C05DC
:1028C000204B224A1B682048147003FB01F100686A
:1028D0000022BDE8F840FDF74FBB1D4D2868FDF70D
:1028E000C3FBD4F11104024636D0A8BB012C0ED094
:1028F000144B184F19682868C82606FB04F3A7FB79
:1029000003435B0901FB03F1FDF736FB02464FF081
:10291000A0434FF400200021C3F80C05C3F80815AC
:102920007CE64FF0A04309484FF4F0120021122436
:10293000C3F80825C3F80C150A4604706EE600BFFC
:10294000302A00203C2A00204C2A0020382A00206F
:10295000402A00201F85EB514FF0A0434FF4002088
:102960000021C3F80805C3F80C1557E64FF40031F1
:10297000C2F80C15C2F8083550E74FF40031022CAC
:10298000C2F80C150CBF02210421C2F8083597E7E4
:102990004FF40031C2F80C150221C2F80835CEE61A
:1029A0004FF40031C2F80C150421C2F80835ECE6EA
:1029B0004FF40031C2F80C15C2F808350AE70022BE
:1029C0002CE600BFF8B5234D234E244B2860044667
:1029D00010F0020031601A601FD0214B21484FF0E7
:1029E0000D0E0E270F2610254A0883F800E004215B
:1029F000DF709E715D72FCF703FEF0B1E3070BD54B
:102A00004FF0A0434FF4F0120021C3F80825C3F89B
:102A10000C15C3F8182510B1F8BDE207F0D4124820
:102A2000124A0021FDF77AFA0028F5D11048114A20
:102A30000121BDE8F840FDF771BAFCF739FE002826
:102A4000DCD101460C4A0D48FDF768FAE107E2D5F2
:102A5000D6E700BF302A00203C2A0020442A00206C
:102A6000502A0020E46B02004C2A002021220200A0
:102A7000402A00203D2102009D250200342A00202A
:102A8000032801D907207047012A12D0012917D045
:102A900008D30229F6D10D4B00EB4000034400207F
:102AA0005A707047094B00EB4000034400209A70B5
:102AB0007047012901D00022E8E700F10D02D2B2EF
:102AC00000EB400301490020CA547047502A0020FF
:102AD00070B41D4E1D4DD6F800371D4C1D4910F029
:102AE000010F14BF4FF44032002223F4403313434C
:102AF000C6F80037D5F8003710F0020F23F4403243
:102B000014BF4FF4403300231343C5F80037D4F803
:102B1000003710F0040F14BF4FF44032002223F4AA
:102B200040331343C4F80037D1F8003710F0080FD2
:102B300023F4403214BF4FF4403300231343C1F851
:102B40000037002070BC704734000050380000503F
:102B50003C0000504000005008B50320FFF7B8FFCC
:102B600010B1062808BF002008BD00BF10B50388BB
:102B7000102B08D0112B05D1264B1868013818608E
:102B800038B110BD10BD234C206880B101302060E9
:102B900010BD02210122FFF773FF48B3072827D099
:102BA0001D4B1B68002BECD0BDE8104018470146B8
:102BB0000122FFF765FF48B1072807D0164B1B68B5
:102BC00003B1984720680130206010BD0120022128
:102BD0000722FFF755FF08B10728EFD10020022197
:102BE0000422FFF74DFF0028ECD00728E6D1E9E7E3
:102BF000012002210722FFF743FF08B10728CFD1A8
:102C0000002001460A22FFF73BFF0028B9D0072821
:102C1000C6D110BD602A00205C2A002010B5204BD0
:102C200082B00C461860A9B100200DF10601FFF733
:102C3000D7FC08B102B010BD01200DF10701FFF76C
:102C4000CFFC0028F6D19DF807301BBB9DF806305D
:102C50001BBB2370134B186810B1002002B010BDCD
:102C600002210122FFF70CFF08B10728E2D1012061
:102C700002210722FFF704FF08B10728DAD100205C
:102C800001460A22FFF7FCFE0028E6D0072808BF0D
:102C90000020CFE702232370DCE70B232370D9E762
:102CA0005C2A0020602A002076DF704778DF7047BA
:102CB0007ADF70477CDF704760DF70473CDF70472A
:102CC00048DF704700210A46FCF708BD044A054862
:102CD000137883F001031946137002F017BE00BF8A
:102CE000742A0020D42D002010B51449144C154826
:102CF000FDF72AFA236881B201331348236002F0FA
:102D00005DFD30F008020BD043F20402904207D080
:102D100043F20142904203D000210A46FCF7DEFC58
:102D200022680A4B0A49A3FB02035B0803EB430337
:102D3000D31A18BF01230B7010BD00BFC42D002093
:102D4000902A0020642A0020D42D0020ABAAAAAA31
:102D50006028002008B50D490D48FDF7F5F9C1B20E
:102D60000C4802F047F830F008020DD043F204029C
:102D7000904209D043F20142904205D000210A4618
:102D8000BDE80840FCF7AABC08BD00BF802A0020AF
:102D9000782A0020902E002010B50446FEF7AAFEE7
:102DA0002046BDE8104001F023BC00BF0AB9002056
:102DB000704708B5002110460A46FCF78FFC00203A
:102DC00008BD00BF10B5047804B110BD064B3B210F
:102DD0001888FFF769FF0028F7D021462246BDE892
:102DE0001040FCF77BBC00BF6228002010B50446F1
:102DF00003F05CF92146154802F038FB21461448DF
:102E000001F0FAFE204602F0FFF82046FFF7AEFE82
:102E10002388102B0AD0112B03D10E4B4FF6FF72D3
:102E20001A802046BDE8104001F086BB0720FFF75E
:102E3000EFFB18B100210A46FCF750FC054BA288B5
:102E40001A802046BDE8104001F076BBD42D00204A
:102E5000902E002062280020072808B51ED00A28DE
:102E600010D0042800D008BD144B13211888FFF798
:102E70001BFF30F00803F6D000210A46BDE80840E9
:102E8000FCF72CBC0020FFF7C3FB90B9FFF764FEF2
:102E900050B9FFF713FF0028EED108BD01F022FD65
:102EA00030F00803E8D108BD00210A46FCF716FC03
:102EB000EFE700210A46FCF711FCE7E76228002053
:102EC00008B5074B1B7803B908BD06490648FDF74E
:102ED0003BF9BDE8084081B2044802F0FDBC00BFE8
:102EE00060280020342E00206C2A0020D42D0020E1
:102EF00010B5044630B1032803D10220FFF788FB48
:102F000050B910BDFFF784FB60B9FFF725FE70B91B
:102F1000FFF7D4FE0028F4D000210A46BDE8104097
:102F2000FCF7DCBB21462246FCF7D8FBEDE700218D
:102F30000A46FCF7D3FBEBE70A4601460148FCF7DB
:102F4000CDBB00BFEFBEADDE2DE9F043A3B0002442
:102F50000094204609210522C84BFCF759FF18B1FF
:102F600021462246FCF7BAFBC548C64A0121FCF7B8
:102F7000D5FF18B100210A46FCF7B0FBC248C34A8E
:102F80000121FCF7CBFF18B100210A46FCF7A6FB94
:102F9000BF48C04A0121FCF7C1FF18B100210A4611
:102FA000FCF79CFBBC48BD4A0121FCF7B7FF18B1F8
:102FB00000210A46FCF792FB032040F6CD41B84AB7
:102FC000FFF700FD18B100210A46FCF787FB12A9A4
:102FD0000020FFF723FE18B100210A46FCF77EFB14
:102FE0009DF84840AF49082048220023A4F102047C
:102FF000B4FA84F4640903F017FD18B100210A46FD
:10300000FCF76CFB12A800210822FCF76DFA9DF872
:103010004830002543F0010312A88DF8483013957D
:10302000FFF74AFE18B129462A46FCF757FB9E488F
:1030300003F01EFD18B100210A46FCF74FFB9B4828
:1030400003F020FD18B100210A46FCF747FB8DF87C
:103050002440FEF733FE18B100210A46FCF73EFB80
:1030600009A802F01FFF18B100210A46FCF736FB41
:10307000002105220DF14D00FCF736FA9DF84D3088
:103080008B4A129243F00103032203F0FD0362F323
:1030900084036FF3451307251024012285488DF81A
:1030A0004D3012A98DF84E508DF84F408DF84C20C0
:1030B00002F09CFF18B100210A46FCF70FFB9DF8B7
:1030C00024307D48012262F3030362F307138DF875
:1030D000243003F053FD784982B209A8FFF7EAFDD6
:1030E00018B100210A46FCF7F9FA40F24130FFF727
:1030F000DDFD18B100210A46FCF7F0FA0021082294
:1031000012A8FCF7F1F900244FF4A0714FF40272F9
:103110004FF4C87312A8ADF84810ADF84A20ADF8C6
:103120004C40ADF84E30FFF7C3FD18B121462246A2
:10313000FCF7D4FA00210C46382212A8FCF7D4F987
:1031400001254FF002094FF006084FF0030CDFF89D
:1031500078E100944FF49677B4262146574B0C94AF
:1031600012A809AA09940A940B940F94109411942C
:103170008DF848908DF84A508DF830508DF84B807E
:10318000ADF858C0CDF85CE00D970E9600F0A8FFA2
:1031900018B121462246FCF7A1FA0323002114228C
:1031A00004A88DF80F30FCF79FF99DF81C509DF88E
:1031B0001F309DF81DE09DF81E709DF8206040486E
:1031C0000122002462F3030562F303030EF0F00E04
:1031D00007F0F00706F0F00662F3071562F3071335
:1031E00064F3071E64F3071764F307160DF10F0C61
:1031F00004A98DF81C508DF814208DF81F308DF81F
:103200001DE004948DF81E708DF82060CDF818C074
:1032100002F054F918B121462246FCF75FFA00216A
:10322000142209A8FCF760F99DF831509DF832404E
:103230009DF834209DF833602248012363F3030591
:1032400063F3030463F3030206F0F006002763F35D
:10325000071563F3071463F307126FF307164FF0B4
:10326000640E09A98DF831508DF828308DF8324060
:103270008DF834208DF83360099727E0942A0020D8
:10328000302E0020552D02002C2E0020E92C0200AB
:10329000282E0020C12E02008C2E0020CD2C0200F2
:1032A000592E0200442E0020ED2D0200992D02001F
:1032B000AD2D0200242E0020046C0200F12E02002D
:1032C000D42D0020902E0020642800200B978DF82C
:1032D00030E001F0BBFC18B139463A46FCF7FEF984
:1032E0004022002112A8FCF7FFF812A8504902F072
:1032F00017FB9DF884309DF88520012161F30303BD
:1033000002F0F00261F307136FF3071212A88DF8B1
:1033100084308DF8852001F037FF18B100210A466E
:10332000FCF7DCF9434B4448012551221946642639
:1033300083E844009D601D73FCF7F8FE3F4B404856
:1033400000244FF08C0E0A2219464FF49677C3F8EA
:1033500000E05F609A601C73FCF7E8FE394B3A4866
:103360001E6019464FF4FA729D605A601C73FCF798
:10337000DDFE21461C2212A8FCF7B6F8334B344A76
:103380009F89344B12944FF420364FF4702503215B
:1033900012A88DF85840ADF85670139614958DF814
:1033A00054101792189301F0F5FD18B121462246EA
:1033B000FCF794F9284B4FF4803118680022FCF791
:1033C000DBFD18B100210A46FCF788F9234B4FF4C6
:1033D000004118680022FCF7CFFD18B100210A4611
:1033E000FCF77CF91E4B42F2666118680022FCF77C
:1033F000C3FD18B100210A46FCF770F9194B4FF4D0
:10340000203118680022FCF7B7FD18B100210A46E8
:10341000FCF764F9032000F027FF18B9FFF750FC10
:103420000028FBD000210A46FCF758F9F6E700BF58
:10343000106C0200802A0020782A0020C42D002071
:10344000642A0020342E00206C2A0020D42D002075
:10345000C52D0200C52C0200302E00202C2E00208D
:10346000282E00208C2E002071DF704772DF7047FD
:1034700079DF70477DDF704765DF7047F0B50488FE
:10348000012C83B007D0148804F1020E9E4505D9A3
:103490000C2003B0F0BD072003B0F0BD0578012D6E
:1034A00004D1457802352544AB42F1D3023B0F46A7
:1034B0001C1B02A9A4B2054621F8024D07EB0E0021
:1034C0001646FFF7D7FF0028E3D12B78022B17D041
:1034D000012B11D023460821FE2BD9D83288581C45
:1034E000B8543288013292B23280B95432880132F3
:1034F000134433800020CCE76B789C42EBD2E9E7A1
:10350000BDF806309C42E5D30921E5E72DE9F04FEF
:1035100085B083460E9D00882C880194BDF83C90B0
:1035200000284ED000278A46164698463C4604E0BE
:10353000BBF800300134A34226DDDBF8043053F839
:10354000240003900DF10B0103A80022FFF794FF64
:1035500018BB9DF80B30B342EAD10FB32A889319F8
:103560004B4519DC424403A80DF10B010127FFF77D
:1035700083FF90B92B889DF80B2013442B80BBF858
:1035800000300134A342D8DCDFB12B88019A013B23
:103590009B1A9BB2FF2B12D90C2005B0BDE8F08F0F
:1035A0002B885A1C334402334B4592B2F4DC2A80F8
:1035B00008F802A02A88013292B22A80D2E708F8DD
:1035C0000230002005B0BDE8F08F00BF2DE9F047C4
:1035D000002317881380446B84B0BCB1022F247879
:1035E00003D80C2004B0BDE8F08702230B701388C9
:1035F00001339BB211251380CD54138801339BB244
:103600001380CC5414880134A4B21480036B002BB3
:103610006FD004F11205BD42E3D811250D55148871
:103620000134A4B2102514800D5514880134A4B2BD
:103630001480DD7B0D5514880134A4B214809D7B69
:103640000D5514880134A4B214805D7B0D55148887
:103650000134A4B214801D7B0D5514880134A4B22A
:103660001480DD7A0D5514880134A4B214809D7A3B
:103670000D5514880134A4B214805D7A0D55148858
:103680000134A4B214801D7A0D5514880134A4B2FB
:103690001480DD790D5514880134A4B214809D790D
:1036A0000D5514880134A4B214805D790D55148829
:1036B0000134A4B214801D790D5514880134A4B2CC
:1036C0001480DD780D5514880134A4B214809D78DF
:1036D0000D5514880134A4B214805D780D551488FA
:1036E0000134A4B214801B780B5514880134A4B2A1
:1036F000148090F82E30002B5FD190F82D300D46BD
:1037000006469046002B71D1B378002B40F0A28082
:10371000F378D3B1E21CBA423FF663AF02222A55D6
:10372000B8F80020013292B20121A8F80020A95473
:10373000B8F800200A4492B2A8F80020AB54B8F8B8
:1037400000400C44A4B2A8F800407268D2B1E31C57
:10375000BB4212783FF645AF02232B55B8F8003034
:1037600001339BB20A21A8F80030E954B8F80030C0
:1037700001339BB2A8F80030EA54B8F800300133A6
:10378000A8F800303389002B40F01181338A002BD8
:1037900040F08F81338B002B40F0A681336A002BE1
:1037A00000F0C580B8F80020911DB9423FF619AF6E
:1037B0001988052977D8072014E7E51CBD423FF694
:1037C00010AF02250D5514880134A4B21C251480B5
:1037D0000D5514880134A4B2013B1480032BEAD8A0
:1037E000DFE813F0610164015E0157010934BC4256
:1037F0003FF6F7AE02A8FFF737FE00287FF4F2AEDF
:10380000B8F800300822EA54B8F8003001339BB20F
:103810001B22A8F80030EA54B8F80000013080B24A
:10382000A8F80000062228440DF1090103F080F9F0
:10383000B8F800309DF8082006339BB2A8F8003095
:1038400002B10122EA54B8F800400134A4B2A8F849
:10385000004059E70434BC423FF6C3AE02A8FFF76C
:1038600007FE00287FF4BEAEB8F80030BDF808208F
:103870000321E954B8F8003001339BB21921A8F8AC
:103880000030E954B8F8003001339BB2E918A8F8C9
:103890000030100AEA544870B8F800400234A4B26C
:1038A000A8F8004034E76FF4486C01EB0C0080B2DC
:1038B0004FF27D34A0427FF67EAF588805287FF610
:1038C0007AAF6FF4486E86441FFA8EFEA6457FF6E7
:1038D00072AF4FF6FF74A14204D0A04202D08142E1
:1038E0003FF669AF0521A954B8F80020013292B221
:1038F0001221A8F80020A954B8F80020013292B291
:10390000A8F800201988A9542A44090A5170B8F867
:103910000020023292B2A8F800205B88AB542A44FF
:103920001B0A5370B8F800300233A8F80030746AEC
:10393000ACB3A288B8F80010131D0B44BB423FF68D
:1039400050AE931CFE2B3FF64CAE03326A54B8F8CF
:10395000003001339BB2FF22A8F80030EA54B8F8D7
:10396000003001339BB2A8F800302288EA542B447F
:10397000120A5A70B8F80000023080B2A8F80000AD
:10398000A28862B1A16800293FF415AF284403F072
:10399000CFF8A388B8F800201344A8F8003096F8B0
:1039A0002C30FBB93378002B6CD118461AE606F19F
:1039B00008040221CDF80080019720460A462B46D4
:1039C000FFF7A4FD00287FF40DAECDF8008001972D
:1039D0002046062110222B46FFF798FD00287FF491
:1039E00001AED3E6B46A002C3FF4E5AEA288023201
:1039F000FE2A3FF6F6ADB8F800304FF000094FF060
:103A0000160A07E0B46A04EB8104A2880232FE2A97
:103A10003FF6E7AD0132EA54B8F8003001339BB20B
:103A2000A8F8003005F803A0B8F8003001339BB2C5
:103A3000A8F800302288EA542B44120A5A70B8F8C9
:103A4000003002339BB2A8F80030A188E8180A467B
:103A500069B1A3681946002B3FF4ADAE03F068F8D6
:103A6000A388B8F8002013449BB2A8F8003009F1ED
:103A7000010996F82C205FFA89F94A4509EB4901BA
:103A8000C0D88FE73046294642463B46FFF7F6FC52
:103A9000A8E503230B5514880134A4B214802CE646
:103AA00002230B55F7E700230B55F4E701230B55D1
:103AB000F1E706F11004CDF80080019720460321BC
:103AC00002222B46FFF722FD00287FF48BADCDF8B4
:103AD000008001972046072110222B46FFF716FD94
:103AE00000287FF47FAD55E606F11804CDF800807C
:103AF00001972046142102222B46FFF707FD0028DC
:103B00007FF470ADCDF8008001972046152110227A
:103B10002B46FFF7FBFC00287FF464AD3EE600BFB8
:103B20002DE9F04395B01F230D46ADF80E30044645
:103B3000002800F09F80C3785B0740F19780436BBB
:103B40000022ADF80C20002B00F06F811B788DF85F
:103B500012300322022011218DF810001346ADF817
:103B60000C208DF8111005200426216B002965D04A
:103B700014AA13441644112703F8407C102214ABF6
:103B800006F8402C0344CA7B03F8402C14AB0344D2
:103B90008A7B03F83F2C14AB03444A7B03F83E2C8A
:103BA00014AB03440A7B03F83D2C14AB0344CA7ADC
:103BB00003F83C2C14AB03448A7A03F83B2C14AB77
:103BC00003444A7A03F83A2C14AB03440A7A03F804
:103BD000392C14AB0344CA7903F8382C14AB0344D2
:103BE0008A7903F8372C14AB03444A7903F8362C4E
:103BF00014AB03440A7903F8352C14AB0344CA7898
:103C000003F8342C14AB03448A7803F8332C00F106
:103C10000E0314AAADF80C3013444E7803F8406C30
:103C200000F10F0214AB1344ADF80C2000F11002A8
:103C3000097803F8401CADF80C2092B294F82E30AD
:103C4000002B40F0158294F82D30002B40F01F819E
:103C5000A378002B40F05281E378002B3AD0D11C9E
:103C60001F2922D90C2015B0BDE8F083072015B01C
:103C7000BDE8F083ADF80C00002D00F0DA80EB78A1
:103C8000002BF3D128460CA90DF10E02FFF79EFC84
:103C90000028ECD19DF80E300CAA20469DF80C109F
:103CA000FFF7E4FB15B0BDE8F083561C14AF901C81
:103CB00017FA86F6174414AA12FA80F04FF0020E93
:103CC0008AB2012107F840ECADF80C2006F8401C40
:103CD00000F8403C6368B3B1D11C1F291E78C1D8DD
:103CE00014AF501C931C17FA80F03A4417FA83F370
:103CF0004FF0020E0A2702F840ECADF80C1000F865
:103D0000407C03F8406C2389002B40F09780238A85
:103D1000002B40F01D81238B002B40F03781236A5C
:103D2000002B42D0BDF80C20911D1F299AD818886D
:103D300005289BD96FF4486C00EB0C06B6B24FF225
:103D40007D37BE4292D95E88052E8FD96FF4486EBA
:103D5000B6441FFA8EFEBE4588D94FF6FF77B842AB
:103D600003D0BE4201D0B04280D814A8561C10FA2D
:103D700086F600EB020E901C80B212274FF0050C65
:103D80000EF840CCADF80C0006F8407C1F88ADF86A
:103D90000C1004AE3118375404323F0A4F7092B2FF
:103DA0005B88B35432441B0A5370676A9FB3B88868
:103DB000BDF80C30811C9A1C56181F2E3FF652AFCE
:103DC000FE293FF64FAF14AE591C06EB030E16FA50
:103DD00081F192B20330FF260EF8400CADF80C20B2
:103DE00001F8406C398804AEB018B154090A41702A
:103DF0000433BA8898B2ADF80C0062B1B9680029F2
:103E00003FF434AF304402F093FEBDF80C30BA8872
:103E10001344ADF80C3094F82C30002B40F0D480D3
:103E200004AE237843BB344626E71A460220012617
:103E30009BE62B46ADF80E502A462EE703AA04F166
:103E4000080704AE4FF01F0802218DE80401384630
:103E500033460A46FFF75AFB00287FF408AF03AB4E
:103E60008DE808013846334606211022FFF74EFB45
:103E700000287FF4FCAE4AE72046314603AA1F2300
:103E8000FFF7FCFA00287FF4F2AE3446F4E609327C
:103E90001F2A3FF6E7AE0CA8FFF7E6FA00287FF4EA
:103EA000E6AEBDF80C3014AA03F1010E12FA8EFE34
:103EB0009F1C1344BFB24FF01B0C04AE4FF0080818
:103EC00003F8408C0DF131010622F0190EF840CCB8
:103ED000ADF80C7002F02CFEBDF80C209DF83010EF
:103EE000931D9BB2002940F0BD8014A8034403F841
:103EF000401C073292B2ADF80C20A9E604321F2A0A
:103F00003FF6B0AE0CA8FFF7B3FA00287FF4AFAECF
:103F1000BDF80C30BDF83070991C14AA581C89B239
:103F200004AE02EB030812FA80F0043306EB010E34
:103F30009AB24FF003094FF0190C3B0A08F8409C65
:103F4000ADF80C2000F840CC77548EF8013083E6B1
:103F500003AA04F1100704AE4FF01F088DE8040116
:103F60003846334603210222FFF7D0FA00287FF4B7
:103F70007EAE03AB8DE80801384633460721102298
:103F8000FFF7C4FA00287FF472AEC4E603AA04F176
:103F9000180704AE4FF01F088DE804013846334679
:103FA00014210222FFF7B2FA00287FF460AE03ABBF
:103FB0008DE808013846334615211022FFF7A6FA8E
:103FC00000287FF454AEAAE6A76A002F3FF44EAE55
:103FD000B9880231FE293FF645AE9E46BDF80C3049
:103FE0004FF0000804AE4FF0160914AA581C02EB5B
:103FF000030C12FA80F09A1C92B201310CF8401CAA
:10400000ADF80C2000F8409C3988B1543244090ABC
:1040100051700433B9889BB20A46F018ADF80C30E1
:1040200079B1BB681946002B3FF420AE02F080FD49
:10403000BDF80C30BA8894F82CE013449BB2ADF86C
:104040000C3008F101085FFA88F8F04508EB4807E2
:10405000BFF4E7AEA26A02EB8707B9880231FE29F6
:10406000C3D9FFE514A90B44012103F8401C40E724
:1040700014A9501C14AE11FA80F04FF0020E164431
:104080001C2702EB0E01013B06F840EC89B200F858
:10409000407C032B3FF6EAADDFE803F00218120C78
:1040A00014AB1944002301F8403C033292B2ADF83E
:1040B0000C20C8E514AB1944032301F8403CF4E795
:1040C00014AB1944022301F8403CEEE714AB194449
:1040D000012301F8403CE8E773DF704774DF704765
:1040E0002DE9F047DDF820C0002800F09C80002A70
:1040F00000F09980174605461C460E460FCFDFF8A4
:1041000054E1DFF854A1DFF85491CAF80040AEE85A
:104110000F000FCFAEE80F000024DFF844813B68AA
:104120004248434FCEF8003021460722C8F800C06D
:1041300089F80040FBF7D8F93E4B3F4ADFF824E10D
:104140001A60214638223846C3F808E0FBF7CCF95C
:1041500005F1100393E80300AA78EB7895F800E0E6
:10416000BA70FB7007F1100395F801C087F800E002
:1041700083E8030005F1080393E8030007F1080E44
:1041800005F118038EE8030093E803006A6A87F8D4
:1041900001C007F1180383E80300B2B1274B7B622B
:1041A000686A274A9A60B0F804E001881980A3F889
:1041B00004E0BEF1000F08D0013A23468168C95CD3
:1041C00002F8011F01337345F8D1AB6AB3B11D4B3F
:1041D000BB62A86A1C4A9A6084889C800188198006
:1041E00044B1013A00238168C95C02F8011F013320
:1041F000A342F8D195F82C3087F82C302B6A33B1D4
:10420000124B3B622A6A5188598012881A806B6867
:104210001BB10F4B7B606B687B6031460448BDE887
:10422000F047FFF77DBC0E20BDE8F087142F00207B
:10423000A82E0020642F0020402F0020E02E002018
:10424000F02E0020C02F0020742F0020BC2F002053
:10425000602F00201C2F0020EC2E0020B82F002003
:10426000102F0020982F002030B589B008AB002512
:1042700043F81C5D984C20701846FDF74DFF082848
:1042800007D020B9019B2BB1944B01221A7009B0C1
:1042900030BD0195924D934800210722FBF724F988
:1042A0006B78002B41D02378012B05D0AA78002A07
:1042B00000F0AD80022B0FD18B4A1268002A00F06B
:1042C00007818A4B01210820197090472378012B20
:1042D00000F0AF80022B32D02A7B12B9032B00F002
:1042E0009F802A7E12B9042B00F09E807E4A1268BD
:1042F0001AB1033B012B40F2BE807D4B00221A70A5
:104300000021182202A8FBF7EFF8217800234A1EAB
:104310008DF8083003938DF810300593032A00F2CE
:10432000CA80DFE802F0674A351FAB78002BCDD09A
:104330002378022BC0D0012BCED102232370AB787F
:10434000002B67D0674B5A7852B99A7842B9DA781D
:1043500032B91A7922B95A7912B99B79002B59D0FE
:104360000223C3E7634BE8691A79296AADF818009C
:10437000ADF81A10002A00F0A1802A7822B15E4A16
:104380001178002900F0BE805C4B04221A7022E0F4
:10439000584B68691A792969ADF81A00ADF81810F8
:1043A000002A00F090802A781AB1534A1178002927
:1043B00070D0524B03221A700DE04A494F48AA6848
:1043C0006B6803910224012104708DF80810ADF888
:1043D0001A20ADF8183002A8FFF77EFE00287FF4FF
:1043E00056AF414B1B6813B1444A107898470020E0
:1043F00009B030BD3B4B41490393012200230A70B1
:104400008DF80820ADF81A30ADF81830E3E7022B2C
:104410007FF462AF2A7B03232370002A7FF466AF08
:104420002B7E042222700BBB344A002313702370AE
:1044300063E76A78002A80D02A4A517800297FF4FD
:1044400055AF917800297FF451AFD17800297FF4DE
:104450004DAF117900297FF449AF517900297FF4DC
:1044600045AF9279002A3FF468AF3FE71E4B1A68C8
:10447000002A3FF442AF2B78002B3FF43EAF1E4B97
:104480001B78002B7FF439AF194B012107201970DD
:10449000904735E71A4A0593042502231046D57044
:1044A0008DF81030FFF73CFB00287FF4F0AE134B83
:1044B000217805221A70002993D08CE71A7B002AF4
:1044C0007FF45BAF60E71A7B002A7FF46CAF70E784
:1044D00006490A70FBE600BFB82F0020B92F002064
:1044E0001C2F0020142F0020EC2E0020932F0020E2
:1044F000942F0020642F00200F2F0020CC2F0020AD
:10450000A82E00200A4A0593042502231046D570E0
:104510008DF81030FFF704FB00287FF4B8AE054B90
:10452000217806221A7000293FF45BAF53E700BFE1
:10453000A82E0020CC2F002010B50388112B17D0F7
:10454000192B09D0102B00D010BD037D012BFBD1FE
:10455000214B82881A8010BD8379002BF4D11F4B28
:104560001B78013B032BEFD8DFE803F02F2920163F
:10457000194B82881B881A4900209A420870E3D19F
:104580000120FFF771FE0028DED0164B1B68002BC0
:10459000DAD0BDE810401847134B144A1B680020BE
:1045A0001070002BD0D0BDE8104018470F4B0322ED
:1045B00004201A70FFF758FE0028E6D1C4E7032054
:1045C000FFF752FE0028E0D1BEE70220FFF74CFEC5
:1045D0000028DAD1B8E700BF70280020B82F0020EB
:1045E0000F2F0020102F0020EC2E0020CC2F0020B9
:1045F0000238012818D830B5904C237889B00BB90F
:1046000009B030BD08A8002540F81C5D2570FDF7F5
:1046100083FD082809D0002840F08580019B2BB13C
:104620000123237009B030BD70470195844C854843
:1046300000210722FAF758FF6378002B32D0824D11
:104640002B78012B00F0EF80A278002A00F0268161
:10465000022B00F0E880227B0AB9032B4CD0227E8B
:1046600012B9042B00F01581784A126812B1033B8D
:10467000012B4BD9764B00221A700021182202A878
:10468000FAF732FF297800234A1E8DF80830039389
:104690008DF810300593032A00F2F780DFE802F06E
:1046A0009A8B7653A378684D002B44D12B78012B3D
:1046B00000F09D80022BCED1A378C3B1614B5A7814
:1046C000002A40F0F2809A78002A40F0EE80DA78F2
:1046D000002A40F0EA801A79002A40F0E6805A79F0
:1046E000002A40F0E2809B79002B40F0DE80227BA4
:1046F00003232B70002AB7D1237E04222A70002BBB
:1047000000F0C780514B1A68002AB3D02378002BE1
:10471000B0D0504B1B78002BACD14D4B0121072062
:1047200019709047A9E74C4B1B68002B3FF468AF0A
:10473000984709B030BD2B78022B74D0012B8AD159
:1047400002232B70B8E7454BE0691A79216AADF86E
:104750001800ADF81A100AB91A7B32B1227822B1CA
:104760003C4A1178002900F0A2803D4B04221A70C7
:1047700002A8FFF7B1FC0028D5D1344B1B68002BF1
:104780003FF43EAF364A1078984739E7334B6069BB
:104790001A792169ADF81A00ADF818100AB91A7B18
:1047A0002AB122781AB12B4A117800295CD02C4BFF
:1047B00003221A70DCE723492948A2686368039141
:1047C0000224012104708DF80810ADF81A20ADF80C
:1047D0001830CDE71B4B22490393012200230A70B6
:1047E0008DF80820ADF81A30ADF81830C0E76278BF
:1047F000002AA5D0134A517800297FF435AF91786B
:1048000000297FF431AFD17800297FF42DAF1179E1
:1048100000297FF429AF517900297FF425AF9279DF
:10482000002A8DD020E7094A1268002A3AD00D4BA1
:10483000012108201970904738E700BFB92F0020E8
:104840001C2F0020142F0020B82F0020EC2E002059
:10485000942F00200F2F0020102F0020642F002005
:10486000CC2F0020932F00201B4A05930424022301
:104870001046D4708DF81030FFF752F900287FF4FD
:1048800052AF164B297805221A7000293FF475AFF4
:104890006EE7124A002313702B70EBE6022B7FF4B5
:1048A000DAAE24E70E490A7001E70223DCE60A4A81
:1048B0000593042402231046D4708DF81030FFF7BE
:1048C0002FF900287FF42FAF044B297806221A70A5
:1048D00000293FF452AF4BE7A82E0020CC2F002038
:1048E000932F00202DE9F041964C237888B0002BBF
:1048F00033D0954D2B78002B2FD1944E3378002B4D
:104900002FD108A84FF0000840F81C8D01272F7008
:10491000FDF702FC08282FD040BB019B002B2DD0B7
:104920008B4B1F7008B0BDE8F0818A498A48A268A5
:10493000636803910224012104708DF80810ADF81A
:104940001A20ADF8183002A8FFF7C6FB70B9834BE8
:104950001B6813B1804A10789847002008B0BDE862
:10496000F081FFF7BBFB0028CBD0F7E77C4B1B683F
:10497000002BF2D09847F0E7CDF804800722754865
:104980000021FAF7B1FD63786E4A002B32D03378FC
:10499000012B05D09278002A00F0FF80022B0FD166
:1049A0006E4A1268002A00F0FC806E4B012108203C
:1049B000197090473378012B00F0AB80022B23D085
:1049C000227B002A66D1032B64D1237E042232701D
:1049D000002B64D0614B1A68002A3BD02378002B4F
:1049E00038D02B78002B35D15F4B0121072019706F
:1049F000904732E09378002BDCD03378022BCFD075
:104A0000012BDDD102233370A378C3B1514B5A7807
:104A1000002A40F0C9809A78002A40F0C580DA78F0
:104A2000002A40F0C1801A79002A40F0BD805A79EE
:104A3000002A40F0B9809B79002B40F0B580227BA2
:104A400003233370002AC0D0444A126812B1033BDA
:104A5000012BC3D9444B00221A700021182202A84E
:104A6000FAF742FD317800234A1E8DF8083003938F
:104A70008DF810300593032A00F28B8001A353F8C0
:104A800022F000BFA94A02002B490200EB4A0200B3
:104A9000C34A0200227E002AD6D1042BD4D12E4A4A
:104AA000002313703370D5E72A4B2B49039301225F
:104AB00000230A708DF80820ADF81A30ADF81830D0
:104AC00041E72A4BE0691A79216AADF81800ADF880
:104AD0001A100AB91A7B22B1227812B1297800295A
:104AE00064D01D4B04221A702DE7204B60691A799F
:104AF0002169ADF81A00ADF818100AB91A7B22B175
:104B0000227812B12978002932D0134B03221A706F
:104B100019E76278002A3FF475AF0E4A51780029F0
:104B200092D1917800298FD1D17800298CD1117937
:104B3000002989D15179002986D19279002A3FF440
:104B400061AF81E71C2F00200F2F0020B82F00201D
:104B5000B92F0020142F0020CC2F0020EC2E002095
:104B6000102F0020932F0020942F0020642F00206E
:104B7000194A0593042402231046D4708DF810308E
:104B8000FEF7CEFF00287FF4F1AE144B31780522FA
:104B90001A7000293FF4DBAED5E6022B7FF410AF8C
:104BA0004DE70F490A7006E702234DE70A4A0593CD
:104BB000042402231046D4708DF81030FEF7B0FFA5
:104BC00000287FF4D3AE054B317806221A700029F5
:104BD0003FF4BDAEB7E600BFA82E0020CC2F0020CA
:104BE000932F0020A0DF7047A2DF7047A3DF70473C
:104BF000A4DF7047A6DF70470B88112B06D0502B1F
:104C000008D0102B04BF8B88438270474FF6FF7388
:104C100043827047037D002BF7D010B54389CC88C1
:104C20009C4282B001D002B010BDCB8B022BFAD1D6
:104C30000268002AF7D091F8203002A903F001039E
:104C400083F0010301F8043D9047ECE7F0B50E4610
:104C500093B03368036012A94FF6FF7341F60F0259
:104C60004382012521F8382D3279027504460374F8
:104C7000021D28468DF81250FFF7B4FF08B113B09B
:104C8000F0BD237D002B40F09D8000211C220BA84D
:104C9000FAF72AFC9DF82C20237D42F00202002125
:104CA00063F304128DF82C200C910E910F91002BC0
:104CB00040F0848000250127294642F6192E032260
:104CC00003A810931195ADF814E08DF81670FAF75B
:104CD0000BFC9DF80E30B27B96F80FC096F80CE0F6
:104CE0008DF80C2067F3420303F0E70365F300033C
:104CF0002946142206A88DF80E308DF80DC08DF8C7
:104D000003E0FAF7F1FB03AB0DF1030E0793ADF8E7
:104D100022500BA905AD06AAA0880695A31DADF8E3
:104D20002070ADF82470CDF828E0FFF75DFF054650
:104D30000028A4D1B068002842D042F608132946C2
:104D400003A803228DF81670ADF81430FAF7CCFBE7
:104D50009DF80E309DF80D20307CB1688DF80C0068
:104D600067F3420365F3C30301AF65F3041365F30F
:104D7000030265F3000365F3071238468DF80E3021
:104D80008DF80D2000F0C6FD29460646142206A81F
:104D9000FAF7AAFBB3B2ADF82030ADF8243005AB7A
:104DA000069306A903ABE0880A9704F10E02079365
