:020000021000EC
:10800000008000200DEF010055EF010057EF010047
:108010000000000000000000000000000000000060
:1080200000000000000000000000000059EF010007
:1080300000000000000000005BEF01005DEF0100A8
:108040005FEF01005FEF01004D8E01005FEF010067
:108050005FEF010000000000B19201005FEF01003E
:108060005FEF01005FEF01005FEF01005FEF0100D4
:108070005FEF01005FEF01005FEF01005FEF0100C4
:108080005FEF0100898401005FEF01005FEF0100F5
:108090006D8501005FEF0100D9EE01005FEF010087
:1080A0005FEF01005FEF0100000000000000000032
:1080B00000000000000000000000000000000000C0
:1080C000164B002B00D1144B9D46402292029A1A67
:1080D000924600218B460F461348144A121A00F0AC
:1080E00067F80F4B002B00D098470E4B002B00D0A9
:1080F00098470020002104000D000D48002802D000
:108100000C4800E000BF00F02DF82000290003F02B
:10811000F1FB00F011F8C0460000080000800020CC
:10812000000000000000000074200020A8290020AA
:108130000000000000000000084B10B5041C002BDC
:1081400002D0002100E000BF054B1868836A002BB5
:1081500000D09847201C00F033F8C0460000000013
:10816000E8F201000E4B70B500251E1C0D4CE41A00
:10817000A410A54204D0AB00F35898470135F8E7A6
:1081800007F0A4F8084B00251E1C084CE41AA410A4
:10819000A54204D0AB00F35898470135F8E770BD0D
:1081A00074200020742000207420002074200020FF
:1081B000031C8218934202D019700133FAE770470A
:1081C000FEE7C046F8B54D465F4656464446F0B415
:1081D000224B1978994600292AD0214B0025984630
:1081E000204B214F01269A4603E00135EDB28D4226
:1081F0001ED243461B68321C9C46EC006444207827
:108200003B6882401342F0D093433B6001F046F854
:10821000331C22785146934009680B40011C914061
:108220008B420BD04B4601351978EDB28D42E0D32D
:108230003CBC90469946A246AB46F8BD616863785F
:108240008B460029EED0591E4C424C41211A4B421C
:108250004B41101CD9B2D847E4E7C0467C2000202F
:10826000782000208020002088200020F8B5124DC2
:10827000071C286800F04AFD002807D10124BC40F3
:108280000E4E3368234202D0A3433360F8BD381C3E
:1082900001F004F80A4A136800280BD02343136046
:1082A000336828681C43074B00221968346000F0CB
:1082B0009FFCEBE7A343F2E7842000208820002006
:1082C0008020002074200020F0B54F464646C0B400
:1082D000141C071C83B00E1C0720042A04D803B00A
:1082E0000CBC90469946F0BD00F0BCFE00282FD093
:1082F0001A4B1B4A1F601B4B751E1E701A4BEDB2AA
:108300001C6000231360194A1360002E1AD0184B0A
:1083100001AC994603230026984600E01D1C424606
:10832000EB00FB182270A670E6709A7818786270DD
:10833000211C4A4600F0A0FE0028D0D16B1EDBB203
:10834000002DEBD100210B4A0B4800F01DFCC6E7C5
:1083500000F04EFE0028CBD0C1E7C04678200020B8
:10836000802000207C200020742000208820002015
:108370006D820100C58101008420002070B5094D87
:108380002B78002B0BD00024074E3268E300985C5A
:10839000012100F02FFF2B780134A342F5D80020F3
:1083A00070BDC0467C20002078200020BFF34F8F96
:1083B000024A034BDA60BFF34F8FFEE70400FA0571
:1083C00000ED00E0031C10B59C888068DA68121A82
:1083D0000420944200D210BDDA68002014401A68CC
:1083E0001155DA680132DA60F5E7C04610B58468E5
:1083F000C268031C0520944209D098689A880240FC
:108400001868825C00200A709A6801329A6010BD78
:1084100080218023184A8902D1508022D221174B13
:10842000520289005A5040395A5001222F205A6076
:108430000138C046C046C046C046C046C046C046D9
:10844000C046C046C046C046C046F1D19A6000232F
:108450000B4A2F2013600138C046C046C046C046B4
:10846000C046C046C046C046C046C046C046C046DC
:10847000F1D1044A1370704700E100E000100140A0
:108480008C200020B4200020A021F0B50022474617
:108490002C4B490080B45A5004315A5004315A5080
:1084A00004315A504C395A5004315A50264A1768F0
:1084B0007A1C38D0254A00259B58254A254E146839
:1084C0001C1B254B2402240A984601E07B1C1BD070
:1084D0003268FB009446DB199B0063445A68A24251
:1084E00012D8A41AAD181F6A9A69D96943461B6845
:1084F000002B1BD0101C98470028E7D00021002239
:10850000FFF754FF7B1CE3D1144B15491A780B7805
:108510009A420ED0134A9B009D5080218023124A1C
:1085200049035B00D15004BC9046F0BD081C904745
:10853000CCE70132D3B2022B01D00B70EAE7002363
:108540000B70E7E700100140A420002004050000A4
:108550008C2000209420002090200020A0200020CB
:10856000A1200020AC20002000E100E0F0B55F4633
:1085700056464D464446F0B4CA4BCB4A1B68CB49DD
:108580008DB0079309781378994200D156E20133F0
:10859000DBB2022B00D11CE21370C54A9B009B5832
:1085A000079A9C46624406931302BE4A1B0A136054
:1085B00001230893BF4B00251B681E1C0B93BE4B69
:1085C0001B78191C0A1C0393BC4B013A1B68D2B2DE
:1085D0000593BB4B02911868B24B02921B680A9339
:1085E000B84B1B780993331CFF2A3DD00599D20064
:1085F000894691444A46494612784978B4460190E2
:108600004E468A4228D077685400A418B8460132F2
:10861000B778D2B2BF1A781E8741E4007F42444443
:108620003A402778022F00D1DBE0032F00D0D5E0BD
:108630006046013000D1D1E063460198D900CB18E3
:108640009B00C3181D751B6A591CF7D11F1C019094
:108650007178BC468A42D6D1029A0198013AD2B2C8
:1086600066460292FF2AC1D1924A0A9913608D4A46
:108670002424116069460919924A097805961170F7
:10868000089A002A00D0A6E10B9B059F9B1B5A1E4F
:108690009341DBB2069301235B429C46874B1B68E8
:1086A0000493874B1E687F4B1B689B46814B1B685E
:1086B0000193844B1B78029300239946039B013B53
:1086C000DBB20393FF2B00D100E1049ADB0092465A
:1086D0009A446346013341D06346DC006444A400FD
:1086E0003419236AE0469C46A268E1685B467648F6
:1086F000D31A1B021B0A834267D85B1863604B4680
:10870000A360E3600123237501235B4223627B1C8A
:1087100000D1BDE0FB00DB199B00F31860685968CD
:108720003D1C884209D8A5E0D3009B189B00F31894
:108730005968814200D3A8E0151C1A6A401A531CDC
:10874000F2D1EB005D19434622623A1CAD00751967
:1087500060602B62171C63460133BDD153465246FD
:108760001B7852789A42A9D05246526858009046D7
:108770005246C0180133DBB213709278C0004044F7
:108780009A4200D189E043683A1C98460378012B4D
:10879000E0D14346DC004444A4003419237D002B7F
:1087A000D8D18268A260C168E1600569256140692D
:1087B000E0610298002899D0A36000225B464248FD
:1087C000D31A1B021B0A834297D95B469A1A1202DC
:1087D000120A8A4256D2891A616090E76746BC46FF
:1087E00038E76468E000071980460198BF008146B9
:1087F000BA46CA445046007D67468146002800D1EB
:1088000027E76146013114D0644500D1CFE00492DE
:1088100001989B4602E09C4210D01F1CF900C91928
:10882000890041180B6A5A1CF5D15B466746049AC9
:10883000019051460D757178BC460BE7049A019082
:108840005B46BC4200D19DE0444480466746A4009C
:1088500044446068246A84460C62611CE9D0019833
:10886000E100804609198900414448681F1C6044A2
:108870004860DEE7091A5960424643462762019381
:10888000171C68E74B46636039E7091A596058E7D7
:10889000434642460193171C5DE753464A461A7009
:1088A00071E7C0468C200020A0200020A1200020DD
:1088B000AC200020A4200020982000209C20002034
:1088C00094200020A8200020FEFF7F00644B019A26
:1088D0001A60059B9F4200D16DE07B1C00D1BBE07C
:1088E000604BFA00D7191B68BF00DB195C685E4853
:1088F0005E4B5F4DC1585F4B2E781B68CA1A12023F
:10890000120A03329046002E1FD18026D12776020C
:10891000BF00C651403FC651C0228027564EBF02FD
:108920005200B7503760012606602F200138C0463C
:10893000C046C046C046C046C046C046C046C04607
:10894000C046C046C046F1D12E704246A24200D277
:10895000221CA820D2181202130A434AC000135046
:1089600042485B1A12581B02521A1202120A0332B0
:108970001B0A9A4223D9802180233F4A89025B0047
:10898000D1501CE06346DB00634484460C1C9B0012
:1089900063441B6A1F1C581C00D05AE70127324849
:1089A00087604846099000201F1C0A9051E75446F2
:1089B00053465146EDE7069B002B00D08DE7002380
:1089C0002E4A13700DB03CBC90469946A246AB4669
:1089D000F0BD0023E0E5234A00241768012252423B
:1089E0009446002260469046721C1FD0F2009219F5
:1089F0009200BA185168069DA94223D86B1A0693B3
:108A00004346536043466418116913758C46136AD4
:108A1000002908D00799106261180902090A9160BB
:108A20006146301CD1601E1C721CDFD10C4A84468A
:108A30001360012305960693371C2FE60023069347
:108A40000893B7E584460648491B03600123059651
:108A500051600693371C21E6FFF7DAFCAFE7C0460A
:108A6000A4200020942000200010014004050000F4
:108A7000B42000208C20002000E100E0A82000208D
:108A8000F8B51E1C051C0F1C141C0720B30700D0D2
:108A9000F8BD002EFCD0FFF7BBFC2E4B069A1A60E7
:108AA0002D4B1F702D4B1E60002F51D0331C002208
:108AB000F900C819800030181A701A7524338342DF
:108AC000FAD1C919890073180321181C244A1830D7
:108AD000117061000919234AC900586040181360D9
:108AE0004118002259610121D86080209C709C723D
:108AF0009C74C5241A705A701A725A721A745A7475
:108B0000194B49421960194B40031A70184BA400C5
:108B10001A70184B8132FF3298501A590131FF31C7
:108B20008A433F390A431A51A1221860C4201249CE
:108B3000D2008D5080001C58104A2240C0242402CC
:108B400022431A500E4B0020CA580E4B1A609FE762
:108B50000021B6E790200020A220002094200020D1
:108B6000982000209C200020A4200020A02000208D
:108B7000A120002000E100E000100140FF00FFFF05
:108B8000040500008C200020F0B5174B94461E68A9
:108B9000002E1DD0002A19D0002817D0134B1F78A3
:108BA000002F11D03378002B14D0341C0023243430
:108BB00007E0261C2434251C243D2D781A1C002D8A
:108BC00009D00133BB42F4DB0420F0BD0720FCE7F1
:108BD0000820FAE700220123337063467170B36105
:108BE00002600020F1E7C04694200020A22000206F
:108BF000F0B5474680B43D4B1C68002C47D03C4B39
:108C00001D780723854203D8181C04BC9046F0BD8C
:108C10000429F9D9C3001B189B00E4182578082300
:108C2000012DF1D163780024A046012B31D0314BC6
:108C300010245B68DB05DB0D2FD12F4B1D682D1930
:108C40006B78AC785E1C341B671EBC4164422640C6
:108C50002C78B4421FD05C00E3186C68DB00E41889
:108C60000423002CD0D0033B23706060234B2448A6
:108C7000C358E160A3604346802123618023626181
:108C8000204A5B0049036E70D1500023BCE70823E3
:108C9000BAE78846CBE70423B6E7103BDDB26CB2F7
:108CA000002C13DBA408174DC034A400645903251D
:108CB0002B40DB00DC4023069B0FDBB20024012BA2
:108CC000BBD00834032BB8D00834B6E70F230E4CC2
:108CD0002B40A446083B9B089B0063445C6803232D
:108CE0002B40DB00DC40E3B29B09E6E79420002048
:108CF000A220002000ED00E09C20002004050000E0
:108D00000010014000E100E018ED00E030B5334B09
:108D10001A68002A34D0324B19780723814201D8CF
:108D2000181C30BDC3001B189B009A5C0823012A45
:108D3000F6D12C4B0F325B68DB05DB0D24D12A4BBF
:108D4000196889184B788A785C1CA21A551EAA41AA
:108D5000524214400A78A24214D05A00D3184A68EA
:108D6000DB00D2180423002ADAD0023B13705060D3
:108D70004C7080211D4AFE334903D1500023CFE7B8
:108D80000823CDE70423CBE7103BD9B24AB2002A2F
:108D900013DB92081549C0329200525803210B4050
:108DA000DB00DA4013069B0FDBB20022012BC6D09A
:108DB0000832032BC3D00832C1E70F230C4A0B4003
:108DC0009446083B9B089B0063445A6803230B406E
:108DD000DB00DA40D3B29B09E6E7C04694200020CE
:108DE000A220002000ED00E09C20002000E100E037
:108DF00018ED00E00B7B002B04D101220B680271FF
:108E0000036070474B680022F9E7C04610B502794D
:108E1000031C002A08D048681A688968841A8C42A2
:108E20000CD98818186008E004688A680868211A54
:108E3000914207D8012218601A7110BD00221860F3
:108E40001A71FAE7A01A1860F7E7C046842210B535
:108E5000414B5200995884B000292DD18E223E4BAF
:108E600052009958002914D192223B4B5200995834
:108E700000290CD0002199509021C9005A5802A80D
:108E80005A5002230370354B42601B68984704B068
:108E900010BD0021324C99502278D2B2002AE3D082
:108EA000022A21D9032ADFD1023A2170DA605A60FE
:108EB000A022D2009950D7E700219950A322D200D6
:108EC0009958284CC9B2201CFFF77CFA00282AD1F7
:108ED000A268E3689B1A012BC0D1204A02AB18702C
:108EE0001268181C9047B9E71F488168C268914210
:108EF0002DD02278022A01D001229A606B46D91D1A
:108F0000FFF774FA002817D1C2218022124B890082
:108F10005A506946C8791549585002212170C1211B
:108F200089005A50A0E7012202AB1A700B4A039045
:108F30001268181C904791E70123074AD3602370F9
:108F4000032302A80370054B1B6898478CE7012296
:108F5000DA602270F4E7C04600200040B82000200C
:108F6000CC200020D0200020BC2000201C050000C8
:108F7000F0B5002820DBFF271B4B03229C463B1C3F
:108F80008408C026C0B20240D2009340A4006444CA
:108F9000B600A5599D438B013B409340191C2943C2
:108FA000A1511F2318401E3B8340C022181C0E4BAA
:108FB000520098501860F0BDFF260C4A03249446D6
:108FC000321C0F23C0B20440E400A2400340083B1F
:108FD0009B089B006344DD6995438A013240A240AF
:108FE000111C2943D961DCE700E100E000ED00E05D
:108FF00038B54E25194C0820635D002B00D038BDD4
:109000004822FF21013BA3540132A1540132A35451
:109010000132A3540132A354A3620132E3622363F9
:109020006363A363E363236463640238FE39A35478
:1090300023606360A360E36023616361A361E36114
:1090400023626362FFF794FF8021C123044A9B00DF
:109050000906D150012300206355D0E7E02000200D
:10906000006000404E23034AD05C431E9841C0B2CA
:109070007047C046E0200020F0B5474680B45A4C07
:109080009046231828331E7808257F2E03D8281CE5
:1090900004BC9046F0BDCD78AC46002D43D022688C
:1090A000013200D194E004270026731C9D00625910
:1090B000013240D0B31C9F4233D99D006259013226
:1090C00039D0F31C9F422CD99D006259013232D015
:1090D000331DBB4225D29D00625901322BD0731D36
:1090E0009F421ED99D006259013224D0B31D9F4278
:1090F00017D99D00625901321DD0F31D9F4210D92E
:109100009D006259013216D001339F4209D99D005A
:10911000625901320FD00936B74202D9636A01336E
:1091200007D00425B3E72269013256D00A27042666
:10913000BBE7092324254246625162462718DEB266
:1091400028373E70002A02D1E318443318708B7818
:10915000002B15D1031CA0254A78C133FF339200A0
:109160009B00ED055A51CB78002B15D176B2A4198E
:1091700044340B7822789B0113432370002586E743
:10918000A022D2059446E025022783006344ED0027
:109190005A59BA435A51E6E7A22476B2134BB600A5
:1091A000F318E4000A781D591149000229401951A9
:1091B000F82149010840061CC0211004021C301C83
:1091C00089021D590A4010432843185100255EE7C3
:1091D00000261E7043462360B9E704251D704346F0
:1091E0002E1C23612B1CAFE7E02000200060004014
:1091F000FFE0FCFFF0B5264D2C182834227853B23E
:10920000032B18DDEB1844331B789B09032B32D05A
:10921000012B39D0C025AD02A023DB059C46E023FD
:1092200080006044DB00C4581A492140C150C25834
:109230002A43C250F0BD032AFCD81748A22784460F
:1092400001269A006244FF00D0593043D0511A1CC5
:10925000604600274032920092B217500029E9D0B0
:109260000022A25692005259002AE3D0C1229E4009
:1092700092008650DEE7A223A022DB00D205D2585E
:10928000012383401A42C5D18025AD02C4E7C04600
:10929000E0200020FFFFFCFF00600040A223A0228E
:1092A000DB00D205D358C340181C01231840704777
:1092B000F0B544465F4656464D46F0B4844A83B006
:1092C00013680024012B65D0824B1A68012A6DD0E7
:1092D000814B1A68012A00D178E0804B1A68012A74
:1092E00000D183E07E4B00261A68012A00D18EE06F
:1092F00023070BD0E30700D593E0A30700D5BBE01D
:10930000630700D59DE0230700D5A9E0002C06DB0C
:1093100003B03CBC90469946A246AB46F0BDC02384
:109320009846C0239B0200246E4D994605E0032B0E
:1093300000D1B0E00134062CEAD0231C4833E95CAC
:109340004BB20133F6D0C9B24346081C98432B18E0
:1093500028331B785BB29B00EA58002AEAD0A0278A
:10936000FF05BC468B09019383009C44E0276346BC
:10937000FF00DB594F463B40012787401B0C3E4214
:10938000D5D0022BD6D1019B032B00D18BE00199C4
:109390009047CFE7C1215448890041580B4293D0F0
:1093A0004C4B14601A680134012A91D1C1224E49F4
:1093B0009200895802220A4200D189E700211960EF
:1093C000454B14431A68012A00D086E7C12246495A
:1093D0009200895804220A4200D17EE700211960D8
:1093E0003E4B14431A68012A00D07BE7C1223E4954
:1093F0009200895808220A4200D173E700211960BF
:10940000374B14431A680026012A00D070E71E600B
:1094100080231B061C43A022A223D205DB00D658C2
:1094200066E7A223304ADB00D058D1582D4DC00446
:1094300089032B68C00E890F9847A30700D45FE704
:109440001AE0A323284ADB00D058D158254DC00488
:109450008903AB68C00E890F9847230700D455E7EE
:10946000214A224B1F4DD058D158C0048903C00E49
:10947000890FEB68984749E71D4B1B4A194DD05897
:10948000D158C00489036B68C00E890F98476307E1
:1094900000D438E7D5E7019B032B00D077E7802382
:1094A0009B029A4602E0C0239B029A46E021634653
:1094B000C9005B589B465F460E4B3B4067467B505E
:1094C0007B5857461F433B1C67467B505FE7C046AF
:1094D0000061004004610040086100400C610040F0
:1094E0007C610040E0200020006000401C0500007E
:1094F00014050000FFFFFCFF29DF704728DF7047DD
:1095000030B583B0002806D0112806D108230F4AB1
:1095100011680B43136003B030BD021C0C48017886
:109520008B005B189B00C518281CE9686B694C0010
:1095300064182979074DA4002D680C300095064D5C
:109540006459A0470422054B1A70E4E71422002056
:109550003021002020220020042200201922002097
:10956000F0B55F464D4644465646F0B45E4F85B072
:109570003C785E4D012C00D188E0002C00D16DE0DC
:10958000022C16D0032C0DD1594B1868FFF7B6FFEB
:10959000021E07D0112800D080E00823554A116828
:1095A0000B43136005B03CBC90469946A246AB46BF
:1095B000F0BD504B99461B6803932B789E00F3181F
:1095C0009B00EE183369984680235B051969404675
:1095D0000904090C9B4605F0C3FC454B8246186004
:1095E0005B4619694346581EF3880904C018090CE4
:1095F00005F0B6FC82454CD00323039C9C434B46AC
:109600001C603D4B1B68002B02D10233234262D009
:1096100000223A4B1A703A4B5869431C54D08023AD
:109620005B0519690904090C05F09AFC031C8022EA
:109630005205106911690004013B000C09045843EC
:10964000090C05F08DFCFFF759FF021EAAD0112866
:1096500024D108231C434B461C60A3E7294B1C6004
:10966000294B1C606B78002B9CD02B789A00D31868
:109670009B00ED18EA88254B1A602B79032B27D025
:10968000042B25D0012B00D08CE73B7000F000FCB0
:1096900088E70123039A9A431443B0E72B78980094
:1096A000C01880002E18301C184DF3682D685C001F
:1096B000E418317973690095154DA4000C30645994
:1096C000A04704233B706DE780235B055B69AEE731
:1096D00000F020F866E7094A50461370FFF70EFFC6
:1096E000FFF70EFF5EE7C046192200203021002060
:1096F0002C220020142200202822002018220020E2
:109700000010001024220020FC2100202022002034
:1097100004220020F0B55F4656464D464446F0B45C
:109720005B4B5C481A78802791008A1892009B183E
:10973000DD681E696A0052199200821814895089E6
:109740005268604380469044DA881B89141C99460D
:10975000514B92469B4600235A467F05396983B098
:1097600009044C441360090C301CA41905F07EFC5C
:10977000002924D13B699BB29A4537D044456CD02F
:10978000022D33D0301C3969484489B205F06EFC93
:10979000424B890819603969201C0904090C05F03D
:1097A00065FC002932D102223D4B1A70FFF7D8FE2A
:1097B00003B03CBC90469946A246AB46F0BD022D94
:1097C00014D0301C396948440904090C05F04EFCDA
:1097D000324B8908196039694445E4D00904090C01
:1097E000201C05F043FC0029DDD00FE080235B0541
:1097F0001969301C0904090C05F0B2FB0322294B3E
:109800001860274B1A70FFF7ABFED1E780256D0576
:1098100029692B696A4699464346D380D08889B224
:1098200005F09EFB6A464B46A6B2D380071CD18842
:10983000301C05F095FBBFB280B287421DD02C6969
:109840002969301C89B205F011FC5B462404240C04
:1098500089B2641AA4081C60A5E74B46002BC5D04A
:10986000022DC3D0301C3969484489B205F0FEFB93
:109870000A4B890819603B6995E7434624041B0499
:109880001A0C240C131B5A469B0813608BE7C04626
:109890003021002004220020002200202822002065
:1098A000192200202C220020F8B546464F46C0B4AD
:1098B0001D4D08AC24886E78A44604240A2E2DD0B1
:1098C0002C78A046A419092C00DD0A3C14277C43FF
:1098D0002C196261221C20710C32B94681C981C2E7
:1098E000E380634623810024104B01361A786E70A2
:1098F000A24213D142464F465743ED190C4AE9881C
:1099000011602A79032A07D0042A05D0012A05D13B
:109910001A70FFF725FE01E0FFF7FCFE201C0CBCCF
:1099200090469946F8BDC0463021002019220020FB
:1099300020220020082170B50C1C244A82B0136834
:109940001C4009D08B431360214B224A1B789B009B
:109950009B58984702B070BD1F4D2B789800C318D4
:109960009B00EE18317904292AD0F26873695000FF
:109970008218301C194E920036680C300096184E32
:1099800096590022B04701202A7893009B189B002B
:10999000EB181C71DC80D8601C615C611C816B78E9
:1099A0000132013BD2B26B700A2A06D02A70002223
:1099B0000C4B1A70FFF7D4FDCCE700232B70F6E7B1
:1099C0000122084B1A70FFF7CBFDC3E714220020D9
:1099D0001822002000F30100302100202022002066
:1099E000042200201922002030B5244B83B058698E
:1099F000431C3ED080235B0519690904090C05F05E
:109A0000AFFA041C80235B051869196900041A6900
:109A1000000C631E58431A4B09041B68090C92B2D0
:109A200092085943FFF768FD021E06D0112806D19F
:109A30000823144A11680B43136003B030BD124968
:109A40000B789800C01880000D18281CEB68297945
:109A50005C00E4186B690D4DA4002D680C30009576
:109A60000B4D6459A04704220A4B1A70FFF778FD8A
:109A7000E3E780235B055C69C4E7C0460010001083
:109A80002C2200201422002030210020202200203F
:109A90000422002019220020802230B552051469CA
:109AA00021492404230C0C6883B0013C5C431F4B08
:109AB0005869431C35D011690904090C05F050FAA6
:109AC00080235B0519691A4B09040138090C4143CD
:109AD0001A68201CFFF710FD021E06D0112806D1BF
:109AE0000823144A11680B43136003B030BD1249B8
:109AF0000B789800C01880000D18281CEB68297995
:109B00005C00E4186B690D4DA4002D680C300095C5
:109B10000B4D6459A04704220A4B1A70FFF720FD31
:109B2000E3E75069CCE7C0462C220020001000106B
:109B30002822002014220020302100202022002092
:109B40000422002019220020082330B51E4D83B0C6
:109B50002C68234214D1A30702D501231C432C6097
:109B600002221A4B1A701A4B1868FFF7C7FC021E24
:109B700004D011280DD108231C432C6003B030BD44
:109B80009C43124B134A1B782C609B009B589847B0
:109B9000F4E711490B789800C01880000D18281CB4
:109BA000EB6829795C00E4186B690C4DA4002D6802
:109BB0000C3000950A4D6459A0470422094B1A70D5
:109BC000FFF7CEFCDAE7C04614220020182200205E
:109BD0002C22002000F30100302100202022002050
:109BE0000422002019220020F0B58027274C7F0591
:109BF000237839699A00D3189B00E3181A89DD8805
:109C00001B69AD18ED18090483B0090C281C05F078
:109C10002DFA1F4B0E1C5869431C35D039690904B5
:109C2000090C05F09DF980235B05196901380904C9
:109C3000090C4143174B89191A68281CFFF75CFC73
:109C4000021E06D0112806D10823134A11680B43BF
:109C5000136003B0F0BD23789800C0188000261868
:109C6000301C0E4CF36824685D003179ED1873697F
:109C700000940B4CAD000C302C59A0470422094B2A
:109C80001A70FFF76DFCE4E77869CCE7302100201B
:109C900000100010002200201422002020220020AA
:109CA000042200201922002030B5154B83B018681B
:109CB000FFF724FC021E06D0112806D10823114A02
:109CC00011680B43136003B030BD0F490B78980047
:109CD000C01880000D18281CEB6829795C00E41876
:109CE0006B690A4DA4002D680C300095084D64592D
:109CF000A0470422074B1A70FFF732FCE3E7C04687
:109D00002C220020142200203021002020220020BC
:109D10000422002019220020082370B52A4D82B0A9
:109D20002C68234209D09C43284B294A1B782C607D
:109D30009B009B58984702B070BD0122234B1A70BC
:109D4000244B5869431C3BD080235B0519690904E7
:109D5000090C05F005F9061C80235B0518691969D3
:109D600000041A69000C731E58431B4B09041B683E
:109D7000090C92B292085943FFF7BEFB021EDAD0DB
:109D8000112803D108231C432C60D4E713490B7816
:109D90009800C01880000D18281CEB6829795C0019
:109DA000E4186B690E4DA4002D680C3000950D4D24
:109DB0006459A04704220C4B1A70FFF7D1FBBAE795
:109DC00080235B055E69C7E714220020182200206B
:109DD00000F30100001000102C2200203021002090
:109DE00020220020042200201922002030B5224B1E
:109DF00083B05869431C3AD080235B051969090474
:109E0000090C05F0ADF8031C802252051069116998
:109E10000004013B000C09045843090C05F0A0F8AC
:109E2000FFF76CFB021E06D0112806D10823134A47
:109E300011680B43136003B030BD11490B789800D3
:109E4000C01880000D18281CEB6829795C00E41804
:109E50006B690C4DA4002D680C3000950A4D6459B7
:109E6000A0470422094B1A70FFF77AFBE3E780232F
:109E70005B055B69C8E7C046001000101422002093
:109E8000302100202022002004220020192200205E
:109E9000F0B58027404D7F052C783969A60033192D
:109EA0009B00EB18DA8889B283B08A4218D8196906
:109EB00018898C46920860445969FFF71DFB021E01
:109EC00006D011282DD10823344A11680B431360A2
:109ED0003419A4002C19E288314B1A6003B0F0BD8C
:109EE000196938698C460004000C121A18893C69FB
:109EF0005969604480188918A2B29208FFF7FCFAE9
:109F0000021E06D0112827D10823244A11680B43CA
:109F1000136080235B051B69214A1B041B0C136023
:109F2000DCE72B789800C01880002918CB68081C43
:109F30005F00FF180B79BF009C464B6919490C3034
:109F40000968009118497F586146B8470422174BA9
:109F50001A70FFF705FBBBE72B789800C01880004C
:109F60002E18301C0F4DF3682D685C003179E41811
:109F7000736900950C4DA4000C306459A04704226D
:109F80000A4B1A70FFF7ECFA80235B051B69044A41
:109F90001B041B0C1360A1E73021002014220020B9
:109FA000FC21002020220020042200201922002071
:109FB0000823F0B54D4644465F4656461A1CF0B499
:109FC000774D85B02C68224091465FD1754F3E7821
:109FD000B30003939B199B00FB181A69511EDA8882
:109FE0001B898A18D318029380235B059B46196945
:109FF0006D4B1B689846002B57D16C4B1B689A46DB
:10A0000080235B05196902980904090C04F0A8FF74
:10A01000824500D285E0434600D17AE0002B00D093
:10A0200079E0039B9C466644B600BC19217904295B
:10A0300000D1AFE0201CE3680C305A00D2186369ED
:10A040005B4C9200246800945A4C14590022A0479B
:10A05000414601203A7893009B189B00FB18197128
:10A06000D86041464046D9801861586118817B7894
:10A070000132013BD2B27B700A2A00D17BE03A70F8
:10A0800000224D4B1A70FFF76BFA07E09C434B4BD5
:10A090004B4A1B782C609B009B58984705B03CBCF2
:10A0A00090469946A246AB46F0BD404B09041B685A
:10A0B000090C02989A4604F053FF5045A0D14A4635
:10A0C000404B1A6001234A4623432B603B4B1A70D6
:10A0D0003D4B5869431C51D05B4619690904090C72
:10A0E00004F03EFF031C8022520510691169000430
:10A0F000013B000C09045843090C04F031FFFFF741
:10A10000FDF9021ECAD011283BD109231C432C6043
:10A11000C4E7002B05D00322284B1A70FFF764FD1B
:10A12000BCE70022274B50461A60244B02321A70BB
:10A13000FFF7E4F9021EB1D0112818D03B7899003E
:10A14000CB189B00FD18E9684C006418281C29797D
:10A150006B69174DA4002D680C300095154D64599E
:10A16000A0470422144B1A70FFF7FAF996E7082368
:10A170001C432C6092E700233B7081E75B465B69E0
:10A18000B1E73B789800C01880003D18EB685C0090
:10A19000E418DBE70122084B1A70FFF7E1F97DE7CD
:10A1A0001422002030210020002200202C22002038
:10A1B0002022002004220020192200201822002042
:10A1C00000F301002822002000100010F0B54E46D8
:10A1D000574645460823E0B48C4E82B0346823428B
:10A1E00000D093E08A4B1A68571C1F60894B1D688A
:10A1F000002D50D1884B802299461B7852059D0036
:10A20000ED18AB00984608234D469A464544AA44AB
:10A2100053469B681169581EEB880904C0182B89A6
:10A22000090CC01804F09CFE874200D282E07B4BF0
:10A2300000D17BE01F68002F00D19CE001231A1C95
:10A24000224000D08DE023433360754B1A70754B6C
:10A250005869431C00D1BEE080235B0519690904DD
:10A26000090C04F07DFE031C80225205106911695F
:10A270000004013B000C09045843090C04F070FE73
:10A28000FFF73CF9021E49D0112800D0A7E00923AE
:10A290001C43346042E00421614B197080235B054C
:10A2A0001F693F043F0C57435E4A5069421C3BD034
:10A2B00019690904090C04F053FE80235B05196930
:10A2C00001380904090C41432A1C381CFFF714F912
:10A2D000021E23D011284AD04F4801788B005B180A
:10A2E0009B00C518281CE9684C006418A400297953
:10A2F0006B694D4D0C302D6800954C4D6459A0474D
:10A3000004224B4B1A70FFF72BF907E09C43444B98
:10A31000484A1B7834609B009B58984702B01CBC8D
:10A3200090469946A246F0BD5869C6E71B68002BC7
:10A3300000D083E702223A4B381C1A70FFF7DEF890
:10A34000021EEBD0112812D04B461B789900CB1877
:10A3500049469B00CD18E968281C4C006418A400ED
:10A36000C5E703222E4B1A70FFF73EFCD6E7082301
:10A370001C433460D2E7297904293DD05346404636
:10A38000294C5B6824685A00D2186B690094274CEA
:10A39000920048440C3014590022A0474B4601203B
:10A3A0001A78494693009B189B004B441F71DF802D
:10A3B000D8601F615F611F814B465B780132013BB2
:10A3C000D2B24B700A2A1DD00A700022184B1A70A4
:10A3D000FFF7C6F8A2E780235B055B6944E74B46BD
:10A3E0001B789800C0184B4680001D18EB68281C8D
:10A3F0005C00E418A4007AE701220D4B1A70FFF705
:10A40000AFF88BE700230B70DFE7C0461422002073
:10A410002C220020282200203021002000220020B1
:10A42000182200200010001020220020042200200A
:10A430001922002000F3010070B5274C82B0237868
:10A440009800C01880002518281CEB6829795A004C
:10A45000D2186B69214D92002E680C300096204E68
:10A4600096590022B04700210126227893009B18BC
:10A470009B00E3181971D980DE6019615961198157
:10A4800063780132013BDBB2D2B263700A2A0BD08F
:10A4900022700021134E14483160144E0170316057
:10A4A000002B05D102B070BD002222700022F0E71F
:10A4B00093009A189200A418E3882B602379032B49
:10A4C00007D0042B05D0012BECD10370FFF748F81F
:10A4D000E8E7FFF71FF9E5E7302100202022002000
:10A4E000042200202422002019220020FC21002028
:10A4F000F0B5474680B4654D04262C7882B0231C05
:10A50000B3430ED0022810D003280AD10821604A94
:10A510001368194258D0022C4FD0032C48D0012C7C
:10A5200046D002B004BC9046F0BD022C45D0032CAE
:10A5300059D0012CF5D10821554A1368194237D159
:10A54000544F55493B780E689A00D3189B00FA186F
:10A55000D1888E1BB6B2D680002E6ED1D168137909
:10A56000480041189846101C53694C4A89001268EB
:10A570000C3000924A4A8A58414694460022E047ED
:10A580003A7893009B189B00FB181E71DE80DC60FC
:10A590001E615E611E817B780132013BD2B27B700D
:10A5A0000A2A66D03A7000232B70FEF7D9FFB8E76D
:10A5B0008B431360FEF7D4FFB3E73A4B3A4A1B785C
:10A5C0009B009B589847ACE7384A136801331360E7
:10A5D000032B35D0022CEDD1324B354A1B789B0032
:10A5E0009B5898479DE70821294A13681942DFD1F3
:10A5F000304B284E1A683478571C1F6080235B0547
:10A600001969A30098461B199B00F3181A690904DD
:10A61000501EDA881B898018C018090C04F0A0FCB1
:10A620008742C7D32CD0231C43449B00F3181B79CB
:10A63000042B20D0FFF700FF73E7FFF729FC70E73A
:10A640001448027893009B189B00C418201CE268F1
:10A65000636951008A182179104C920024680C30EB
:10A6600000940F4C14590D22A0472E70FEF778FF6E
:10A6700057E73E7097E701232B70FEF771FF50E715
:10A680000D4B1B68002BCED194E7C0461922002049
:10A690001422002030210020FC2100202022002054
:10A6A0000422002018220020ECF2010024220020C5
:10A6B00000F301002C2200200022002010B5002011
:10A6C0002C2400220121464B18551434185502340D
:10A6D0001A5302341A531034185502341A530234E0
:10A6E000D9601876196259639964D9651A705A70DD
:10A6F0001A71DA801A615A611A815A835A629A620F
:10A700009A83DA859A63DA631A86DA641A651A66B6
:10A710005A661A531034185502341A5302341A5315
:10A720001034185502341A530634195104341A518E
:10A7300004341A510C3C1A531034185502341A536D
:10A740000634195104341A5104341A510C3C1A536A
:10A750001034185502341A530634195104341A515E
:10A7600004341A510C3C1A5310341855BA201A529A
:10A77000063019501967C3315A5004315A500C39F8
:10A780005A525A679A67174B1A80174B5869431CDD
:10A7900022D080235B0519690904090C04F0E0FB51
:10A7A00080235B051B6902381B041B0C58430F4BAD
:10A7B0000021186000230E4A002013600D4A136028
:10A7C000138153810C4A11700C4A13600C4A1360B8
:10A7D00004220C4B1A6010BD80235B055869DFE72B
:10A7E0003021002010220020001000101C22002028
:10A7F0002C220020042200201922002024220020E4
:10A80000FC21002014220020F0B557464E46454654
:10A81000E0B4334B1A680823520705D4181C1CBC3B
:10A8200090469946A246F0BD002854D0002952D047
:10A830000368002B4FD080277F053A69868892B243
:10A8400007239642EAD80F2EE8D9C288002AE5D01D
:10A85000244B724399461B68041C9846224B424481
:10A8600058690D1C9246431C37D039690904090CFC
:10A8700004F076FB80225205136901381B041B0C7F
:10A88000584307238245C9D8B107C7D1174F033BA7
:10A890003E88012EC2D043466B600C232E60454695
:10A8A000734313480136C1184D6025681D50A088B8
:10A8B0000881E3884B8143431169581E89B21469AA
:10A8C00004F0DEFB4A46431CA4B2634343441360D6
:10A8D0003E800023A2E70E23A0E77869CAE7C046BE
:10A8E000142200201C220020001000101022002042
:10A8F0000422002030B5114B1C680823640701D4E2
:10A90000181C30BD002806D0002A04D00368002B94
:10A9100003D00723F4E70E23F2E7094C2568002D46
:10A92000F7D02589406869430918608964686843DD
:10A9300000198142EDD213605160E1E7142200203A
:10A9400004220020F0B5474680B41E4C051C246844
:10A9500082B00820640703D402B004BC9046F0BD66
:10A9600000292CD0002D2AD02C680138002CF3D1DE
:10A97000154C2668002EEFD06E686789B046268990
:10A980007743B4466668BC19A045E5D2002AE3D0F7
:10A990009445E1D3D418A445DEDB09308C07DBD124
:10A9A00003242342D8D146462642D5D1181C131C75
:10A9B00000900A1C0120291CFEF776FFCCE70E2030
:10A9C000CAE7C0461422002004220020F0B5474602
:10A9D00080B41E4C051C246882B00820640703D490
:10A9E00002B004BC9046F0BD00292CD0002D2AD026
:10A9F0002C680138002CF3D1154C2668002EEFD0BE
:10AA00006E686789B04626897743B4466668BC1984
:10AA1000A045E5D2002AE3D09445E1D3D418A4455B
:10AA2000DEDB09308C07DBD103242342D8D1464634
:10AA30002642D5D1181C131C00900A1C0420291C86
:10AA4000FEF732FFCCE70E20CAE7C04614220020F2
:10AA500004220020F0B54F464646C0B4254C83B0D2
:10AA6000256808246D0705D4201C03B00CBC904653
:10AA70009946F0BD002906D0002804D00C68002CAF
:10AA800003D00724F0E70E24EEE71B4D2E68002EBE
:10AA9000F7D04E682F89B4466E897E43B1466E6802
:10AAA000B0464E464644B445EBD2002AE9D0974220
:10AAB000E7D3D618B742E4DB860701D01024D3E7EA
:10AAC00003263342FAD167463E40F7D188466344B5
:10AAD000191C171C814604F0D4FB42460C23126853
:10AAE000009753434046ED580221321C4B46A8477D
:10AAF000BAE7C0461422002004220020F0B54F46D9
:10AB00004646C0B4204A83B012680824530705D4CF
:10AB1000201C03B00CBC90469946F0BD002830D0F4
:10AB20000368013C002BF3D1184B1A68002AEFD0C0
:10AB30001D895E895A686E434768B618B742E7D2E6
:10AB40000934BB07E4D188468146291CB81A04F0B1
:10AB50008DFA093C0029DBD14046291C04F086FA15
:10AB600089B20029D4D14346002BD1D04744BE42FC
:10AB7000CED30022032000924946FEF795FE041C26
:10AB8000C6E70E24C4E7C046142200200422002099
:10AB9000074B1A680823520701D4181C7047002875
:10ABA00004D0044B5B7803600023F6E70E23F4E740
:10ABB0001422002030210020A02210B5064BD2051F
:10ABC000D15880231B041C1CA1208C430B4003493B
:10ABD000C0001450535010BD040500000C050000C7
:10ABE000F8B54F464646041CC0B4112809D01228B7
:10ABF0003AD013283AD014283AD00CBC9046994643
:10AC0000F8BD0025012911D000291FD00229F4D157
:10AC10006B005D19204B5D196E78002EEDD01F4B37
:10AC20001B68002BE9D0301C9847E6E71A4B6F00F1
:10AC3000984642467B19D65C43445B78002B19D179
:10AC40007F194744BA78164B5A55E6E7154B1868F2
:10AC5000FEF75CF8104A6B005B19D318104A9B781A
:10AC6000565D9E42C9D1D8E70125CBE70225C9E749
:10AC70000325C7E70B4B18680B4B1B689900C918D5
:10AC80000A4B49001A1C9946FDF7B2FF0028D7D19C
:10AC90004B461C70D4E7C0465022002044220020BE
:10ACA00030220020382200203C22002049220020AF
:10ACB000F8B5AC4B1B68DB0700D4F8BDAA4A147882
:10ACC000172CFAD8A949A300CB589F46A022A84B1D
:10ACD000D205D1588023DB031C1CA1208C430B40E0
:10ACE000A449C00014505350A34B00221868A34B32
:10ACF0001B689900C918FDF77BFFDEE7A023F02150
:10AD0000DB0549049B4A99500021043A9950D4E745
:10AD1000A022974BD205D1588023DB031C1CA12015
:10AD20008C430B409349C00014505350924B002267
:10AD30001868924B1968FDF75BFFBEE7A021A120C0
:10AD4000A0230026F025C9055B04C000894C0B50E8
:10AD5000874B0E51CB586D046B408025AD032B40C3
:10AD600000D1EBE00D5003230E5108211370824BEC
:10AD700000221868814B1B685943FDF739FF9CE797
:10AD8000A021A120A0230026F025C9055B04C00056
:10AD9000784C0B50764B0E51CB586D046B40802590
:10ADA000AD032B4000D1D1E00D5004230E512821DA
:10ADB000DCE7A023A122E021DB05D20049048024A6
:10ADC000995000216B48A40319501C50995074E706
:10ADD0006B4D2868FDF79AFF11231C1B00D19EE0E4
:10ADE000002800D09BE0012C0DD0C83064216043C6
:10ADF00004F0B6F8614B2D681B6800224343281C01
:10AE0000191CFDF7F5FEA0238021DB05090479E775
:10AE1000A023B021DB054904A122D20099500021D2
:10AE2000544A995049E7A021A120A0230027F026E9
:10AE3000C9055B04C0004F4D0B504D4B4F51CB58D3
:10AE4000760473408026B60333406DD00E504F51C8
:10AE5000022C00D17FE02821147088E7A023A122D2
:10AE6000C021DB05D2004904C0249950002141488B
:10AE7000E40319501C5099501FE7A023A122D021B0
:10AE8000DB05D20049048024995000213948E403AD
:10AE900019501C50995010E7A023F021DB054904FC
:10AEA000BAE7A023A122DB05D200A02186E7A021DA
:10AEB000A120A0230026F025C9055B04C0002D4C6D
:10AEC0000B502B4B0E51CB586D046B408025AD03BE
:10AED0002B4030D00D500E5105231370264B00220D
:10AEE0001868264B19684900FDF782FEE5E6A021A7
:10AEF000A120A0230026F025C9055B04C0001D4C3D
:10AF00000B501B4B0E51CB586D046B408025AD038D
:10AF10002B4018D00D500E510623137006E7A023C6
:10AF20008021DB05090477E74E510B50022C15D028
:10AF3000042114701BE70D510B50CDE70D510B5040
:10AF40000221032312E70D510B50E5E70D510B5081
:10AF5000042104230AE71221147008E70221147067
:10AF600005E7C046342200204822002014F30100E7
:10AF7000040500000C0500004C2200203C220020AB
:10AF80004022002008B50378112B06D0122B12D0D6
:10AF9000132B12D0142B12D008BD00235A00D31843
:10AFA000084AD31858780028F6D0074B1B68002BA6
:10AFB000F2D09847F0E70123F0E70223EEE7113BD8
:10AFC000ECE7C04650220020442200200023032842
:10AFD0000DD8A223A022DB00D205D258054B800059
:10AFE000C0580123834093435A1E9341DBB2002093
:10AFF0000B707047D4F3010070B5CC4B041C1B6878
:10B000000020DB0700D470BD172CFCD8C84AA30071
:10B01000D3589F46A022C74BD205D1588023DB03CB
:10B020001C1CA1208C430B40C349C000145053503A
:10B03000C24B00221868C24B1B689900C918FDF763
:10B04000D7FDE0E7A022BB4BD205D1588023DB031C
:10B050001C1CA1208C430B40B749C0001450535016
:10B06000B64B00221868B64B1968FDF7C1FDCAE758
:10B07000B44D2868FDF74AFE11231C1B00D130E1B6
:10B08000002800D02DE1012C0DD0C8306421604390
:10B0900003F066FFAA4B2D681B6800224343281C5F
:10B0A000191CFDF7A5FDA0238021A34ADB05090497
:10B0B00099500021043A9950A5E7A023F021A1223C
:10B0C000DB054904D200995000219B4A0020995089
:10B0D00012229D4B1A7096E7A023A122E021DB05E6
:10B0E000D20049048024995000219348A4031950A8
:10B0F0001C5099501322944B00201A7083E7A02310
:10B10000F0218D4ADB05490499500021043A9950F9
:10B110008D4B00201C7076E7A022B021A123D20520
:10B120004904DB00D1500023834900205350864A54
:10B13000137068E7A022A121A0230026F025D205E4
:10B140005B04C9007C4853507A4B1650D3586D04A9
:10B150006B408025AD032B4000D1D5E055501650F3
:10B16000022C00D1DDE02821774B1C70734B0022AC
:10B170001868734B1B685943FDF73AFD43E7A0235A
:10B18000F0216D4ADB05490499500021043A995099
:10B19000002038E7A023A122D021DB05D2004904FA
:10B1A0008024995000216448E40319501C509950A0
:10B1B0001422654B00201A7025E7A022A121A023AC
:10B1C0000025F024D2055B04C9005B485350594B5D
:10B1D0001550D358640463408024A403234000D155
:10B1E0008AE0545015500821032217E0A022A12123
:10B1F000A0230025F024D2055B04C9004E4853501B
:10B200004C4B1550D358640463408024A40323405E
:10B2100000D17FE054502821155004224A4B1A7067
:10B22000A4E7A023A122A021DB05D20049048024A9
:10B23000995000214048A40319501C5099500722EE
:10B24000414B00201A70DEE6A023A122C021DB05BD
:10B25000D2004904C024995000213748E403195012
:10B260001C5099501522384B00201A70CBE6A022B2
:10B27000A121A0230025F024D2055B04C9002E489B
:10B2800053502C4B1550D358640463408024A403BE
:10B29000234036D05450155005222B4B1A70274BA3
:10B2A00000221868264B19684900FDF7A1FCAAE6A0
:10B2B000A022A121A0230025F024D2055B04C9000F
:10B2C0001D4853501B4B1550D358640463408024D1
:10B2D000A403234022D05450155006221A4B1A7052
:10B2E000BEE6A0238021A122DB050904D2009950EB
:10B2F0000021114A995086E614505350022103222E
:10B300008CE714505350C7E715505350022C0AD005
:10B31000042129E71450535004217EE71450535060
:10B32000DBE7122120E702211EE7C046342200207D
:10B3300074F30100040500000C0500004C220020FD
:10B340003C2200204022002048220020234B10B540
:10B350001960234B041C1860224B1A60830712D516
:10B360000D22214B21481A700132DA7001329A7194
:10B3700001325A724A080421FCF7A6FF002820D0A7
:10B38000E30703D41CE0C3070ED50020A023F0225E
:10B39000A1210024DB055204C9005A5014495C5015
:10B3A0000C315A5000280BD112480021124AFDF7E7
:10B3B000EBFB002804D111480121114AFDF7E4FB01
:10B3C00010BDFCF7DBFF0028DAD10E4800210E4A41
:10B3D000FDF7DAFBE307E5D5D8E7C0463C220020BD
:10B3E000342200204422002050220020E4F30100F7
:10B3F0000C0500004C220020B1AC010040220020CE
:10B40000B9AB01003822002085AF0100031C0720E2
:10B41000032B00D97047012A13D0012917D0002926
:10B4200008D0022919D15800C3180D48C3185A7002
:10B430000020EFE75800C3180948C3189A7000208D
:10B44000E8E700220129E8D11A1C0D32D2B25800D7
:10B450000349C3185A540020DCE70720DAE7C04646
:10B4600050220020E0231D4ADB00D2581C4B1A401A
:10B470000023C10701D5C0239B021343E0221749D3
:10B48000D2008B50174B9A58154B1A400023810756
:10B4900001D5C0239B021343E0221249D2008B50F6
:10B4A000114B9A580E4B1A400023410701D5C02377
:10B4B0009B021343E0220C49D2008B500B4B9A584D
:10B4C000074B1A400023010701D5C0239B021343F9
:10B4D000E0220649D20000208B5070474400005003
:10B4E000FFFFFCFF480000504C000050500000508F
:10B4F00008B50320FFF7B6FF031C0020002B02D085
:10B50000062B00D0181C08BD10B50388102B08D0DE
:10B51000112B05D1294A1368013B1360002B07D07A
:10B5200010BD264C2368002B11D001332360F7E7B0
:10B53000002002210122FFF769FF00282BD00728F5
:10B5400029D01F4B1B68002BEAD09847E8E7002062
:10B5500000210122FFF75AFF002808D0072806D053
:10B56000174B1B68002B00D098472368DDE70120AC
:10B5700002210722FFF74AFF002801D00728EFD158
:10B58000002002210422FFF741FF0028EDD0072808
:10B59000E6D12368C9E7012002210722FFF736FF21
:10B5A000002801D00728CCD1002000210A22FFF773
:10B5B0002DFF0028B4D00728C3D1B1E760220020B6
:10B5C0005C22002010B5244B82B00C1E186018D0ED
:10B5D0006B460020991DFFF7F9FC002801D002B04E
:10B5E00010BD6B460130D91DFFF7F0FC0028F6D1E5
:10B5F0006B46DB79002B29D16B469B79002B28D138
:10B600002370164B1B68002B01D00020E7E70020B9
:10B6100002210122FFF7FAFE002801D00728DED11F
:10B62000012002210722FFF7F1FE002801D00728A0
:10B63000D5D1002000210A22FFF7E8FE0028E4D03F
:10B64000C31F5A1E93415B421840C8E70223237070
:10B65000D7E70B232370D4E75C2200206022002070
:10B6600076DF704778DF70477ADF70477CDF70479E
:10B6700060DF70473CDF704748DF704708B5002146
:10B680000022FCF793FE08BD08B50123034A0448D5
:10B6900011785940117002F0CFFB08BD8C220020B8
:10B6A000A422002010B511491148FDF7AFFB114C41
:10B6B00081B2236810480133236002F017FB08238E
:10B6C000021C9A4309D00D4B984206D00C4B98426D
:10B6D00003D000210022FCF769FE2068032103F05B
:10B6E000C5FC4B1E9941074B197010BD94220020D8
:10B6F0006422002090220020A422002004300000B8
:10B70000013400006220002008B50B490B48FDF70A
:10B710007DFBC1B20A4801F00DFE0823021C9A43CA
:10B7200009D0084B984206D0074B984203D000211D
:10B730000022FCF73BFE08BD74220020842200207A
:10B740008C260020043000000134000010B5041CD9
:10B75000FEF7CEFE201C01F0CBF910BD08B5002A83
:10B7600004D0101C00210022FCF720FE002008BDA0
:10B7700008B50378002B00D008BD064B3B21188884
:10B78000FFF76EFF0028F7D000210022FCF70EFE25
:10B79000F2E7C0466020002010B5041C02F02EFF26
:10B7A0001348211C02F00EF9211C124801F0ACFCD8
:10B7B000201C01F0C7FE201CFFF7A6FE2388102BDB
:10B7C00009D0112B03D101220B4B52421A80201CAD
:10B7D00001F036F910BD0720FFF70EFC002803D05A
:10B7E00000210022FCF7E2FDA288034B1A80EEE75D
:10B7F000A42200208C2600206020002008B5072805
:10B8000020D00A2810D0042800D008BD144B1321E2
:10B810001888FFF725FF0823021C9A43F5D0002162
:10B820000022FCF7C3FDF0E70020FFF7E5FB00284E
:10B8300010D1FFF75DFE002807D1FFF71BFF00289E
:10B84000E3D0ECE701F0C4FAE5E700210022FCF7C1
:10B85000ADFDF2E700210022FCF7A8FDE9E7C046B4
:10B860006020002008B5064B1B78002B07D0054947
:10B870000548FDF7CBFA81B2044802F0C3FA08BDCF
:10B8800062200020782600206C220020A4220020C4
:10B8900008B5002807D0032804D10138FFF7ACFB16
:10B8A00000280DD108BD0020FFF7A6FB00280CD111
:10B8B000FFF71EFE00280DD1FFF7DCFE0028F1D0B7
:10B8C00000210022FCF772FDECE700210022FCF7CA
:10B8D0006DFDEDE700210022FCF768FDECE7C046B6
:10B8E00008B5031C0A1C0248191CFCF75FFD08BDC3
:10B8F000EFBEADDEF0B55F4656464D4644460023EA
:10B90000F0B4A3B00093002009210522E84BFDF715
:10B91000B7F8002803D000210022FCF747FDE54BD3
:10B920000121181CE44A9B46FDF72EF9002803D09C
:10B9300000210022FCF73AFDE04B0121181CE04AEF
:10B940009A46FDF721F9002803D000210022FCF7D8
:10B950002DFDDC4B0121181CDB4A9946FDF714F93B
:10B96000002803D000210022FCF720FDD74B012145
:10B97000181CD74A9846FDF707F9002803D0002184
:10B980000022FCF713FD0320D249D34AFFF7DEFC67
:10B99000002803D000210022FCF708FD12AC002093
:10B9A000211CFFF70FFE002803D000210022FCF726
:10B9B000FDFC26780820023E73425E41C7494822BA
:10B9C0000023F6B203F04EFA002803D00021002233
:10B9D000FCF7ECFC0822201C0021FCF7E9FB01230A
:10B9E0002278201C13432370FFF742FE002803D067
:10B9F00000210022FCF7DAFCB94803F059FA0028CC
:10BA000003D000210022FCF7D1FCB64803F05AFA1B
:10BA1000002803D000210022FCF7C8FC09AD2E70DD
:10BA2000FEF74CFE002803D000210022FCF7BEFCEC
:10BA3000281C02F0D7FC002803D000210022FCF7CC
:10BA4000B5FC4D20002105226844FCF7B1FB012321
:10BA50006279A5481A43E1231A400C231A43CD23E7
:10BA6000134063710723A3710933E3719F4B211CBA
:10BA700012930123237102F05BFD002803D0002103
:10BA80000022FCF793FC0F2101222B78984E8B4368
:10BA9000134310220B401343301C2B7003F00EFC99
:10BAA000311C82B2281CFFF7E1FD002803D00021E1
:10BAB0000022FCF77BFC8F48FFF7D4FD002803D061
:10BAC00000210022FCF772FC201C00210822FCF758
:10BAD0006FFBA0235B002380C83363800023A38017
:10BAE0009133FF33201CE380FFF7BEFD002803D015
:10BAF00000210022FCF75AFC00213022201CFCF718
:10BB000057FB022323700433E370033B23827A4BF9
:10BB1000012263610023A270EB602A732C32FF3292
:10BB20002A61783A6B60AB60AB61EB612B626A6152
:10BB300009930093201C00212A1C704B00F07CFD0F
:10BB4000002803D000210022FCF730FC0F2703233C
:10BB500004AE6F4400211422301C3B70FCF728FB1C
:10BB600000230F2101221020049301333371337B12
:10BB7000B7608B4313430B4003433373002373734A
:10BB8000B373F37B8B431A43002311400143F173DA
:10BB90005B48311C337401F03FFF002803D00021C3
:10BBA0000022FCF703FC00211422281CFCF700FBF8
:10BBB0000F21012210206B7B8B4313430B40034367
:10BBC0006B73AB7B8B4313430B400343AB7300237B
:10BBD000EB732B7C8B431A4300231140012201435A
:10BBE00029740993AB6047486433291C2A712B736D
:10BBF00001F0B8FA002803D000210022FCF7D6FBA0
:10BC000040220021201CFCF7D3FA201C3E4902F000
:10BC10001DF93C210F200122635C83431343102252
:10BC200003401343635400223D23201CE25401F0DF
:10BC30004DFD002803D000210022FCF7B7FB512363
:10BC400001266427314932480B604F608E600E73C5
:10BC5000FDF7D0F88C2300252E492F480B60A03328
:10BC60004B60233BFF3B8B600D73FDF7C3F8FA235A
:10BC70002A495B002A484B600F608E600D73FDF708
:10BC8000B9F8201C00211C22FCF792FAA0239B0289
:10BC90006360F0231B03A36003232373184B1295E7
:10BCA0009B89201CE3811F4B257463613CE0C046E7
:10BCB000F42200207426002009B70100702600201D
:10BCC000A5B601006C26002065B80100882600207A
:10BCD00089B60100CD0C0000FDB70100242600202C
:10BCE00099B701004DB701008D2200205DB701001A
:10BCF00004F40100410300006420002091B8010019
:10BD0000A42200208C26002010F4010074220020C0
:10BD10008422002094220020642200207826002023
:10BD20006C22002071B70100254BA36101F0CEFB0E
:10BD3000002803D000210022FCF738FB5B4680215D
:10BD4000186849020022FCF753FF002803D00021A5
:10BD50000022FCF72BFB53468021186809020022C1
:10BD6000FCF746FF002803D000210022FCF71EFB51
:10BD70004B46144918680022FCF73AFF002803D00C
:10BD800000210022FCF712FB4346A021186889021B
:10BD90000022FCF72DFF002803D000210022FCF731
:10BDA00005FB032000F0ECFC002803D1FFF764FC46
:10BDB0000028FBD000210022FCF7F8FAF6E7C04685
:10BDC0007DB601006626000072DF704779DF70479C
:10BDD0007DDF704765DF7047F0B55F4656464446E5
:10BDE0004D46F0B485B09A460E9B061C98461B78CB
:10BDF0008B4601930388171C002B40D000239946E3
:10BE000002AB0024DD1C03E033880134A3422CDDA7
:10BE10007368A1009C460422614403A803F031FA30
:10BE200003A8291C0022FFF7D5FF002828D12B7872
:10BE3000BB42E9D14B46002B29D043461A78D3198F
:10BE40001F2B34DC524403A8291CFFF7C3FF002832
:10BE500016D143461A782B780134D3184246137012
:10BE6000012399463388A342D2DC4B46002B06D0EF
:10BE7000434651461B78019A013B9B1A8B54002084
:10BE800005B03CBC90469946A246AB46F0BD434641
:10BE90001B78DA191D2A0ADC41469A1C0A705246A0
:10BEA00059460133DBB2D15443461A78CAE70C2015
:10BEB000E6E7C046F0B556464D4644465F46002389
:10BEC000F0B497B005AD02AA041C0E1C2B7053737E
:10BED000002800D11EE1C3785B0700D4B2E00378EC
:10BEE000002B00D0DAE18378002B00D00BE2002396
:10BEF000E278002A00D0ADE06268002A0FD0117805
:10BF00001C2B00DDFEE002220A2006AFFA545A1C68
:10BF1000D2B2B854DA1C0233DBB22A70F954238946
:10BF2000002B00D00BE2238A002B00D0A6E2238B4B
:10BF3000002B00D0BBE2236A002B4BD02A780C20C8
:10BF4000911D8A461F2900D97DE0198805388B4646
:10BF5000052978D96C4F6946BC46DC4467468F8119
:10BF60008F89BC46694FB846BC456CD95F88BC46D2
:10BF7000052F68D9644F67448F81BFB2474562D9A6
:10BF8000634FBB4503D0BC4501D0E3455BD80520DA
:10BF900006AFB854901CC1B2297089466946501C3E
:10BFA0000873C0B284461220804660464146395428
:10BFB000198804328C4649467818614601706146FA
:10BFC000090A41705B88D2B2BF183B701B0A7B70B4
:10BFD00053462B70636A9846002B2BD01B792A7826
:10BFE0009C460233911CDBB2CB180C201F2B2ADCA1
:10BFF000634606AF0333BB54531CDBB2F330F85433
:10C000004346C9B229701B8879180B701B0A4B7004
:10C0100043460432D0B228709A88002A0AD0996820
:10C0200000290FD0381803F02CF943469A882B7852
:10C03000D3182B702C23E15C06AF002900D0B8E1A7
:10C04000B94669E0072017B03CBC90469946A24625
:10C05000AB46F0BD022106AFF954991CC9B288461F
:10C060000121581CC0B2395441460333DBB22B7056
:10C070007A5441E773780C201D2BE4DC02AB9C461C
:10C080000E241D23644426306044211C2380FFF7C6
:10C090009FFE0028D7D13378022B00D1C1E27378FC
:10C0A000002B03D09BB208221D2B01D90822238824
:10C0B0000EA988464046427002AA527BDBB2023289
:10C0C000591C9B18DBB202AA01705373B278002A84
:10C0D00000D02DE2F478002C0ED0022241464746D3
:10C0E0000120CA54591C9A1CC9B203337854D2B2E5
:10C0F000DBB202A94B73BC547268002A31D01178AC
:10C100001C2B20DD0C209EE77FF3FFFF7DF300005A
:10C11000FFFF000000239946002E00D10DE2F378C6
:10C12000002B00D08EE702AA53733378002BA1D1E5
:10C13000B378002B00D0D9E172680023002A10D018
:10C1400011780EAA9046022240464446C2540A2064
:10C150005A1CD2B2A054DA1C023302A8DBB24273DA
:10C16000E1543389002B00D002E1338A002B00D048
:10C1700063E1338B002B00D0E3E1336A002B4BD01B
:10C1800002AA527B0C20911D1F2900D95BE7188859
:10C1900083465C460720052C00D854E7D04F5F4407
:10C1A000BFB2B846CF4FBC46B84500D84BE75F8812
:10C1B000BA46052F00D846E7C94F6C46B846D0446A
:10C1C0004746A781A789674500D83CE7C64FBB45CE
:10C1D00004D0BA4502D0D34500D934E70EA8804632
:10C1E00005204446A054901CC0B202AC6073844643
:10C1F00012274046541CE4B2075560461C88404450
:10C200000470240A447004325B88D2B24244137032
:10C210001B0A537002AB5973746A002C2FD002AB07
:10C2200027795A7BBB1C911CDBB2CB180C201F2B2F
:10C2300000DD08E70EAB984603379F544746C9B266
:10C2400002AB5973531CDBB2F330F85423884144DA
:10C250000B7004321B0A4B70D0B202AB5873A28829
:10C26000002A0CD0A168002900D1EBE6404403F07D
:10C2700008F802ABA2885B7BD31802AA53732C2365
:10C28000F15C002900D07DE10EAA904602AB5B7BF9
:10C29000424629784846FFF797FDD4E663780C209C
:10C2A0001D2B00DDCFE60EAB98461D2342461380C2
:10C2B00002AB9C46063060444146FFF789FD0028EA
:10C2C00000D0C0E62378022B00D1A3E16378002BD5
:10C2D00003D09BB208221D2B02D9434608221B889B
:10C2E00006AF7A702A78DBB20232591C9B18DBB297
:10C2F00039702B70A278002A00D1F9E50C201B2B95
:10C3000000D9A0E601E00EAB98464046FFF75EFD7F
:10C31000002800D097E6032219212B7806AFFA54A3
:10C320005A1CD2B2B954424611889A1CD2B2BF18D4
:10C3300004333970DBB2090A79702B70D8E5082311
:10C34000984606AFA04400954046022102223B1CBD
:10C35000FFF742FD002800D075E600954046062113
:10C3600010223B1CFFF738FD002800D06BE6DAE511
:10C370000EAB02AA98469446341C0D23083463443D
:10C380000093201C022102224346FFF725FD0028CE
:10C3900000D058E602AA94460D2363440093201C63
:10C3A000062110224346FFF717FD002800D04AE679
:10C3B000DBE6A36A002B00D144E600229146163248
:10C3C0009246163228788C46934600E0A36A4A4685
:10C3D000984652004A4492009044434651469B88F6
:10C3E000421C0333D2B23B54B9544246831CDBB2E5
:10C3F0002B701288FB181A70120A5A7043460430C8
:10C40000C0B228709A88002A0FD09968002900D1FC
:10C4100018E6381802F035FF434698882B78C01884
:10C420005B46E35CC0B29C4628704B460133DBB2EE
:10C4300099466345CAD3B9466EE60EAB02AA984642
:10C440009446341C0D23103463440093201C0321B4
:10C4500002224346FFF7C0FC002800D0F3E502AA01
:10C4600094460D2363440093201C07211022434669
:10C47000FFF7B2FC002800D0E5E57AE610239846E5
:10C4800006AFA04400954046032102223B1CFFF763
:10C49000A3FC002800D0D6E50095404607211022D5
:10C4A0003B1CFFF799FC002800D0CCE53FE51823A2
:10C4B000984606AFA04400954046142102223B1C3A
:10C4C000FFF78AFC002800D0BDE500954046152105
:10C4D00010223B1CFFF780FC002800D0B3E52AE5C2
:10C4E0007FF3FFFF7DF30000FFFF000002AB0E248F
:10C4F0009C466444201CFFF769FC002800D0A2E59C
:10C500000EAA90460322414602AB5B7B4046CA54CA
:10C5100019215A1CD2B281549A1C2188D2B24244A9
:10C5200011700433090A5170DBB202AA5373D1E5CA
:10C530000C201B2B00D986E5DCE702AB5B7B0022DD
:10C54000A7E60EAB02AA98469446341C0D23183475
:10C5500063440093201C142102224346FFF73CFC55
:10C56000002800D06FE502AA94460D23634400938F
:10C57000201C152110224346FFF72EFC002800D076
:10C5800061E5FAE5B46A002C00D15BE503910EA9E0
:10C590008846162102AB8A4616315B7B221C002797
:10C5A0008B4600E0B26A40467C00E419A4001419EE
:10C5B000A28841460332C2549A1CD2B202A84273E6
:10C5C00094465246581CC0B20A54624620884244DF
:10C5D00010700433000A5070DBB202AA5373A288B1
:10C5E000002A11D0A168002900D12BE54344181C72
:10C5F00002F047FE02ABA0885B7B02AAC318DBB245
:10C6000053735A46B25C03920137039AFFB29742C2
:10C61000C8D33DE643461B8809221D2B00D85FE6A0
:10C6200054E6238809221D2B00D841E537E5C04692
:10C6300073DF704774DF7047F8B5051C0E20002DBE
:10C6400000D17DE0002A00D17AE000200F1C3D4996
:10C6500008703D490B6006993C4B19603C490B1C26
:10C6600013CA13C313CA13C313CA13C30021072267
:10C670003848FBF79DFD384B384A394E1A60394A25
:10C6800000219A60301C3022FBF792FD2B782A1C87
:10C690003370AB781032B370EB78F3706B787370E3
:10C6A000331C103303CA03C3331C103A083303CAC4
:10C6B00003C3331C0832183303CA03C36B6A002B4D
:10C6C00011D0294B294C7362696A9C600A881A80D0
:10C6D00088889880002806D000238A68D25CE254BB
:10C6E00001338342F9D1AB6A002B14D0204B21488F
:10C6F000B362A96A98608C889C800A881A8000239B
:10C70000002C05D08A68D25CC2540133A342F9D10F
:10C710002C23EA5CF2542B6A002B06D0164B3362B2
:10C720002A6A5188598012881A806B68002B03D0BE
:10C73000124B73606B687360301C391CFFF7BAFBD7
:10C74000F8BDC046AC270020E026002004270020CA
:10C750001027002008270020582700203427002019
:10C76000A42600208C270020D4260020E4260020C8
:10C77000B427002068270020B0270020542700207D
:10C78000F0B50024A34D89B0287001A80194FEF7EC
:10C79000FFF9082809D0002805D1019B002B05D0FE
:10C7A00001229D4B1A7009B0F0BD01949B4F0021EE
:10C7B000381C0722FBF7FCFC994E7378002B58D0ED
:10C7C0002B78012B05D0B278002A00D1FCE0022B97
:10C7D0000FD1944A1268002A00D106E10121924B40
:10C7E0000820197090472B78012B00D18DE0022B87
:10C7F00049D0327B002A01D1032B65D0327E002A3A
:10C8000001D1042B65D0874A1268002A03D0033B6C
:10C81000012B00D899E00022844B1A7002AC182238
:10C82000201C0021FBF7C4FC00232A7823706360DE
:10C830002372E360022A00D1BCE04FD9032A00D161
:10C84000A5E0042A00D09FE0B38B2382338C63825F
:10C85000774B1A79002A00D1BCE03278002A04D044
:10C86000744A1278002A00D1C2E00422724B1A7076
:10C870003CE0B378002BB6D02B78022BA9D0012B4B
:10C88000B7D102232B70B378002B17D07B78002B05
:10C8900000D0A8E0BB78002B00D0A4E0FB78002BF0
:10C8A00000D0A0E03B79002B00D09CE07B79002BEE
:10C8B00000D098E0BB79002B00D094E003232B70CC
:10C8C000337B002B00D083E004232B70337E002BBE
:10C8D00036D10023584A2B7013709CE7012A53D19C
:10C8E00063822382544B676022701A70201CFFF70A
:10C8F0009FFE002800D056E74A4B1B68002B02D051
:10C900004D4A1078984700204DE77278002AB8D039
:10C910007A78002A00D076E7BA78002A00D072E749
:10C92000FA78002A00D06EE73A79002A00D06AE748
:10C930007A79002A00D066E7BA79002AA1D062E7A6
:10C94000384B1A68002A00D165E73378002B00D1F4
:10C9500061E7384B1B78002B00D05CE70121334B9B
:10C9600007201970904759E7E360042333480232E7
:10C9700000212272C370FFF79DFA002800D012E751
:10C9800005222D4B1A702A78002AB5D0AEE7B38A5B
:10C990006382338A2382264B1A79002A1FD0327889
:10C9A000002A03D0234A1278002ADDD00322224B2A
:10C9B0001A709BE701232370338967606382736871
:10C9C00023821D4B1A7091E7022B00D011E775E707
:10C9D000032318E71A7B002A00D03EE745E71A7BBD
:10C9E000002ADCD1E2E702230DE70F490A70FBE6DB
:10C9F000E36004231148023200212272C370FFF762
:10CA000059FA002800D0CEE606220B4B1A702A787D
:10CA1000BAE7C046AC270020AD2700200827002039
:10CA200010270020E02600208727002088270020EC
:10CA30005827002003270020C0270020A42600201C
:10CA400008B50388112B1DD0192B06D0102B00D050
:10CA500008BD8288204B1A80FAE78279002AF7D134
:10CA60001E4B1B78022B30D027D9032B1DD0042B53
:10CA7000EED11B4B1A701B4B1B68002BE8D000201B
:10CA80009847E5E70022184B1A70134B82881B88E1
:10CA90009A42DDD10120FFF773FE0028D8D0134B56
:10CAA0001B68002BD4D09847D2E70D4A042013709E
:10CAB000FFF766FE0028F2D1CAE7012BC8D1022099
:10CAC000FFF75EFE0028EAD1C2E70320FFF758FE19
:10CAD0000028E4D1BCE7C04670200020AC2700202D
:10CAE000C0270020E0260020032700200427002084
:10CAF000F0B5023889B0012803D8A94C2378002B5F
:10CB000001D109B0F0BD002501A825700195FEF7FF
:10CB10003FF8082808D0002800D098E0019B002B9F
:10CB200003D001232370ECE701959E4F0021381CB0
:10CB30000722FBF73DFB9C4D6B78002B5CD09B4E96
:10CB40003378012B00D1B6E0AA78002A00D10DE19C
:10CB5000022B00D1AFE02A7B002A02D1032B00D1A7
:10CB6000B3E02A7E002A02D1042B00D1D9E0904AFA
:10CB70001268002A03D0033B012B00D8AFE000224B
:10CB80008C4B1A7002AC1822201C0021FBF710FB02
:10CB900000233278237063602372E360022A00D19D
:10CBA000C4E064D9032A00D1CAE0042A00D0B4E06A
:10CBB000AB8B23822B8C63827F4B1A79002A02D1A4
:10CBC0001A7B002A07D02A78002A04D07B4A1278E0
:10CBD000002A00D1D3E00422794B1A70201CFFF701
:10CBE00027FD002833D1724B1B68002B00D188E74A
:10CBF000734A1078984784E7AB786C4E002B2DD1A0
:10CC00003378012B3CD0022BA5D1AB78002B17D069
:10CC10007B78002B00D0B0E0BB78002B00D0ACE0DC
:10CC2000FB78002B00D0A8E03B79002B00D0A4E0DB
:10CC30007B79002B00D0A0E0BB79002B00D09CE0DA
:10CC4000032333702B7B002B3FD003238FE75D4BF7
:10CC50001B68002B00D154E7984752E73378022B2A
:10CC600029D0012B00D076E702233370CDE7012ACB
:10CC700053D163822382524B676022701A70ADE7F2
:10CC80006A78002AF0D07A78002A00D06FE7BA7864
:10CC9000002A00D06BE7FA78002A00D067E73A79DB
:10CCA000002A00D063E77A79002A00D05FE7BA79DA
:10CCB000002AD9D05BE73E4A1268002A5AD00121E7
:10CCC000414B0820197090479AE7042333702B7E5C
:10CCD000002B26D0364B1A68002A00D14FE72B785C
:10CCE000002B00D14BE7354B1B78002B00D046E7DB
:10CCF0000121304B07201970904743E7E36004237C
:10CD00003248023200212272C370FFF7D3F80028A4
:10CD10009DD105222A4B1A703278002A00D162E791
:10CD20005CE70023264A3370137028E70123237041
:10CD30002B89676063826B682382214B1A704DE7F1
:10CD4000AB8A63822B8A23821B4B1A79002A02D179
:10CD50001A7B002A06D02A78002A03D0174A1278B4
:10CD6000002ACBD00322164B1A7037E7022B00D0D3
:10CD7000F1E665E714490A7043E70223F7E6E3604A
:10CD800004231248023200212272C370FFF792F886
:10CD9000002800D05BE70622094B1A703278BCE706
:10CDA000AD2700200827002010270020AC270020F6
:10CDB000E026002088270020582700200327002095
:10CDC000C02700200427002087270020A426002059
:10CDD000F0B5474680B4BB4C88B02378002B00D117
:10CDE000A1E0B94D2B78002B00D09CE0B74F3B78E9
:10CDF000002B00D09CE00023012601A82E7098464D
:10CE00000193FDF7C5FE082808D0002800D095E062
:10CE1000019B002B04D0AE4B1E7085E0434601936E
:10CE2000AC4B0021181C07229846FBF7C1F9637828
:10CE3000002B00D088E0A378002B00D197E03B784E
:10CE4000022B00D189E0012B00D096E002233B7039
:10CE5000A378002B1DD043465B78002B00D01DE14A
:10CE600043469B78002B00D018E14346DB78002B2B
:10CE700000D013E143461B79002B00D00EE143465E
:10CE80005B79002B00D009E143469B79002B00D051
:10CE900004E103233B70237B002B00D172E00323CA
:10CEA0008D4A1268002A03D0033B012B00D873E09F
:10CEB00000228A4B1A7002AE1822301C0021FBF7A8
:10CEC00077F900233A78337073603372F360022A83
:10CED00000D1BCE000D879E0032A00D1C2E0042AE6
:10CEE00000D0B0E0A38B3382238C73827C4B1A7901
:10CEF000002A02D11A7B002A06D02278002A03D009
:10CF00002A78002A00D1CBE00422764B1A70301C1C
:10CF1000FFF78EFB002811D16F4B1B68002B02D04E
:10CF2000704A10789847002008B004BC9046F0BDC5
:10CF3000FFF780FB002800D15DE7F5E76A4B1B682F
:10CF4000002BF0D09847EEE73B78012B05D0A27874
:10CF5000002A00D19BE0022B0FD15F4A1268002A01
:10CF600000D198E00121614B0820197090473B786F
:10CF7000012B35D0022B00D16AE7227B002A19D180
:10CF8000032B17D104233B70237E002B19D0524B67
:10CF90001A68002A00D18BE72378002B00D187E79D
:10CFA0002B78002B00D083E701214C4B0720197010
:10CFB000904780E7227E002A00D071E7042B00D042
:10CFC0006EE70023474A3B70137071E7012A3AD19C
:10CFD000414673823382434B716032701A7096E718
:10CFE0006278002A00D131E742465278002A00D008
:10CFF00056E742469278002A00D051E74246D2785E
:10D00000002A00D04CE742461279002A00D047E7B8
:10D0100042465279002A00D042E742469279002ADD
:10D0200000D113E73CE7F3600423314802320021CA
:10D030003272C370FEF73EFF002800D07EE7052263
:10D04000284B1A703A78002A00D165E75FE743461B
:10D050007360012333702389738263683382214BA9
:10D060001A7054E7A38A7382238A33821C4B1A797D
:10D07000002A02D11A7B002A05D02278002A02D089
:10D080002A78002ACFD00322164B1A703FE7022BD2
:10D0900000D072E7FDE615490A7069E70223FFE652
:10D0A000F36004231248023200213272C370FEF78B
:10D0B00001FF002800D041E706220A4B1A703A7897
:10D0C000C1E7C0461027002003270020AC2700201E
:10D0D000AD27002008270020E02600208827002018
:10D0E00058270020C0270020042700208727002081
:10D0F000A4260020A0DF7047A2DF7047A3DF70479F
:10D10000A4DF7047A6DF704730B50B8883B0112BC2
:10D1100023D0502B06D0102B01D003B030BD8B880C
:10D120004382FAE7037D002BF7D0CA8843899A42ED
:10D13000F3D1CB8B022BF0D10468002CEDD00B1C6B
:10D14000212220259A5C5B5D1202134301221340C9
:10D1500001A953400B70A047DFE701235B424382E4
:10D16000DBE7C046F0B54D465F4656464446F0B450
:10D170000B6895B0036001235B4243820A798946BC
:10D18000037406A902338B70674B0275071C021DDE
:10D1900001200B80FFF7AEFF051E07D0281C15B03D
:10D1A0003CBC90469946A246AB46F0BD3B7D002B69
:10D1B00000D0A0E00DAD281C00211C22FAF7F8FFDA
:10D1C00002222B78397D1A4301239A460B4018011D
:10D1D000D3B21022934303432B70002390464A1E80
:10D1E00091419B466B60EB602B61494204AB0B4065
:10D1F0006B615B465246AB6102AB9A754B4B05AE19
:10D2000002AA938200210322301CFAF7D1FF4B4679
:10D210009B7B062233704B46DB7B08AC7370B37884
:10D2200000219343043A1343DBB206329343424650
:10D23000934352469343B3704B461B7B02AAD37071
:10D24000201C1422FAF7B4FF07AB0893534623813E
:10D250005B4663815346A38102AB0333236166605F
:10D26000291CB888BB1D221CFFF746FF051E95D15F
:10D270004B469B68002B3CD0012302AA93752C4B94
:10D2800000219382301C0322FAF792FF4B461B7C4D
:10D290000622337000237370B3789343043A134328
:10D2A000DBB2063293434246934352469343B370F4
:10D2B00003AB98464B464046996800F0C1FD814655
:10D2C00000211422201CFAF773FF07AB23606A4683
:10D2D0004B46D3804346D0883A1C658166602081E6
:10D2E000A0812361F8880E32211CFFF707FF051C7F
:10D2F00054E7F88152E704AC00210322201CFAF71E
:10D3000057FF0F21012223788B43134310220B4038
:10D31000134323704B4606225B7B6370A3789343D1
:10D3200002221343A37045E70F180000192A0000DA
:10D3300008290000F0B589B06B46D971DF1D037C68
:10D34000041C00258B421AD002AE00210822301C9A
:10D35000FAF72EFF012333803B78608A2374E1883B
:10D36000321C75807760FFF7CBFE051E07D1628AFD
:10D37000104B9A421BD0237D0835002B02D1281C6C
:10D3800009B0F0BD04AD281C00211022FAF710FFEF
:10D39000E388291C2B800123AB707388AE60AB80BF
:10D3A0007368EB60608AFFF7ADFE051CE7E70825B0
:10D3B000E5E7C046FFFF000075DF704776DF704786
:10D3C0007ADF70477BDF704710B5184B82B0188842
:10D3D000174B984214D0174A174C13780133DBB21D
:10D3E0001370217B99420DD200231370237C002BF4
:10D3F00012D16369002B03D0002201A80270984764
:10D4000002B010BD0D49FFF7D7FF0028F8D0A3697F
:10D41000002BF5D09847F3E73B21FFF7CFFF00281B
:10D42000E7D0A369002BE4D09847E2E7F02700207B
:10D43000FFFF0000CC270020D0270020F427002089
:10D4400030B51C4B1C4A5B88118883B099420FD8B9
:10D4500052889A420CD3194B5B69002B03D00122EE
:10D4600001A802709847164C0023237003B030BD0A
:10D47000134C2378002B08D0104B5B69002BF3D0A2
:10D48000002201A802709847EEE70E4B0B4D1B7867
:10D49000002B0CD0A9680C4B00221868FBF7A8FBE6
:10D4A0000028E1D0AB69002BDED09847DCE7696843
:10D4B000F1E7C046C4270020F4270020D027002031
:10D4C000C1270020CC270020EC270020164938B5C2
:10D4D000021C0B1C32CA32C332CA32C312681A6031
:10D4E0000022124B01681A70002916D0104C083225
:10D4F000201C01F0C6FE201CFFF762FF00280BD1A4
:10D5000001220C4B52421A8000220B4B0B481A701E
:10D5100000210B4AFBF738FB38BD0548FFF752FFE7
:10D520000028EDD0F8E7C046D0270020C127002012
:10D53000F4270020F0270020CC270020EC27002033
:10D54000C9D3010010B50388112B36D022D9122B74
:10D5500018D0502B1DD1224CC288E3899A4218D191
:10D56000C38B022B15D11E33C35CDB070FD41D4BBD
:10D570001868FBF7CBFB00280BD0A369002B08D061
:10D58000984706E0811D0822174801F07AFEFFF750
:10D5900057FF10BD102BFCD1011C8288134B163194
:10D5A0001A801148082201F06CFE0022104B1A70FC
:10D5B0000B4BDB89002BECD1E9E701220B4B5242EC
:10D5C0001A8000220A4B1A70064B1868FBF79EFB64
:10D5D0000028DED0024B9B69002BDAD09847D8E7B1
:10D5E000D0270020EC270020C4270020F0270020AF
:10D5F000CC270020A0DF7047A2DF7047F0B5564669
:10D600004D4644465F46F0B491B00190894690463D
:10D610009A46002951D04346002B04D10020002116
:10D620000022FAF7C3FE022509AC201C00211C22AF
:10D63000FAF7BEFD237803AE2B43237001239B46EC
:10D64000B3706B4600279B8802A800210322338019
:10D650006760E76027616761A761FAF7A9FD534634
:10D660001B7802AA137053465B780021537093789D
:10D67000062293431D43E7231D405B469D4302ABB7
:10D680009D7004AD281C0E32FAF792FD02AB6B6060
:10D6900043462B81AB814B462B610B4B211C1888D9
:10D6A0002A1C1A9B04966F81FFF7A6FF11B03CBCA1
:10D6B00090469946A246AB46F0BD002000210022CC
:10D6C000FAF774FEA7E7C04644280020F0B55F468D
:10D6D0004D46564644460123F0B495B004A98B70DC
:10D6E000A14B071C0B80A14B01201A1C9946FFF788
:10D6F00081FF002800D0E4E03A88002A00D0E7E06B
:10D700003A89002A00D0F1E03A8A002A00D0F9E0F4
:10D710003A8B002A00D001E13A8C002A00D009E1BE
:10D720003A8D002A00D011E13B6B002B5FD01A78B4
:10D7300006AD2A700022022692465A780DAC6A7015
:10D740009A780021AA70DA78201CEA701A792A7176
:10D750009B681A0A6B71AA711B0C1C22EB71FAF7F9
:10D7600027FD237800213343237053466360E36031
:10D7700023616361A361013398466B4642469A7503
:10D780006A467B4B03A893820322FAF711FD3C23E0
:10D790006A46FB5C002113733B1C3C335B7853737C
:10D7A000937B062293431E430823F6B29B469E4377
:10D7B00008339E4343469E436B469E7308AE0E322B
:10D7C000301CFAF7F5FC05AB089303AB73605B46BE
:10D7D0003381534673815B46B3814B46211C1888C5
:10D7E000321C644B3561FFF707FF002869D17B6B62
:10D7F000002B0AD019681A795F4B604800933B1CD4
:10D800003C33FFF7FBFE00285BD1BB6B002B00D144
:10D81000A8E01A7806AD2A705A880DAC6A70120A10
:10D82000AA709A880021EA70120A2A71DB881C22E9
:10D830006B71201C1B0AAB71FAF7BAFC02229046EE
:10D840004246237803AE1343237000239A46636055
:10D85000E36023616361A36101339B466B465A46D3
:10D860009A756A46464B00219382301C0322FAF7D0
:10D870009FFC3C23FB5C062233703B1C3C335B78F3
:10D8800000217370B378934342461A43171CE72371
:10D890001F405B469F43B77008AF1422381CFAF74D
:10D8A00087FC05AB0893072352463B81BB814B465F
:10D8B0007A811888211C3A1C324B7E603D61FFF74B
:10D8C0009BFE15B03CBC90469946A246AB46F0BDC7
:10D8D0002D4B2E4800933B1C79683C33FFF78EFE9E
:10D8E0000028EED13A89002A00D10DE7284B2948BB
:10D8F00000933B1CF9683C33FFF780FE002800D101
:10D9000002E7DEE7244B254800933B1C79693C3352
:10D91000FFF774FE002800D1FAE6D2E7204B214839
:10D9200000933B1CF9693C33FFF768FE002800D1E7
:10D93000F2E6C6E71C4B1D4800933B1C796A3C335A
:10D94000FFF75CFE002800D1EAE6BAE7184B194859
:10D9500000933B1CF96A3C33FFF750FE002800D1CE
:10D96000E2E6AEE70020ACE70A18000044280020F9
:10D97000232A00000C2800201C2800202A2A00004E
:10D98000502A00002428002014280020292A000002
:10D9900004280020242A000034280020252A000022
:10D9A0002C280020272A00003C280020262A0000DE
:10D9B000FC270020282A0000A0DF7047A2DF704764
:10D9C000A6DF704730B50B8883B0112B20D0502BC9
:10D9D00006D0102B01D003B030BD8B880384FAE74A
:10D9E000CA8883899A42F6D1CB8B022BF3D1046883
:10D9F000002CF0D00B1C212220259A5C5B5D1202CA
:10DA000013430122134001A953400B70A047E2E7E2
:10DA100001235B420384DEE7F0B55F4656464D4680
:10DA20004446F0B40A6897B002600B792222437131
:10DA300001235B420384002383542A3283528946A4
:10DA4000013303A98B709B46A54B821D80460120A4
:10DA50000B80FFF7B1FF0126071E824607D0504614
:10DA600017B03CBC90469946A246AB46F0BD01AC0F
:10DA7000201C00210322FAF79BFB0F2223780FAD15
:10DA8000934333431340102292465246134323706C
:10DA90004B4606221B7B00216370A378281C93430E
:10DAA000043A13431A32A370FAF782FB52462B78DA
:10DAB0006F6013432B705B46EF602F61AF6104AF63
:10DAC0006C61BB7002AC874B00210322201C3B80A1
:10DAD000FAF76EFB4B465B7B062223704B469B7B23
