:020000021000EC
:1080000000800020EDC0010035C1010037C1010032
:108010000000000000000000000000000000000060
:1080200000000000000000000000000039C1010055
:1080300000000000000000003BC101003DC1010044
:108040003FC101003FC101000D8F01003FC1010090
:108050003FC1010000000000899701003FC10100FD
:108060003FC101003FC101003FC101003FC101000C
:108070003FC101003FC101003FC101003FC10100FC
:108080003FC10100B18401003FC101003FC10100B7
:10809000958501003FC10100B9C001003FC1010049
:1080A0003FC101003FC101000000000000000000CE
:1080B00000000000000000000000000000000000C0
:1080C000164B002B00D1144B9D46402292029A1A67
:1080D000924600218B460F461348144A121A00F0AC
:1080E00067F80F4B002B00D098470E4B002B00D0A9
:1080F00098470020002104000D000D48002802D000
:108100000C4800E000BF00F02DF82000290002F02C
:10811000F3FA00F011F8C0460000080000800020CB
:10812000000000000000000070200020B82800209F
:108130000000000000000000084B10B5041C002BDC
:1081400002D0002100E000BF054B1868836A002BB5
:1081500000D09847201C00F033F8C0460000000013
:1081600000D101000E4B70B500251E1C0D4CE41A09
:10817000A410A54204D0AB00F35898470135F8E7A6
:1081800004F0B0FF084B00251E1C084CE41AA41094
:10819000A54204D0AB00F35898470135F8E770BD0D
:1081A000702000207020002070200020702000200F
:1081B000031C8218934202D019700133FAE770470A
:1081C000FEE7C046F8B54D465F4656464446F0B415
:1081D000224B1978994600292AD0214B0025984630
:1081E000204B214F01269A4603E00135EDB28D4226
:1081F0001ED243461B68321C9C46EC006444207827
:108200003B6882401342F0D093433B6001F0B2FAE6
:10821000331C22785146934009680B40011C914061
:108220008B420BD04B4601351978EDB28D42E0D32D
:108230003CBC90469946A246AB46F8BD616863785F
:108240008B460029EED0591E4C424C41211A4B421C
:108250004B41101CD9B2D847E4E7C0467820002033
:10826000742000207C20002084200020F8B5124DCE
:10827000071C286800F05EFD002807D10124BC40DF
:108280000E4E3368234202D0A3433360F8BD381C3E
:1082900001F070FA0A4A136800280BD023431360D8
:1082A000336828681C43074B00221968346000F0CB
:1082B000B3FCEBE7A343F2E78020002084200020FA
:1082C0007C20002070200020F0B54F464646C0B408
:1082D000141C071C83B00E1C0720042A04D803B00A
:1082E0000CBC90469946F0BD01F0BCF800282FD098
:1082F0001A4B1B4A1F601B4B751E1E701A4BEDB2AA
:108300001C6000231360194A1360002E1AD0184B0A
:1083100001AC994603230026984600E01D1C424606
:10832000EB00FB182270A670E6709A7818786270DD
:10833000211C4A4601F00CF90028D0D16B1EDBB29B
:10834000002DEBD100210B4A0B4800F031FCC6E7B1
:1083500001F04EF80028CBD0C1E7C04674200020C1
:108360007C20002078200020702000208420002025
:108370006D820100C58101008020002070B5094D8B
:108380002B78002B0BD00024074E3268E300985C5A
:10839000012101F09BF92B780134A342F5D800208C
:1083A00070BDC0467820002074200020BFF34F8F9E
:1083B000024A034BDA60BFF34F8FFEE70400FA0571
:1083C00000ED00E010B500290DD00923002A01D1ED
:1083D000181C10BD541E2240FAD1826001608480B6
:1083E000C2600023F4E70E23F2E7C046031C10B579
:1083F0009C888068DA68121A0420944200D210BD6A
:10840000DA68002014401A681155DA680132DA601F
:10841000F5E7C04610B58468C268031C0520944285
:1084200009D098689A8802401868825C00200A7017
:108430009A6801329A6010BD80218023184A89020F
:10844000D1508022D221174B520289005A50403914
:108450005A5001222F205A600138C046C046C046FB
:10846000C046C046C046C046C046C046C046C046DC
:10847000C046F1D19A6000230B4A2F2013600138C7
:10848000C046C046C046C046C046C046C046C046BC
:10849000C046C046C046C046F1D1044A137070477A
:1084A00000E100E00010014088200020B020002002
:1084B000A021F0B5002247462C4B490080B45A5009
:1084C00004315A5004315A5004315A504C395A50E0
:1084D00004315A50264A17687A1C38D0254A00259C
:1084E0009B58254A254E14681C1B254B2402240A40
:1084F000984601E07B1C1BD03268FB009446DB19D8
:108500009B0063445A68A24212D8A41AAD181F6A8D
:108510009A69D96943461B68002B1BD0101C9847E9
:108520000028E7D000210022FFF740FF7B1CE3D1A9
:10853000144B15491A780B789A420ED0134A9B00B7
:108540009D5080218023124A49035B00D15004BC16
:108550009046F0BD081C9047CCE70132D3B2022B05
:1085600001D00B70EAE700230B70E7E70010014031
:10857000A02000200405000088200020902000207A
:108580008C2000209C2000209D200020A82000207E
:1085900000E100E0F0B55F4656464D464446F0B473
:1085A000CA4BCB4A1B68CB498DB007930978137827
:1085B000994200D156E20133DBB2022B00D11CE21A
:1085C0001370C54A9B009B58079A9C4662440693C9
:1085D0001302BE4A1B0A136001230893BF4B0025F8
:1085E0001B681E1C0B93BE4B1B78191C0A1C0393A3
:1085F000BC4B013A1B68D2B20593BB4B0291186881
:10860000B24B02921B680A93B84B1B780993331C38
:10861000FF2A3DD00599D200894691444A464946F1
:1086200012784978B44601904E468A4228D077683D
:108630005400A418B8460132B778D2B2BF1A781ED7
:108640008741E4007F4244443A402778022F00D11A
:10865000DBE0032F00D0D5E06046013000D1D1E04F
:1086600063460198D900CB189B00C3181D751B6A7F
:10867000591CF7D11F1C01907178BC468A42D6D193
:10868000029A0198013AD2B266460292FF2AC1D1FB
:10869000924A0A9913608D4A242411606946091987
:1086A000924A097805961170089A002A00D0A6E12E
:1086B0000B9B059F9B1B5A1E9341DBB20693012324
:1086C0005B429C46874B1B680493874B1E687F4B1D
:1086D0001B689B46814B1B680193844B1B7802935C
:1086E00000239946039B013BDBB20393FF2B00D190
:1086F00000E1049ADB0092469A446346013341D07C
:108700006346DC006444A4003419236AE0469C46B6
:10871000A268E1685B467648D31A1B021B0A8342B3
:1087200067D85B1863604B46A360E3600123237541
:1087300001235B4223627B1C00D1BDE0FB00DB19FF
:108740009B00F318606859683D1C884209D8A5E071
:10875000D3009B189B00F3185968814200D3A8E00E
:10876000151C1A6A401A531CF2D1EB005D194346DE
:1087700022623A1CAD00751960602B62171C6346BB
:108780000133BDD1534652461B7852789A42A9D044
:1087900052465268580090465246C0180133DBB228
:1087A00013709278C00040449A4200D189E0436837
:1087B0003A1C98460378012BE0D14346DC00444440
:1087C000A4003419237D002BD8D18268A260C1682F
:1087D000E160056925614069E0610298002899D04F
:1087E000A36000225B464248D31A1B021B0A834245
:1087F00097D95B469A1A1202120A8A4256D2891AED
:10880000616090E76746BC4638E76468E000071996
:1088100080460198BF008146BA46CA445046007D52
:1088200067468146002800D127E76146013114D010
:10883000644500D1CFE0049201989B4602E09C423F
:1088400010D01F1CF900C919890041180B6A5A1C65
:10885000F5D15B466746049A019051460D757178D3
:10886000BC460BE7049A01905B46BC4200D19DE0F8
:10887000444480466746A40044446068246A8446B1
:108880000C62611CE9D00198E10080460919890059
:10889000414448681F1C60444860DEE7091A59607B
:1088A0004246434627620193171C68E74B466360C4
:1088B00039E7091A596058E7434642460193171CA5
:1088C0005DE753464A461A7071E7C046882000208B
:1088D0009C2000209D200020A8200020A020002017
:1088E000942000209820002090200020A420002028
:1088F000FEFF7F00644B019A1A60059B9F4200D1E6
:108900006DE07B1C00D1BBE0604BFA00D7191B68FF
:10891000BF00DB195C685E485E4B5F4DC1585F4B22
:108920002E781B68CA1A1202120A03329046002ED1
:108930001FD18026D1277602BF00C651403FC651C5
:10894000C0228027564EBF025200B7503760012622
:1089500006602F200138C046C046C046C046C0460B
:10896000C046C046C046C046C046C046C046F1D11B
:108970002E704246A24200D2221CA820D218120217
:10898000130A434AC000135042485B1A12581B0294
:10899000521A1202120A03321B0A9A4223D9802168
:1089A00080233F4A89025B00D1501CE06346DB0014
:1089B000634484460C1C9B0063441B6A1F1C581CA8
:1089C00000D05AE7012732488760484609900020C6
:1089D0001F1C0A9051E7544653465146EDE7069B4B
:1089E000002B00D08DE700232E4A13700DB03CBC45
:1089F00090469946A246AB46F0BD0023E0E5234AE7
:108A00000024176801225242944600226046904694
:108A1000721C1FD0F20092199200BA185168069D7C
:108A2000A94223D86B1A0693434653604346641801
:108A3000116913758C46136A002908D007991062D2
:108A400061180902090A91606146301CD1601E1C40
:108A5000721CDFD10C4A84461360012305960693ED
:108A6000371C2FE6002306930893B7E58446064893
:108A7000491B03600123059651600693371C21E6CC
:108A8000FFF7DAFCAFE7C046A020002090200020CE
:108A90000010014004050000B020002088200020C4
:108AA00000E100E0A4200020F8B51E1C051C0F1CEE
:108AB000141C0720B30700D0F8BD002EFCD0FFF730
:108AC000BBFC2E4B069A1A602D4B1F702D4B1E605F
:108AD000002F51D0331C0022F900C8198000301833
:108AE0001A701A7524338342FAD1C9198900731890
:108AF0000321181C244A1830117061000919234AF7
:108B0000C9005860401813604118002259610121C2
:108B1000D86080209C709C729C74C5241A705A7016
:108B20001A725A721A745A74194B49421960194BC5
:108B300040031A70184BA4001A70184B8132FF3290
:108B400098501A590131FF318A433F390A431A516B
:108B5000A1221860C4201249D2008D5080001C58F8
:108B6000104A2240C024240222431A500E4B0020F7
:108B7000CA580E4B1A609FE70021B6E78C200020F0
:108B80009E2000209020002094200020982000208B
:108B9000A02000209C2000209D20002000E100E07B
:108BA00000100140FF00FFFF0405000088200020A6
:108BB000F0B5174B94461E68002E1DD0002A19D020
:108BC000002817D0134B1F78002F11D03378002BBB
:108BD00014D0341C0023243407E0261C2434251C24
:108BE000243D2D781A1C002D09D00133BB42F4DB43
:108BF0000420F0BD0720FCE70820FAE7002201234B
:108C0000337063467170B36102600020F1E7C046C3
:108C1000902000209E200020F0B5474680B43D4BB8
:108C20001C68002C47D03C4B1D780723854203D895
:108C3000181C04BC9046F0BD0429F9D9C3001B18C8
:108C40009B00E41825780823012DF1D163780024D6
:108C5000A046012B31D0314B10245B68DB05DB0DC6
:108C60002FD12F4B1D682D196B78AC785E1C341BEF
:108C7000671EBC41644226402C78B4421FD05C0081
:108C8000E3186C68DB00E4180423002CD0D0033B0D
:108C900023706060234B2448C358E160A3604346BF
:108CA0008021236180236261204A5B0049036E704A
:108CB000D1500023BCE70823BAE78846CBE704235A
:108CC000B6E7103BDDB26CB2002C13DBA408174DE5
:108CD000C034A400645903252B40DB00DC4023068C
:108CE0009B0FDBB20024012BBBD00834032BB8D080
:108CF0000834B6E70F230E4C2B40A446083B9B08D4
:108D00009B0063445C6803232B40DB00DC40E3B240
:108D10009B09E6E7902000209E20002000ED00E067
:108D200098200020040500000010014000E100E050
:108D300018ED00E030B5334B1A68002A34D0324BBE
:108D400019780723814201D8181C30BDC3001B18B5
:108D50009B009A5C0823012AF6D12C4B0F325B68EA
:108D6000DB05DB0D24D12A4B196889184B788A78EA
:108D70005C1CA21A551EAA41524214400A78A24213
:108D800014D05A00D3184A68DB00D2180423002AF2
:108D9000DAD0023B137050604C7080211D4AFE33C4
:108DA0004903D1500023CFE70823CDE70423CBE7C5
:108DB000103BD9B24AB2002A13DB92081549C032DF
:108DC0009200525803210B40DB00DA4013069B0F40
:108DD000DBB20022012BC6D00832032BC3D00832ED
:108DE000C1E70F230C4A0B409446083B9B089B00AD
:108DF00063445A6803230B40DB00DA40D3B29B097B
:108E0000E6E7C046902000209E20002000ED00E014
:108E10009820002000E100E018ED00E070B5161C7D
:108E20000C1C8D18002A05DD2078013400F060FA52
:108E3000AC42F9D1301C70BD10B50C1C201C00F0E8
:108E40004FFA0528FAD0012010BDC04630B585B0D4
:108E500000F090FC00282FD1274C2378DBB2002BA8
:108E600005D0032B01D10223237005B030BDA02211
:108E70000421224BD2009950012221481A608568B2
:108E8000C1688D4222D02178022900D09A606B46B9
:108E9000D91DFFF7BFFA002823D1C2218022174B2A
:108EA00089005A506946C8791649585002212170E4
:108EB000C12189005A50D8E70F4A1378DBB2012B41
:108EC00006D0022BD1D103231370CEE72270CCE75A
:108ED00000211170094AD3605360A023DB00D150F8
:108EE000C3E70123054A02A8D3602370023303704D
:108EF000054B1B689847B8E7C820002000200040B9
:108F0000B82000201C050000B4200020842210B5E9
:108F1000414B5200995884B000292DD18E223E4BEE
:108F200052009958002914D192223B4B5200995873
:108F300000290CD0002199509021C9005A5802A84C
:108F40005A5002230370354B42601B68984704B0A7
:108F500010BD0021324C99502278D2B2002AE3D0C1
:108F6000022A21D9032ADFD1023A2170DA605A603D
:108F7000A022D2009950D7E700219950A322D20015
:108F80009958284CC9B2201CFFF730FA00282AD182
:108F9000A268E3689B1A012BC0D1204A02AB18706B
:108FA0001268181C9047B9E71F488168C26891424F
:108FB0002DD02278022A01D001229A606B46D91D59
:108FC000FFF728FA002817D1C2218022124B89000E
:108FD0005A506946C8791549585002212170C1215B
:108FE00089005A50A0E7012202AB1A700B4A039085
:108FF0001268181C904791E70123074AD360237039
:10900000032302A80370054B1B6898478CE70122D5
:10901000DA602270F4E7C04600200040B42000204F
:10902000C8200020CC200020B82000201C05000013
:10903000F0B55F4656464D464446F0B400279A4E7A
:1090400089B03770994F3A600722002909D08A8881
:109050000D1C041C096896480193FFF7B3F9021E22
:1090600007D0101C09B03CBC90469946A246AB46BE
:10907000F0BD904BAA89A968181C9846FFF7A2F981
:10908000021EEED1A02203216378D205C133FF3343
:109090009B0099502378C133FF339B00985061782F
:1090A000854B864A99502178854A9950A168854A0E
:1090B00099506279002A48D00E21834A9950237929
:1090C000022B5FD0012B43D0A02204217A4BD20087
:1090D000995000220531FF315A507B4814315A50C3
:1090E00019580132914319500121643849421950ED
:1090F000083019509A601A603270129B1B88002B3E
:1091000005D1724A1378591C1170129A13800121EB
:10911000C222694B494292009950A121043A890028
:109120009950C02304216A4A5B00D150019BC020A2
:109130009D01FF23800014581D40664B2D042340E1
:109140001D431550116000228BE75F495A50B6E766
:10915000A0210420584AC900505000210530FF309A
:109160001150143011505848115819431150A22170
:10917000E078C9005050A0780839505093601360CF
:109180003370BAE700F06EF9002804D100F030F92E
:10919000021E00D065E700239946002304A90B8036
:1091A0004B468B7001234B70A0789A4600F064F90F
:1091B000021E00D055E7404B01229B46A223594690
:1091C0005242DB00CA50A278083BCA503E4A8B5834
:1091D00051460B4359468B50032305A90B704B4650
:1091E0004B708B70CB703C4AE07800F0B1F9051CF5
:1091F000021E00D035E7E078012100F067FAE07840
:1092000000F0B8FA3378DBB2002807D0012B0DD07C
:10921000022B00D071E7032333706EE7002B0ED0D2
:10922000032B00D069E70223337066E74A463270A9
:109230005A46D3605360A023DB00D5505DE7A023DE
:1092400004225946DB00CA50524643460A609A68D7
:10925000DB689A421AD03378022B01D052468A60DA
:1092600002ABDC1D4046211CFFF7D4F8002810D1CA
:10927000C2218022104B89005A502078174958503B
:1092800002213170C12189005A5036E753463370AC
:1092900033E70123084A06A8D36033700233037012
:1092A0003B68984729E7C046C8200020B42000202A
:1092B000CC200020B8200020002000400C05000039
:1092C00014050000240500006C0500006420002047
:1092D00000E100E0FFFF00FF4D8E01001C050000D3
:1092E00008B5011C0148FFF795F808BDCC20002007
:1092F00070B51A4D011C84B0281CFFF777F8184C84
:10930000061C2378DBB2012B02D0301C04B070BDE8
:109310002278022A01D0134A93606B46281CD91D7B
:10932000FFF778F800280ED1C22180220D4B89006A
:109330005A506946C8790C49585002212170C12100
:1093400089005A50E1E70123064A02A8D36023703E
:1093500002330370054B1B689847D6E7B8200020FE
:10936000C8200020002000401C050000B420002080
:10937000F0B5002820DBFF271B4B03229C463B1C3B
:109380008408C026C0B20240D2009340A4006444C6
:10939000B600A5599D438B013B409340191C2943BE
:1093A000A1511F2318401E3B8340C022181C0E4BA6
:1093B000520098501860F0BDFF260C4A03249446D2
:1093C000321C0F23C0B20440E400A2400340083B1B
:1093D0009B089B006344DD6995438A013240A240AB
:1093E000111C2943D961DCE700E100E000ED00E059
:1093F00038B54E25194C0820635D002B00D038BDD0
:109400004822FF21013BA3540132A1540132A3544D
:109410000132A3540132A354A3620132E3622363F5
:109420006363A363E363236463640238FE39A35474
:1094300023606360A360E36023616361A361E36110
:1094400023626362FFF794FF8021C123044A9B00DB
:109450000906D150012300206355D0E7DC2000200D
:10946000006000404E23034AD05C431E9841C0B2C6
:109470007047C046DC200020F0B50025304A041CAF
:10948000131828335D570820013500D0F0BD8878C7
:10949000002835D0136801334CD0536801334BD0CA
:1094A000936801334AD0D36804200133EED10323FB
:1094B0001019244D28300370AC460020A2279B00D1
:1094C000FF00D0506344DE591F4D08783540802698
:1094D0004A78DD51DD5976031205AC463240050469
:1094E000C026281CB60230400243F820151C40015B
:1094F000220210402A1C024360460243DA5101E076
:10950000FE221A70231CA0220320C133FF339B00CC
:10951000D20598504B78012B05D00120A0400B4B71
:10952000D0500020B2E7A3401C1CA123DB00D45084
:109530000020ABE70023BBE70123B9E70223B7E72D
:10954000DC20002000600040FFE0ECFF0C05000084
:10955000F0B5474680B45A4C9046231828331E78FD
:1095600008257F2E03D8281C04BC9046F0BDCD787A
:10957000AC46002D43D02268013200D194E004278C
:109580000026731C9D006259013240D0B31C9F42DB
:1095900033D99D006259013239D0F31C9F422CD936
:1095A0009D006259013232D0331DBB4225D29D004D
:1095B000625901322BD0731D9F421ED99D00625902
:1095C000013224D0B31D9F4217D99D006259013248
:1095D0001DD0F31D9F4210D99D006259013216D053
:1095E00001339F4209D99D00625901320FD00936DB
:1095F000B74202D9636A013307D00425B3E7226971
:10960000013256D00A270426BBE709232425424607
:10961000625162462718DEB228373E70002A02D116
:10962000E318443318708B78002B15D1031CA02548
:109630004A78C133FF3392009B00ED055A51CB7835
:10964000002B15D176B2A41944340B7822789B01F3
:1096500013432370002586E7A022D2059446E02517
:10966000022783006344ED005A59BA435A51E6E792
:10967000A22476B2134BB600F318E4000A781D5901
:109680001149000229401951F82149010840061CDE
:10969000C0211004021C301C89021D590A401043CD
:1096A0002843185100255EE700261E7043462360BC
:1096B000B9E704251D7043462E1C23612B1CAFE720
:1096C000DC20002000600040FFE0FCFFF0B5264DEC
:1096D0002C182834227853B2032B18DDEB184433AE
:1096E0001B789B09032B32D0012B39D0C025AD024A
:1096F000A023DB059C46E02380006044DB00C458C7
:109700001A492140C150C2582A43C250F0BD032A11
:10971000FCD81748A227844601269A006244FF001D
:10972000D0593043D0511A1C604600274032920075
:1097300092B217500029E9D00022A2569200525945
:10974000002AE3D0C1229E4092008650DEE7A22389
:10975000A022DB00D205D258012383401A42C5D192
:109760008025AD02C4E7C046DC200020FFFFFCFFDF
:1097700000600040A223A022DB00D205D358C340E2
:10978000181C012318407047F0B544465F46564602
:109790004D46F0B4844A83B013680024012B65D091
:1097A000824B1A68012A6DD0814B1A68012A00D1B8
:1097B00078E0804B1A68012A00D183E07E4B0026B6
:1097C0001A68012A00D18EE023070BD0E30700D5E9
:1097D00093E0A30700D5BBE0630700D59DE0230716
:1097E00000D5A9E0002C06DB03B03CBC90469946AE
:1097F000A246AB46F0BDC0239846C0239B0200247E
:109800006E4D994605E0032B00D1B0E00134062CE3
:10981000EAD0231C4833E95C4BB20133F6D0C9B21D
:109820004346081C98432B1828331B785BB29B00D7
:10983000EA58002AEAD0A027FF05BC468B0901930D
:1098400083009C44E0276346FF00DB594F463B40C2
:10985000012787401B0C3E42D5D0022BD6D1019B5D
:10986000032B00D18BE001999047CFE7C1215448E9
:10987000890041580B4293D04C4B14601A68013454
:10988000012A91D1C1224E499200895802220A42EE
:1098900000D189E700211960454B14431A68012A59
:1098A00000D086E7C12246499200895804220A4224
:1098B00000D17EE7002119603E4B14431A68012A4B
:1098C00000D07BE7C1223E499200895808220A4213
:1098D00000D173E700211960374B14431A68002642
:1098E000012A00D070E71E6080231B061C43A022C3
:1098F000A223D205DB00D65866E7A223304ADB005C
:10990000D058D1582D4DC00489032B68C00E890F43
:109910009847A30700D45FE71AE0A323284ADB0097
:10992000D058D158254DC0048903AB68C00E890FAB
:109930009847230700D455E7214A224B1F4DD058A2
:10994000D158C0048903C00E890FEB68984749E7D6
:109950001D4B1B4A194DD058D158C00489036B6860
:10996000C00E890F9847630700D438E7D5E7019BFD
:10997000032B00D077E780239B029A4602E0C023A6
:109980009B029A46E0216346C9005B589B465F46AE
:109990000E4B3B4067467B507B5857461F433B1C52
:1099A00067467B505FE7C0460061004004610040AD
:1099B000086100400C6100407C610040DC20002018
:1099C000006000401C05000014050000FFFFFCFFC4
:1099D000074B1A680823520701D4181C7047002847
:1099E00004D0044B5B7803600023F6E70E23F4E712
:1099F000F82100202C210020A02210B5064BD20512
:109A0000D15880231B041C1CA1208C430B4003490C
:109A1000C0001450535010BD040500000C05000098
:109A2000F8B54F464646041CC0B4112809D0122888
:109A30003AD013283AD014283AD00CBC9046994614
:109A4000F8BD0025012911D000291FD00229F4D129
:109A50006B005D19204B5D196E78002EEDD01F4B09
:109A60001B68002BE9D0301C9847E6E71A4B6F00C3
:109A7000984642467B19D65C43445B78002B19D14B
:109A80007F194744BA78164B5A55E6E7154B1868C4
:109A9000FFF750F9104A6B005B19D318104A9B78F6
:109AA000565D9E42C9D1D8E70125CBE70225C9E71B
:109AB0000325C7E70B4B18680B4B1B689900C918A7
:109AC0000A4B49001A1C9946FFF7A6F80028D7D17F
:109AD0004B461C70D4E7C0461C22002010220020F8
:109AE000FC21002004220020082200201522002052
:109AF000F8B5AC4B1B68DB0700D4F8BDAA4A147854
:109B0000172CFAD8A949A300CB589F46A022A84BEE
:109B1000D205D1588023DB031C1CA1208C430B40B1
:109B2000A449C00014505350A34B00221868A34B03
:109B30001B689900C918FFF76FF8DEE7A023F02132
:109B4000DB0549049B4A99500021043A9950D4E717
:109B5000A022974BD205D1588023DB031C1CA120E7
:109B60008C430B409349C00014505350924B002239
:109B70001868924B1968FFF74FF8BEE7A021A120A3
:109B8000A0230026F025C9055B04C000894C0B50BA
:109B9000874B0E51CB586D046B408025AD032B4095
:109BA00000D1EBE00D5003230E5108211370824BBE
:109BB00000221868814B1B685943FFF72DF89CE77A
:109BC000A021A120A0230026F025C9055B04C00028
:109BD000784C0B50764B0E51CB586D046B40802562
:109BE000AD032B4000D1D1E00D5004230E512821AC
:109BF000DCE7A023A122E021DB05D2004904802478
:109C0000995000216B48A40319501C50995074E7D7
:109C10006B4D2868FFF78EF811231C1B00D19EE0C6
:109C2000002800D09BE0012C0DD0C8306421604397
:109C300002F086FA614B2D681B6800224343281C02
:109C4000191CFEF7E9FFA0238021DB05090479E751
:109C5000A023B021DB054904A122D20099500021A4
:109C6000544A995049E7A021A120A0230027F026BB
:109C7000C9055B04C0004F4D0B504D4B4F51CB58A5
:109C8000760473408026B60333406DD00E504F519A
:109C9000022C00D17FE02821147088E7A023A122A4
:109CA000C021DB05D2004904C0249950002141485D
:109CB000E40319501C5099501FE7A023A122D02182
:109CC000DB05D20049048024995000213948E4037F
:109CD00019501C50995010E7A023F021DB054904CE
:109CE000BAE7A023A122DB05D200A02186E7A021AC
:109CF000A120A0230026F025C9055B04C0002D4C3F
:109D00000B502B4B0E51CB586D046B408025AD038F
:109D10002B4030D00D500E5105231370264B0022DE
:109D20001868264B19684900FEF776FFE5E6A02182
:109D3000A120A0230026F025C9055B04C0001D4C0E
:109D40000B501B4B0E51CB586D046B408025AD035F
:109D50002B4018D00D500E510623137006E7A02398
:109D60008021DB05090477E74E510B50022C15D0FA
:109D7000042114701BE70D510B50CDE70D510B5012
:109D80000221032312E70D510B50E5E70D510B5053
:109D9000042104230AE71221147008E70221147039
:109DA00005E7C046002200201422002004D1010053
:109DB000040500000C0500001822002008220020E5
:109DC0000C22002008B50378112B06D0122B12D0DC
:109DD000132B12D0142B12D008BD00235A00D31815
:109DE000084AD31858780028F6D0074B1B68002B78
:109DF000F2D09847F0E70123F0E70223EEE7113BAA
:109E0000ECE7C0461C22002010220020002303287B
:109E10000DD8A223A022DB00D205D258054B80002A
:109E2000C0580123834093435A1E9341DBB2002064
:109E30000B707047C4D1010070B5CC4B041C1B687B
:109E40000020DB0700D470BD172CFCD8C84AA30043
:109E5000D3589F46A022C74BD205D1588023DB039D
:109E60001C1CA1208C430B40C349C000145053500C
:109E7000C24B00221868C24B1B689900C918FEF734
:109E8000CBFEE0E7A022BB4BD205D1588023DB03F9
:109E90001C1CA1208C430B40B749C00014505350E8
:109EA000B64B00221868B64B1968FEF7B5FECAE734
:109EB000B44D2868FEF73EFF11231C1B00D130E192
:109EC000002800D02DE1012C0DD0C8306421604362
:109ED00002F036F9AA4B2D681B6800224343281C68
:109EE000191CFEF799FEA0238021A34ADB05090473
:109EF00099500021043A9950A5E7A023F021A1220E
:109F0000DB054904D200995000219B4A002099505A
:109F100012229D4B1A7096E7A023A122E021DB05B7
:109F2000D20049048024995000219348A403195079
:109F30001C5099501322944B00201A7083E7A023E1
:109F4000F0218D4ADB05490499500021043A9950CB
:109F50008D4B00201C7076E7A022B021A123D205F2
:109F60004904DB00D1500023834900205350864A26
:109F7000137068E7A022A121A0230026F025D205B6
:109F80005B04C9007C4853507A4B1650D3586D047B
:109F90006B408025AD032B4000D1D5E055501650C5
:109FA000022C00D1DDE02821774B1C70734B00227E
:109FB0001868734B1B685943FEF72EFE43E7A02336
:109FC000F0216D4ADB05490499500021043A99506B
:109FD000002038E7A023A122D021DB05D2004904CC
:109FE0008024995000216448E40319501C50995072
:109FF0001422654B00201A7025E7A022A121A0237E
:10A000000025F024D2055B04C9005B485350594B2E
:10A010001550D358640463408024A403234000D126
:10A020008AE0545015500821032217E0A022A121F4
:10A03000A0230025F024D2055B04C9004E485350EC
:10A040004C4B1550D358640463408024A403234030
:10A0500000D17FE054502821155004224A4B1A7039
:10A06000A4E7A023A122A021DB05D200490480247B
:10A07000995000214048A40319501C5099500722C0
:10A08000414B00201A70DEE6A023A122C021DB058F
:10A09000D2004904C024995000213748E4031950E4
:10A0A0001C5099501522384B00201A70CBE6A02284
:10A0B000A121A0230025F024D2055B04C9002E486D
:10A0C00053502C4B1550D358640463408024A40390
:10A0D000234036D05450155005222B4B1A70274B75
:10A0E00000221868264B19684900FEF795FDAAE67C
:10A0F000A022A121A0230025F024D2055B04C900E1
:10A100001D4853501B4B1550D358640463408024A2
:10A11000A403234022D05450155006221A4B1A7023
:10A12000BEE6A0238021A122DB050904D2009950BC
:10A130000021114A995086E61450535002210322FF
:10A140008CE714505350C7E715505350022C0AD0D7
:10A15000042129E71450535004217EE71450535032
:10A16000DBE7122120E702211EE7C0460022002083
:10A1700064D10100040500000C0500001822002035
:10A18000082200200C22002014220020234B10B5AE
:10A190001960234B041C1860224B1A60830712D5E8
:10A1A0000D22214B21481A700132DA7001329A7166
:10A1B00001325A724A080421FEF786F8002820D09E
:10A1C000E30703D41CE0C3070ED50020A023F02230
:10A1D000A1210024DB055204C9005A5014495C50E7
:10A1E0000C315A5000280BD112480021124AFEF7B8
:10A1F000DFFC002804D111480121114AFEF7D8FCE8
:10A2000010BDFEF7BBF80028DAD10E4800210E4A37
:10A21000FEF7CEFCE307E5D5D8E7C04608220020CC
:10A2200000220020102200201C220020D4D1010096
:10A230000C05000018220020F19A01000C220020D9
:10A24000F999010004220020C59D0100031C07208C
:10A25000032B00D97047012A13D0012917D00029F8
:10A2600008D0022919D15800C3180D48C3185A70D4
:10A270000020EFE75800C3180948C3189A7000205F
:10A28000E8E700220129E8D11A1C0D32D2B25800A9
:10A290000349C3185A540020DCE70720DAE7C04618
:10A2A0001C220020E0231D4ADB00D2581C4B1A4020
:10A2B0000023C10701D5C0239B021343E0221749A5
:10A2C000D2008B50174B9A58154B1A400023810728
:10A2D00001D5C0239B021343E0221249D2008B50C8
:10A2E000114B9A580E4B1A400023410701D5C02349
:10A2F0009B021343E0220C49D2008B500B4B9A581F
:10A30000074B1A400023010701D5C0239B021343CA
:10A31000E0220649D20000208B50704744000050D4
:10A32000FFFFFCFF480000504C0000505000005060
:10A3300008B50320FFF7B6FF031C0020002B02D056
:10A34000062B00D0181C08BD10B50388102B08D0B0
:10A35000112B05D1294A1368013B1360002B07D04C
:10A3600010BD264C2368002B11D001332360F7E782
:10A37000002002210122FFF769FF00282BD00728C7
:10A3800029D01F4B1B68002BEAD09847E8E7002034
:10A3900000210122FFF75AFF002808D0072806D025
:10A3A000174B1B68002B00D098472368DDE701207E
:10A3B00002210722FFF74AFF002801D00728EFD12A
:10A3C000002002210422FFF741FF0028EDD00728DA
:10A3D000E6D12368C9E7012002210722FFF736FFF3
:10A3E000002801D00728CCD1002000210A22FFF745
:10A3F0002DFF0028B4D00728C3D1B1E72C220020BC
:10A400002822002010B5244B82B00C1E186018D0F2
:10A410006B460020991DFFF7F9FC002801D002B01F
:10A4200010BD6B460130D91DFFF7F0FC0028F6D1B6
:10A430006B46DB79002B29D16B469B79002B28D109
:10A440002370164B1B68002B01D00020E7E700208B
:10A4500002210122FFF7FAFE002801D00728DED1F1
:10A46000012002210722FFF7F1FE002801D0072872
:10A47000D5D1002000210A22FFF7E8FE0028E4D011
:10A48000C31F5A1E93415B421840C8E70223237042
:10A49000D7E70B232370D4E7282200202C220020AA
:10A4A00076DF70477ADF70477CDF70477FDF704769
:10A4B000A9DF704760DF70473CDF704748DF7047B7
:10A4C00008B500210022FDF771FF08BD70B50D1C15
:10A4D000161C0024002A07D0285DFEF709FF00287B
:10A4E000FAD10134B442F7D30A20FEF701FF002865
:10A4F000FAD170BD08B50378002B00D008BD064B1B
:10A500003B211888FFF7CCFF0028F7D0002100225C
:10A51000FDF74CFFF2E7C0466C20002010B5041C8C
:10A5200001F00CFB2448211C01F068FB2388112B4F
:10A530002DD021D9132B11D0522B08D11F4B002124
:10A54000188800220023FFF7B3FF00280FD1201C3A
:10A5500001F044F8201CFFF7F7FE10BD174B8521D2
:10A56000188800220023FFF7A1FF0028EFD0002168
:10A570000022FDF71BFFEAE7102BE8D10720FFF7C9
:10A580005BFC002812D1A2880C4B1A80DFE7002068
:10A59000FFF752FC002804D10122084B52421A80D6
:10A5A000D5E700210022FDF701FFF5E70021002299
:10A5B000FDF7FCFEE7E7C046202700206C200020C6
:10A5C00008B5072820D00A2810D0042800D008BDDC
:10A5D000144B13211888FFF763FF0823021C9A43CA
:10A5E000F5D000210022FDF7E1FEF0E70020FFF7A3
:10A5F00023FC002810D1FFF79BFE002807D1FFF7AE
:10A600005BFF0028E3D0ECE701F040F8E5E700212C
:10A610000022FDF7CBFEF2E700210022FDF7C6FE87
:10A62000E9E7C0466C20002038B50378012B03D041
:10A63000002B07D0022B04D1406800210022FDF737
:10A64000B5FE38BD104C114D20782818FEF748FE95
:10A6500022780132D2B2AB18013B1B7822700A2B50
:10A6600001D0132AEDD992B20948291C01F0FAFB56
:10A670000823021C9A4303D000210022FDF796FE16
:10A6800000232370DDE7C046302200200C27002085
:10A690002027002008B5002807D0032804D101385E
:10A6A000FFF7CAFB00280DD108BD0020FFF7C4FB4F
:10A6B00000280CD1FFF73CFE00280DD1FFF7FCFE6F
:10A6C0000028F1D000210022FDF770FEECE7002108
:10A6D0000022FDF76BFEEDE700210022FDF766FE8C
:10A6E000ECE7C04608B5031C0A1C0248191CFDF71C
:10A6F0005DFE08BDEFBEADDEF0B5474680B4A6B046
:10A7000002AB98464246854B03CB03C21B88002010
:10A7100013800023052100930522814BFEF7C4F925
:10A72000002803D000210022FDF740FE0EAD2A1CB8
:10A730007C4B05AE13CB13C2002333807A4B7B4A8C
:10A740001A9380231AAC5B006360A260E360281C4C
:10A750000096211C764AFD3BFEF76AFC002803D0D8
:10A7600000210022FDF722FE03207249724AFFF702
:10A770000DFD002803D000210022FDF717FE002068
:10A78000211CFFF73FFE002803D000210022FDF727
:10A790000DFE082069494822002301F05DFC0028D5
:10A7A00003D000210022FDF701FE0822201C002119
:10A7B000FDF7FEFC01222378201C93432370FFF752
:10A7C00079FE002803D000210022FDF7EFFD5C4850
:10A7D00001F068FC002803D000210022FDF7E6FD0F
:10A7E0000F2101222B78574F8B43134310220B402C
:10A7F0001343381C2B7001F059FD391C82B2281C00
:10A80000FFF752FE002803D000210022FDF7CEFD05
:10A81000201C00210822FDF7CBFC102323802C33C1
:10A8200063800023A3809133FF33201CE380FFF774
:10A8300039FE002803D000210022FDF7B7FD0021DA
:10A84000201C0422FDF7B4FC3F4B4048211C1A9306
:10A8500001F004FA002803D000210022FDF7A6FD34
:10A8600000213022281CFDF7A3FC022300272B70B7
:10A87000002103333022201CEB70AF70FDF798FCF1
:10A8800001232382324BF76063610123337340233A
:10A890003361743373617760B760B761F7613762B2
:10A8A000281C0097211C321C2A4B059700F092FCB3
:10A8B000002803D000210022FDF778FD1C22201C77
:10A8C0000021FDF775FCA02292026260F0220023B5
:10A8D0001203A26003221A93E38123741E4B201CEF
:10A8E00063611E4B2273A36101F0ECF8002803D0D2
:10A8F00000210022FDF75AFD1948414601F0BCFC39
:10A90000032000F00BFD002803D1FFF7D7FD00283E
:10A91000FBD000210022FDF749FDF6E710D201002F
:10A9200034220020F4D10100C4250020C4240020DA
:10A9300029A60100CD0C0000C1A50100C4260020FD
:10A940001DA5010000D20100CDA401002027002098
:10A950006820002095A60100F5A40100C1A4010013
:10A960000CD2010072DF704779DF70477DDF7047DE
:10A9700065DF7047F0B55F46564644464D46F0B435
:10A9800085B09A460E9B061C98461B788B46019311
:10A990000388171C002B40D00023994602AB0024EB
:10A9A000DD1C03E033880134A3422CDD7368A10071
:10A9B0009C460422614403A801F054FC03A8291C0E
:10A9C0000022FFF7D5FF002828D12B78BB42E9D120
:10A9D0004B46002B29D043461A78D3191F2B34DC61
:10A9E000524403A8291CFFF7C3FF002816D1434691
:10A9F0001A782B780134D3184246137001239946F4
:10AA00003388A342D2DC4B46002B06D04346514646
:10AA10001B78019A013B9B1A8B54002005B03CBC6B
:10AA200090469946A246AB46F0BD43461B78DA19DC
:10AA30001D2A0ADC41469A1C0A70524659460133C7
:10AA4000DBB2D15443461A78CAE70C20E6E7C04689
:10AA5000F0B556464D4644465F460023F0B497B0E5
:10AA600005AD02AA041C0E1C2B705373002800D1E4
:10AA70001EE1C3785B0700D4B2E00378002B00D05E
:10AA8000DAE18378002B00D00BE20023E278002A81
:10AA900000D0ADE06268002A0FD011781C2B00DDD9
:10AAA000FEE002220A2006AFFA545A1CD2B2B85471
:10AAB000DA1C0233DBB22A70F9542389002B00D050
:10AAC0000BE2238A002B00D0A6E2238B002B00D0C0
:10AAD000BBE2236A002B4BD02A780C20911D8A46BA
:10AAE0001F2900D97DE0198805388B46052978D9BA
:10AAF0006C4F6946BC46DC4467468F818F89BC46F3
:10AB0000694FB846BC456CD95F88BC46052F68D9EB
:10AB1000644F67448F81BFB2474562D9634FBB45DD
:10AB200003D0BC4501D0E3455BD8052006AFB8543F
:10AB3000901CC1B2297089466946501C0873C0B286
:10AB400084461220804660464146395419880432B2
:10AB50008C4649467818614601706146090A417081
:10AB60005B88D2B2BF183B701B0A7B7053462B70B8
:10AB7000636A9846002B2BD01B792A789C460233B7
:10AB8000911CDBB2CB180C201F2B2ADC634606AFCE
:10AB90000333BB54531CDBB2F330F8544346C9B201
:10ABA00029701B8879180B701B0A4B7043460432BE
:10ABB000D0B228709A88002A0AD0996800290FD04C
:10ABC000381801F04FFB43469A882B78D3182B7026
:10ABD0002C23E15C06AF002900D0B8E1B94669E05A
:10ABE000072017B03CBC90469946A246AB46F0BD44
:10ABF000022106AFF954991CC9B288460121581C9C
:10AC0000C0B2395441460333DBB22B707A5441E76A
:10AC100073780C201D2BE4DC02AB9C460E241D2314
:10AC2000644426306044211C2380FFF79FFE0028E7
:10AC3000D7D13378022B00D1C1E27378002B03D037
:10AC40009BB208221D2B01D9082223880EA9884611
:10AC50004046427002AA527BDBB20232591C9B185A
:10AC6000DBB202AA01705373B278002A00D02DE241
:10AC7000F478002C0ED00222414647460120CA54E7
:10AC8000591C9A1CC9B203337854D2B2DBB202A960
:10AC90004B73BC547268002A31D011781C2B20DD14
:10ACA0000C209EE77FF3FFFF7DF30000FFFF000015
:10ACB00000239946002E00D10DE2F378002B00D03E
:10ACC0008EE702AA53733378002BA1D1B378002BFF
:10ACD00000D0D9E172680023002A10D011780EAAA2
:10ACE0009046022240464446C2540A205A1CD2B220
:10ACF000A054DA1C023302A8DBB24273E154338958
:10AD0000002B00D002E1338A002B00D063E1338BAB
:10AD1000002B00D0E3E1336A002B4BD002AA527B18
:10AD20000C20911D1F2900D95BE7188883465C46DB
:10AD30000720052C00D854E7D04F5F44BFB2B84677
:10AD4000CF4FBC46B84500D84BE75F88BA46052FC1
:10AD500000D846E7C94F6C46B846D0444746A7815D
:10AD6000A789674500D83CE7C64FBB4504D0BA4524
:10AD700002D0D34500D934E70EA8804605204446CA
:10AD8000A054901CC0B202AC6073844612274046A7
:10AD9000541CE4B2075560461C8840440470240AE1
:10ADA000447004325B88D2B2424413701B0A537061
:10ADB00002AB5973746A002C2FD002AB27795A7BEF
:10ADC000BB1C911CDBB2CB180C201F2B00DD08E74D
:10ADD0000EAB984603379F544746C9B202AB59732E
:10ADE000531CDBB2F330F854238841440B70043217
:10ADF0001B0A4B70D0B202AB5873A288002A0CD049
:10AE0000A168002900D1EBE6404401F02BFA02AB27
:10AE1000A2885B7BD31802AA53732C23F15C002910
:10AE200000D07DE10EAA904602AB5B7B42462978BA
:10AE30004846FFF797FDD4E663780C201D2B00DD14
:10AE4000CFE60EAB98461D234246138002AB9C46CC
:10AE5000063060444146FFF789FD002800D0C0E677
:10AE60002378022B00D1A3E16378002B03D09BB29F
:10AE700008221D2B02D9434608221B8806AF7A7090
:10AE80002A78DBB20232591C9B18DBB239702B7066
:10AE9000A278002A00D1F9E50C201B2B00D9A0E6EE
:10AEA00001E00EAB98464046FFF75EFD002800D05B
:10AEB00097E6032219212B7806AFFA545A1CD2B216
:10AEC000B954424611889A1CD2B2BF180433397063
:10AED000DBB2090A79702B70D8E50823984606AFD3
:10AEE000A04400954046022102223B1CFFF742FD90
:10AEF000002800D075E600954046062110223B1C34
:10AF0000FFF738FD002800D06BE6DAE50EAB02AAA9
:10AF100098469446341C0D23083463440093201C47
:10AF2000022102224346FFF725FD002800D058E603
:10AF300002AA94460D2363440093201C062110228C
:10AF40004346FFF717FD002800D04AE6DBE6A36A78
:10AF5000002B00D144E6002291461632924616326A
:10AF600028788C46934600E0A36A4A4698465200E9
:10AF70004A4492009044434651469B88421C033306
:10AF8000D2B23B54B9544246831CDBB22B701288B8
:10AF9000FB181A70120A5A7043460430C0B2287067
:10AFA0009A88002A0FD09968002900D118E638182D
:10AFB00001F058F9434698882B78C0185B46E35C4B
:10AFC000C0B29C4628704B460133DBB299466345BC
:10AFD000CAD3B9466EE60EAB02AA98469446341C14
:10AFE0000D23103463440093201C032102224346A6
:10AFF000FFF7C0FC002800D0F3E502AA94460D2319
:10B0000063440093201C072110224346FFF7B2FC43
:10B01000002800D0E5E57AE61023984606AFA04464
:10B0200000954046032102223B1CFFF7A3FC0028A9
:10B0300000D0D6E500954046072110223B1CFFF7C3
:10B0400099FC002800D0CCE53FE51823984606AFD0
:10B05000A04400954046142102223B1CFFF78AFCC5
:10B06000002800D0BDE500954046152110223B1C6C
:10B07000FFF780FC002800D0B3E52AE57FF3FFFF4F
:10B080007DF30000FFFF000002AB0E249C466444E9
:10B09000201CFFF769FC002800D0A2E50EAA90460C
:10B0A0000322414602AB5B7B4046CA5419215A1C1D
:10B0B000D2B281549A1C2188D2B242441170043316
:10B0C000090A5170DBB202AA5373D1E50C201B2B85
:10B0D00000D986E5DCE702AB5B7B0022A7E60EAB7E
:10B0E00002AA98469446341C0D23183463440093F6
:10B0F000201C142102224346FFF73CFC002800D00C
:10B100006FE502AA94460D2363440093201C152189
:10B1100010224346FFF72EFC002800D061E5FAE537
:10B12000B46A002C00D15BE503910EA98846162174
:10B1300002AB8A4616315B7B221C00278B4600E05F
:10B14000B26A40467C00E419A4001419A288414662
:10B150000332C2549A1CD2B202A842739446524699
:10B16000581CC0B20A54624620884244107004330E
:10B17000000A5070DBB202AA5373A288002A11D0D1
:10B18000A168002900D12BE54344181C01F06AF89E
:10B1900002ABA0885B7B02AAC318DBB253735A468A
:10B1A000B25C03920137039AFFB29742C8D33DE6DF
:10B1B00043461B8809221D2B00D85FE654E62388EE
:10B1C00009221D2B00D841E537E5C04673DF7047E3
:10B1D00074DF7047F8B5051C0E20002D00D17DE00E
:10B1E000002A00D17AE000200F1C3D4908703D493B
:10B1F0000B6006993C4B19603C490B1C13CA13C3E6
:10B2000013CA13C313CA13C3002107223848FCF71B
:10B21000CFFF384B384A394E1A60394A00219A60BC
:10B22000301C3022FCF7C4FF2B782A1C3370AB781B
:10B230001032B370EB78F3706B787370331C10338B
:10B2400003CA03C3331C103A083303CA03C3331CB5
:10B250000832183303CA03C36B6A002B11D0294B81
:10B26000294C7362696A9C600A881A808888988071
:10B27000002806D000238A68D25CE254013383425E
:10B28000F9D1AB6A002B14D0204B2148B362A96AD4
:10B2900098608C889C800A881A800023002C05D036
:10B2A0008A68D25CC2540133A342F9D12C23EA5CF0
:10B2B000F2542B6A002B06D0164B33622A6A51884F
:10B2C000598012881A806B68002B03D0124B736070
:10B2D0006B687360301C391CFFF7BAFBF8BDC046C1
:10B2E00044280020782700209C270020A827002041
:10B2F000A0270020F0270020CC2700203C2700209A
:10B30000242800206C2700207C2700204C280020C7
:10B310000028002048280020EC270020F0B5002459
:10B32000A34D89B0287001A80194FEF751FB0828AD
:10B3300009D0002805D1019B002B05D001229D4B8F
:10B340001A7009B0F0BD01949B4F0021381C0722F0
:10B35000FCF72EFF994E7378002B58D02B78012BD9
:10B3600005D0B278002A00D1FCE0022B0FD1944A1C
:10B370001268002A00D106E10121924B08201970C1
:10B3800090472B78012B00D18DE0022B49D0327BE6
:10B39000002A01D1032B65D0327E002A01D1042B73
:10B3A00065D0874A1268002A03D0033B012B00D8DE
:10B3B00099E00022844B1A7002AC1822201C002154
:10B3C000FCF7F6FE00232A78237063602372E360A3
:10B3D000022A00D1BCE04FD9032A00D1A5E0042AFB
:10B3E00000D09FE0B38B2382338C6382774B1A7932
:10B3F000002A00D1BCE03278002A04D0744A1278C6
:10B40000002A00D1C2E00422724B1A703CE0B378EB
:10B41000002BB6D02B78022BA9D0012BB7D1022359
:10B420002B70B378002B17D07B78002B00D0A8E0CE
:10B43000BB78002B00D0A4E0FB78002B00D0A0E06C
:10B440003B79002B00D09CE07B79002B00D098E06A
:10B45000BB79002B00D094E003232B70337B002BAF
:10B4600000D083E004232B70337E002B36D10023E1
:10B47000584A2B7013709CE7012A53D163822382B0
:10B48000544B676022701A70201CFFF79FFE002843
:10B4900000D056E74A4B1B68002B02D04D4A10786B
:10B4A000984700204DE77278002AB8D07A78002AB1
:10B4B00000D076E7BA78002A00D072E7FA78002A3E
:10B4C00000D06EE73A79002A00D06AE77A79002A3C
:10B4D00000D066E7BA79002AA1D062E7384B1A6833
:10B4E000002A00D165E73378002B00D161E7384BA3
:10B4F0001B78002B00D05CE70121334B072019702B
:10B50000904759E7E3600423334802320021227256
:10B51000C370FFF79DFA002800D012E705222D4BDB
:10B520001A702A78002AB5D0AEE7B38A6382338ACC
:10B530002382264B1A79002A1FD03278002A03D0A2
:10B54000234A1278002ADDD00322224B1A709BE78F
:10B5500001232370338967606382736823821D4BE4
:10B560001A7091E7022B00D011E775E7032318E763
:10B570001A7B002A00D03EE745E71A7B002ADCD17F
:10B58000E2E702230DE70F490A70FBE6E3600423BC
:10B590001148023200212272C370FFF759FA0028C5
:10B5A00000D0CEE606220B4B1A702A78BAE7C046C6
:10B5B0004428002045280020A0270020A82700209C
:10B5C000782700201F28002020280020F0270020B6
:10B5D0009B270020582800203C27002008B503881E
:10B5E000112B1DD0192B06D0102B00D008BD82883E
:10B5F000204B1A80FAE78279002AF7D11E4B1B787C
:10B60000022B30D027D9032B1DD0042BEED11B4B9E
:10B610001A701B4B1B68002BE8D000209847E5E709
:10B620000022184B1A70134B82881B889A42DDD176
:10B630000120FFF773FE0028D8D0134B1B68002BA6
:10B64000D4D09847D2E70D4A04201370FFF766FE66
:10B650000028F2D1CAE7012BC8D10220FFF75EFE15
:10B660000028EAD1C2E70320FFF758FE0028E4D102
:10B67000BCE7C0466E200020442800205828002047
:10B68000782700209B2700209C270020F0B5474604
:10B6900080B4BB4C88B02378002B00D1A1E0B94D19
:10B6A0002B78002B00D09CE0B74F3B78002B00D0CC
:10B6B0009CE00023012601A82E7098460193FEF716
:10B6C00087F9082808D0002800D095E0019B002BBE
:10B6D00004D0AE4B1E7085E043460193AC4B002175
:10B6E000181C07229846FCF763FD6378002B00D0F6
:10B6F00088E0A378002B00D197E03B78022B00D1A3
:10B7000089E0012B00D096E002233B70A378002B48
:10B710001DD043465B78002B00D01DE143469B784B
:10B72000002B00D018E14346DB78002B00D013E15A
:10B7300043461B79002B00D00EE143465B79002B7A
:10B7400000D009E143469B79002B00D004E103239C
:10B750003B70237B002B00D172E003238D4A1268DB
:10B76000002A03D0033B012B00D873E000228A4B50
:10B770001A7002AE1822301C0021FCF719FD0023BC
:10B780003A78337073603372F360022A00D1BCE000
:10B7900000D879E0032A00D1C2E0042A00D0B0E04A
:10B7A000A38B3382238C73827C4B1A79002A02D1BB
:10B7B0001A7B002A06D02278002A03D02A78002A91
:10B7C00000D1CBE00422764B1A70301CFFF7FEFC50
:10B7D000002811D16F4B1B68002B02D0704A1078E3
:10B7E0009847002008B004BC9046F0BDFFF7F0FC7D
:10B7F000002800D15DE7F5E76A4B1B68002BF0D00D
:10B800009847EEE73B78012B05D0A278002A00D1BB
:10B810009BE0022B0FD15F4A1268002A00D198E00A
:10B820000121614B0820197090473B78012B35D0DE
:10B83000022B00D16AE7227B002A19D1032B17D1F2
:10B8400004233B70237E002B19D0524B1A68002A28
:10B8500000D18BE72378002B00D187E72B78002BD2
:10B8600000D083E701214C4B07201970904780E7F7
:10B87000227E002A00D071E7042B00D06EE700235F
:10B88000474A3B70137071E7012A3AD141467382EF
:10B890003382434B716032701A7096E76278002AE7
:10B8A00000D131E742465278002A00D056E742469E
:10B8B0009278002A00D051E74246D278002A00D080
:10B8C0004CE742461279002A00D047E742465279B7
:10B8D000002A00D042E742469279002A00D113E7BD
:10B8E0003CE7F36004233148023200213272C37016
:10B8F000FFF7AEF8002800D07EE70522284B1A702B
:10B900003A78002A00D165E75FE743467360012378
:10B9100033702389738263683382214B1A7054E732
:10B92000A38A7382238A33821C4B1A79002A02D19C
:10B930001A7B002A05D02278002A02D02A78002A11
:10B94000CFD00322164B1A703FE7022B00D072E7CC
:10B95000FDE615490A7069E70223FFE6F360042358
:10B960001248023200213272C370FFF771F80028CA
:10B9700000D041E706220A4B1A703A78C1E7C04668
:10B98000A82700209B2700204428002045280020CD
:10B99000A02700207827002020280020F027002062
:10B9A000582800209C2700201F2800203C2700202A
:10B9B00075DF704776DF70477ADF70477BDF70474F
:10B9C00010B5184B82B01888174B984214D0174AFC
:10B9D000174C13780133DBB21370217B99420DD2DF
:10B9E00000231370237C002B12D16369002B03D03A
:10B9F000002201A80270984702B010BD0D49FFF760
:10BA0000D7FF0028F8D0A369002BF5D09847F3E7BB
:10BA10003B21FFF7CFFF0028E7D0A369002BE4D03C
:10BA20009847E2E788280020FFFF000064280020F4
:10BA3000682800208C28002030B51C4B1C4A5B88ED
:10BA4000118883B099420FD852889A420CD3194B6F
:10BA50005B69002B03D0012201A802709847164CA5
:10BA60000023237003B030BD134C2378002B08D083
:10BA7000104B5B69002BF3D0002201A8027098479D
:10BA8000EEE70E4B0B4D1B78002B0CD0A9680C4B2E
:10BA900000221868FDF7C0F80028E1D0AB69002B40
:10BAA000DED09847DCE76968F1E7C0465C280020F3
:10BAB0008C280020682800205928002064280020B5
:10BAC00084280020164938B5021C0B1C32CA32C328
:10BAD00032CA32C312681A600022124B01681A700F
:10BAE000002916D0104C0832201C00F0BBFB201C93
:10BAF000FFF762FF00280BD101220C4B52421A8043
:10BB000000220B4B0B481A7000210B4AFDF750F82E
:10BB100038BD0548FFF752FF0028EDD0F8E7C046D2
:10BB200068280020592800208C2800208828002020
:10BB30006428002084280020C1B9010010B50388C2
:10BB4000112B36D022D9122B18D0502B1DD1224CBC
:10BB5000C288E3899A4218D1C38B022B15D11E33B8
:10BB6000C35CDB070FD41D4B1868FDF7E3F8002812
:10BB70000BD0A369002B08D0984706E0811D08224E
:10BB8000174800F06FFBFFF757FF10BD102BFCD1DB
:10BB9000011C8288134B16311A801148082200F0CC
:10BBA00061FB0022104B1A700B4BDB89002BECD190
:10BBB000E9E701220B4B52421A8000220A4B1A700D
:10BBC000064B1868FDF7B6F80028DED0024B9B69DB
:10BBD000002BDAD09847D8E7682800208428002076
:10BBE0005C2800208828002064280020A0DF7047FF
:10BBF000A2DF7047A6DF704763DF704710B50028EB
:10BC000008D0002906D00B88112B16D0502B02D05B
:10BC1000102B0FD010BDCB88028A9A4211D0828897
:10BC20009A42F7D18469002CF4D00B1C2031DA8BB6
:10BC3000A047EFE78B888382ECE701235B42838296
:10BC4000E8E7CA8B022AEAD12023CA5C1F3B1340D3
:10BC500002D001238375DDE78375DBE7F0B54D4640
:10BC60005F46444656461023F0B495B0041C0D1CA4
:10BC700004A87B49102299460E2700F0F3FA002C05
:10BC80000ED0002D0CD001235B42A3822B6804A8A8
:10BC9000A3610023211CA375FFF7AEFF071E07D089
:10BCA000381C15B03CBC90469946A246AB46F0BD48
:10BCB000237802A98B700123A21C01200B80FFF7BF
:10BCC00095FF071EECD1002103226846FCF770FAAD
:10BCD0006B460F221B7892469343012293465A46A5
:10BCE00013435246134010229046424613436A467D
:10BCF00013705378524693435A46134352461340A7
:10BD0000424613436A465370937806229343043A9B
:10BD100013436A460DAD937000211C22281CFCF7CA
:10BD200047FA42462B7801AE13432B706B466A46A6
:10BD30006B612378002193730323301C93810322CA
:10BD40006F60EF602F61AF61FCF732FA52463378D3
:10BD5000002193435A46134352461340424613432D
:10BD600052463370737808A893435A461343524699
:10BD700013404246134306227370B3789343043A48
:10BD80001343DBB2063293434A4693435A46134366
:10BD90001422B370FCF70CFA03AB089301226B4634
:10BDA0001A8514225F859A85231C6088291C08AA9D
:10BDB0000C330996FFF71CFF071E00D070E7002127
:10BDC0001C22281CFCF7F4F908232A7800211343CD
:10BDD000042213436A462B702378301C937302238A
:10BDE000938103226F60EF602F616F61AF61FCF799
:10BDF000DFF952463378002193435A4613435246A3
:10BE000013404246134352463370737808A8934355
:10BE10005A46134352461340424613430622737058
:10BE2000B3789343043A1343DBB2063293434A4652
:10BE300093435A4613431422B370FCF7B9F903AB8A
:10BE4000089301226B461A8514225F859A856088C3
:10BE5000231D291C08AA0996FFF7CAFE071C1FE725
:10BE60001CD2010070B586B06B46041C0D1CDA8034
:10BE7000002809D0828A114B08209A4202D0A37D63
:10BE8000002B03D106B070BD0E20FBE76B46DB88AC
:10BE90000138142BF6D802AE301C00211022FCF71A
:10BEA00087F9A389A08A33806B460633B3600123E8
:10BEB000311CF560B370FFF79DFEE3E7FFFF000064
:10BEC0001F4B1B78012B00D070471E4B1B681B07B4
:10BED000FAD1F0221C4B1B68134018D11B4B1B6876
:10BEE00013421AD0174B1B681B07EDD1F022164BDB
:10BEF0001B681340402BE7D1144B1B681342E3D15E
:10BF0000C12380220121DB00D205D150DCE7102BB8
:10BF10000FD10E4B1B681342E8D10D4A0D4B1A602E
:10BF200080220D4B12021A60054B1B78012BD9D0D1
:10BF3000CAE7302BDAD1054B1B681342D6D1ECE7A8
:10BF4000E00F00F0E40F00F0E80F00F0EC0F00F05D
:10BF5000DFFF07C004050040186C00402EDF70476B
:10BF600051DF704710DF704761DF704708B5081C6C
:10BF7000111CFEF7B7FB08BDF0B557464E464546C7
:10BF8000E0B4314B314E1D6899466B425D41304BF8
:10BF9000B2461C68984663425C412E4F82B0EDB2B7
:10BFA000E4B2002D08D0002C27D002B01CBC904673
:10BFB0009946A246F0BD012401A8FFF7D1FF05284C
:10BFC00031D000282AD000210022FCF7EFF9002C04
:10BFD000F1D16A461D4B01A91B8893801D4B1C683B
:10BFE000201CFFF7C1FF0528E5D0002810D0002154
:10BFF0000022FCF7DBF90024D3E73C68338801A971
:10C00000201C0B80FFF7B0FF0528CED00028EED112
:10C010004346201C1B6898470024C2E74B46019802
:10C020001B689847D3E7002CBFD153466A461B884C
:10C0300001A99380074B01251C68201CFFF794FF82
:10C040000528D2D1B1E7C0469C28002096280020C0
:10C05000A02800209828002038B5041C07200029BB
:10C0600001D08D0700D038BD094801600949201C66
:10C070000A80094A09491360FFF774FF0028F2D1CA
:10C080000122074B16301A70FFF768FFEBE7C04636
:10C090009828002096280020A42800206DBF0100C9
:10C0A00094280020002803D0024B1860002070471D
:10C0B0000E20FCE7A028002008B50A4B1B68002BC7
:10C0C00008D09847002800D108BD00210022FCF7C5
:10C0D0006DF9F9E7044B1B78002BF5D0FFF74CFF07
:10C0E000F2E7C046A42800209428002003210A4833
:10C0F00002680A430260094802680A43026008496C
:10C10000084A094B9B1A03DD043BC858D050FBDC9E
:10C110000648804706480047240500405405004073
:10C12000C8D201000020002070200020C1BE010004
:10C13000C1800100FEE7FEE7FEE7FEE7FEE7FEE75F
:10C14000002243088B4274D303098B425FD3030A56
:10C150008B4244D3030B8B4228D3030C8B420DD369
:10C16000FF22090212BA030C8B4202D312120902F7
:10C1700065D0030B8B4219D300E0090AC30B8B4235
:10C1800001D3CB03C01A5241830B8B4201D38B03E3
:10C19000C01A5241430B8B4201D34B03C01A524188
:10C1A000030B8B4201D30B03C01A5241C30A8B42CB
:10C1B00001D3CB02C01A5241830A8B4201D38B02B6
:10C1C000C01A5241430A8B4201D34B02C01A52415A
:10C1D000030A8B4201D30B02C01A5241CDD2C309CC
:10C1E0008B4201D3CB01C01A524183098B4201D348
:10C1F0008B01C01A524143098B4201D34B01C01A33
:10C20000524103098B4201D30B01C01A5241C308AA
:10C210008B4201D3CB00C01A524183088B4201D319
:10C220008B00C01A524143088B4201D34B00C01A05
:10C230005241411A00D20146524110467047FFE771
:10C2400001B5002000F00CF802BDC0460029F7D06F
:10C2500003B5FFF775FF0EBC4243891A1847C04665
:10C260007047C046002310B5934203D0CC5CC45441
:10C270000133F9E710BD00000FB40B4B13B51C6878
:10C28000002C05D0A369002B02D1201C00F058F827
:10C2900005AB201CA168049A019300F063F916BC59
:10C2A00008BC04B01847C046602000200023C25CD0
:10C2B0000133002AFBD1581E7047000008B502491F
:10C2C00000F0AEF808BDC04645CE0100002310B511
:10C2D000041C03604360836081814366C281036103
:10C2E00043618361191C08225C30FBF761FF054B39
:10C2F00024626362044BA362044BE362044B236336
:10C3000010BDC046B5CA0100DDCA010015CB010051
:10C3100041CB010070B568254B1E5D430E1C291CE6
:10C32000743100F09FF8041E08D000212A1C01601F
:10C3300046600C30A0606832FBF73AFF201C70BDED
:10C34000836913B5002B28D18364C3640365134B41
:10C35000134A1B6882620193984201D101238361D1
:10C36000041C00F01FF86060201C00F01BF8A060A7
:10C37000201C00F017F80421E06000226068FFF73D
:10C38000A5FFA06809210122FFF7A0FFE0681221A4
:10C390000222FFF79BFF0123A36113BD00D101001F
:10C3A000BDC20100F8B51D4B061C1D68AB69002B12
:10C3B00002D1281CFFF7C4FF4835AC686B68013B0D
:10C3C00005D40C22A75E002F10D06834F7E72B6845
:10C3D000002B06D1301C0421FFF79CFF28600028A9
:10C3E00001D02D68E9E70C23336016E00123201CFF
:10C3F0005B42E3810233A38167662760A7606760C1
:10C4000027616761A7615C30391C0822FBF7D0FE09
:10C41000201C6763A763A764E764F8BD00D101002F
:10C42000F7B5041C071C002601914834002C16D0D7
:10C430006368A5680093009B013B00930DD4AB8912
:10C44000012B08D90E22AB5E013304D0381C291C05
:10C45000019B984706436835EDE72468E6E7301C02
:10C46000FEBD0000032370B5CC1C9C430834051CA2
:10C470000C2C01D20C2405E0002C03DA0C23002044
:10C480002B6042E08C42F9D3204A1368101C191C1F
:10C49000002913D00A68121B0DD40B2A02D90A6096
:10C4A0008B181FE08B4202D15A6802601BE04A6879
:10C4B0005A600B1C17E00B1C4968E9E7144E3368FF
:10C4C000002B03D1281C00F0E3FA3060281C211C4B
:10C4D00000F0DEFA031C421CD0D00322C61C964397
:10C4E00086420AD11C60181C07210B301A1D884394
:10C4F000821A0AD05142995007E0311A281C00F0E4
:10C50000C7FA431CBAD0331CECE770BDAC2800203E
:10C51000A8280020936810B5013B9360002B05DA32
:10C520009469A34208DBCBB20A2B05D01368581CD0
:10C5300010601970C8B201E000F008FB10BDF8B53A
:10C54000061C0F1C141CD518AC4208D02178301CD6
:10C550003A1CFFF7DFFF0134431CF5D100E0002057
:10C56000F8BD0000F0B59FB0061C0F1C02920593A9
:10C57000002804D08369002B01D1FFF7E1FE794B3D
:10C580009F4201D1776808E0774B9F4201D1B7689D
:10C5900003E0764B9F4200D1F768BB891B070AD5A1
:10C5A0003B69002B07D0002306AD6B6120336B760F
:10C5B0001033AB763DE0301C391C00F033FB002813
:10C5C000F1D001204042CAE0059A111D1268059180
:10C5D000002A7EDB0992013423782E2B00D189E0DA
:10C5E00021786348032200F0C5FC002808D0604B86
:10C5F0000134C01A40238340181C2B68184328605C
:10C600002178631C5B4806220293297600F0B2FC75
:10C61000002800D191E0584B002B00D084E0072285
:10C62000059B07339343083305936B69039A9B1863
:10C630006B61029C2378002B04D1029BE31A0493C4
:10C6400011D003E0252BF8D00134F3E7049B301C14
:10C65000391C029AFFF773FF431C7BD06A69049B65
:10C66000944663446B612378002B73D0012200232E
:10C6700052426A6002A95432521801342B60EB60B6
:10C68000AB601370AB6521783C48052200F072FC6A
:10C69000002809D0394B0134C01A01238340181CEB
:10C6A0002B6818432860EEE72B68DA0604D553227E
:10C6B000202102A8121811701A0704D553222B2129
:10C6C00002A81218117022782A2A00D17CE7099B4F
:10C6D00005E05242EA60022213432B607BE7227896
:10C6E000303A092A04D80A214B4301349B18F6E753
:10C6F000099371E763782A2B09D1059B02341A1D2F
:10C700001B680592002B0DDA01235B420AE000232F
:10C7100001342278303A092A04D80A214B430134E3
:10C720009B18F6E707935BE705AB0093301C291CC9
:10C730003A1C134B00E000BF07E005AB0093301C30
:10C74000291C3A1C0E4B00F08BF80390039B01331D
:10C7500000D06AE7BB895B0600D532E70B981FB0B3
:10C76000F0BDC0462CD201004CD201006CD20100B9
:10C7700092D2010096D20100000000008CD201008C
:10C780003FC50100F7B5171C01930A698B6800903B
:10C790000C1C934200DA131C221C3B6043321278BB
:10C7A000002A01D001333B6023689B0602D53B6819
:10C7B00002333B60062523681D401ED0231C4333F3
:10C7C0001B785A1E9341226892061CD53020E1182E
:10C7D0004031C870211C5A1C45310978A2184032DA
:10C7E0000233D1700FE0221C012300980199193205
:10C7F000089EB047431C0ED00135E3683A689B1A87
:10C800009D42F0DBDAE7221C009801994332089D33
:10C81000A847431C02D10120404220E006232068A3
:10C82000E1683A6803400025042B03D18D1AEB43DD
:10C83000DB171D40A3682269934201DD9B1AED18A6
:10C840000027AF420ADA221C0123009801991A320C
:10C85000089EB047431CDED00137F2E70020FEBD42
:10C86000F0B58BB006920A1C4332079305900492F0
:10C870000A7E0C1C109B6E2A00D1A8E011D8632AF6
:10C8800022D009D8002A00D1B2E0582A00D0C2E054
:10C8900045310A707C4A4FE0642A1DD0692A1BD0BA
:10C8A000B9E0732A00D1A7E009D86F2A29D0702AED
:10C8B00000D0B0E0202209680A43226037E0752AE0
:10C8C0001FD0782A33D0A6E00E1C1A684236111DFC
:10C8D000196013683370A1E021681A68080606D44D
:10C8E000490604D5111D19600023D55E02E0111D13
:10C8F00019601568002D3BDA2D23049A6D421370E0
:10C9000036E021681A68080606D4490604D5156879
:10C91000111D1960ADB202E0111D196015685A4B66
:10C92000227E03930A276F2A1DD108271BE0221CB1
:10C93000782145321170554A19680392081D226802
:10C9400018600D68100602D4500600D5ADB2D307AA
:10C9500002D520231A4322601027002D03D1202363
:10C9600022689A432260231C002243331A7002E09B
:10C970000A27454B03936368A360002B03DB042263
:10C98000216891432160002D02D1049E002B0ED01E
:10C99000049E281C391CFFF759FC039B013E5B5C7D
:10C9A000281C3370391CFFF7CBFB051EF1D1082F73
:10C9B00009D12368DB0706D563682269934202DC4C
:10C9C0003023013E3370049B9B1B23612BE00968DD
:10C9D0001A68080607D4490605D5111D19601368A1
:10C9E000A28A1A8004E0111D1960136862691A6036
:10C9F0000023049E236116E01A68111D1960166851
:10CA00000021301C626800F0B5FA002801D0801BBC
:10CA10006060636803E0261C4236327001232361A4
:10CA20000023049A1370079B05980093211C069B12
:10CA300009AAFFF7A7FE431C02D10120404221E0D2
:10CA4000236905980699321C079DA847431CF4D01A
:10CA500023689B0705D4099BE068984212DA181CEA
:10CA600010E00025E368099A9B1A9D42F3DA221C24
:10CA70000123059806991932079EB047431CDCD064
:10CA80000135EFE70BB0F0BD9DD20100AED2010041
:10CA900038B50023064C051C081C236000F014FB6D
:10CAA000431C03D12368002B00D02B6038BDC04647
:10CAB000B428002038B50C1C0E25495F00F0ACFAF4
:10CAC000002803DB636D1B18636503E0A289024B3A
:10CAD0001340A38138BDC046FFEFFFFFF8B51E1C11
:10CAE0008B89051C0C1C171CDB0505D50E23C95EA4
:10CAF0000022022300F0D2F9A289054B281C134022
:10CB0000A3813A1C0E23E15E331C00F077F8F8BDD8
:10CB1000FFEFFFFF38B50C1C0E25495F00F0BEF992
:10CB2000A389421C03D1054A1340A38104E080225B
:10CB300052011343A381606538BDC046FFEFFFFF7C
:10CB400008B50E23C95E00F0E1F808BD70B5051CFC
:10CB50000E1C141C002804D08369002B01D1FFF7A0
:10CB6000EFFB234B9C4201D16C6808E0214B9C42B7
:10CB700001D1AC6803E0204B9C4200D1EC68A36972
:10CB8000A360A3891B070AD52369002B07D023685C
:10CB90002269F6B2981A636998420FDB08E0281CF4
:10CBA000211C00F03FF80028F1D0012040421DE098
:10CBB000281C211C00F046F90028F6D1A36801309A
:10CBC000013BA36023685A1C22601E70636998426F
:10CBD00005D0A389301CDB0708D50A2E06D1281CF6
:10CBE000211C00F02FF90028DFD1301C70BDC04699
:10CBF0002CD201004CD201006CD2010038B5051CCA
:10CC00000020074C2060081C111C1A1CFCF706F9B8
:10CC1000431C03D12368002B00D02B6038BDC046D5
:10CC2000B4280020354B70B51D68061C0C1C002D67
:10CC300005D0AB69002B02D1281CFFF781FB304BDC
:10CC40009C4201D16C6808E02E4B9C4201D1AC683B
:10CC500003E02D4B9C4200D1EC68A3899AB21107E6
:10CC600023D4D10607D4092201203260373213437E
:10CC7000A381404240E0530713D5616B002908D0DF
:10CC8000231C4433994202D0301C00F07FF900236A
:10CC900063632422A3899343A381002363602369F0
:10CCA00023600822A3891343A3812369002B0BD19E
:10CCB000A023A2899B00134080229200934203D0BC
:10CCC000301C211C00F0FEF80123A289134005D07E
:10CCD0000023A36063695B42A36103E0910700D472
:10CCE0006369A36000202369834205D1130603D53D
:10CCF00040231A43A281013870BDC0466020002045
:10CD00002CD201004CD201006CD2010038B50023B6
:10CD1000064C051C081C236000F0B6F9431C03D127
:10CD20002368002B00D02B6038BDC046B4280020FB
:10CD3000F7B58A89051C0C1C13075ED44B68002BC1
:10CD400002DC0B6C002B1ADDE76A002F17D00023E2
:10CD50002E682B6080235B011A4001D0626D15E0C4
:10CD6000281C216A0123B847021C431C0ED12B68E2
:10CD7000002B0BD01D2B01D0162B02D12E600020D2
:10CD80005EE04021A3890B43A38159E0A3895B079F
:10CD900006D56368D21A636B002B01D0236CD21ABC
:10CDA0000023281C216AE76AB847A389421C06D1E0
:10CDB0002A68002A03D01D2A01D0162A19D1002280
:10CDC000626022692260DB0405D5431C02D12B6816
:10CDD000002B00D16065616B2E600029CFD0231C31
:10CDE0004433994202D0281C00F0D0F80020606340
:10CDF00026E040221343A38122E00F69002FBED01A
:10CE00000B680F60DB1B01930023920700D14B6975
:10CE1000A360019B002BB2DD281C216A3A1C019BF8
:10CE2000A66AB047002806DC40220120A3894042C0
:10CE30001343A38104E0019B3F181B1A0193E8E709
:10CE4000FEBD000038B50B69051C0C1C002B01D180
:10CE500000201CE0002804D08369002B01D1FFF7DB
:10CE60006FFA0B4B9C4201D16C6808E0094B9C4265
:10CE700001D1AC6803E0084B9C4200D1EC680C2265
:10CE8000A35E002BE4D0281C211CFFF751FF38BD06
:10CE90002CD201004CD201006CD2010038B5051C27
:10CEA0000020074C2060081C111C1A1C00F004F91B
:10CEB000431C03D12368002B00D02B6038BDC04633
:10CEC000B4280020F0B58B8991B09B0706D50B1CC8
:10CED00047330B600B6101234B6145E00C1C0E23B3
:10CEE000C95E061C002904DA8023A5891D4010D1E3
:10CEF0000CE001AA00F0A4F80028F5DBF023029D65
:10CF00001B021D40194BED186B425D418027FF004D
:10CF100001E000254027301C391CFFF7A3FA002848
:10CF20000CD1A3899A051FD402221343A381231C89
:10CF30004733236023610123636115E080220C4B9A
:10CF4000B362A38920601343A38120616761002D30
:10CF50000AD00E23E15E301C00F084F8002803D0D4
:10CF60000122A3891343A38111B0F0BD00E0FFFFAC
:10CF7000BDC20100C9B28218904204D003788B422E
:10CF800002D00130F8E700207047000030B50029DA
:10CF90003ED004390B68002B00DAC9181D4A13680B
:10CFA000141C002B02D14B60116031E099420DD26C
:10CFB00008680A189A4203D11368C3180B605368B3
:10CFC0004B60216024E08A4203D8131C5A68002A6F
:10CFD000F9D11D685C198C420BD109686918581881
:10CFE0001960904214D110685268091819605A608B
:10CFF0000EE08C4202D90C23036009E008680C188B
:10D00000944203D114685268001908604A6059605C
:10D0100030BDC046AC28002038B5051C0020074CA8
:10D020002060081C111C1A1CFBF706FF431C03D1CF
:10D030002368002B00D02B6038BDC046B4280020E8
:10D0400038B50023064C051C081C111C236000F099
:10D0500023F8431C03D12368002B00D02B6038BD7C
:10D06000B428002038B50023064C051C081C23609A
:10D0700000F01AF8431C03D12368002B00D02B606A
:10D0800038BDC046B428002058220120014B404240
:10D090001A607047B428002058220120014B4042FA
:10D0A0001A607047B42800205822024B00201A60F2
:10D0B0007047C046B428002058220120014B40424E
:10D0C0001A607047B4280020044A1368002B03D06C
:10D0D00018181060181C7047014BF9E7B0280020A1
:10D0E000B8280020F8B5C046F8BC08BC9E4670477A
:10D0F000F8B5C046F8BC08BC9E4670474300000027
:10D1000000200020509C0100669C0100669C0100EC
:10D110007C9B0100C09B0100EE9C01002E9D010044
:10D12000E29C0100509B01000C9B0100509B010000
:10D130000C9B01003C9B0100109C0100109C010015
:10D14000109C0100109C0100109C0100D89C010063
:10D15000F29B0100BA9C01009C9C01003C9B0100D9
:10D160003C9B0100589F0100749F0100749F0100C7
:10D17000FA9F01002CA00100AEA00100F0A0010068
:10D1800062A00100849E0100549E0100849E010063
:10D19000549E0100BE9F0100B09E0100B09E0100A0
:10D1A000B09E0100B09E0100B09E0100FA9E0100F9
:10D1B000189F0100D49F010088A001003E9F01003C
:10D1C0003E9F01001100000012000000130000004B
:10D1D0001400000011000300219A01001200030056
:10D1E000219A010013000300219A0100140003009A
:10D1F000219A01000B09080A0100000000509D005F
:10D200004E6F726469635F5541525400257300008C
:10D2100053746172742E2E2E0A0000009ECADC2404
:10D220000EE5A9E093F3A3B50000406E00000000F6
:10D2300000000000000000000000000000000000EE
:10D2400000000000000000000000000000000000DE
:10D2500000000000000000000000000000000000CE
:10D2600000000000000000000000000000000000BE
:10D2700000000000000000000000000000000000AE
:10D28000000000000000000000000000232D302BF3
:10D290002000686C4C0065666745464700303132B7
:10D2A000333435363738394142434445460030310E
:10D2B000323334353637383961626364656600006D
:08D2C00000AEFF7F0100000039
:10D2C800000000002CD201004CD201006CD20100F9
:10D2D8000000000000000000000000000000000046
:10D2E800FCD0010000000000000000000000000069
:10D2F8000000000000000000000000000000000026
:10D308000000000000000000000000000000000015
:10D318000000000000000000000000000000000005
:10D32800002000200100000001000200FFFFFFFFB5
:040000031000C0ED3C
:00000001FF
