:10000000008000200D03000055030000570300008E
:1000100000000000000000000000000000000000E0
:100020000000000000000000000000005903000074
:1000300000000000000000005B0300005D03000002
:100040005F0300005F0300005F0300005F03000028
:100050005F030000000000005F0300005F0300007A
:100060005F0300005F0300005F0300005F03000008
:100070005F0300005F0300005F0300005F030000F8
:100080005F0300005F0300005F0300005F030000E8
:100090005F0300005F0300005F0300005F030000D8
:1000A0005F0300005F03000000000000000000008C
:1000B0000000000000000000000000000000000040
:1000C000164B002B00D1144B9D46402292029A1AE7
:1000D000924600218B460F461348144A121A00F02C
:1000E00067F80F4B002B00D098470E4B002B00D029
:1000F00098470020002104000D000D48002802D080
:100100000C4800E000BF00F02DF82000290000F0AE
:10011000A7F800F011F8C046000008000080002099
:1001200000000000000000006000002060000020CF
:100130000000000000000000084B10B5041C002B5C
:1001400002D0002100E000BF054B1868836A002B35
:1001500000D09847201C00F033F8C0460000000093
:100160007C0300000E4B70B500251E1C0D4CE41ADC
:10017000A410A54204D0AB00F35898470135F8E726
:1001800000F0EEF8084B00251E1C084CE41AA410E1
:10019000A54204D0AB00F35898470135F8E770BD8D
:1001A000600000206000002060000020600000204F
:1001B000031C8218934202D019700133FAE770478A
:1001C000FEE7C0461F4B1B78012B00D070471E4B2B
:1001D0001B681B07FAD1F0221C4B1B68134018D177
:1001E0001B4B1B6813421AD0174B1B681B07EDD122
:1001F000F022164B1B681340402BE7D1144B1B68B1
:100200001342E3D1C12380220121DB00D205D1506A
:10021000DCE7102B0FD10E4B1B681342E8D10D4ABF
:100220000D4B1A6080220D4B12021A60054B1B7891
:10023000012BD9D0CAE7302BDAD1054B1B6813420A
:10024000D6D1ECE7E00F00F0E40F00F0E80F00F08B
:10025000EC0F00F0DFFF07C004050040186C004001
:10026000F8B5A020F0250023012403216D04C0056A
:100270000133202B0BD02A1C1A411442F8D01A1C2F
:10028000C132FF32920001331150202BF3D1A0254F
:100290000C4F0D4EED05002401223B5DA9599A40FB
:1002A000131C101CA1228843D200A850FA20074A30
:1002B0000B40AB504000013400F00AF8042CEBD1A5
:1002C000E9E7C04680030000040500000C050000BB
:1002D00082B00190019B002B14D0019B0A48013B86
:1002E00001930138C046C046C046C046C046C0461D
:1002F000C046C046C046C046C046C046F1D1019B7C
:10030000002BEAD102B07047E703000003210A483E
:1003100002680A430260094802680A430260084909
:10032000084A094B9B1A03DD043BC858D050FBDC3C
:100330000648804706480047240500405405004011
:100340008C0300000000002060000020C5010000B8
:10035000C1000000FEE7FEE7FEE7FEE7FEE7FEE77E
:10036000F8B5C046F8BC08BC9E467047F8B5C04614
:10037000F8BC08BC9E467047430000000000002007
:04038000151617181F
:080384003CFDFF7F01000000B9
:10038C000000000000000000000000000000000061
:10039C000000000000000000000000000000000051
:1003AC0078030000000000000000000000000000C6
:1003BC000000000000000000000000000000000031
:1003CC000000000000000000000000000000000021
:1003DC000000000000000000000000000000000011
:040000030000030DE9
:00000001FF
