:10000000008000204D0800009508000097080000BF
:1000100000000000000000000000000000000000E0
:10002000000000000000000000000000990800002F
:1000300000000000000000009B0800009D08000078
:100040009F0800009F0800009F0800009F08000014
:100050009F08000000000000610600009F080000EB
:100060009F0800009F0800009F0800009F080000F4
:100070009F0800009F0800009F0800009F080000E4
:100080009F0800009F0800009F0800009F080000D4
:100090009F0800009F0800009F0800009F080000C4
:1000A0009F0800009F080000000000000000000002
:1000B0000000000000000000000000000000000040
:1000C000164B002B00D1144B9D46402292029A1AE7
:1000D000924600218B460F461348144A121A00F02C
:1000E00067F80F4B002B00D098470E4B002B00D029
:1000F00098470020002104000D000D48002802D080
:100100000C4800E000BF00F02DF82000290000F0AE
:10011000ADF800F011F8C046000008000080002093
:100120000000000000000000600000209800002097
:100130000000000000000000084B10B5041C002B5C
:1001400002D0002100E000BF054B1868836A002B35
:1001500000D09847201C00F033F8C0460000000093
:10016000D00800000E4B70B500251E1C0D4CE41A83
:10017000A410A54204D0AB00F35898470135F8E726
:1001800000F098FB084B00251E1C084CE41AA41034
:10019000A54204D0AB00F35898470135F8E770BD8D
:1001A000600000206000002060000020600000204F
:1001B000031C8218934202D019700133FAE770478A
:1001C000FEE7C0461F4B1B78012B00D070471E4B2B
:1001D0001B681B07FAD1F0221C4B1B68134018D177
:1001E0001B4B1B6813421AD0174B1B681B07EDD122
:1001F000F022164B1B681340402BE7D1144B1B68B1
:100200001342E3D1C12380220121DB00D205D1506A
:10021000DCE7102B0FD10E4B1B681342E8D10D4ABF
:100220000D4B1A6080220D4B12021A60054B1B7891
:10023000012BD9D0CAE7302BDAD1054B1B6813420A
:10024000D6D1ECE7E00F00F0E40F00F0E80F00F08B
:10025000EC0F00F0DFFF07C004050040186C004001
:1002600008B5152000F01AF908BDC04610B582B0D7
:1002700000F080F8002827D100236A46152069463F
:100280001380937000F0A0F8002818D101AC114938
:100290000422201C00F004FB03231120211C0E4A21
:1002A000637000F011F9002804D11120012100F041
:1002B00085F9FEE70021002200F010F8F5E70021A3
:1002C000002200F00BF8E1E70021002200F006F820
:1002D000D2E7C046D408000061020000BFF34F8F90
:1002E000024A034BDA60BFF34F8FFEE70400FA05C2
:1002F00000ED00E0F0B5002820DBFF271B4B0322B8
:100300009C463B1C8408C026C0B20240D2009340E9
:10031000A4006444B600A5599D438B013B40934023
:10032000191C2943A1511F2318401E3B8340C022A2
:10033000181C0E4B520098501860F0BDFF260C4A56
:1003400003249446321C0F23C0B20440E400A240B0
:100350000340083B9B089B006344DD6995438A0189
:100360003240A240111C2943D961DCE700E100E0E2
:1003700000ED00E038B53525114C0820635D002BF9
:1003800000D038BD3422013B6361A361E361236285
:100390006362A362E362236302380121A3542360F2
:1003A0006360A360E3602361FFF7A4FF8021C123A2
:1003B000044A9B000906D150012300206355E0E761
:1003C0006000002000600040F0B514252F4B021C97
:1003D0001C1865570820013500D0F0BD887800282A
:1003E00033D0186801304AD05868013049D0986835
:1003F000013048D0DC68042003260134EDD1981880
:1004000006750020A227B6009851214BFF00F31873
:10041000DE59204D0C78354080264878DD51DD5975
:1004200076030005AC4630402504C0262C1CB602DD
:1004300034402043F824051C640110020440281CA9
:10044000204364462043D85101E0FE232375131C4A
:10045000A0240320C133FF339B00E40518514B78DF
:10046000012B05D0012090400B4BE0500020B4E759
:1004700093401A1CA123DB00E2500020ADE70026C8
:10048000BDE70126BBE70226B9E7C04660000020B1
:1004900000600040FFE0ECFF0C050000A0220121FD
:1004A00010B5074BD205D3580C1CC34084401942E9
:1004B00002D0044BD45010BDA123DB00D450FAE786
:1004C000040500000C050000F0B5394B08241D1888
:1004D0002E7D7F2E01D8201CF0BDCE78002E33D08B
:1004E0001C68013460D05C680125013409D09C6827
:1004F0000225013405D0DC680135013401D0042423
:10050000E9E71F18ECB23C75AF00DA51002E02D1BA
:100510005D192C3528718A78002A1DD1021CA0266D
:100520004D78C132FF32AD009200F6059551CA7880
:10053000002A1DD164B21B190A782C331979920153
:100540000A431A710024C6E71C690134D7D1042478
:100550002C751A61251CDBE7A025ED05AC46E026CD
:10056000022782006244F6009559BD439551DEE7AB
:1005700064B2104BA400E318A224E4000A781D59C9
:100580000D49000229401951F82149010840061C73
:10059000C0211004021C301C89021D590A4010435E
:1005A00028431851002496E700242C751A60B2E7FE
:1005B0006000002000600040FFE0FCFFF0B5254C2B
:1005C00025182A7D53B2032B18DDE3182C331B7931
:1005D0009B09032B32D0012B39D0C025AD02A023BB
:1005E000DB059C46E02380006044DB00C4581A49C8
:1005F0002140C150C2582A43C250F0BD032AFCD842
:100600001648A227844601269A006244FF00D0596A
:100610003043D0511A1C604600274032920092B2FB
:1006200017500029E9D01422AA5692001259002A24
:10063000E3D0C1229E4092008650DEE7A223A02292
:10064000DB00D205D258012383401A42C5D1802550
:10065000AD02C4E760000020FFFFFCFF0060004027
:10066000F8B5704A00241368012B4CD06E4B1A6801
:10067000012A54D06D4B1A68012A5ED06C4B1A685F
:10068000012A68D06B4B00251A68012A00D173E05B
:1006900023070BD0E30700D584E0A30700D590E043
:1006A000630700D59BE0230700D56FE0002C00DB3B
:1006B000F8BD3422604B995C4AB20132F8D0C9B21D
:1006C000C022081C90431A18127D52B29200D658CC
:1006D000002EEDD0A0230124DB059C46E023C0279B
:1006E000844082006244DB00D358BF023B4089094A
:1006F0001B0C2C4200D182E0022BD9D1032900D15E
:1007000085E0B047D4E7C1214C48890041580B42ED
:10071000ACD0454B14601A680134012AAAD1C12219
:1007200046499200895802220A42A3D0002119604A
:100730003E4B14431A68012AA0D1C1223F499200BE
:10074000895804220A4299D000211960384B144379
:100750001A68012A96D1C122384992008958082284
:100760000A4200D18EE700211960324B14431A6807
:100770000025012A00D08BE71D6080231B061C4347
:10078000A022A223D205DB00D55881E72B4A2C4BAF
:10079000D058D158284BC0048903C00E890FDB689C
:1007A000984783E7A223254ADB00D058D158224B33
:1007B000C00489031B68C00E890F9847A30700D4A3
:1007C0006EE7204B1D4AD058D1581B4BC0048903FB
:1007D0005B68C00E890F9847630700D463E7A323C3
:1007E000164ADB00D058D158134BC00489039B68CC
:1007F000C00E890F9847230700D457E7C6E7032B9D
:1008000000D055E7032900D07BE78027BF02E02313
:10081000DB00D5580C4C2C40D450D4582743D7502B
:10082000B04745E7006100400461004008610040B6
:100830000C6100407C6100406000002000600040CE
:100840001C05000014050000FFFFFCFF03210A48FF
:1008500002680A430260094802680A4302600849C4
:10086000084A094B9B1A03DD043BC858D050FBDCF7
:1008700006488047064800472405004054050040CC
:10088000E00800000000002060000020C50100001A
:10089000C1000000FEE7FEE7FEE7FEE7FEE7FEE739
:1008A000002310B5934203D0CC5CC4540133F9E764
:1008B00010BD0000F8B5C046F8BC08BC9E467047A5
:1008C000F8B5C046F8BC08BC9E467047430000001F
:0808D0000000002003000001FC
:0808D800E8F7FF7F01000000BA
:1008E0000000000000000000000000000000000008
:1008F00000000000000000000000000000000000F8
:10090000CC08000000000000000000000000000013
:1009100000000000000000000000000000000000D7
:1009200000000000000000000000000000000000C7
:1009300000000000000000000000000000000000B7
:040000030000084DA4
:00000001FF
